:10110000A8EF08F0FFFFFFFF5B8273EF4FF0FFFFD8
:10111000FFFFFFFFFFFFFFFF5B80D8CF66F0E8CF48
:1011200067F0E0CF68F0FACF69F0FBCF6AF0F2BA6F
:10113000F2A402D090EC77F06AC0FBFF69C0FAFF1E
:1011400068C0E0FF67C0E8FF66C0D8FF5B90100092
:10115000E3EF36F00002F2BEEDACEDB2B1CCBD4033
:10116000F14CC9FEF1FAF1F6F1F2F1A2F19CF1961F
:10117000F128F0BAD51AC0010003000100010000F7
:10118000000A00000064000000E8030000102700CF
:1011900000A086010040420F008096980000E1F513
:1011A0000500CA9A3BC6ECDEF112F2A6DCDAECE2EC
:1011B000F114F2D6DC5EEB20F1CEF176DCB2ECDAA3
:1011C000F1CAF146DC4573207775726465206B6562
:1011D000696E65206572666F6C67726569636865C4
:1011E000204B616C696272696572756E6720766FFB
:1011F0007267656E6F6D6D656E202D206469652068
:1012000070482D576572742D416E7A656967652047
:10121000697374206D94676C69636865727765693A
:101220007365206665686C657268616674202D2040
:10123000776F6C6C656E20536965207769726B6C93
:1012400069636820666F727466616872656E3F2EAE
:101250002E2E2E20004E6F2073652068612072654F
:10126000616C697A61646F20756E612063616C697D
:101270006272616369E26E20636F727265637461AA
:10128000202D206C6173206C65637475726173200E
:10129000646520704820706F6472E1616E20736530
:1012A0007220696D7072656369736173202D209F70
:1012B000657374E02073656775726F2064652071D3
:1012C000756520646573656120636F6E74696E7502
:1012D00061723F2E2E2E2000417563756E20827440
:1012E000616C6F6E6E6167652072827573736920C1
:1012F0006E276120827482206566666563747582DC
:10130000202D206C6573206C656374757265732085
:10131000646520704820706F7572726F6E742088DB
:1013200074726520696E65786163746573202D2021
:10133000887465732D766F7573207396722064655B
:1013400020766F756C6F697220636F6E74696E754D
:101350006572203F2E2E2E20004572206973206773
:1013600065656E206765736C6161676465206B619C
:101370006C69627261746965207569746765766FFE
:10138000657264202D2070482D6D6574696E6765E7
:101390006E207A6F7564656E206F6E6E6175776B07
:1013A0006575726967206B756E6E656E207A696A05
:1013B0006E202D2062656E742075207A656B6572D3
:1013C0002064617420752077696C7420646F6F727B
:1013D0006761616E3F2E2E2E20004E6F2073756365
:1013E0006365737366756C2063616C6962726174A6
:1013F000696F6E20686173206265656E207065722A
:10140000666F726D6564202D20704820726561647E
:10141000696E677320636F756C6420626520696E06
:101420006163637572617465202D20617265207936
:101430006F75207375726520796F752077616E7492
:1014400020746F2070726F636565643F2E2E2E20AE
:1014500000207374656C6C656E2C203C63616C3E7F
:1014600020647281636B656E2C20756D20666F72CF
:10147000747A7566616872656E2E20536965206B9B
:10148000946E6E656E206A656465727A6569742013
:101490003C053E20647281636B656E2C20756D2067
:1014A000646965204B616C696272696572756E670B
:1014B0002061627A756272656368656E2E20200015
:1014C0002C2070756C736172203C63616C3E2070DF
:1014D00061726120636F6E74696E7561722E205047
:1014E000756C736172203C053E20656E20637561EA
:1014F0006C7175696572206D6F6D656E746F2070AB
:101500006172612063616E63656C6172206C612041
:1015100063616C696272616369E26E2E2020002C47
:101520002070726573736572203C63616C3E20703D
:101530006F757220636F6E74696E7565722E2050C0
:10154000726573736572203C053E208520746F754B
:1015500074206D6F6D656E7420706F757220616E92
:101560006E756C6572206C278274616C6F6E6E6133
:1015700067652E2020002C206472756B206F702010
:101580003C63616C3E206F6D20646F6F72207465E8
:10159000206761616E2E204472756B206F70203C55
:1015A000053E206F6D206B616C69627261746965C4
:1015B00020746520616E6E756C6572656E2E2000FC
:1015C0002C207072657373203C63616C3E20746FD5
:1015D00020636F6E74696E75652E2050726573732B
:1015E000203C053E20616E7974696D6520746F2022
:1015F00063616E63656C2063616C696272617469BA
:101600006F6E2E200052696E636572206C612073CC
:101610006F6E64652064652070482C206C612070BA
:101620006C616365722064616E73206C6120736FFE
:101630006C7574696F6E2000456E6A7561676172C2
:10164000206C6120736F6E64612064652070482C8B
:1016500020636F6C6F63617220656E20004173734D
:10166000657274696F6E206661696C65643A2025E5
:1016700073206C696E652025643A20222573220A46
:1016800000636F6E6669672D3E736176655365749E
:1016900074696E677320213D2028302900636F6EC6
:1016A0006669672D3E70726F7669646553697A6505
:1016B00020213D202830290053706F656C20704830
:1016C0002D70726F62652C20706C6161747320697B
:1016D0006E2000636F6E6669672D3E777269746570
:1016E000427974657320213D202830290052696EAB
:1016F00073652070482050726F62652C20706C6199
:10170000636520696E2000636F6E6669672D3E72A7
:10171000656164427974657320213D202830290079
:101720007772697465506572696F64203E207461D8
:10173000736B506572696F640070482D536F6E64EF
:10174000652061627370816C656E2C20696E20006B
:101750007372632F5461736B732F726164696F547A
:1017600061736B2E63007372632F526164696F2F14
:10177000726164696F2E63005420616374697661DD
:10178000646F2028736567290054656D7073206D40
:10179000617263686520287329009074616C6F6EB4
:1017A0006E6572207048342F3130005A656974209C
:1017B000616267656C2E21203C063E00546D656FAA
:1017C0007574207672737472203C063E0044826CFD
:1017D000616920657870697282213C063E00536918
:1017E0006E6420536965207369636865723F0049C0
:1017F0006E73742076657265697374652070480035
:101800004573207775726465206B65696E65204B42
:10181000004E6F207375636365737366756C206328
:1018200061004572206973206765656E2067657386
:101830006C61004E6F207365206861207265616C79
:10184000697A6100417563756E208274616C6F6E98
:101850006E616765007048342F31302043616C69D8
:101860006272617465005282676C657220636F6E8C
:10187000747261737465004D6F6E69746F72696E16
:10188000672062657A696700546572756773746C66
:101890006C6E2062657A6967007048342D4B616C0C
:1018A000696272696572756E67007048372D4B61A9
:1018B0006C696272696572756E67007374616E64DB
:1018C000616172647761617264656E005282696EF3
:1018D000697469616C69736174696F6E0070483412
:1018E0002F3130206B616C69627265726E004472D8
:1018F0006B206F702004206F6D2074652070006471
:10190000826661757420726573746175728273008A
:101910005282676C657220704820726571756973B8
:10192000005265737420616A757320707265646516
:10193000740045696E73742E205281636B6C696309
:10194000687400526573657420746F204465666125
:10195000756C74004163687472677276726C206291
:10196000696A737400416A7573746172206C757A68
:1019700020706F7374005465727567206F702073E8
:10198000746E6472647700526573746F726564205C
:10199000466163746F7279006F757443617061633F
:1019A000697479203E20330041616E2D74696A6448
:1019B00020287365632E2900417566205A65697475
:1019C000202853656B2E29005569742D74696A644B
:1019D00020286D696E2E2900547073206172728800
:1019E0007420286D696E290050756D7065204861FE
:1019F0006E64626574722E005374616E642E207A78
:101A0000757281636B732E0043616C6962726172DF
:101A1000207048342F313000887465732D766F75CF
:101A20007320739672203F00536574205265717560
:101A30006972656420704800416A7573746573202B
:101A400066E0627269636100426F6D626120766573
:101A50006C6F6369646164005072657373657220B2
:101A60000420706F6D706500416A75737420636F38
:101A70006E7472617374650070482D4B616C69629D
:101A800072696572756E67005282676C657220724A
:101A90008274726F82636C00506F6D706520656E2A
:101AA000206D616E75656C00446F736572656E20A4
:101AB0006F6D682F6F6D6C0041636874657267723B
:101AC0006F6E647665726C0070483130206B616CAB
:101AD0006962726572656E00363053656320436FCC
:101AE000756E74646F776E00313553656320436F94
:101AF000756E74646F776E00507265737320042086
:101B0000746F2050756D700050726F766973696FD5
:101B10006E6E656D656E740045696E73742E204B34
:101B20006F6E747261737400436F6E74726173745C
:101B30002041646A7573740020202020202020201A
:101B400020202020202000322F332070756E74203A
:101B500063616C2020009074616C20322F33207000
:101B60007473202000322F3320506F696E7420432D
:101B7000616C20004175737A65697420284D696E27
:101B80002E2900542064657361637420286D696E8A
:101B900029004F75693C063E2C4E6F6E3C053E2C6D
:101BA00000322F332D50756E6B742D4B616C2E00EF
:101BB0007048342F31302D4B616C6962722E009069
:101BC00074616C6F6E6E65722070483130004A61CE
:101BD0003C063E2C204E65696E3C053E004F756903
:101BE0003C063E2C204E6F6E3C053E0054696D65F0
:101BF00064204F757421203C063E005420657870A7
:101C0000697261646F203C063E00436F6E736967C2
:101C10006E652064652070480043616C6962726182
:101C20006369E26E20704800528274726F82636C46
:101C300061697261676500704831302043616C6989
:101C4000627261746500436F6E74726F6C652062BE
:101C5000657A6967004265726569747374656C6C56
:101C6000756E6700704834206B616C6962726572D2
:101C7000656E00704837206B616C696272657265D1
:101C80006E0070482043616C6962726174696F6EA6
:101C9000003130302520656E63656E6469646F00C5
:101CA0005265737461626C656369656E646F00533D
:101CB000756269722F416C63616C696E6F0050616F
:101CC00072616D8A74726573207061720043616C19
:101CD00020322F332070756E746F7300436F6E74F3
:101CE000726173742062696A7374005265737461FF
:101CF000757220648266617574004F666654696D02
:101D00006520284D696E29005765726B65696E7391
:101D100074656C6C2E0043616C6962726172207034
:101D2000483130009074616C6F6E6E65722070483F
:101D300034009074616C6F6E6E657220704837006D
:101D40004A613C063E2C204E65653C053E004A61DA
:101D50003C063E2C4E65696E3C053E005965733C61
:101D6000063E2C204E6F3C053E0041726520796F87
:101D70007520737572653F009F457374E02073652D
:101D80006775726F3F0042656E742075207A656BCF
:101D900065723F009074616C6F6E6E616765207054
:101DA0004800416C61726D61206DE16E696D61008A
:101DB000416C61726D61206DE078696D61005075F4
:101DC0006D70204F766572726964650070482D6B86
:101DD000616C69627261746965004175676D2F6439
:101DE000696D20646F736500506F6D706520766952
:101DF0007465737365007048342043616C69627266
:101E0000617465007048372043616C696272617467
:101E100065004F6D686F6F672F616C6B616C690057
:101E20004261636B6C696768742041646A00506F3B
:101E30006D70206F7068656666656E00704820651D
:101E4000696E7374656C6C656E004B6F6E74726F47
:101E50006C6C696572656E00704820436F6E7472B9
:101E60006F6C6C6572004C757A20706F737465725C
:101E7000696F72005375622F42616A20646F7369E3
:101E800073007265737461626C656369646F73007B
:101E900043616C20322F3370756E746F7300546918
:101EA000656D706F20646573616374007A7572810B
:101EB000636B67657365747A74004D69736C756BD9
:101EC00074203C063E00005A756D2070756D70657B
:101ED0006E2004004F6E54696D6520285365632998
:101EE00000704831302D4B616C6962722E00436185
:101EF0006C6962726172207048340043616C69627F
:101F000072617220704837004A613C063E2C4E6573
:101F1000653C053E0053E13C063E2C204E6F3C05DF
:101F20003E005965733C063E2C4E6F3C053E004911
:101F30006E7374656C6C656E2070480053757276B4
:101F400065696C6C616E63650054656D7073206DBE
:101F5000617263686500416C61726D6520626173D6
:101F6000736500416C61726D652068617574650010
:101F7000496E656666656374696576650050726F63
:101F8000766973696F6E696E6700426F6D6261207A
:101F90006D616E75616C00506F6D7065206D616E66
:101FA00075656C005A757281636B7365747A656EC2
:101FB000007061726120626F6D62656172004375CD
:101FC000656E746120617472E073007265626F7592
:101FD00072732036302073007265626F75727320E1
:101FE00031352073004661696C6564203C063E0013
:101FF000004665686C6572203C063E0000547073B4
:10200000206D61726368652000462F572056322E7E
:10201000302E35350053E13C063E2C4E6F3C053EDC
:10202000004765616E6E756C6565726400313030B5
:1020300025206D617263686500496E65666665633B
:1020400074697665004265766F6F726164696E6768
:1020500000436F6E74726F6C6C696E67009A626594
:102060007277616368756E67004175676D2F616C8B
:1020700063616C69004162676562726F6368656E77
:1020800000436F6E74726F6C6572656E0042616AB8
:1020900061722FE06369646F0050756D7065205444
:1020A000656D706F004F6D6C6161672F7A75757229
:1020B0000054656D70732061727288740047657397
:1020C000706569636865727400456E7265676973EF
:1020D000747282009063686563203C063E00004590
:1020E00072726F72203C063E00004872206D617271
:1020F000636865200045617274684C696E6B2000EE
:1021000048696768416C61726D20004C616167616C
:102110006C61726D2000486F6F67616C61726D2039
:1021200000416C61726D614DE16E20005265717508
:10213000657269646F2000416C61726D614DE07879
:102140002000416C61726D2D4D696E2E00416C61F5
:10215000726D2D4D61782E00417369676E6172203A
:10216000704800416A757374617220704800507540
:102170006D702053706565640050756D70204F76EA
:1021800072646500556E7769726B73616D65004DA1
:102190006F6E69746F72696E67004D696E2D2041B4
:1021A0006C61726D004D61782D20416C61726D0023
:1021B0004869676820416C61726D004C61616720FD
:1021C000616C61726D00486F6F6720616C61726D48
:1021D00000446F73652055702F446E004F70676523
:1021E000736C6167656E009A62657277616368659A
:1021F0006E00528267756C6174696F6E00302520C5
:102200006170616761646F004D656D6F72697A61BD
:10221000646F00506F6D702074656D706F0054694D
:10222000656D706F206163740073616E7320656605
:10223000666574009074616C20322F3370740054A2
:1022400061616C2020202020004964696F6D61204D
:102250002020004C616E677565202020005370724D
:1022600061636865202000416C61726D65204220C9
:1022700000416C61726D652048200052657175697E
:10228000726564200041616E2D74696A6420005596
:1022900069742D74696A6420005765726B74696A89
:1022A0006420004C616E6775616765200056657239
:1022B000656973746520004C6F77416C61726D20A5
:1022C0000054206465736163742000417566205A70
:1022D00065697420004C6175667A656974200054E4
:1022E000707320617272742000446F736973202BC5
:1022F0002F2D0043616E63656C6C656400446F77DD
:102300006E2F416369640044696D2F616369646580
:10231000004865727374656C6465004B6F6E74720F
:102320006F6C6C6500436F6E7472617374650061ED
:102330006674656C6C696E67005265736574746968
:102340006E67002B2F426173697363680055702FAD
:10235000416C6B616C690045617274684C696E6BAD
:1023600000322F3370742043616C00322F3370744D
:102370002063616C004C6F7720416C61726D004D81
:102380006F6E69746F72656E0043616E63656C6138
:10239000646F004D6F6E69746F72656F0052966363
:1023A0006B6C69636874004261636B6C6967687425
:1023B00000436F6D70746520850050756C73617299
:1023C0002004004572666F72642E20004F666654CA
:1023D000696D65200052756E54696D652000417508
:1023E000737A6569742000496E616374697661006F
:1023F00041616E2D74696A64005569742D74696A4F
:1024000064004C616E677561676500636F6E74721E
:102410006F6C6500313030252061616E00313030E5
:10242000252045696E005470726F6365736F0044B8
:10243000656661756C7473003025206172728874F2
:10244000004C6175667A65697400436F6E747261E1
:10245000737400696E65666963617A005420616314
:10246000742E20004F6E54696D652000446F7369AF
:102470006E672000526571756973200070483428BA
:10248000313029003630207365632E0031352073DA
:1024900065632E0036302053656B2E003135205396
:1024A000656B2E0053707261636865004F666654F9
:1024B000696D6500436F6E74726F6C00313030254A
:1024C000204F6E00647281636B656E00446F7365AC
:1024D00072656E002D2F5361756572004D6F6E69C8
:1024E000746F72004175737A65697400286E756C3B
:1024F0006C2900416E6E756C820054656D702E20E3
:1025000000426F6D62612000506F6D706520005059
:10251000756D706520004170726F762E0053657482
:10252000207048004964696F6D6100416C61726D93
:102530006100416374697661004D61726368650092
:102540004F6E54696D6500416C61726D65004C6140
:102550006E677565003025204F6666003630207343
:10256000656700313520736567003025204175733C
:1025700000302520756974004D454E55200044619A
:10258000746120004D6F64652000446F7365200006
:1025900057694669200054656D702000506F6D705A
:1025A000200050756D70200020457272310020456A
:1025B00072723200204572723300426F6D626100A8
:1025C000536176656400506F6D70650050756D7075
:1025D000650025332E31660025342E31660057699B
:1025E0002D46690020436F6E6E00446F736973005F
:1025F0004D6F647573004172728874004E69636830
:10260000740025302E327500206D5620006D696EE5
:102610002E0044617461004D6F646500446F736502
:10262000005461616C004D6F646F00506F6D7000FD
:102630004E6965740064617461003530250032357F
:102640002500373525002048410020535000737085
:10265000610066726100736563006E6C6400656E94
:10266000670041616E006D696E004E6F6E004872CA
:102670007300556974004E6F740064657500256CB5
:1026800075002D2D004C41004F4B00256400416E1C
:10269000004E6F004F720055720003003A00430075
:1026A000460000FF0001A06B9F690201246B040E2D
:1026B000010156190BE1125109E1000E81EC76F08F
:1026C000400E0101B86F010E126F0DD0280E975DFC
:1026D000230E985908E3000E81EC76F0400E0101BC
:1026E000B86F976B986BB85177EC6DF0E6EF18F018
:1026F00057A10ED00001A06B030E9F6F0101539DE7
:10270000C00EB86F0AEC78F0010E0101146F0BD007
:10271000000E1AEC77F0000906E000019F6BA06B39
:102720000101216BB86B0201286B040E296F0101B6
:10273000126B7DEF19F00FEC78F001017651020D6C
:10274000E00EF324D96E020EF420DA6EDECF81F0B3
:10275000DDCF82F008EC64F0020E010120D057A515
:1027600004D0010E126F500E1AD0000E1AEC77F042
:10277000000902E17DEF19F0050E11D0136B53A192
:1027800002D00B8102D001010B91589358915895BA
:10279000376B416B4B6B11EC6FF0060EDED7B86FE9
:1027A0007DEF19F0E3EC5DF0D0EC71F0080ED5D7B9
:1027B000020E98EC68F0000E6B6F090E6C6F010151
:1027C0007651020DB90EF324D96E030EF420DA6EA1
:1027D000DECF6DF0DDCF6EF0B5EC67F0000E0001DE
:1027E0006B6F090E6C6F040E6D6F1F0E6E6F3DECFC
:1027F00063F0000E00016B6F090E6C6F01017651E2
:10280000020DAF0EF324D96E030EF420DA6EDECF84
:102810006DF0DDCF6EF03DEC63F0010E0201246F30
:1028200081EC76F0090E99D711EC6FF0010E0201E0
:10283000246F0A0E92D7050E1AEC77F00009F2E029
:10284000000E81EC76F0700E0101B86F100E3ED1D3
:10285000976B986B0AEC78F0C00E0101B86F110EFF
:1028600049EF18F0720E00016B6F020E6C6F0101E0
:102870007651020DE00EF324D96E020EF420DA6ECA
:10288000DECF6DF0DDCF6EF0B5EC67F00FEC78F0D9
:10289000720E0001816F020E826FD6EC67F0120E8D
:1028A0005CD7C00EB86F900E146F71BF08D0715115
:1028B000701129E1510E6E5DC30E6F5924E271AFA4
:1028C00009D0B00E6E5D3C0E6F59FF0E7059FF0EB1
:1028D000715919E3BEEC74F0600E00016B6F020ECB
:1028E0006C6F01017651020DA50EF324D96E030E13
:1028F000F420DA6EDECF6DF0DDCF6EF0B5EC67F070
:10290000200E010119D03EEC66F0600E6B6F020ED6
:102910006C6F01017651020D9B0EF324D96E030EEC
:10292000F420DA6EDECF6DF0DDCF6EF0B5EC67F03F
:10293000010E0101126F310E166FC3EC77F0600EBD
:102940000001816F020E826F08EC64F090EC6DF074
:10295000E3EC5DF0D0EC71F07DEF19F012EC77F064
:10296000C00E0101B86F210E94D30FEC78F0000E69
:1029700000016B6F090E6C6F01017651020DB90EEB
:10298000F324D96E030EF420DA6EDECF6DF0DDCFC6
:102990006EF0B5EC67F0010158A11CD0000E0001EB
:1029A0006B6F090E6C6F1F0E6D6F1D0E6E6F3DEC21
:1029B00063F001017651020DCD0EF324D96E030EA2
:1029C000F420DA6EDECF81F0DDCF82F008EC64F027
:1029D000020E39D058A51CD0000E00016B6F090EF5
:1029E0006C6FF70E6D6F1E0E6E6F3DEC63F00101A4
:1029F0007651020DD60EF324D96E020EF420DA6E53
:102A0000DECF81F0DDCF82F008EC64F0010E1BD048
:102A1000000E00016B6F090E6C6F7C0E6D6F240E43
:102A20006E6F3DEC63F001017651020DC30EF3248D
:102A3000D96E030EF420DA6EDECF81F0DDCF82F0A6
:102A400008EC64F0030E0101136F220EA8D6000EED
:102A500000016B6F090E6C6F01017651020DAF0E14
:102A6000F324D96E030EF420DA6EDECF6DF0DDCFE5
:102A70006EF03DEC63F0C3EC77F0230E6ED690EC75
:102A80006DF0E3EC5DF0D0EC71F0010E0201246F0B
:102A900081EC76F0A00E0101B86F240EE5D190EC28
:102AA0006DF0E3EC5DF0EEEC5BF0010E0201246FE3
:102AB000250E53D6050E1AEC77F000090AE0000E39
:102AC00081EC76F0700E0101B86F270E176F7DEF65
:102AD00019F0240E64D6976B986B58970A990A9D43
:102AE0000A9B0A9F0AEC78F0C00E0101B86F280E0D
:102AF000D0D26AC1A5F06BC1A6F02A0E176F5C5147
:102B00006E5D0001A16F01015D516F590001A26F5F
:102B100001015E5170590001A36F01015F517159AC
:102B20000001A46FA4BF9BD0A45108E1D00EA15D09
:102B3000FB0EA259010EA35901E291D0A4BF0AD005
:102B4000A45107E1210EA15D3C0EA259030EA35929
:102B5000D8B085D000EC73F021EE5CF0DECF6BF0E6
:102B6000DDCF6CF00001000E6CBFFF0E6D6F6E6F5D
:102B7000E80E6F6F030E706F716B726BDCEC4BF0D5
:102B80006BC0A8F06CC0A9F00101000E58B3010E93
:102B900000016B6FA8C06CF0A9C06DF0AAC06EF008
:102BA000A5C06FF0A6C070F0A7C071F0010EB8EC20
:102BB00063F021EE60F0DECF6BF0DDCF6CF0000152
:102BC000000E6CBFFF0E6D6F6E6FE80E6F6F030E21
:102BD000706F716B726BDCEC4BF06BC0A8F06CC06B
:102BE000A9F00101000E58B1010E00016B6FA8C0E1
:102BF0006CF0A9C06DF0AAC06EF0A5C06FF0A6C0C1
:102C000070F0A7C071F0000EB8EC63F0720E000116
:102C10006B6F020E6C6F01017651020DD60EF3241C
:102C2000D96E020EF420DA6EDECF6DF0DDCF6EF0DD
:102C3000B5EC67F0600E00016B6F020E6C6F010166
:102C40007651020DA50EF324D96E030EF420DA6E30
:102C5000DECF6DF0DDCF6EF0B5EC67F0CDD0A4AF78
:102C60009CD0310EA15D040EA259FE0EA359FF0E99
:102C7000A45901E392D0A4AF0AD0E00EA15DC30E27
:102C8000A259FC0EA359FF0EA45901E286D015ECFF
:102C900070F021EE5CF0DECF6BF0DDCF6CF0000168
:102CA000000E6CBFFF0E6D6F6E6FE80E6F6F030E40
:102CB000706F716B726BDCEC4BF06BC0A8F06CC08A
:102CC000A9F00101000E58B3010E00016B6FA8C0FE
:102CD0006CF0A9C06DF0AAC06EF0A5C06FF0A6C0E0
:102CE00070F0A7C071F0010EB8EC63F021EE64F053
:102CF000DECF6BF0DDCF6CF00001000E6CBFFF0E7D
:102D00006D6F6E6FE80E6F6F030E706F716B726B8D
:102D1000DCEC4BF06BC0A8F06CC0A9F00101000E18
:102D200058B5010E00016B6FA8C06CF0A9C06DF022
:102D3000AAC06EF0A5C06FF0A6C070F0A7C071F079
:102D4000020EB8EC63F0206B720E00016B6F020E86
:102D50006C6F01017651020DCD0EF324D96E030E76
:102D6000F420DA6EDECF6DF0DDCF6EF0B5EC67F0FB
:102D7000600E00016B6F020E6C6F01017651020D47
:102D8000A50EF324D96E030EF420DA6EDECF6DF0BB
:102D9000DDCF6EF0B5EC67F02FD0010E0101126FA0
:102DA0003EEC66F0720E6B6F020E6C6F0101765195
:102DB000020DC30EF324D96E030EF420DA6EDECFBB
:102DC0006DF0DDCF6EF0B5EC67F0600E00016B6F5B
:102DD000020E6C6F01017651020D9B0EF324D96E29
:102DE000030EF420DA6EDECF6DF0DDCF6EF0B5ECC1
:102DF00067F0310E0101176F0FEC78F0720E0001D1
:102E0000816F020E826FD6EC67F0C3EC77F0290E6B
:102E1000A4D4600E0001816F020E826FD6EC67F0C1
:102E200090EC6DF0E3EC5DF0D0EC71F0C00E0101C0
:102E3000B86F900E146F17C116F15FD2A00EB86F65
:102E40007F5103E058B158A502D0300E0DD0200EAE
:102E5000156F6DD4539D589749EC3EF001018E6B70
:102E6000010E8D6F8CD1420E156F47D2030E1AECF6
:102E700077F0000901E141D2420E91D40AEC78F0DA
:102E8000410E0101146FC00E68D40FEC78F00101FF
:102E90007651020DD70EF324D96E030EF420DA6EAC
:102EA000DECF81F0DDCF82F008EC64F0C3EC77F088
:102EB00001017651020DCC0EF324D96E020EF420DE
:102EC000DA6EDECF81F0DDCF82F008EC64F0010134
:102ED000AC6BAD6B976B986B900EB86F800ED1D0CA
:102EE00074EC77F0C00E0101B86F430ED2D0000130
:102EF0009F6BA06B0101216B776B00018A6B896B63
:102F00007FEC64F00101B86B1F6B9CEC78F0E9EC8E
:102F100078F0F3D1B00EB86F510EBBD00FEC78F053
:102F200001017651020DD70EF324D96E030EF42061
:102F3000DA6EDECF81F0DDCF82F008EC64F0C3EC16
:102F400077F001017651020DAA0EF324D96E040E1A
:102F5000F420DA6EDECF81F0DDCF82F008EC64F091
:102F6000A00E0101B86FB00E156F520E92D00FEC8B
:102F700078F001017651020DBE0EF324D96E040ED5
:102F8000F420DA6EDECF81F0DDCF82F008EC64F061
:102F9000C3EC77F001017651020DB40EF324D96E23
:102FA000040EF420DA6EDECF81F0DDCF82F008EC83
:102FB00064F0530EADEF13F0030E561904E1B00E9A
:102FC000B86F540E66D0040E561901E096D1B00EBB
:102FD000B86F550E5ED00FEC78F001017651020DFE
:102FE000C80EF324D96E040EF420DA6EDECF81F021
:102FF000DDCF82F008EC64F03EEC66F0900E01014B
:10300000B86FA00E166F2FD70FEC78F00101765134
:10301000020DCC0EF324D96E020EF420DA6EDECF50
:1030200081F0DDCF82F008EC64F0E8D7976B986B05
:1030300074EC77F0610E25D73EEC66F0200E816FC0
:10304000400E65EC73F0010113513FEC5DF0620E30
:10305000ADEF13F0C3EC77F001017651020DA00E35
:10306000F324D96E040EF420DA6EDECF81F0DDCFCA
:1030700082F008EC64F0C00E0101B86F900E146F7E
:10308000310E166F3AD112EC77F0C00E0101B86F15
:10309000710E146F32D113513FEC5DF0720EADEF33
:1030A00013F06EC16FF06FC170F070C171F071C13B
:1030B00072F0000EF9EC35F000019E6B0101186B07
:1030C0001A6B196B0201506B516BC3EC77F0010165
:1030D0001851BFEC6BF0730EADEF13F011EC6FF005
:1030E0000201504B512BAC0E505D260E515905E399
:1030F000010E0101126F600EB86F01011A2B090E4B
:103100001A65FBD01A6B6EC16FF06FC170F070C1A1
:1031100071F071C172F0010EF9EC35F000019E6F93
:103120000101192B0201515104E1320E505D01E2FF
:10313000E4D0010E01011965E0D0196BC3EC77F002
:1031400000019E510101185D05E2182B1851BFECDA
:103150006BF0D3D0060E181901E0CFD017C1B8F12B
:10316000CCD0EDEC30F049EC3EF0010158A307D093
:10317000D10E8D5D020E8E5902E3538D5887A00E3D
:10318000B86F71D6206B910ECFEF13F0202B310E5C
:103190002065B3D016C1B8F1B0D0000E1AEC77F0AC
:1031A000000901E1AAD015C1B8F1A7D012EC77F05F
:1031B0006AD60BEC71F0000901E19FD033EC71F09D
:1031C000000901E19AD014C1B8F197D0B85102E1D9
:1031D00078EF13F0010A02E19BEF13F0030A02E11A
:1031E000AFEF13F0070A02E1BEEF13F0030A02E1AA
:1031F000D2EF13F00E0A02E1D8EF13F0010A02E158
:1032000014EF14F0030A02E11BEF14F01A0A02E1B2
:1032100028EF14F0010A02E132EF14F0030A02E190
:1032200051EF14F0320A02E1AEEF14F0010A02E1AC
:10323000B5EF14F0030A01E10AD4010A01E11FD439
:10324000070A01E12CD4010A01E134D4020A01E1A8
:1032500042D40F0A01E14DD4010A01E1DAD5030A93
:1032600001E1ECD51A0A01E1F5D5010A01E1FED52B
:10327000710A01E103D6010A01E107D6030A01E15F
:103280002FD6010A01E133D6130A01E143D6010A20
:1032900001E144D6030A01E16AD6010A01E18CD6B4
:1032A000070A01E198D6010A01E1AED6350A01E12B
:1032B000BDD6010A01E1C0D6030A01E1CBD6120A4C
:1032C00001E1E1D6010A01E1E6D6030A01E1E9D60E
:1032D000010A01E103D7F30A01E143D7100A01E132
:1032E00051D7010A01E152D7310A01E156D7100A3C
:1032F00001E15CD7700A01E15CD79FC09CF0A0C0DF
:103300009DF0120071EF1EF0250EDA191CE089EC19
:103310001EF011E0B651D96E91EC1EF002D871EF9B
:103320001EF00500FA6EBA51FD6EBB51FE6EFF6ACB
:10333000FA50DA5112007DEC1EF0DAC0DFFFA1EC8A
:103340001EF071EF1EF0D66BD76BD46BD56B03D02C
:10335000D485B74BB82BD0EC1EF0300AF9E0D0EC96
:103360001EF0C2EC73F01CE3D66BD76BD6C06BF0CB
:10337000D7C06CF063EC1FF0F6EC71F06BC0D6F0C8
:103380006CC0D7F0B7C0F6FF07EC1FF0D627BC51D2
:10339000D723B74BB82BD0EC1EF0C2EC73F0E6E2AB
:1033A000D0EC1EF02E0A22E1D58DB74BB82BD86B8E
:1033B000D96B15D0D8C06BF0D9C06CF063EC1FF09E
:1033C000F6EC71F06BC0D8F06CC0D9F0B7C0F6FF66
:1033D00007EC1FF0D827BC51D923B74BB82BD0EC42
:1033E0001EF0C2EC73F001E2B3D0E4D7D86BD96B16
:1033F000D589AED0D489ACD0D585C2D0B951D96EDB
:10340000DA6A020EDF26DF5CD96EDA6ADECFC3F03D
:10341000DECFC4F0C351C41104E1EC0EC36F240E1F
:10342000C46FC56BC66B03D00001C54BC62BC5511D
:10343000C325BA6FC651C421BB6FBAC0F6FFBBC06B
:10344000F7FF000EF86E0F0EF76403D00800F5507A
:1034500003D063EC47F0EF500009E6E10001D851DA
:10346000D9110BE0C5516CEC1FF0C651800ABA5956
:1034700004E2D8C0C5F0D9C0C6F0D651C55DD75159
:10348000C65905E2C551D65FC651D75B1AD0D66B77
:10349000D76B17D089EC1EF00FE0B651D96E91ECC6
:1034A0001EF001D80ED00500FA6EBA51FD6EBB5168
:1034B000FE6EFF6AFA50200C7DEC1EF0200E99EC97
:1034C0001EF00001D607D8A0D707D629E3E1D729F7
:1034D00034E0E0D789EC1EF01EE0B651D96E91ECD5
:1034E0001EF001D814D00500FA6EBA51FD6EBB5122
:1034F000FE6EFF6AFA504EEC1FF00F0EF76403D019
:103500000800F55003D063EC47F0EF5012000001C3
:10351000C34BC42B12D04EEC1FF0EFDB0F0EF76441
:1035200003D00800F55003D063EC47F0EF50DF6E96
:103530000001C34BC42BA1EC1EF0C507D8A0C607E1
:10354000C529C8E1C62901E1CCD3C4D7D48D18D090
:10355000B7C0F6FFB8C0F7FF3FEC1FF001E1CAD3D8
:10356000640A0EE0020A01E147D70F0A09E0050AE2
:1035700001E140D71F0A01E141D7060AE7E0B1D3D4
:10358000070ED51501E181D2D5A903D0D96B060E5E
:10359000D86FB951D96EDA6ADFCFBAF0030EDF26E1
:1035A000BA51D96EDA6ADECFD1F0DECFD2F0DDCFFC
:1035B000D3F0D3AF10D0D1C06BF0D2C06CF0D3C079
:1035C0006DF040EC75F06BC0D1F06CC0D2F06DC006
:1035D000D3F0030ED413C76BC86BD151D211D311E2
:1035E00069E0820EBA6FBB69D1C0BCF0D2C0BDF039
:1035F000D3C0BEF0D4C0BFF0100E05D0D890BF33FA
:10360000BE33BD33BC33E82EF9D7BC51BA25C76FE2
:10361000000EBB21C86FC707D8A0C807C7C06BF092
:10362000C8C06CF06E6B030E6D6FF6EC71F06BC082
:10363000C7F06CC0C8F0C7C071F0C8C072F0E9EC48
:1036400030F0C9EC5AF071C0C7F072C0C8F0C8AF12
:1036500003D0C707D8A0C807C751000812EC33F041
:1036600055EC1FF0CDC079F0CEC07AF0CFC07BF022
:103670005CEC1FF01DEC4BF079C0CDF07AC0CEF0C1
:103680007BC0CFF0E3DB6E6B800E6F6F3F0E706F11
:1036900094EC62F004E2C707D8A0C8070BD0D6DBD1
:1036A0006E6B200E6F6F410E706F94EC62F002E350
:1036B000C74BC82BD9BF05D0D9511AE10D0ED85D23
:1036C00017E2D1C092F0D2C093F0D3C094F0D85199
:1036D000CDEC40F088C095F089C096F08AC097F094
:1036E000F3EC3EF092C0D1F093C0D2F094C0D3F08E
:1036F000C8BF05D0C85116E10A0EC75D13E2D1510B
:10370000D211D3113CE0C3DBF5EC4CF08F5190119A
:103710009111921134E1C8BF32D0C85103E1020EB9
:10372000C75D2DE393DB700E6E6F890E6F6F400ED9
:10373000706F94EC62F0F70ED8B0F80EC727FF0E4A
:10374000C823C75112EC33F0B0DBD1C06BF0D2C04C
:103750006CF0D3C06DF0CDC06EF0CEC06FF0CFC0B6
:1037600070F028EC49F06BC0C9F06CC0CAF06DC0B5
:10377000CBF06EC0CCF0D16BD26BD36B24D087DB97
:10378000F5EC4CF06ADBD1C0B0F0D2C0B1F0D3C0E0
:10379000B2F0C9C073F0CAC074F0CBC075F0CCC031
:1037A00076F0CCEC64F073C0B3F074C0B4F075C0C4
:1037B000B5F010EC6CF0B0C0D1F0B1C0D2F0B2C036
:1037C000D3F0C76BC86B010EDA6FC2DA2EDB04E3ED
:1037D000DA2B0A0EDA19F9E1DA51D825BA6F000EA0
:1037E000D921BB6FC751BA27C851BB23BA51D65F85
:1037F000BB51D75BD851D91103E0D607D8A0D70762
:1038000020DB03E0D607D8A0D707D4A54CD019DB1E
:103810002BE07FDA0EE0B651D96E83DA01D824D0DE
:103820000500FA6EBA51FD6EBB51FE6EFF6AFA508A
:103830002D0C63DA2D0E7DDA17D06BDA0EE0B6515F
:10384000D96E6FDA01D80CD00500FA6EBA51FD6E50
:10385000BB51FE6EFF6AFA50300C4FDA300E69DA57
:103860000001D607D8A0D7070001D7BF4ED0D75147
:10387000E4E1D6054AE3E1D74CDA0EE0B651D96E61
:1038800050DA01D80CD00500FA6EBA51FD6EBB516A
:10389000FE6EFF6AFA50200C30DA200E4ADA000180
:1038A000D607D8A0D707D7BF04D0D751E5E1D605B2
:1038B000E3E2C7DA2AE02DDA0EE0B651D96E31DA4A
:1038C00001D823D00500FA6EBA51FD6EBB51FE6ED1
:1038D000FF6AFA502D0C11DA2D0E16D08FDA38DA75
:1038E00067DA51EC5AF046DA4BEC5FF07EDA11DA27
:1038F00008E0B651D96E15DA01D807D00500FA6E86
:103900007AD0FBD9CD51300F14DA0001DA07DA2969
:1039100018E0E4D7FED90EE0B651D96E02DA01D82C
:103920000CD00500FA6EBA51FD6EBB51FE6EFF6AF7
:10393000FA50300CE2D9300EFCD90001C707D8A0EC
:10394000C807C8BF04D0C851E5E1C705E3E2D9BF45
:1039500008D0D95103E1090ED85D03E3080EDA6FF0
:1039600002D0D8C0DAF0DA51D85F000ED95BDA5154
:1039700013E0CFD90EE0B651D96ED3D901D80CD00F
:103980000500FA6EBA51FD6EBB51FE6EFF6AFA5029
:103990002E0CB3D92E0ECDD90001DA5112EC33F032
:1039A00088C0C0F089C0C1F08AC0C2F085DAC0C04A
:1039B00079F0C1C07AF0C2C07BF01DEC4BF079C049
:1039C0008FF07AC090F07BC091F0F5EC4CF045DAC6
:1039D0003CD014DABDD9ECD951EC5AF0CBD94BEC30
:1039E0005FF003DA96D90EE0B651D96E9AD901D8B4
:1039F0000DD00500FA6EBA51FD6EBB51FE6EFF6A26
:103A0000FA506FD27AD9CD51300F93D9C9C078F01E
:103A1000CAC079F0CBC07AF0CCC07BF0000198D955
:103A2000F5CF7CF00900F5CF7DF00900F5CF7EF0F1
:103A30000A00F5CF7FF04BEC5FF078C0C9F079C099
:103A4000CAF07AC0CBF07BC0CCF0DA07DA2918E0F4
:103A5000C0D75FD90EE0B651D96E63D901D80CD06A
:103A60000500FA6EBA51FD6EBB51FE6EFF6AFA5048
:103A7000300C43D9300E5DD90001D807D8A0D90742
:103A8000D851D91101E12DD1E4D7D4BD1BD0D4A98F
:103A900002D09AD90AD0EAD9DECFC9F0DDCFCAF078
:103AA000000ECABFFF0ECB6FCC6FCCAF1AD0030E87
:103AB000D413CC1FCB1FCA1FC96D000ECA23CB2342
:103AC000CC230FD0D4A902D07FD90BD0CFD9DECF51
:103AD000BAF0DDCFBBF0BAC0C9F0BBC0CAF0CB6B47
:103AE000CC6BD851D91107E1C951CA11CB11CC11F6
:103AF00002E1D84BD92B010EDA6F2AD996D904E30B
:103B0000DA2B0A0EDA19F9E1DA51BA6FBB6BD85128
:103B1000DED9D951800ABC5903E2D8C0DAF00FD0FF
:103B2000DA51BA6FBB6BBA51D85DD951800ABC6FFC
:103B3000BB51800ABC5903E2DAC0D8F0D96BD65128
:103B4000D71105E07ED903E0D607D8A0D707D5ADB9
:103B50000DD0D651C1D9D751800ABA5905E2D851F2
:103B6000D65FD951D75B02D0D66BD76BDA51BA6F1B
:103B7000BB6BD651ACD9D751800ABC5905E2DA519A
:103B8000D65F000ED75B02D0D66BD76BD4A532D0F0
:103B900058D913E0BED80EE0B651D96EC2D801D8BC
:103BA0000CD00500FA6EBA51FD6EBB51FE6EFF6A75
:103BB000FA502D0CA2D82D0EBCD80001D651D71129
:103BC00001E187D0A6D80EE0B651D96EAAD801D8A7
:103BD0000CD00500FA6EBA51FD6EBB51FE6EFF6A45
:103BE000FA50300C8AD8300EA4D80001D607D8A0DD
:103BF000D707E4D7D651D7111AE08BD80EE0B651CB
:103C0000D96E8FD801D80CD00500FA6EBA51FD6E6E
:103C1000BB51FE6EFF6AFA50200C6FD8200E89D877
:103C20000001D607D8A0D707D651D711E6E109D9A8
:103C300050E06FD80EE0B651D96E73D801D849D094
:103C40000500FA6EBA51FD6EBB51FE6EFF6AFA5066
:103C50002D0C53D82D0EDF6E3BD0D8C0BAF0D9C092
:103C6000BBF0D890BA37BB37D890BA37BB377D0E88
:103C7000BA25F66E110EBB21F76E77D899D8BED84B
:103C800051EC5AF06BC078F06CC079F06DC07AF0EE
:103C90006EC07BF00A0E7C6F7D6B7E6B7F6B4BEC96
:103CA0005FF07851300FDA6F34D80FE0B651D96E2B
:103CB00038D801D80ED00500FA6EBA51FD6EBB514E
:103CC000FE6EFF6AFA50DA51120017D8DAC0DFFF31
:103CD00038D80001D807D8A0D907D829BEE1D929FA
:103CE000BCE1B7C0F6FFB8C0F7FF0001C8D802E0DA
:103CF00084EF19F0B66BB76B1200B651D96EDA6A61
:103D0000DECFBAF0DDCFBBF0BAC0D9FFBBC0DAFF5F
:103D10001200B651D96EDA6A020ED926DE50DE10D4
:103D20001200DA6A020ED926DECFBAF0DDCFBBF080
:103D3000020CDF6EB651D96EDA6ADE2A000EDD2281
:103D4000000CB651D96EDA6ADE2A000EDD22000CB4
:103D5000DA51040D7D0EF324F66E110EF420F76E89
:103D6000F86A000EF82209001200F86A000EF82224
:103D7000090012006BC0CDF06CC0CEF06DC0CFF06A
:103D80006EC0D0F0CDC078F0CEC079F0CFC07AF060
:103D9000D0C07BF00A0E7C6F7D6B7E6B7F6B0A0C54
:103DA000B7C0F6FFB8C0F7FFF86A0800F550120078
:103DB000F5CF6FF00900F5CF70F00900F5CF71F085
:103DC0000A00F5CF72F01200B951D96EDA6A040E0A
:103DD000DF26DF5CD96EDA6ADECFC9F0DECFCAF04B
:103DE000DECFCBF0DECFCCF0120078C0CDF079C0C2
:103DF000CEF07AC0CFF07BC0D0F01200C9C06BF01B
:103E0000CAC06CF0CBC06DF0CCC06EF01200B8C070
:103E1000F7FFF86A0800F5CFBAF0D00EBA25BB6FED
:103E2000BC6BFF0EBC23BB511200F550C95D0900ED
:103E3000F550CA590900F550CB590900F550CC5935
:103E40001200D4C0BAF0030EBA17030CCDC06BF049
:103E5000CEC06CF0CFC06DF012008FC0C9F090C022
:103E6000CAF091C0CBF092C0CCF01200B951D96E1B
:103E7000DA6ADF50DF2ADF2AD96EDA6A1200B74B1E
:103E8000B82BF86A0800F5CFDAF0DA511200D1C089
:103E90008FF0D2C090F0D3C091F01200C3C0F6FFF3
:103EA000C4C0F7FF000EF86E120088C0CDF089C0C4
:103EB000CEF08AC0CFF01200D1C07CF0D2C07DF02D
:103EC000D3C07EF012006E6B0A0E6D6F0A0CBA5DE5
:103ED000BB51800ABC6F1200D85DD951800ABA6FFD
:103EE0001200CD51300F120076C082F077C083F0FF
:103EF0000BD3840E6D6F6E6BA0DB2CEC6DF08451D8
:103F0000010177190EE0770E00016F6F010E706FDF
:103F1000726B716B010E736F94EC6CF05BDB990E3E
:103F20006BD3840E5CDB93DB2CEC6DF084510101D0
:103F3000A5190EE0A50E00016F6F010E706F726B78
:103F4000010E716F736F94EC6CF044DBA00E54D3D0
:103F5000800E45DB80DB2CEC6DF08051010178197F
:103F600005E100018151010179190EE0780E00018F
:103F70006F6F010E706F726B020E716F736F94EC46
:103F80006CF028DBA70E38D3800E29DB040E0AEC78
:103F900032F02CEC6DF0805101017A1905E100013D
:103FA000815101017B190DE07A0E00016F6F010E46
:103FB000706F726B040E35DB94EC6CF00BDBAE0EA5
:103FC0001BD3800E0CDB060E0AEC32F02CEC6DF0ED
:103FD000805101017C1905E10001815101017D1928
:103FE0000DE07C0E00016F6F010E706F726B060E9C
:103FF00018DB94EC6CF0EEDAB50EFED2800EEFDA40
:10400000080E0AEC32F02CEC6DF0805101018119A0
:1040100005E100018151010182190DE0810E0001CD
:104020006F6F010E706F726B080EFBDA94EC6CF020
:10403000D1DABC0EE1D2800ED2DA0A0E0AEC32F0EE
:104040002CEC6DF080510101831905E100018151D3
:10405000010184190DE0830E00016F6F010E706F76
:10406000726B0A0EDEDA94EC6CF0B4DAC30EC4D2D2
:10407000840EB5DA0C0EBCDA2CEC6DF08451010123
:1040800085190DE0850E00016F6F010E706F726B68
:104090000C0EC3DA94EC6CF09DDACA0EADD2840E2D
:1040A0009EDA0D0EA5DA2CEC6DF084510101871912
:1040B0000DE0870E00016F6F010E706F726B0D0EB9
:1040C000ACDA94EC6CF086DAD10E96D2840E87DAF4
:1040D0000E0E8EDA2CEC6DF0845101017E190DE08C
:1040E0007E0E00016F6F010E706F726B0E0E95DA0F
:1040F00094EC6CF06FDAD80E7FD2840E70DA0F0E6B
:1041000077DA2CEC6DF08451010176190DE0760E12
:1041100000016F6F010E706F726B0F0E7EDA94EC00
:104120006CF058DADF0E68D2840E59DA100E60DABD
:104130002CEC6DF08451010158190DE0580E00016E
:104140006F6F010E706F726B100E67DA94EC6CF08B
:1041500041DAE60E51D27C0E42DA110E66DA2CEC10
:104160006DF054DA5C51000178190FE101015D51E5
:10417000000179190AE101015E5100017A1905E196
:1041800001015F5100017B190CE05C0E6F6F010EA5
:10419000706F726B110E4DDA94EC6CF01BDAED0E51
:1041A0002BD250DA150E41DA2CEC6DF02FDA60517B
:1041B000000178190FE101016151000179190AE14B
:1041C0000101625100017A1905E101016351000109
:1041D0007B190CE0600E6F6F010E706F726B150E25
:1041E00028DA94EC6CF0F6D9F40E06D22BDA190E1C
:1041F0001CDA2CEC6DF00ADA6451000178190FE139
:1042000001016551000179190AE1010166510001BE
:104210007A1905E10101675100017B190CE0640E78
:104220006F6F010E706F726B190E03DA94EC6CF005
:10423000D1D9FB0EE1D1800E6D6F6E6B706B1D0ED0
:104240000AEC32F02CEC6DF0805101018D1905E182
:104250000001815101018E190DE08D0E00016F6F7B
:10426000010E706F726B1D0EDCD994EC6CF0B2D93C
:10427000020EBAD17C0EB3D9250ED7D92CEC6DF035
:104280007C51010193190FE100017D510101941945
:104290000AE100017E510101951905E100017F51FC
:1042A000010196190DE0930E00016F6F010E706F02
:1042B000726B250EBED994EC6CF08CD9090E94D19A
:1042C000840E8DD9230E94D92CEC6DF0845101010C
:1042D0007F190DE07F0E00016F6F010E706F726B22
:1042E000230E9BD994EC6CF075D9100E7DD1840E01
:1042F00076D9240E7DD92CEC6DF084510101801902
:104300000DE0800E00016F6F010E706F726B240E56
:1043100084D994EC6CF05ED9170E66D1840E5FD907
:10432000290E66D92CEC6DF084510101AE190DE017
:10433000AE0E00016F6F010E706F726B290E6DD99A
:1043400094EC6CF047D91E0E4FD1840E48D92A0E3A
:104350004FD92CEC6DF08451010159190DE0590E23
:1043600000016F6F010E706F726B2A0E56D994ECBC
:104370006CF030D9250E38D1800E31D92B0E0AECD5
:1043800032F02CEC6DF080510101351905E100018E
:104390008151010136190AE0350E00016F6F010EDF
:1043A0002ED994EC6CF016D92C0E1ED1800E17D994
:1043B0002D0E0AEC32F02CEC6DF0805101013F190A
:1043C00005E100018151010140190AE03F0E0001A1
:1043D0006F6F010E14D994EC6CF0FCD8330E04D13D
:1043E000800EFDD82F0E0AEC32F02CEC6DF08051CF
:1043F0000101491905E10001815101014A190AE051
:10440000490E00016F6F010EFAD894EC6CF0E2D8FF
:104410003A0EEAD0800EE3D8310E0AEC32F02CECE2
:104420006DF080510101451905E100018151010143
:1044300046190AE0450E00016F6F010EE0D894ECBA
:104440006CF0C8D8410ED0D0840EC9D81F0ED0D879
:104450002CEC6DF0845101018F190DE08F0E0001DD
:104460006F6F010E706F726B1F0ED7D894EC6CF0EB
:10447000B1D8480EB9D0840EB2D8200EB9D82CECE1
:104480006DF08451010190190DE0900E00016F6FE5
:10449000010E706F726B200EC0D894EC6CF09AD83D
:1044A0004F0EA2D0840E9BD8210EA2D82CEC6DF01A
:1044B00084510101911992110DE0910E00016F6F6D
:1044C000010E706F726B210EACD894EC6CF082D838
:1044D000560E8AD0840E83D8330E8AD82CEC6DF019
:1044E0008451010186190DE0860E00016F6F010EE7
:1044F000706F726B330E91D894EC6CF06BD85D0ECC
:1045000073D068D8010E78D065D8DECF78F0DDCFD3
:1045100079F0795103E0010A33E0EBD47851010AD4
:10452000D8B41200980A01E1FCD4390A01E110D58F
:10453000070A01E129D5090A01E143D51B0A01E176
:104540005DD5090A01E177D57F0A01E191D5090A14
:1045500001E1A5D51B0A01E1B9D5090A01E1CDD5D3
:10456000070A01E1E1D5390A01E1F5D50B0A01E1BC
:1045700018D6190A01E13AD60F0A01E15CD6B9D47E
:104580007851020A01E176D60B0A01E199D6190A9F
:1045900001E1ADD6070A01E1C1D6090A01E1D5D68C
:1045A0003B0A01E1E9D6090A01E100D71F0A01E14E
:1045B00017D7090A01E12ED77B0A01E145D7090A7D
:1045C00001E159D7070A01E16DD7190A83E00B0A07
:1045D00098E08FD482C0D9FF83C0DAFF12000001B7
:1045E0006D6F6E6B706B1200DE6E010EDD6E010C76
:1045F0006F6F010E716F010CDE6EDD6A000C706F63
:10460000726B310E716F020E736F020C84C078F002
:10461000796B7A6B7B6B01011200716F010E736F06
:10462000010C716F020E736F020C6F6F040E716FCD
:10463000040C716F040E736F040C706B6F6B010EC2
:10464000716F010C7C0E6D6F6E6B706B1200010E42
:104650006F6F716F010C020E6F6F716F020C21EEA4
:10466000C9F0100EDE6AE806FDE2FAD2600E000123
:104670006B6F020E6C6F01017651020D820EF324F6
:10468000D96E040EF420DA6EDECF6DF0DDCF6EF061
:10469000B5EC67F0600E0001E86F020EE96F780E6E
:1046A000EA6F010EEB6F12EC58F0600E00016B6FB9
:1046B000020E6C6F350E6D6F1A0E6E6F3DEC63F06F
:1046C000F2D2600E00016B6F020E6C6F0101765129
:1046D000020D780EF324D96E040EF420DA6EDECFCC
:1046E0006DF0DDCF6EF0B5EC67F0600E0001E86FA5
:1046F000020EE96F680EEA6F010EEB6F010EEC6FB0
:10470000BDEC52F0600E00016B6F020E6C6F450E37
:104710006D6F1B0E6E6F3DEC63F0600E0001E86F75
:10472000020EE96F6C0EEA6F010EEB6F010EEC6F7B
:10473000E9EC47F0B8D2600E00016B6F020E6C6FAF
:1047400001017651020D640EF324D96E040EF4209B
:10475000DA6EDECF6DF0DDCF6EF0B5EC67F0600E97
:104760000001E86F020EE96F7C0EEA6F010EEB6F3D
:1047700012EC58F0600E00016B6F020E6C6F350E7C
:104780006D6F1A0E6E6F3DEC63F08DD2600E0001FE
:104790006B6F020E6C6F01017651020D6E0EF324E9
:1047A000D96E040EF420DA6EDECF6DF0DDCF6EF040
:1047B000B5EC67F0600E0001E86F020EE96F7A0E4B
:1047C000EA6F010EEB6F12EC58F0600E00016B6F98
:1047D000020E6C6F350E6D6F1A0E6E6F3DEC63F04E
:1047E00062D2600E00016B6F020E6C6F0101765198
:1047F000020D5A0EF324D96E040EF420DA6EDECFC9
:104800006DF0DDCF6EF0B5EC67F001017E5115E182
:10481000600E00016B6F020E6C6F01017651020D8C
:104820000A0EF324D96E040EF420DA6EDECF6DF09A
:10483000DDCF6EF03DEC63F036D2600E00016B6FA1
:10484000020E6C6F01017651020D000EF324D96E39
:10485000040EF420DA6EDECF6DF0DDCF6EF03DECAD
:1048600063F021D2600E00016B6F020E6C6F0101CC
:104870007651020D500EF324D96E040EF420DA6E38
:10488000DECF6DF0DDCF6EF0B5EC67F0C90E000144
:10489000DB6F010EDC6F8B0EDD6F260EDE6F81C1CC
:1048A000DFF082C1E0F083EC6EF0600E6B6F020E01
:1048B0006C6FC90E6D6F010E6E6F3DEC63F0600E94
:1048C00000016B6F020E6C6F01017651020DC20E7A
:1048D000F324D96E050EF420DA6EDECF6DF0DDCF55
:1048E0006EF03DEC63F0DFD1600E00016B6F020EE5
:1048F0006C6F01017651020D460EF324D96E040E41
:10490000F420DA6EDECF6DF0DDCF6EF0B5EC67F03F
:10491000C90E0001DB6F010EDC6F8B0EDD6F260E02
:10492000DE6F83C1DFF084C1E0F083EC6EF0600ED7
:104930006B6F020E6C6FC90E6D6F010E6E6F3DECEA
:1049400063F0600E00016B6F020E6C6F0101765117
:10495000020DB80EF324D96E050EF420DA6EDECF08
:104960006DF0DDCF6EF03DEC63F09DD1600E000187
:104970006B6F020E6C6F01017651020D3C0EF32439
:10498000D96E040EF420DA6EDECF6DF0DDCF6EF05E
:10499000B5EC67F0C90E0001DB6F010EDC6F020E93
:1049A000DD6F260EDE6F91C1DFF092C1E0F083EC87
:1049B0006EF0600E6B6F020E6C6FC90E6D6F010EA4
:1049C0006E6F3DEC63F0600E00016B6F020E6C6F5A
:1049D0009C0E6D6F260E6E6F3DEC63F0C90E0001EC
:1049E000DB6F010EDC6F020EDD6F260EDE6F90C1F5
:1049F000DFF0E06B83EC6EF0600E6B6F020E6C6F9D
:104A0000C90E6D6F010E6E6F3DEC63F0600E00011C
:104A10006B6F020E6C6F9C0E6D6F260E6E6F3DEC11
:104A200063F0C90E0001DB6F010EDC6F020EDD6F5B
:104A3000260EDE6F8FC1DFF0E06B83EC6EF0600E50
:104A40006B6F020E6C6FC90E6D6F010E6E6F3DECD9
:104A500063F029D1600E00016B6F020E6C6F0101D3
:104A60007651020D320EF324D96E040EF420DA6E64
:104A7000DECF6DF0DDCF6EF0B5EC67F0C90E000152
:104A8000DB6F010EDC6F7E0EDD6F260EDE6F93C1D5
:104A9000DFF094C1E0F095C1E1F096C1E2F083EC63
:104AA0006EF0600E6B6F020E6C6FC90E6D6F010EB3
:104AB0006E6F3DEC63F0600E00016B6F020E6C6F69
:104AC00001017651020DAE0EF324D96E050EF420CD
:104AD000DA6EDECF6DF0DDCF6EF03DEC63F0E3D04B
:104AE000600E00016B6F020E6C6FF90E6D6F240E7D
:104AF0006E6FB5EC67F088C19EF089C19FF08AC1E6
:104B0000A0F08BC1A1F07FEC5EF09EC0A8F09FC02A
:104B1000A9F0A0C0AAF0AB6B7A0EAC6F440EAD6FDB
:104B200065EC4EF0A8C0C6F1A9C0C7F1AAC0C8F193
:104B3000C90EDB6F010EDC6FD20EDD6F250EDE6F4E
:104B4000C6C1DFF0C7C1E0F0C8C1E1F083EC6EF090
:104B5000600E6B6F020E6C6FC90E6D6F010E6E6F83
:104B60003DEC63F0600E00016B6F020E6C6F080E7F
:104B70006D6F260E6E6F3DEC63F095D0600E0001F8
:104B80006B6F020E6C6F900E6D6F250E6E6FB5EC35
:104B900067F00101AE5115E1600E00016B6F020E6E
:104BA0006C6F01017651080D420EF324D96E060E8A
:104BB000F420DA6EDECF6DF0DDCF6EF03DEC63F009
:104BC00072D0600E00016B6F020E6C6F01017651A6
:104BD000080D400EF324D96E060EF420DA6EDECFF7
:104BE0006DF0DDCF6EF03DEC63F030D0600E000173
:104BF0006B6F020E6C6FE40E6D6F250E6E6F3DECE9
:104C000063F051D0600E00016B6F020E6C6FA80E46
:104C10006D6F250E6E6F3DEC63F045D0600E0001A8
:104C20006B6F020E6C6FAE0E6D6F250E6E6F3DECEE
:104C300063F039D0600E00016B6F020E6C6FB40E22
:104C40006D6F250E6E6F3DEC63F02DD00101AF51FD
:104C5000CDE0010AD7E0030AE1E0ECD7000023D061
:104C600001011F5101E102D5010A01E12AD5030A20
:104C700001E161D5010A01E189D5070A01E1B1D558
:104C8000010A01E1EFD5030A01E12ED6010A01E193
:104C90006DD60F0A01E1DED6010A01E121D7030A30
:104CA00001E16CD7DBD7C3EC77F0600E0001816FB8
:104CB000020E826FD6EF67F0AED19BC0D9FF9CC0C9
:104CC000DAFFDF5001011B6F476A74EC77F00101D6
:104CD000AE5104E11E0E0001F46F1E0C0A0E00011D
:104CE000F46F0A0C020E98EC68F0720E6B6F020EF5
:104CF0006C6F9DC0D9FF9EC0DAFFDECF6DF0DDCFB7
:104D00006EF0B5EC67F0600E00016B6F020E6C6F19
:104D100020EE02F09D51D9269E51DA22DECF6DF0B1
:104D2000DDCF6EF0B5EC67F0475017E1720E000171
:104D30006B6F020E6C6F4C0E6D6F1D0E6E6F3DEC47
:104D400063F0600E00016B6F020E6C6F450E6D6FAD
:104D50001B0E6E6F3DEC63F016D0720E00016B6F90
:104D6000020E6C6F450E6D6F1B0E6E6F3DEC63F0A7
:104D7000600E00016B6F020E6C6F4C0E6D6F1D0E9E
:104D80006E6F3DEC63F0720E00016B6F020E6C6F84
:104D900020EE04F09D51D9269E51DA22DECF6DF02F
:104DA000DDCF6EF03DEC63F0600E00016B6F020E24
:104DB0006C6F20EE06F09D51D9269E51DA22DECF8F
:104DC0006DF0DDCF6EF03DEC63F098EC78F0000113
:104DD000F42B12000101AE5104E1000E76EC5DF0FF
:104DE000F6D7AF2976EC5DF0F2D7476A77D7010E98
:104DF000476E0A0E0001F46F0A0C74EC77F0090E8E
:104E00000101B86F090C74EC77F00F0E0001F46F1C
:104E10000F0C01015651010AEAE0030AE6E0010A1B
:104E2000F2E0070AD8A41200E8D7020E98EC68F066
:104E3000475001E04FD7010EFBEC77F0720E6B6F1D
:104E4000020E6C6F20EE04F09D51D9269E51DA229D
:104E5000DECF6DF0DDCF6EF0B5EC67F098EC78F05A
:104E6000100E0001F46F100C130EF46F130C0201FE
:104E7000546B556BF40E00012BD00101B051B111F0
:104E800003E0E0EC63F0A3D700EC78F0D0EC71F035
:104E9000010EFBEC77F09BD7040E0101561908E1D7
:104EA00074EC77F0000EFBEC77F0090E0101B86F9F
:104EB0000201544B552BB00E545D040E5559D8A029
:104EC0001200000EFBEC77F0140E0101B86F140C09
:104ED0006B6F6C6B000E4DEF75F00AEC78F077D7C6
:104EE000720E6B6F020E6C6F7E0E6D6F250E6E6F05
:104EF000B5EC67F0600E00016B6F020E6C6F410E37
:104F00006D6F1B0E6E6FB5EC67F001011B5117E161
:104F1000720E00016B6F020E6C6F450E6D6F1B0EF3
:104F20006E6F3DEC63F0600E00016B6F020E6C6FF4
:104F30004C0E6D6F1D0E6E6F3DEC63F016D0720E51
:104F400000016B6F020E6C6F4C0E6D6F1D0E6E6F5D
:104F50003DEC63F0600E00016B6F020E6C6F450E4E
:104F60006D6F1B0E6E6F3DEC63F0720E00016B6F88
:104F7000020E6C6F01017651080D680EF324D96E94
:104F8000060EF420DA6EDECF6DF0DDCF6EF03DEC74
:104F900063F0600E00016B6F020E6C6F01017651C1
:104FA000080D6A0EF324D96E060EF420DA6EDECFF9
:104FB0006DF0DDCF6EF03DEC63F098EC78F0546B63
:104FC000556B05D7F40E84D7010E1B6F1D0E000123
:104FD000F46F1D0C1B6B1D0E0001F46F1D0C3C0EBD
:104FE000B86F3C0C9BC0D9FF9CC0DAFF1BC1DFFF30
:104FF0001B51F6EC77F0320E0101B86F320C010153
:105000005651010AE7E0030ADFE0010AEBE0070A74
:10501000D8A41200E4D7F45101E14FD6090AD2E036
:10502000030A01E15FD6010A01E1D4D6070ACAE00A
:10503000010A01E1EED6020A01E1F7D61F0A01E1F9
:1050400013D7030A01E113D7070A01E116D7010AB2
:1050500001E122D7080AB6E0030A01E13ED7010ABE
:1050600001E13ED73F0AAEE0010AC9E0120029C0C3
:1050700031F02AC032F0A1D1898020EE06F029500B
:10508000D9262A50DA22C90EDE6EF50EDE6EC90E62
:10509000DE6EF50EDD6EC06BC16B31C0D9FF32C064
:1050A000DAFF6F0EDE6EDD6A060E2924016E000E39
:1050B0002A20026E046A040E036EBBEC56F000094F
:1050C00001E11200899020EE06F02950D9262A50DD
:1050D000DA2210EE04F02950E1262A50E222DECF37
:1050E000E6FFDDCFE5FF20EE04F02950D9262A5057
:1050F000DA22DECF2BF0DDCF2CF02BC02CF02B6A88
:105100002D6A2C502E6E20EE04F02950D9262A50FC
:10511000DA22DECF2FF0DDCF30F030C02FF0306A52
:105120002F502D1220EE04F02950D9262A50DA22D1
:105130002DC0DEFF2EC0DDFF20EE04F02950D92661
:105140002A50DA22FF0EDE1ADD1A20EE04F0295072
:10515000D9262A50DA22DECF0FF0DDCF10F0A8C119
:1051600011F0A9C112F0CC0E146E136E61EC44F074
:105170000FC0A8F110C0A9F120EE04F02950D926E3
:105180002A50DA22A8C1DEFFA9C1DDFF7EEC70F053
:1051900020EE0AF02950D9262A50DA2209C0DEFF73
:1051A0000AC0DEFF0BC0DEFF0CC0DEFF20EE0EF0FB
:1051B0002950D9262A50DA22430EDE6E0F0EDD6EFC
:1051C00031C0D9FF32C0DAFF7B0EDE6EDD6A20EE21
:1051D0000AF02950D9262A50DA22DECF23F0DECF7A
:1051E00024F0DECF25F0DECF26F020EE0EF02950A1
:1051F000D9262A50DA22DECF27F0DDCF28F0CBECFB
:105200006EF0000901E11200898020EE06F02950BD
:10521000D9262A50DA22F90EDE6EF50EDE6EF90E70
:10522000DE6EF50EDD6E0201C06BC16B31C0D9FFC1
:1052300032C0DAFF800EDE6EDD6A060E2924016EB2
:10524000000E2A20026E046A040E036EBBEC56F0B8
:10525000000901E11200899020EE06F02950D926BC
:105260002A50DA2210EE02F02950E1262A50E222DA
:10527000DECFE6FFDDCFE5FF20EE02F02950D92694
:105280002A50DA22DECF2BF0DDCF2CF02BC02CF011
:105290002B6A2D6A2C502E6E20EE02F02950D92652
:1052A0002A50DA22DECF2FF0DDCF30F030C02FF0E1
:1052B000306A2F502D1220EE02F02950D9262A50A4
:1052C000DA222DC0DEFF2EC0DDFF20EE02F02950D5
:1052D000D9262A50DA22FF0EDE1ADD1A20EE02F05D
:1052E0002950D9262A50DA22DECF0FF0DDCF10F078
:1052F000A6C111F0A7C112F0260E146E660E136E31
:1053000061EC44F00FC0A6F110C0A7F120EE02F04E
:105310002950D9262A50DA22A6C1DEFFA7C1DDFF17
:105320007EEC70F020EE0AF02950D9262A50DA22BD
:1053300009C0DEFF0AC0DEFF0BC0DEFF0CC0DEFFCF
:1053400020EE0EF02950D9262A50DA22430EDE6EC6
:105350000F0EDD6E20EE04F02950D9262A50DA22F5
:10536000010EDBAE05D0500EDE5CC90EDE580EE33A
:10537000010153812EC1D9FF2FC1DAFF10EE0DF0CC
:10538000DE50E126DD50E222E7920FD00101539179
:105390002EC1D9FF2FC1DAFF10EE0DF0DE50E1264D
:1053A000DD50E222E7825397539531C0D9FF32C0D6
:1053B000DAFF010EDE6EDD6A000C31C0D9FF32C0AB
:1053C000DAFFDECF2BF0DDCF2CF02C5001E054D6ED
:1053D0002B50010AD8B412006E0A01E165D6140AF6
:1053E00001E1F5D6FB0A01E128D746D60001EE6FB0
:1053F0007DD178C158F079C159F07CC156F07DC19A
:1054000057F07AC154F07BC155F00AEC78F0030EE6
:105410000001F46F030C57B308D000016C6B0A0E47
:105420006B6FEE51DEEC41F007D000016C6B320E79
:105430006B6FEE51DEEC41F00001F42B120057B31C
:1054400008D000016C69F60E6B6FEE51DEEC41F096
:10545000F3D700016C69CE0E6B6FEE51DEEC41F0BC
:10546000EBD73C0EB86F3C0C58C078F159C079F1BD
:1054700056C07CF157C07DF154C07AF155C07BF124
:10548000320EB86F320C01015651010AD8E0030AFE
:10549000C2E0010AE9E0070AD8A41200E2D7BBEC97
:1054A00075F0020E98EC68F068D0720E6B6F020E09
:1054B0006C6F01017651040D7A0EF324D96E050E3E
:1054C000F420DA6EDECF6DF0DDCF6EF0B5EC67F074
:1054D00058C071F059C072F00001746B0A0E736FFE
:1054E000C9EC5AF071C0ECF072C0EDF0ECC079F08C
:1054F000EDC07AF0030E7B6F010E7C6F63EC42F01F
:1055000042D0720E6B6F020E6C6F01017651040D6A
:105510002A0EF324D96E060EF420DA6EDECF6DF07B
:10552000DDCF6EF0B5EC67F054C071F055C072F08D
:105530000001746B0A0E736FC9EC5AF0D3D7720E68
:105540006B6F020E6C6F01017651040D160EF32481
:10555000D96E060EF420DA6EDECF6DF0DDCF6EF080
:10556000B5EC67F056C071F057C072F00001746B73
:105570000A0E736FC9EC5AF0B5D7EE5196E0010AE6
:10558000C0E0030ADCE0D0EC71F00FEC78F054D707
:10559000720E816F020E826FD6EC67F0C3EC77F06B
:1055A0007ED0600E6B6F020E6C6F850E6D6F260ED7
:1055B0006E6FB5EC67F0600E0001E86F020EE96FE8
:1055C000540EEA6FEB6B12EC58F0600E00016B6F3B
:1055D000020E6C6F460E6D6F260E6E6F3DEC63F023
:1055E000600E0001E86F020EE96F560EEA6FEB6B7A
:1055F00012EC58F021D7600E6B6F020E6C6F4B0EE1
:105600006D6F260E6E6FB5EC67F0600E0001E86FEF
:10561000020EE96F580EEA6FEB6B12EC58F0600E59
:1056200000016B6F020E6C6F460E6D6F260E6E6F73
:105630003DEC63F0600E0001E86F020EE96F560E5C
:10564000EA6FEB6B12EC58F0F7D6600E6B6F020E40
:105650006C6F850E6D6F260E6E6FB5EC67F0600E89
:105660000001E86F020EE96F540EEA6FEB6B12EC6B
:1056700058F0600E00016B6F020E6C6F4A0E6D6F7A
:10568000260E6E6F3DEC63F0600E0001E86F020EB7
:10569000E96F580EEA6FEB6B12EC58F0CDD60001B3
:1056A000EE5101E17ED7010AA6E0030ACEE0C4D69E
:1056B000600E816F020E826FD6EC67F0BDD6F40EDD
:1056C0006B6F6C6B000E4DEC75F057A104D0560556
:1056D00002E10001F42B010157A11200020E56193C
:1056E00001E1AAD61200020EF46F020C0001F4517F
:1056F00001E17FD6020A01E1C6D6010A01E1CFD657
:10570000070A01E145D7010AD3E0030AD8E0010AFC
:10571000EAE012000201564B572B280E561903E1FE
:10572000230E5719D8A443D1140E0101B86F3FD1ED
:1057300074EC77F0486A0101226B010EB86F010C1E
:105740005A6A5A0E00019B6F0EEC34F0060E0101EE
:10575000B86F060C5A0E00019B6F0EEC34F05A50D5
:10576000D8A41200070E0101B86F070C000E1AEC46
:1057700077F00009D8B41200080EB86F0201566B1A
:10578000576B12001E0EB86F0001F46B12004850E8
:1057900004E04806220501E1226B090EB86F090CEE
:1057A0000F0E4860FAD7482A2251F7E1010E226F06
:1057B000F4D7140EB86F140C5651010AF1E0030A25
:1057C000E6E0010ADFE0070AD8A41200F2D75A6A1D
:1057D0005A0E00019B6F0EEC34F00A0E0101B86FF7
:1057E0000A0C5A0E00019B6F0EEC34F05A50D8A4EC
:1057F00012000B0E0101B86F0B0C000E1AEC77F0C3
:10580000000902E00C0EB86F57A11200560504E023
:10581000020E5619D8A412000C0EB86F0C0C02011F
:10582000566B576B080E0101B86F080C74EC77F0DB
:10583000150E0101B86F150C000E1AEC77F0000977
:10584000D8B41200160EB86F160C486A53991F6B25
:10585000F5EC78F00101775103E1216BB86B120090
:10586000770528E10FEC78F001017651040D140E54
:10587000F324D96E050EF420DA6EDECF81F0DDCF91
:1058800082F008EC64F0C3EC77F001017651040D6E
:10589000160EF324D96E050EF420DA6EDECF81F0F9
:1058A000DDCF82F008EC64F09A0E01011C6F170E38
:1058B000B86F170C000012000A0E00016F6F010193
:1058C0001C51F5EC6BF0796F7A6B7B6B010E7C6F82
:1058D00063EC42F001011C5102E01C0702D0180EDB
:1058E000B86F90EC6DF0A5B102D00A9102D0010121
:1058F0000A8153A102D00B8102D001010B917E518C
:1059000004E10A850A930A8703D00A850A830A9765
:10591000E3EC5DF0D0EC71F001015651D8B4120007
:10592000190EB86F190C22EC77F0216BB86B1200CE
:1059300012EC77F01A0E0101B86F1A0CC3EC77F075
:1059400001017651020DCC0EF324D96E020EF42023
:10595000DA6EDECF81F0DDCF82F008EC64F01B0E52
:105960000101B86F000E1AEC77F00009D8B41200EC
:10597000180EB86F180C0E0E481801E117D70CD787
:1059800074EC77F00101B82B1200000E69EC62F0A4
:10599000460E0101B86F460C010E69EC62F0F8D7B3
:1059A000206BF0D7202B130E2065130CF6D60101C7
:1059B000B85101E1BDD6010A01E1C2D6070A01E1F1
:1059C000C9D6010A01E1D2D60F0A01E1F5D6010AD2
:1059D00001E1FDD6030A01E104D7010A01E10DD777
:1059E000070A01E11CD7180A01E120D7010A01E1E9
:1059F00023D7030A01E129D7010A01E15DD70F0A84
:105A000092E0010A95E0030A99E0010AABE0050A79
:105A100002E13AEF2EF03E0AAEE0120AB1E0010ACE
:105A2000B4E00F0AADE0010AB7E07B0AB9E0010A71
:105A3000B9E012001FD1770E00019B6F010E9C6F21
:105A400001017651080D780EF32400019D6F070EB9
:105A5000C3D0000EF6EF29F0A551010ED8A4000E18
:105A6000A56FA50E00019B6F010E9C6F0101765181
:105A7000080D640EF32400019D6F060EF4209E6F46
:105A80006BEC2EF00101A551010ED8A4000EA56FFC
:105A9000A5B102D0599102D0010159811200020E24
:105AA000F6EF29F0010EF6EF29F07E51010ED8A491
:105AB000000E7E6F7E0E00019B6F010E9C6F010138
:105AC0007651080D500EF32400019D6F070EF4204F
:105AD0009E6F6BEC2EF001017E51010ED8A4000EDA
:105AE0007E6F7EB102D0529302D001015283090E23
:105AF000B819D8A4120020EE02F02E51D9262F5149
:105B0000DA2210EE0FF0DE50E126DD50E2227E5167
:105B1000B7EC77F0E76E12007651040DB40EF32463
:105B20000001826F060EF420836F810E846F010ED8
:105B30000CD07651040DA00EF3240001826F060EE6
:105B4000F420836F830E846F010E856F876B3C0E8C
:105B5000866F896B010E886F8B6B8A6F8D6B050E5C
:105B60008C6F8E6B010E8F6F906F0EEF32F086C1CF
:105B7000C8F20201C96B01017651040D8C0EF324A9
:105B80000001826F060EF420836FC80E846F020E30
:105B9000856F876B640E866F896B140E886F8B6BB5
:105BA0008A6F8D6B8C6F8E6B010E8F6F906F0EEC0A
:105BB00032F0C8C286F10101865150EF6BF07F0EC2
:105BC00000019B6F010E9C6F01017651080D280E9C
:105BD000F32400019D6F070EF4209E6F6BEF2EF0F3
:105BE0008051010ED8A4000E806F800E00019B6FC3
:105BF000010E9C6F01017651080D3C0EF32400014B
:105C00009D6F060EF4209E6F6BEC2EF0010180510B
:105C1000010ED8A4000E806F090EB819D8A4120086
:105C200080B102D08C9601D08C861200AE0E00019D
:105C30009B6F010E9C6F01017651080D000EF3243D
:105C400000019D6F070EF4209E6F5CEF26F0760E2C
:105C50000001716F010E726F010176510E0DA00EE1
:105C6000F3240001736F090EF420746F050E756F35
:105C700008EF35F0485001E1DED6010A01E1E9D62E
:105C8000030A01E1E9D6010A01E109D7070A01E1A6
:105C900009D7010A01E109D7030A01E13DD7010A49
:105CA00001E147D70F0A01E162D7010A02E157EF8C
:105CB0004AF0030A02E121EF3AF0010A02E156EF4D
:105CC00041F0070A01E17BD7010A8AE0030AAEE04E
:105CD000010ABDE01200F45177EC6DF00201246B73
:105CE00021D19BC0D9FF9CC0DAFFDF50446E0AEC83
:105CF00078F0030E0001F46F030C440401E1446AE0
:105D00000001F42B12004450FBE1010E446EF8D761
:105D10003C0EB86F3C0C485008E1440406E158B30F
:105D200004D0140E0001F46F140C9BC0D9FF9CC06A
:105D3000DAFF44C0DFFF320EB86F320C010156515A
:105D4000010AE1E0030AD9E0010AE5E0070AD8A464
:105D50001200DED7F3EC78F00009D8B41200720E0E
:105D60006B6F020E6C6F9DC0D9FF9EC0DAFFDECF55
:105D70006DF0DDCF6EF0B5EC67F0600E00016B6F7B
:105D8000020E6C6F20EE02F09D51D9269E51DA2250
:105D9000DECF6DF0DDCF6EF0B5EC67F0445017E16B
:105DA000720E00016B6F020E6C6F4C0E6D6F1D0E4C
:105DB0006E6F3DEC63F0600E00016B6F020E6C6F56
:105DC000450E6D6F1B0E6E6F3DEC63F016D0720EBC
:105DD00000016B6F020E6C6F450E6D6F1B0E6E6FC8
:105DE0003DEC63F0600E00016B6F020E6C6F4C0EA9
:105DF0006D6F1D0E6E6F3DEC63F0720E00016B6FE8
:105E0000020E6C6F20EE04F09D51D9269E51DA22CD
:105E1000DECF6DF0DDCF6EF03DEC63F0600E000183
:105E20006B6F020E6C6F20EE06F09D51D9269E51CD
:105E3000DA22DECF6DF0DDCF6EF03DEC63F098EC52
:105E400078F05ED733EC71F00009D8B4120045D079
:105E5000020EF46F020C000E6B6F090E6C6F0101E5
:105E60007651020D280EF324D96E040EF420DA6E5A
:105E7000DECF6DF0DDCF6EF0B5EC67F012EC77F0B1
:105E80003FD70FEC78F001017651020D140EF32488
:105E9000D96E040EF420DA6EDECF81F0DDCF82F011
:105EA00008EC64F02DD7C3EC77F001017651020DB8
:105EB0001E0EF324D96E040EF420DA6EDECF81F0CC
:105EC000DDCF82F008EC64F0010E0201286F080EAD
:105ED000296F010E81EC76F013D7F40E6B6F6C6BAB
:105EE000000E4DEF75F01B0EF46F1B0C000E81ECD5
:105EF00076F09BC0D9FF9CC0DAFF44C0DFFF320EB2
:105F000004D0000E81EC76F03C0E0101B86F06D093
:105F100001015651030AEAE0070AF3E0180E0001F6
:105F2000F46F180C0001F45101E1DBD6020A01E123
:105F300005D7010A01E10ED7070A84E0010A88E0CB
:105F4000110A89E0010A9DE0030AADE0010AC5E0FB
:105F50000F0AC9E0010AC7E0020ADAE012001EECEB
:105F600078F06BC0B6F16CC0B7F1010153A1B4D0A9
:105F700053955397FDD8D7D8E796FAD8D4D8E79455
:105F8000F00E0001C06FE10EC16F410EC26F07D964
:105F90002BEC6CF017D9FE0E7C6FE80E7D6F3A0E7D
:105FA0007E6F1DEC4BF0C6D8F3EC3EF0FDD8F7D871
:105FB0002BEC6CF007D9F3D82BEC6CF0FCD81DEC73
:105FC0004BF079C0BDF0C9D8460E7C6FDE0E7D6FF8
:105FD000B20E7E6F1DEC4BF0ADD8F3EC3EF0E4D882
:105FE000DED82BEC6CF0EED8DAD82BEC6CF0E3D8E2
:105FF0001DEC4BF079C0BDF0B0D8D1D82BEC6CF0D3
:10600000DAD81DEC4BF079C0BDF0A7D86D0E7C6FCF
:10601000A00E7D6F2B0E7E6F1DEC4BF08BD8F3EC3A
:106020003EF0C2D8C0C079F0C1C07AF0C2C07BF0E7
:106030007C6B200E7D6F410E7E6F1DEC4BF079C0A6
:10604000C0F07AC0C1F07BC0C2F0C0C0B7F0C1C020
:10605000B8F0C2C0B9F08DEC5AF094D8F5EC4CF021
:106060008FC06AF190C06BF183D810EE06F085D82E
:106070006AC1E6FF6BC1E5FFC0C0A8F0C1C0A9F0CE
:10608000C2C0AAF0AB6B200EAC6F410EAD6F65ECD9
:106090004EF0A8C0B7F0A9C0B8F0AAC0B9F08DEC16
:1060A0005AF070D8F5EC4CF08FC068F190C069F1EF
:1060B000010169BF0AD0695103E1330E685D05E350
:1060C000538556D830D8E78611D069AF0FD05387A3
:1060D0004FD829D8E7840AD0696B140E686F48D866
:1060E00010EE06F04AD8C80EE66EE56A3CEC60F0A9
:1060F00000016E6B120E6D6FF6EC71F06BC06CF1FF
:106100006CC06DF16CC171F06DC172F062D8C9ECF8
:106110005AF071C06CF172C06DF1200E01016C2754
:10612000000E6D23000C10EE0DF0DE50E126DD5068
:10613000E222120079C0BDF07AC0BEF07BC0BFF091
:10614000C0C092F0C1C093F0C2C094F0BDC095F041
:10615000BEC096F0BFC097F012007AC0BEF07BC000
:10616000BFF0BDC079F0BEC07AF0BFC07BF01200B6
:106170002EC1D9FF2FC1DAFF1200DE50E126DD501B
:10618000E2221200B7C0C0F0B8C0C1F0B9C0C2F07E
:10619000C0C08FF0C1C090F0C2C091F01200B6C173
:1061A00073F0B7C174F0120092C0C0F093C0C1F098
:1061B00094C0C2F0120073C07CF074C07DF075C052
:1061C0007EF0120073C079F074C07AF075C07BF075
:1061D0001200746B0A0E736F0A0C770E00016D6F5C
:1061E000010E6E6F1DEC23F02CEC6DF0A50E6D6FA3
:1061F000010E6E6F706B27EC23F02CEC6DF0780EB7
:106200006D6F010E6E6F706B2BEC23F02CEC6DF04C
:106210007A0E6D6F010E6E6F706B040EFBD82CEC56
:106220006DF07C0E6D6F010E6E6F706B060EF2D806
:106230002CEC6DF0810E6D6F010E6E6F706B080EA1
:10624000E9D82CEC6DF0830E6D6F010E6E6F706BE4
:106250000A0EE0D82CEC6DF0850E6D6F010E6E6F9E
:10626000706B0C0EF8EC22F02CEC6DF0870E6D6F5D
:10627000010E6E6F706B0D0EF8EC22F02CEC6DF0D1
:106280007E0E6D6F010E6E6F706B0E0EF8EC22F0CD
:106290002CEC6DF0760E6D6F010E6E6F706B0F0E45
:1062A000F8EC22F02CEC6DF0580E6D6F010E6E6F55
:1062B000706B100EF8EC22F02CEC6DF05C0E6D6F34
:1062C000010E6E6F706B110E15EC23F02CEC6DF05F
:1062D000600E6D6F010E6E6F706B150E15EC23F076
:1062E0002CEC6DF0640E6D6F010E6E6F706B190EFD
:1062F00015EC23F02CEC6DF08D0E6D6F010E6E6FB2
:10630000706B1D0E87D82CEC6DF08F0E6D6F010E2B
:106310006E6F706B1F0EF8EC22F02CEC6DF0900E8F
:106320006D6F010E6E6F706B200EF8EC22F02CEC8E
:106330006DF0910E6D6F010E6E6F706B210E6AD84D
:106340002CEC6DF07F0E6D6F010E6E6F706B230E77
:10635000F8EC22F02CEC6DF0800E6D6F010E6E6F7C
:10636000706B240EF8EC22F02CEC6DF0930E6D6F38
:10637000010E6E6F706B250E15EC23F02CEC6DF09A
:10638000AE0E6D6F010E6E6F706B290EF8EC22F081
:106390002CEC6DF0590E6D6F010E6E6F706B2A0E46
:1063A000F8EC22F02CEC6DF0350E6D6F010E6E6F77
:1063B000706B2B0E2FD82CEC6DF03F0E6D6F010E15
:1063C0006E6F706B2D0E26D82CEC6DF0490E6D6F34
:1063D000010E6E6F706B2F0E1DD82CEC6DF0450EFC
:1063E0006D6F010E6E6F706B310E14D82CEC6DF06A
:1063F00045C13BF146C13CF145C14FF146C150F1A9
:10640000860E6D6F010E6E6F706B330EF8EC22F01E
:106410002CEF6DF06F6F020E716F020CF4D084C020
:10642000D9FF85C0DAFFDECF08F1DDCF09F10AEC34
:1064300078F00001F42B1200720E6B6F020E6C6F7D
:1064400082C0D9FF83C0DAFFDECF6DF0DDCF6EF002
:10645000B5EC67F0600E00016B6F020E6C6F20EE02
:1064600002F08251D9268351DA22DECF6DF0DDCFE2
:106470006EF0B5EC67F098EC78F0030E0001F46F65
:10648000030C57B31FD000018A51865D916F8B5169
:106490008759926F010108510001915D9251800A64
:1064A000936F01010951800A0001935906E38A5153
:1064B0000101082700018B511ED086C008F187C05A
:1064C00009F1B7D700018C51865D916F8D518759C5
:1064D000926F010108510001915D9251800A936F02
:1064E00001010951800A00019359E7E38C51010130
:1064F000082700018D51010109239BD757B31DD0F7
:1065000000018A518825916F8B518921926F915199
:106510000101085D0951800A0001936F9251800AC0
:10652000935906E38A510101085F00018B511CD089
:1065300088C008F189C009F17CD700018C518825F9
:10654000916F8D518921926F91510101085D09511F
:10655000800A0001936F9251800A9359E9E38C51AC
:106560000101085F00018D510101095B62D73C0EFA
:10657000B86F3C0C84C0D9FF85C0DAFF08C1DEFFCC
:1065800009C1DDFF320EB86F320C01015651010A0C
:10659000B5E0030A01E175D7010AECE0070AD8A4C7
:1065A0001200E5D708C171F009C172F090C073F014
:1065B000746BC9EC5AF071C094F072C095F094C03D
:1065C00079F095C07AF08EC07BF08FC07CF063ECE0
:1065D00042F0D0EC71F02DD7F40E6B6F6C6B000EA7
:1065E0004DEC75F057A104D0560502E10001F42BE3
:1065F000010157A11200020E561901E11AD712002B
:10660000020EF46F020CF45101E109D7010A01E115
:1066100013D7030ABAE0010AC5E0070ADDE0010A60
:10662000EFE012008E6F00018EAF4BD08E6D8E5159
:10663000800A120F25E3E3D8D0D86BBF6C0717ECA4
:106640005EF0E7D8C9EC5AF0D6D881D8746B640EE6
:10665000DBD871BF7207C9EC5AF07151120F030DEC
:10666000D10E2CEC41F01DEC4BF096D86BBF6C07B3
:1066700017EC5EF06B51030D6AD81DEC4BF09FD008
:106680008E51800A750F16E3746B0A0EBDD871BF68
:106690007207C9EC5AF0AFD8D10E2CEC41F096D865
:1066A0006BBF6C0717EC5EF06B51030D50D81DECFF
:1066B0004BF085D08E51030DD10EF324D96E0A0E06
:1066C00091D08E51800A120F25E399D886D86BBFDE
:1066D0006C0717EC5EF09DD8C9EC5AF07151090FA8
:1066E00055D842D8746B640E8FD871BF7207C9EC4D
:1066F0005AF07151120F4AD840D81DEC4BF04CD8CB
:106700006BBF6C0717EC5EF06B5140D82DD81DECB9
:106710004BF055D08E51800A750F16E3746B0A0E3C
:1067200073D871BF7207C9EC5AF07151090F2ED896
:1067300024D84CD86BBF6C0717EC5EF06B5126D891
:1067400013D81DEC4BF03BD08E5120D84BD0D10E3E
:10675000F324D96E0A0EF420DA6EDECF7CF0DECFA1
:106760007DF0DDCF7EF01200F420DA6EDECF7CF01B
:10677000DECF7DF0DDCF7EF01200F420DA6EDECFCA
:1067800079F0DECF7AF0DDCF7BF01200030DAA0E98
:10679000F324D96E0A0E120079C08BF07AC08CF007
:1067A0007BC08DF08BC079F08CC07AF08DC07BF00F
:1067B0006E6B0A0E6D6F8E516B6F6C6B120079C031
:1067C00088F07AC089F07BC08AF012006E6B0A0EE6
:1067D0006D6F8E516B6F6C6B12006D6F8E516B6FA6
:1067E0006C6B1200F420DA6EDECF88F0DECF89F019
:1067F000DDCF8AF012007151090F030D1200746B86
:106800000A0E736F6E6B640C736F8E51716F726BC7
:1068100012006BC071F06CC072F01200F0D0020E6A
:1068200098EC68F0720E6B6F020E6C6F010176517E
:10683000040D3C0EF324D96E050EF420DA6EDECF83
:106840006DF0DDCF6EF0B5EC67F0600E00016B6FA0
:10685000020E6C6F01017651040D3E0EF324D96EC9
:10686000050EF420DA6EDECF6DF0DDCF6EF0B5EC04
:1068700067F00101225159E1720E00016B6F020EA7
:106880006C6F4C0E6D6F1D0E6E6F3DEC63F0600E05
:1068900000016B6F020E6C6F450E6D6F1B0E6E6FFD
:1068A0003DEC63F0720E00016B6F020E6C6F48508E
:1068B000020DF3CF9CF0F4CF9DF001017651220D33
:1068C000000EF32400019E6F0A0EF4209F6F9C516E
:1068D0009E25D96E9D519F21DA6EDECF6DF0DDCF02
:1068E0006EF03DEC63F0600E00016B6F020E6C6F9A
:1068F00048509C6F9D6BD8909C379D370101765115
:10690000220D020EF32400019E6F0A0EF4209F6FE9
:106910009C519E25D96E9D519F21DA6EDECF6DF080
:10692000DDCF6EF03DEC63F058D0720E00016B6F5E
:10693000020E6C6F450E6D6F1B0E6E6F3DEC63F0BB
:10694000600E00016B6F020E6C6F4C0E6D6F1D0EB2
:106950006E6F3DEC63F0720E00016B6F020E6C6F98
:1069600048509C6F9D6BD8909C379D3701017651A4
:10697000220DFE0EF32400019E6F090EF4209F6F7E
:106980009C519E25D96E9D519F21DA6EDECF6DF010
:10699000DDCF6EF03DEC63F0600E00016B6F020E18
:1069A0006C6F4850020DF3CF9CF0F4CF9DF00101C5
:1069B0007651220D000EF32400019E6F0A0EF42082
:1069C0009F6F9C519E25D96E9D519F21DA6EDECF1F
:1069D0006DF0DDCF6EF03DEC63F098EC78F00001E7
:1069E0009B51D96EDA6ADF2A120033EC71F000098C
:1069F000D8B412009B51D96EDA6ADF6A12009B513B
:106A0000D96EDA6ADF5001E10AD7010AEEE012001E
:106A1000ACD0EAD8DF50436E4350766F776BFF0EF1
:106A20007525786F796BFF0E79237651781906E119
:106A30007751791903E1010E476E01D0476A0AECDC
:106A400078F0030E0001F46F030C435004E043069A
:106A5000470401E1476A0001F42B1200FF0E000118
:106A60007525766F776BFF0E77234350786F796BC0
:106A70007651785D7951800A7A6F7751800A7A5918
:106A8000EAE2432A4750E7E1010E476EE4D73C0EA5
:106A9000B86F3C0CA9D843C0DFFF320EB86F320C80
:106AA00001015651010ADAE0030ACFE0010AF2E0DF
:106AB000070AD8A41200EBD72AEC56F073C0D9FF0E
:106AC00074C0DAFF80D8B5EC67F024EC56F020EE05
:106AD00002F07351D9267451DA2275D8B5EC67F0FB
:106AE000475015E166D87AD83DEC63F067D870D886
:106AF0003DEC63F05ED845D8040E51D83DEC63F010
:106B00005DD83FD8060E4BD83DEC63F014D051D879
:106B10005FD83DEC63F052D861D83DEC63F049D8C2
:106B200030D8020E3CD83DEC63F048D82AD8040E89
:106B300036D83DEC63F098EC78F08DD7F40E6B6F9F
:106B40006C6B000E4DEC75F057A104D0560502E1B8
:106B50000001F42B010157A11200020E561901E1A8
:106B60007AD71200020EF46F020CF45101E151D7F2
:106B7000020A96E0010AA0E0070AE0E0010AF2E05A
:106B800012006C6F4350766F776BD89076377737FB
:106B900076517325786F77517421796F12007825BB
:106BA000D96E000E7921DA6EDECF6DF0DDCF6EF09A
:106BB0001200720E00016B6F020E1200600E0001D7
:106BC0006B6F020E1200DECF6DF0DDCF6EF01200A3
:106BD0006C6F450E6D6F1B0E6E6F12006C6F4C0E5E
