:10110000A8EF08F0FFFFFFFF5B82E2EF4FF0FFFF69
:10111000FFFFFFFFFFFFFFFF5B80D8CF66F0E8CF48
:1011200067F0E0CF68F0FACF69F0FBCF6AF0F2BA6F
:10113000F2A402D064EC77F06AC0FBFF69C0FAFF4A
:1011400068C0E0FF67C0E8FF66C0D8FF5B90100092
:10115000F1EF36F00084F166ED54EDEAB18CBDB6E6
:10116000F066C980F17CF178F174F118F112F10C9C
:10117000F1D0EF8ED51AC00100030001000100007C
:10118000000A00000064000000E8030000102700CF
:1011900000A086010040420F008096980000E1F513
:1011A0000500CA9A3B6EEC60F194F14CDC82EC6471
:1011B000F196F17CDC06EB96F048F11CDC5AEC5C15
:1011C000F144F1ECDB4573207775726465206B6543
:1011D000696E65206572666F6C67726569636865C4
:1011E000204B616C696272696572756E6720766FFB
:1011F0007267656E6F6D6D656E202D206469652068
:1012000070482D576572742D416E7A656967652047
:10121000697374206D94676C69636865727765693A
:101220007365206665686C657268616674202D2040
:10123000776F6C6C656E20536965207769726B6C93
:1012400069636820666F727466616872656E3F2EAE
:101250002E2E2E20004E6F2073652068612072654F
:10126000616C697A61646F20756E612063616C697D
:101270006272616369E26E20636F727265637461AA
:10128000202D206C6173206C65637475726173200E
:10129000646520704820706F6472E1616E20736530
:1012A0007220696D7072656369736173202D209F70
:1012B000657374E02073656775726F2064652071D3
:1012C000756520646573656120636F6E74696E7502
:1012D00061723F2E2E2E2000417563756E20827440
:1012E000616C6F6E6E6167652072827573736920C1
:1012F0006E276120827482206566666563747582DC
:10130000202D206C6573206C656374757265732085
:10131000646520704820706F7572726F6E742088DB
:1013200074726520696E65786163746573202D2021
:10133000887465732D766F7573207396722064655B
:1013400020766F756C6F697220636F6E74696E754D
:101350006572203F2E2E2E20004572206973206773
:1013600065656E206765736C6161676465206B619C
:101370006C69627261746965207569746765766FFE
:10138000657264202D2070482D6D6574696E6765E7
:101390006E207A6F7564656E206F6E6E6175776B07
:1013A0006575726967206B756E6E656E207A696A05
:1013B0006E202D2062656E742075207A656B6572D3
:1013C0002064617420752077696C7420646F6F727B
:1013D0006761616E3F2E2E2E20004E6F2073756365
:1013E0006365737366756C2063616C6962726174A6
:1013F000696F6E20686173206265656E207065722A
:10140000666F726D6564202D20704820726561647E
:10141000696E677320636F756C6420626520696E06
:101420006163637572617465202D20617265207936
:101430006F75207375726520796F752077616E7492
:1014400020746F2070726F636565643F2E2E2E20AE
:1014500000207374656C6C656E2C203C63616C3E7F
:1014600020647281636B656E2C20756D20666F72CF
:10147000747A7566616872656E2E20536965206B9B
:10148000946E6E656E206A656465727A6569742013
:101490003C053E20647281636B656E2C20756D2067
:1014A000646965204B616C696272696572756E670B
:1014B0002061627A756272656368656E2E20200015
:1014C0002C2070756C736172203C63616C3E2070DF
:1014D00061726120636F6E74696E7561722E205047
:1014E000756C736172203C053E20656E20637561EA
:1014F0006C7175696572206D6F6D656E746F2070AB
:101500006172612063616E63656C6172206C612041
:1015100063616C696272616369E26E2E2020002C47
:101520002070726573736572203C63616C3E20703D
:101530006F757220636F6E74696E7565722E2050C0
:10154000726573736572203C053E208520746F754B
:1015500074206D6F6D656E7420706F757220616E92
:101560006E756C6572206C278274616C6F6E6E6133
:1015700067652E2020002C206472756B206F702010
:101580003C63616C3E206F6D20646F6F72207465E8
:10159000206761616E2E204472756B206F70203C55
:1015A000053E206F6D206B616C69627261746965C4
:1015B00020746520616E6E756C6572656E2E2000FC
:1015C0002C207072657373203C63616C3E20746FD5
:1015D00020636F6E74696E75652E2050726573732B
:1015E000203C053E20616E7974696D6520746F2022
:1015F00063616E63656C2063616C696272617469BA
:101600006F6E2E200052696E636572206C612073CC
:101610006F6E64652064652070482C206C612070BA
:101620006C616365722064616E73206C6120736FFE
:101630006C7574696F6E2000456E6A7561676172C2
:10164000206C6120736F6E64612064652070482C8B
:1016500020636F6C6F63617220656E20004173734D
:10166000657274696F6E206661696C65643A2025E5
:1016700073206C696E652025643A20222573220A46
:1016800000636F6E6669672D3E736176655365749E
:1016900074696E677320213D2028302900636F6EC6
:1016A0006669672D3E70726F7669646553697A6505
:1016B00020213D202830290053706F656C20704830
:1016C0002D70726F62652C20706C6161747320697B
:1016D0006E2000636F6E6669672D3E777269746570
:1016E000427974657320213D202830290052696EAB
:1016F00073652070482050726F62652C20706C6199
:10170000636520696E2000636F6E6669672D3E72A7
:10171000656164427974657320213D202830290079
:101720007772697465506572696F64203E207461D8
:10173000736B506572696F640070482D536F6E64EF
:10174000652061627370816C656E2C20696E20006B
:101750007372632F5461736B732F726164696F547A
:1017600061736B2E63007372632F526164696F2F14
:10177000726164696F2E63005420616374697661DD
:10178000646F2028736567290054656D7073206D40
:10179000617263686520287329009074616C6F6EB4
:1017A0006E6572207048342F3130005A656974209C
:1017B000616267656C2E21203C063E00546D656FAA
:1017C0007574207672737472203C063E0044826CFD
:1017D000616920657870697282213C063E00536918
:1017E0006E6420536965207369636865723F0049C0
:1017F0006E73742076657265697374652070480035
:101800004573207775726465206B65696E65204B42
:10181000004E6F207375636365737366756C206328
:1018200061004572206973206765656E2067657386
:101830006C61004E6F207365206861207265616C79
:10184000697A6100417563756E208274616C6F6E98
:101850006E616765007048342F31302043616C69D8
:101860006272617465005282676C657220636F6E8C
:10187000747261737465004D6F6E69746F72696E16
:10188000672062657A696700546572756773746C66
:101890006C6E2062657A6967007048342D4B616C0C
:1018A000696272696572756E67007048372D4B61A9
:1018B0006C696272696572756E67007374616E64DB
:1018C000616172647761617264656E005282696EF3
:1018D000697469616C69736174696F6E0070483412
:1018E0002F3130206B616C69627265726E004472D8
:1018F0006B206F702004206F6D2074652070006471
:10190000826661757420726573746175728273008A
:101910005282676C657220704820726571756973B8
:10192000005265737420616A757320707265646516
:10193000740045696E73742E205281636B6C696309
:10194000687400526573657420746F204465666125
:10195000756C74004163687472677276726C206291
:10196000696A737400416A7573746172206C757A68
:1019700020706F7374005465727567206F702073E8
:10198000746E6472647700526573746F726564205C
:10199000466163746F7279006F757443617061633F
:1019A000697479203E20330041616E2D74696A6448
:1019B00020287365632E2900417566205A65697475
:1019C000202853656B2E29005569742D74696A644B
:1019D00020286D696E2E2900547073206172728800
:1019E0007420286D696E290050756D7065204861FE
:1019F0006E64626574722E005374616E642E207A78
:101A0000757281636B732E0043616C6962726172DF
:101A1000207048342F313000887465732D766F75CF
:101A20007320739672203F00536574205265717560
:101A30006972656420704800416A7573746573202B
:101A400066E0627269636100426F6D626120766573
:101A50006C6F6369646164005072657373657220B2
:101A60000420706F6D706500416A75737420636F38
:101A70006E7472617374650070482D4B616C69629D
:101A800072696572756E67005282676C657220724A
:101A90008274726F82636C00506F6D706520656E2A
:101AA000206D616E75656C00446F736572656E20A4
:101AB0006F6D682F6F6D6C0041636874657267723B
:101AC0006F6E647665726C0070483130206B616CAB
:101AD0006962726572656E00363053656320436FCC
:101AE000756E74646F776E00313553656320436F94
:101AF000756E74646F776E00507265737320042086
:101B0000746F2050756D700050726F766973696FD5
:101B10006E6E656D656E740045696E73742E204B34
:101B20006F6E747261737400436F6E74726173745C
:101B30002041646A7573740020202020202020201A
:101B400020202020202000322F332070756E74203A
:101B500063616C2020009074616C20322F33207000
:101B60007473202000322F3320506F696E7420432D
:101B7000616C20004175737A65697420284D696E27
:101B80002E2900542064657361637420286D696E8A
:101B900029004F75693C063E2C4E6F6E3C053E2C6D
:101BA00000322F332D50756E6B742D4B616C2E00EF
:101BB0007048342F31302D4B616C6962722E009069
:101BC00074616C6F6E6E65722070483130004A61CE
:101BD0003C063E2C204E65696E3C053E004F756903
:101BE0003C063E2C204E6F6E3C053E0054696D65F0
:101BF00064204F757421203C063E005420657870A7
:101C0000697261646F203C063E00436F6E736967C2
:101C10006E652064652070480043616C6962726182
:101C20006369E26E20704800528274726F82636C46
:101C300061697261676500704831302043616C6989
:101C4000627261746500436F6E74726F6C652062BE
:101C5000657A6967004265726569747374656C6C56
:101C6000756E6700704834206B616C6962726572D2
:101C7000656E00704837206B616C696272657265D1
:101C80006E0070482043616C6962726174696F6EA6
:101C9000003130302520656E63656E6469646F00C5
:101CA0005265737461626C656369656E646F00533D
:101CB000756269722F416C63616C696E6F0050616F
:101CC00072616D8A74726573207061720043616C19
:101CD00020322F332070756E746F7300436F6E74F3
:101CE000726173742062696A7374005265737461FF
:101CF000757220648266617574004F666654696D02
:101D00006520284D696E29005765726B65696E7391
:101D100074656C6C2E0043616C6962726172207034
:101D2000483130009074616C6F6E6E65722070483F
:101D300034009074616C6F6E6E657220704837006D
:101D40004A613C063E2C204E65653C053E004A61DA
:101D50003C063E2C4E65696E3C053E005965733C61
:101D6000063E2C204E6F3C053E0041726520796F87
:101D70007520737572653F009F457374E02073652D
:101D80006775726F3F0042656E742075207A656BCF
:101D900065723F009074616C6F6E6E616765207054
:101DA0004800416C61726D61206DE16E696D61008A
:101DB000416C61726D61206DE078696D61005075F4
:101DC0006D70204F766572726964650070482D6B86
:101DD000616C69627261746965004175676D2F6439
:101DE000696D20646F736500506F6D706520766952
:101DF0007465737365007048342043616C69627266
:101E0000617465007048372043616C696272617467
:101E100065004F6D686F6F672F616C6B616C690057
:101E20004261636B6C696768742041646A00506F3B
:101E30006D70206F7068656666656E00704820651D
:101E4000696E7374656C6C656E004B6F6E74726F47
:101E50006C6C696572656E00704820436F6E7472B9
:101E60006F6C6C6572004C757A20706F737465725C
:101E7000696F72005375622F42616A20646F7369E3
:101E800073007265737461626C656369646F73007B
:101E900043616C20322F3370756E746F7300546918
:101EA000656D706F20646573616374007A7572810B
:101EB000636B67657365747A74004D69736C756BD9
:101EC00074203C063E00005A756D2070756D70657B
:101ED0006E2004004F6E54696D6520285365632998
:101EE00000704831302D4B616C6962722E00436185
:101EF0006C6962726172207048340043616C69627F
:101F000072617220704837004A613C063E2C4E6573
:101F1000653C053E0053E13C063E2C204E6F3C05DF
:101F20003E005965733C063E2C4E6F3C053E004911
:101F30006E7374656C6C656E2070480053757276B4
:101F400065696C6C616E63650054656D7073206DBE
:101F5000617263686500416C61726D6520626173D6
:101F6000736500416C61726D652068617574650010
:101F7000496E656666656374696576650050726F63
:101F8000766973696F6E696E6700426F6D6261207A
:101F90006D616E75616C00506F6D7065206D616E66
:101FA00075656C005A757281636B7365747A656EC2
:101FB000007061726120626F6D62656172004375CD
:101FC000656E746120617472E073007265626F7592
:101FD00072732036302073007265626F75727320E1
:101FE00031352073004661696C6564203C063E0013
:101FF000004665686C6572203C063E0000547073B4
:10200000206D6172636865200053E13C063E2C4EF2
:102010006F3C053E004765616E6E756C6565726468
:102020000031303025206D617263686500496E654E
:102030006666656374697665004265766F6F726186
:1020400064696E6700436F6E74726F6C6C696E6763
:10205000009A62657277616368756E6700417567A3
:102060006D2F616C63616C69004162676562726FBC
:102070006368656E00436F6E74726F6C6572656E37
:102080000042616A61722FE06369646F0050756D90
:1020900070652054656D706F004F6D6C6161672FC6
:1020A0007A7575720054656D7073206172728874F0
:1020B00000476573706569636865727400456E7288
:1020C00065676973747282009063686563203C067B
:1020D0003E00004572726F72203C063E000048725E
:1020E000206D6172636865200045617274684C6997
:1020F0006E6B200048696768416C61726D20004C0E
:10210000616167616C61726D2000486F6F67616C1F
:1021100061726D2000416C61726D614DE16E200055
:1021200052657175657269646F2000416C61726DF2
:10213000614DE0782000416C61726D2D4D696E2E0D
:1021400000416C61726D2D4D61782E00462F572035
:1021500076352E352E3500417369676E61722070B9
:102160004800416A75737461722070480050756D43
:10217000702053706565640050756D70204F7672E5
:10218000646500556E7769726B73616D65004D6FA4
:102190006E69746F72696E67004D696E2D20416CB7
:1021A00061726D004D61782D20416C61726D004847
:1021B00069676820416C61726D004C6161672061E4
:1021C0006C61726D00486F6F6720616C61726D00A9
:1021D000446F73652055702F446E004F70676573B0
:1021E0006C6167656E009A62657277616368656E9F
:1021F00000528267756C6174696F6E0030252061D2
:1022000070616761646F004D656D6F72697A6164BA
:102210006F00506F6D702074656D706F005469654C
:102220006D706F206163740073616E732065666604
:102230006574009074616C20322F337074005461A7
:10224000616C2020202020004964696F6D6120208E
:1022500020004C616E67756520202000537072610C
:10226000636865202000416C61726D65204220002A
:10227000416C61726D65204820005265717569720C
:102280006564200041616E2D74696A64200055699F
:10229000742D74696A6420005765726B74696A648E
:1022A00020004C616E677561676520005665726538
:1022B0006973746520004C6F77416C61726D20000A
:1022C00054206465736163742000417566205A650B
:1022D000697420004C6175667A65697420005470D9
:1022E0007320617272742000446F736973202B2F06
:1022F0002D0043616E63656C6C656400446F776E9E
:102300002F416369640044696D2F616369646500EE
:102310004865727374656C6465004B6F6E74726FA0
:102320006C6C6500436F6E747261737465006166F6
:1023300074656C6C696E6700526573657474696E60
:1023400067002B2F426173697363680055702F41DA
:102350006C6B616C690045617274684C696E6B00EE
:10236000322F3370742043616C00322F337074202D
:1023700063616C004C6F7720416C61726D004D6F32
:102380006E69746F72656E0043616E63656C616443
:102390006F004D6F6E69746F72656F005296636B5C
:1023A0006C69636874004261636B6C696768740090
:1023B000436F6D70746520850050756C7361722079
:1023C00004004572666F72642E20004F6666546981
:1023D0006D65200052756E54696D652000417573FE
:1023E0007A6569742000496E6163746976610041A1
:1023F000616E2D74696A64005569742D74696A642C
:10240000004C616E677561676500636F6E74726F13
:102410006C6500313030252061616E00313030252F
:102420002045696E005470726F6365736F00446578
:102430006661756C74730030252061727288740057
:102440004C6175667A65697400436F6E747261736E
:102450007400696E65666963617A00542061637413
:102460002E20004F6E54696D652000446F73696EB5
:1024700067200052657175697320007048342831F7
:102480003029003630207365632E003135207365A6
:10249000632E0036302053656B2E00313520536596
:1024A0006B2E0053707261636865004F66665469F5
:1024B0006D6500436F6E74726F6C00313030252093
:1024C0004F6E00647281636B656E00446F7365725A
:1024D000656E002D2F5361756572004D6F6E6974C6
:1024E0006F72004175737A65697400286E756C6C43
:1024F0002900416E6E756C820054656D702E20004F
:10250000426F6D62612000506F6D706520005075E4
:102510006D706520004170726F762E0053657420D7
:102520007048004964696F6D6100416C61726D6152
:1025300000416374697661004D6172636865004FA4
:102540006E54696D6500416C61726D65004C616E21
:10255000677565003025204F66660036302073654C
:1025600067003135207365670030252041757300A1
:10257000302520756974004D454E55200044617426
:102580006120004D6F64652000446F736520005723
:10259000694669200054656D702000506F6D702091
:1025A0000050756D70200020457272310020457218
:1025B000723200204572723300426F6D62610053C7
:1025C0006176656400506F6D70650050756D706563
:1025D0000025332E31660025342E31660057692DD3
:1025E00046690020436F6E6E00446F736973004D3F
:1025F0006F647573004172728874004E6963687409
:102600000025302E327500206D5620006D696E2E2B
:102610000044617461004D6F646500446F73650030
:102620005461616C004D6F646F00506F6D70004EAF
:1026300069657400646174610035302500323525A8
:102640000037352500204841002053500073706149
:102650000066726100736563006E6C6400656E678E
:102660000041616E006D696E004E6F6E00487273BE
:1026700000556974004E6F740064657500256C75B3
:10268000002D2D004C41004F4B00256400416E0091
:102690004E6F004F720055720003003A004300462F
:1026A00000000001A06B9F690201246B040E010170
:1026B00055190CE112510AE1000E55EC76F0400E6E
:1026C0000101C96F010E126FE5EF18F0280E965D3B
:1026D000230E975902E2E5EF18F0000E55EC76F064
:1026E000400E0101C96F966B976BE5EF18F056A18C
:1026F0000ED00001A06B030E9F6F0101529DC00E12
:10270000C96FDEEC77F0010E0101146F0BD0000EE3
:10271000EEEC76F0000906E000019F6BA06B010172
:10272000216BC96B0201286B040E296F0101126B2A
:102730007CEF19F0E3EC77F001017551020DE30E27
:10274000F324D96E020EF420DA6EDECF81F0DDCFF5
:1027500082F015EC64F0020E010120D056A504D0E1
:10276000010E126F500E1AD0000EEEEC76F000093A
:1027700002E17CEF19F0050E11D0136B52A102D0CB
:102780000B8102D001010B91579357915795366BEE
:10279000406B4A6BE4EC6EF0060EDED7C96F7CEF3F
:1027A00019F0C3EC5DF0B8EC71F0080ED5D7020E4D
:1027B00082EC68F0000E6B6F090E6C6F01017551B1
:1027C000020DB90EF324D96E030EF420DA6EDECFBB
:1027D0006DF0DDCF6EF0BFEC67F0000E00016B6FA7
:1027E000090E6C6F040E6D6F1F0E6E6F22EC63F09E
:1027F000000E00016B6F090E6C6F01017551020D27
:10280000AF0EF324D96E030EF420DA6EDECF6DF036
:10281000DDCF6EF022EC63F0010E0201246F55EC67
:1028200076F0090E99D7E4EC6EF0010E0201246FE8
:102830000A0E92D7050EEEEC76F00009F2E0000EDB
:1028400055EC76F0700E0101C96F100E3ED1966BFB
:10285000976BDEEC77F0C00E0101C96F110E48EFE7
:1028600018F06B0E00016B6F020E6C6F0101755159
:10287000020DE30EF324D96E020EF420DA6EDECFE1
:102880006DF0DDCF6EF0BFEC67F0E3EC77F06B0E30
:102890000001816F020E826FE0EC67F0120E5CD7D0
:1028A000C00EC96F900E146F70BF08D070516F11B9
:1028B00029E1510E6D5DC30E6E5924E270AF09D04F
:1028C000B00E6D5D3C0E6E59FF0E6F59FF0E7059C4
:1028D00019E392EC74F0B20E00016B6F010E6C6F95
:1028E00001017551020DA50EF324D96E030EF420DB
:1028F000DA6EDECF6DF0DDCF6EF0BFEC67F0200E4C
:10290000010119D027EC66F0B20E6B6F010E6C6FEF
:1029100001017551020D9B0EF324D96E030EF420B4
:10292000DA6EDECF6DF0DDCF6EF0BFEC67F0010E3A
:102930000101126F310E166F97EC77F0B20E0001A5
:10294000816F010E826F15EC64F063EC6DF0C3ECE7
:102950005DF0B8EC71F07CEF19F0E6EC76F0C00EAB
:102960000101C96F210E94D3E3EC77F0000E000152
:102970006B6F090E6C6F01017551020DB90EF324D6
:10298000D96E030EF420DA6EDECF6DF0DDCF6EF07F
:10299000BFEC67F0010157A11CD0000E00016B6F66
:1029A000090E6C6F1F0E6D6F1D0E6E6F22EC63F0C3
:1029B00001017551020DCF0EF324D96E020EF420E1
:1029C000DA6EDECF81F0DDCF82F015EC64F0020E1E
:1029D00039D057A51CD0000E00016B6F090E6C6F2B
:1029E000F70E6D6F1E0E6E6F22EC63F001017551D4
:1029F000020DD90EF324D96E020EF420DA6EDECF6A
:102A000081F0DDCF82F015EC64F0010E1BD0000EDA
:102A100000016B6F090E6C6F7B0E6D6F240E6E6F75
:102A200022EC63F001017551020DC30EF324D96E3F
:102A3000030EF420DA6EDECF81F0DDCF82F015ECEC
:102A400064F0030E0101136F220EA8D6000E0001E0
:102A50006B6F090E6C6F01017551020DAF0EF324FF
:102A6000D96E030EF420DA6EDECF6DF0DDCF6EF09E
:102A700022EC63F097EC77F0230E6ED663EC6DF0EA
:102A8000C3EC5DF0B8EC71F0010E0201246F55EC5F
:102A900076F0A00E0101C96F240EE5D163EC6DF054
:102AA000C3EC5DF006EC5CF0010E0201246F250E14
:102AB00053D6050EEEEC76F000090AE0000E55EC58
:102AC00076F0700E0101C96F270E176F7CEF19F0B9
:102AD000240E64D6966B976B57970A990A9D0A9BAA
:102AE0000A9FDEEC77F0C00E0101C96F280ED0D22C
:102AF00069C1A5F06AC1A6F02A0E176F5B516D5D22
:102B00000001A16F01015C516E590001A26F01012A
:102B10005D516F590001A36F01015E5170590001B1
:102B2000A46FA4BF9BD0A45108E1D00EA15DFB0E01
:102B3000A259010EA35901E291D0A4BF0AD0A45119
:102B400007E1210EA15D3C0EA259030EA359D8B096
:102B500085D0D5EC72F021EE5BF0DECF6BF0DDCFEF
:102B60006CF00001000E6CBFFF0E6D6F6E6FE80E13
:102B70006F6F030E706F716B726BEFEC4BF06BC08D
:102B8000A8F06CC0A9F00101000E57B3010E0001BE
:102B90006B6FA8C06CF0A9C06DF0AAC06EF0A5C0A4
:102BA0006FF0A6C070F0A7C071F0010EC5EC63F025
:102BB00021EE5FF0DECF6BF0DDCF6CF00001000E98
:102BC0006CBFFF0E6D6F6E6FE80E6F6F030E706F50
:102BD000716B726BEFEC4BF06BC0A8F06CC0A9F09E
:102BE0000101000E57B1010E00016B6FA8C06CF01F
:102BF000A9C06DF0AAC06EF0A5C06FF0A6C070F0BD
:102C0000A7C071F0000EC5EC63F06B0E00016B6F96
:102C1000020E6C6F01017551020DD90EF324D96EAD
:102C2000020EF420DA6EDECF6DF0DDCF6EF0BFEC79
:102C300067F0B20E00016B6F010E6C6F01017551F0
:102C4000020DA50EF324D96E030EF420DA6EDECF4A
:102C50006DF0DDCF6EF0BFEC67F0CDD0A4AF9CD0AF
:102C6000310EA15D040EA259FE0EA359FF0EA45908
:102C700001E392D0A4AF0AD0E00EA15DC30EA25929
:102C8000FC0EA359FF0EA45901E286D0FCEC6FF0B4
:102C900021EE5BF0DECF6BF0DDCF6CF00001000EBB
:102CA0006CBFFF0E6D6F6E6FE80E6F6F030E706F6F
:102CB000716B726BEFEC4BF06BC0A8F06CC0A9F0BD
:102CC0000101000E57B3010E00016B6FA8C06CF03C
:102CD000A9C06DF0AAC06EF0A5C06FF0A6C070F0DC
:102CE000A7C071F0010EC5EC63F021EE63F0DECFFA
:102CF0006BF0DDCF6CF00001000E6CBFFF0E6D6F4E
:102D00006E6FE80E6F6F030E706F716B726BEFEC8E
:102D10004BF06BC0A8F06CC0A9F00101000E57B5D4
:102D2000010E00016B6FA8C06CF0A9C06DF0AAC0C5
:102D30006EF0A5C06FF0A6C070F0A7C071F0020ED3
:102D4000C5EC63F0206B6B0E00016B6F020E6C6FB5
:102D500001017551020DCF0EF324D96E020EF4203D
:102D6000DA6EDECF6DF0DDCF6EF0BFEC67F0B20E45
:102D700000016B6F010E6C6F01017551020DA50E04
:102D8000F324D96E030EF420DA6EDECF6DF0DDCFC2
:102D90006EF0BFEC67F02FD0010E0101126F27EC2F
:102DA00066F06B0E6B6F020E6C6F01017551020DB8
:102DB000C30EF324D96E030EF420DA6EDECF6DF06D
:102DC000DDCF6EF0BFEC67F0B20E00016B6F010E4D
:102DD0006C6F01017551020D9B0EF324D96E030E29
:102DE000F420DA6EDECF6DF0DDCF6EF0BFEC67F071
:102DF000310E0101176FE3EC77F06B0E0001816F6C
:102E0000020E826FE0EC67F097EC77F0290EA4D405
:102E1000B20E0001816F010E826FE0EC67F063EC8F
:102E20006DF0C3EC5DF0B8EC71F0C00E0101C96F3C
:102E3000900E146F17C116F15FD2A00EC96F7E51AC
:102E400003E057B157A502D0300E0DD0200E156FFC
:102E50006DD4529D579765EC3EF001018D6B010ECC
:102E60008C6F8CD1420E156F47D2030EEEEC76F0CC
:102E7000000901E141D2420E91D4DEEC77F0410E1F
:102E80000101146FC00E68D4E3EC77F001017551B5
:102E9000020DCD0EF324D96E030EF420DA6EDECFD0
:102EA00081F0DDCF82F015EC64F097EC77F0010152
:102EB0007551020DC50EF324D96E020EF420DA6EA0
:102EC000DECF81F0DDCF82F015EC64F00101AB6B59
:102ED000AC6B966B976B900EC96F800ED1D048EC9F
:102EE00077F0C00E0101C96F430ED2D000019F6B75
:102EF000A06B0101216B766B00018A6B896B8CECF6
:102F000064F00101C96B1F6B57EC78F0AAEC78F004
:102F1000F3D1B00EC96F510EBBD0E3EC77F00101D5
:102F20007551020DCD0EF324D96E030EF420DA6E26
:102F3000DECF81F0DDCF82F015EC64F097EC77F016
:102F400001017551020DBE0EF324D96E040EF4205A
:102F5000DA6EDECF81F0DDCF82F015EC64F0A00EEA
:102F60000101C96FB00E156F520E92D0E3EC77F0ED
:102F700001017551020DD20EF324D96E040EF42016
:102F8000DA6EDECF81F0DDCF82F015EC64F097ECE5
:102F900077F001017551020DC80EF324D96E040EAD
:102FA000F420DA6EDECF81F0DDCF82F015EC64F034
:102FB000530EACEF13F0030E551904E1B00EC96FB8
:102FC000540E66D0040E551901E096D1B00EC96FAB
:102FD000550E5ED0E3EC77F001017551020DDC0E69
:102FE000F324D96E040EF420DA6EDECF81F0DDCF4B
:102FF00082F015EC64F027EC66F0900E0101C96FC9
:10300000A00E166F2FD7E3EC77F001017551020D7A
:10301000C50EF324D96E020EF420DA6EDECF81F0F5
:10302000DDCF82F015EC64F0E8D7966B976B48EC37
:1030300077F0610E25D727EC66F0200E816F400EE9
:103040003AEC73F0010113511FEC5DF0620EACEF2E
:1030500013F097EC77F001017551020DB40EF324D3
:10306000D96E040EF420DA6EDECF81F0DDCF82F06F
:1030700015EC64F0C00E0101C96F900E146F310E93
:10308000166F3AD1E6EC76F0C00E0101C96F710EF1
:10309000146F32D113511FEC5DF0720EACEF13F0D0
:1030A0006DC16FF06EC170F06FC171F070C172F0E0
:1030B000000E07EC36F000019E6B0101186B1A6BD5
:1030C000196B0201506B516B97EC77F001011851AD
:1030D000C4EC6BF0730EACEF13F0E4EC6EF0020195
:1030E000504B512BAC0E505D260E515905E3010E8D
:1030F0000101126F600EC96F01011A2B090E1A65CA
:10310000FBD01A6B6DC16FF06EC170F06FC171F0C2
:1031100070C172F0010E07EC36F000019E6F0101E4
:10312000192B0201515104E1320E505D01E2E4D04D
:10313000010E01011965E0D0196B97EC77F00001E1
:103140009E510101185D05E2182B1851C4EC6BF07B
:10315000D3D0060E181901E0CFD017C1C9F1CCD0D9
:10316000FBEC30F065EC3EF0010157A307D0D10E27
:103170008C5D020E8D5902E3528D5787A00EC96FE8
:1031800071D6206B910ECEEF13F0202B310E2065FF
:10319000B3D016C1C9F1B0D0000EEEEC76F0000944
:1031A00001E1AAD015C1C9F1A7D0E6EC76F06AD644
:1031B000F3EC70F0000901E19FD01BEC71F0000905
:1031C00001E19AD014C1C9F197D0C95102E177EF5A
:1031D00013F0010A02E19AEF13F0030A02E1AEEFE5
:1031E00013F0070A02E1BDEF13F0030A02E1D1EF89
:1031F00013F00E0A02E1D7EF13F0010A02E113EF18
:1032000014F0030A02E11AEF14F01A0A02E127EFA0
:1032100014F0010A02E131EF14F0030A02E150EF69
:1032200014F0320A02E1ADEF14F0010A02E1B4EF4A
:1032300014F0030A01E10AD4010A01E11FD4070ACC
:1032400001E12CD4010A01E134D4020A01E142D4A3
:103250000F0A01E14DD4010A01E1DAD5030A01E1C7
:10326000ECD51A0A01E1F5D5010A01E1FED5710A92
:1032700001E103D6010A01E107D6030A01E12FD6D5
:10328000010A01E133D6130A01E143D6010A01E143
:1032900044D6030A01E16AD6010A01E18CD6070A85
:1032A00001E198D6010A01E1AED6350A01E1BDD6A9
:1032B000010A01E1C0D6030A01E1CBD6120A01E1FD
:1032C000E1D6010A01E1E6D6030A01E1E9D6010AE5
:1032D00001E103D7F30A01E143D7100A01E151D715
:1032E000010A01E152D7310A01E156D7100A01E182
:1032F0005CD7700A01E15CD79FC09CF0A0C09DF034
:10330000120070EF1EF0250EDA191CE090EC1EF092
:1033100011E0B651D96E88EC1EF002D870EF1EF0A5
:103320000500FA6EBA51FD6EBB51FE6EFF6AFA508F
:10333000DA5112007CEC1EF0DAC0DFFFA0EC1EF0C8
:1033400070EF1EF0D66BD76BD46BD56B03D0D485E2
:10335000B74BB82BCFEC1EF0300AF9E0CFEC1EF0E3
:1033600087EC73F01CE3D66BD76BD6C06BF0D7C07D
:103370006CF062EC1FF0DEEC71F06BC0D6F06CC04C
:10338000D7F0B7C0F6FF06EC1FF0D627BC51D72305
:10339000B74BB82BCFEC1EF087EC73F0E6E2CFEC26
:1033A0001EF02E0A22E1D58DB74BB82BD86BD96B06
:1033B00015D0D8C06BF0D9C06CF062EC1FF0DEEC19
:1033C00071F06BC0D8F06CC0D9F0B7C0F6FF06EC56
:1033D0001FF0D827BC51D923B74BB82BCFEC1EF028
:1033E00087EC73F001E2B3D0E4D7D86BD96BD58901
:1033F000AED0D489ACD0D585C2D0B951D96EDA6AF5
:10340000020EDF26DF5CD96EDA6ADECFC3F0DECFD4
:10341000C4F0C351C41104E1EB0EC36F240EC46F9A
:10342000C56BC66B03D00001C54BC62BC551C32568
:10343000BA6FC651C421BB6FBAC0F6FFBBC0F7FF5D
:10344000000EF86E0F0EF76403D00800F55003D09D
:103450007FEC47F0EF500009E6E10001D851D911A7
:103460000BE0C5516BEC1FF0C651800ABA5904E25B
:10347000D8C0C5F0D9C0C6F0D651C55DD751C65920
:1034800005E2C551D65FC651D75B1AD0D66BD76B54
:1034900017D090EC1EF00FE0B651D96E88EC1EF0FC
:1034A00001D80ED00500FA6EBA51FD6EBB51FE6E0A
:1034B000FF6AFA50200C7CEC1EF0200E98EC1EF0F7
:1034C0000001D607D8A0D707D629E3E1D72934E0F1
:1034D000E0D790EC1EF01EE0B651D96E88EC1EF0DD
:1034E00001D814D00500FA6EBA51FD6EBB51FE6EC4
:1034F000FF6AFA5046EC1FF00F0EF76403D0080085
:10350000F55003D07FEC47F0EF5012000001C34BA1
:10351000C42B12D046EC1FF0EFDB0F0EF76403D084
:103520000800F55003D07FEC47F0EF50DF6E00014C
:10353000C34BC42BA0EC1EF0C507D8A0C607C529F5
:10354000C8E1C62901E1CCD3C4D7D48D18D0B7C007
:10355000F6FFB8C0F7FF3EEC1FF001E1CAD3640AE2
:103560000EE0020A01E147D70F0A09E0050A01E16E
:1035700040D71F0A01E141D7060AE7E0B1D3070EA1
:10358000D51501E181D2D5A903D0D96B060ED86F2C
:10359000B951D96EDA6ADFCFBAF0030EDF26BA511D
:1035A000D96EDA6ADECFD1F0DECFD2F0DDCFD3F044
:1035B000D3AF10D0D1C06BF0D2C06CF0D3C06DF0DF
:1035C00014EC75F06BC0D1F06CC0D2F06DC0D3F0CC
:1035D000030ED413C76BC86BD151D211D31169E05C
:1035E000820EBA6FBB69D1C0BCF0D2C0BDF0D3C0EF
:1035F000BEF0D4C0BFF0100E05D0D890BF33BE339C
:10360000BD33BC33E82EF9D7BC51BA25C76F000EC5
:10361000BB21C86FC707D8A0C807C7C06BF0C8C018
:103620006CF06E6B030E6D6FDEEC71F06BC0C7F06B
:103630006CC0C8F0C7C071F0C8C072F0F7EC30F0D1
:10364000A5EC5AF071C0C7F072C0C8F0C8AF03D083
:10365000C707D8A0C807C751000820EC33F04DECCD
:103660001FF0CDC079F0CEC07AF0CFC07BF054EC23
:103670001FF030EC4BF079C0CDF07AC0CEF07BC0BB
:10368000CFF0E3DB6E6B800E6F6F3F0E706FA3ECBD
:1036900062F004E2C707D8A0C8070BD0D6DB6E6B78
:1036A000200E6F6F410E706FA3EC62F002E3C74B08
:1036B000C82BD9BF05D0D9511AE10D0ED85D17E23C
:1036C000D1C092F0D2C093F0D3C094F0D851E9ECBD
:1036D00040F088C095F089C096F08AC097F00FEC52
:1036E0003FF092C0D1F093C0D2F094C0D3F0C8BFE5
:1036F00005D0C85116E10A0EC75D13E2D151D211AF
:10370000D3113CE0D8DB08EC4DF08F5190119111B2
:10371000921134E1C8BF32D0C85103E1020EC75D37
:103720002DE393DB700E6E6F890E6F6F400E706F1E
:10373000A3EC62F0F70ED8B0F80EC727FF0EC8232F
:10374000C75120EC33F0A9DBD1C06BF0D2C06CF0D4
:10375000D3C06DF0CDC06EF0CEC06FF0CFC070F0B2
:10376000D8EC48F06BC0C9F06CC0CAF06DC0CBF0AB
:103770006EC0CCF0D16BD26BD36B24D09CDB08EC49
:103780004DF06ADBD1C0B0F0D2C0B1F0D3C0B2F01E
:10379000C9C073F0CAC074F0CBC075F0CCC076F06D
:1037A000D9EC64F073C0B3F074C0B4F075C0B5F078
:1037B00015EC6CF0B0C0D1F0B1C0D2F0B2C0D3F013
:1037C000C76BC86B010EDA6FC2DA2EDB04E3DA2BAB
:1037D0000A0EDA19F9E1DA51D825BA6F000ED921AB
:1037E000BB6FC751BA27C851BB23BA51D65FBB5173
:1037F000D75BD851D91103E0D607D8A0D70720DB73
:1038000003E0D607D8A0D707D4A54CD019DB2BE00E
:1038100087DA0EE0B651D96E7BDA01D824D00500E4
:10382000FA6EBA51FD6EBB51FE6EFF6AFA502D0C56
:1038300063DA2D0E7DDA17D073DA0EE0B651D96E49
:1038400067DA01D80CD00500FA6EBA51FD6EBB5193
:10385000FE6EFF6AFA50300C4FDA300E69DA000162
:10386000D607D8A0D7070001D7BF4ED0D751E4E183
:10387000D6054AE3E1D754DA0EE0B651D96E48DAFC
:1038800001D80CD00500FA6EBA51FD6EBB51FE6E28
:10389000FF6AFA50200C30DA200E4ADA0001D6070F
:1038A000D8A0D707D7BF04D0D751E5E1D605E3E2CA
:1038B000C7DA2AE035DA0EE0B651D96E29DA01D836
:1038C00023D00500FA6EBA51FD6EBB51FE6EFF6A41
:1038D000FA502D0C11DA2D0E16D08FDA38DA67DA9D
:1038E0002DEC5AF046DA2BEC5FF07EDA19DA08E0BC
:1038F000B651D96E0DDA01D807D00500FA6E7AD02C
:10390000FBD9CD51300F14DA0001DA07DA2918E0BB
:10391000E4D706DA0EE0B651D96EFAD901D80CD048
:103920000500FA6EBA51FD6EBB51FE6EFF6AFA5089
:10393000300CE2D9300EFCD90001C707D8A0C80767
:10394000C8BF04D0C851E5E1C705E3E2D9BF08D03C
:10395000D95103E1090ED85D03E3080EDA6F02D0F6
:10396000D8C0DAF0DA51D85F000ED95BDA5113E033
:10397000D7D90EE0B651D96ECBD901D80CD00500FD
:10398000FA6EBA51FD6EBB51FE6EFF6AFA502E0CF4
:10399000B3D92E0ECDD90001DA5120EC33F088C016
:1039A000C0F089C0C1F08AC0C2F07EDAC0C079F030
:1039B000C1C07AF0C2C07BF030EC4BF079C08FF020
:1039C0007AC090F07BC091F008EC4DF045DA3CD025
:1039D00014DABDD9ECD92DEC5AF0CBD92BEC5FF031
:1039E00003DA9ED90EE0B651D96E92D901D80DD026
:1039F0000500FA6EBA51FD6EBB51FE6EFF6AFA50B9
:103A00006FD27AD9CD51300F93D9C9C078F0CAC0DE
:103A100079F0CBC07AF0CCC07BF0000198D9F5CF1B
:103A20007CF00900F5CF7DF00900F5CF7EF00A00AB
:103A3000F5CF7FF02BEC5FF078C0C9F079C0CAF009
:103A40007AC0CBF07BC0CCF0DA07DA2918E0C0D717
:103A500067D90EE0B651D96E5BD901D80CD00500FC
:103A6000FA6EBA51FD6EBB51FE6EFF6AFA50300C11
:103A700043D9300E5DD90001D807D8A0D907D85155
:103A8000D91101E12DD1E4D7D4BD1BD0D4A902D0E6
:103A90009AD90AD0EAD9DECFC9F0DDCFCAF0000E3C
:103AA000CABFFF0ECB6FCC6FCCAF1AD0030ED413AE
:103AB000CC1FCB1FCA1FC96D000ECA23CB23CC233A
:103AC0000FD0D4A902D07FD90BD0CFD9DECFBAF096
:103AD000DDCFBBF0BAC0C9F0BBC0CAF0CB6BCC6BBA
:103AE000D851D91107E1C951CA11CB11CC1102E14A
:103AF000D84BD92B010EDA6F2AD996D904E3DA2BE9
:103B00000A0EDA19F9E1DA51BA6FBB6BD851DED976
:103B1000D951800ABC5903E2D8C0DAF00FD0DA518B
:103B2000BA6FBB6BBA51D85DD951800ABC6FBB511B
:103B3000800ABC5903E2DAC0D8F0D96BD651D7114C
:103B400005E07ED903E0D607D8A0D707D5AD0DD0C4
:103B5000D651C1D9D751800ABA5905E2D851D65F9A
:103B6000D951D75B02D0D66BD76BDA51BA6FBB6B2A
:103B7000D651ACD9D751800ABC5905E2DA51D65F8B
:103B8000000ED75B02D0D66BD76BD4A532D058D9F4
:103B900013E0C6D80EE0B651D96EBAD801D80CD011
:103BA0000500FA6EBA51FD6EBB51FE6EFF6AFA5007
:103BB0002D0CA2D82D0EBCD80001D651D71101E191
:103BC00087D0AED80EE0B651D96EA2D801D80CD0AD
:103BD0000500FA6EBA51FD6EBB51FE6EFF6AFA50D7
:103BE000300C8AD8300EA4D80001D607D8A0D70749
:103BF000E4D7D651D7111AE093D80EE0B651D96E5A
:103C000087D801D80CD00500FA6EBA51FD6EBB51B1
:103C1000FE6EFF6AFA50200C6FD8200E89D8000182
:103C2000D607D8A0D707D651D711E6E109D950E079
:103C300077D80EE0B651D96E6BD801D849D00500BF
:103C4000FA6EBA51FD6EBB51FE6EFF6AFA502D0C32
:103C500053D82D0EDF6E3BD0D8C0BAF0D9C0BBF020
:103C6000D890BA37BB37D890BA37BB377D0EBA2554
:103C7000F66E110EBB21F76E77D899D8BED82DEC11
:103C80005AF06BC078F06CC079F06DC07AF06EC0FD
:103C90007BF00A0E7C6F7D6B7E6B7F6B2BEC5FF095
:103CA0007851300FDA6F3CD80FE0B651D96E30D86A
:103CB00001D80ED00500FA6EBA51FD6EBB51FE6EF2
:103CC000FF6AFA50DA51120017D8DAC0DFFF38D88D
:103CD0000001D807D8A0D907D829BEE1D929BCE16D
:103CE000B7C0F6FFB8C0F7FF0001C8D802E083EF05
:103CF00019F0B66BB76B1200B651D96EDA6ADECF27
:103D0000BAF0DDCFBBF0BAC0D9FFBBC0DAFF1200FA
:103D1000DA6A020ED926DECFBAF0DDCFBBF0020C94
:103D2000B651D96EDA6A020ED926DE50DE101200C4
:103D3000DF6EB651D96EDA6ADE2A000EDD22000C83
:103D4000B651D96EDA6ADE2A000EDD22000CDA5195
:103D5000040D7D0EF324F66E110EF420F76EF86A52
:103D6000000EF82209001200F86A000EF82209007D
:103D700012006BC0CDF06CC0CEF06DC0CFF06EC045
:103D8000D0F0CDC078F0CEC079F0CFC07AF0D0C0FE
:103D90007BF00A0E7C6F7D6B7E6B7F6B0A0CB7C06D
:103DA000F6FFB8C0F7FFF86A0800F5501200F5CF2B
:103DB0006FF00900F5CF70F00900F5CF71F00A003F
:103DC000F5CF72F01200B951D96EDA6A040EDF260F
:103DD000DF5CD96EDA6ADECFC9F0DECFCAF0DECFA3
:103DE000CBF0DECFCCF0120078C0CDF079C0CEF0B1
:103DF0007AC0CFF07BC0D0F01200C9C06BF0CAC04F
:103E00006CF0CBC06DF0CCC06EF01200B8C0F7FF04
:103E1000F86A0800F5CFBAF0D00EBA25BB6FBC6BBC
:103E2000FF0EBC23BB511200F550C95D0900F550CF
:103E3000CA590900F550CB590900F550CC59120068
:103E4000D4C0BAF0030EBA17030CCDC06BF0CEC0CD
:103E50006CF0CFC06DF012008FC0C9F090C0CAF0F6
:103E600091C0CBF092C0CCF01200B951D96EDA6A91
:103E7000DF50DF2ADF2AD96EDA6A1200B74BB82B7F
:103E8000F86A0800F5CFDAF0DA511200C3C0F6FF85
:103E9000C4C0F7FF000EF86E120088C0CDF089C0D4
:103EA000CEF08AC0CFF01200D1C07CF0D2C07DF03D
:103EB000D3C07EF01200D1C08FF0D2C090F0D3C03A
:103EC00091F012006E6B0A0E6D6F0A0CBA5DBB5159
:103ED000800ABC6F1200D85DD951800ABA6F1200F7
:103EE000CD51300F120076C082F077C083F00DD331
:103EF000840E6D6F6E6BA2DB18EC6DF084510101C6
:103F000076190EE0760E00016F6F010E706F726B06
:103F1000716B010E736F99EC6CF05DDB980E6DD3D5
:103F2000840E5EDB99DB18EC6DF084510101A4195D
:103F30000EE0A40E00016F6F010E706F726B010E28
:103F4000716F736F99EC6CF046DB9F0E56D3800E49
:103F500047DB7EDB18EC6DF080510101771905E13C
:103F600000018151010178190EE0770E00016F6F99
:103F7000010E706F726B020E716F736F99EC6CF0C3
:103F80002ADBA60E3AD3800E2BDB040E18EC32F09F
:103F900018EC6DF080510101791905E100018151A2
:103FA00001017A190DE0790E00016F6F010E706F3B
:103FB000726B040E37DB99EC6CF00DDBAD0E1DD38C
:103FC000800E0EDB060E18EC32F018EC6DF080510E
:103FD00001017B1905E10001815101017C190DE00E
:103FE0007B0E00016F6F010E706F726B060E1ADB95
:103FF00099EC6CF0F0DAB40E00D3800EF1DA080E12
:1040000018EC32F018EC6DF080510101801905E1D7
:1040100000018151010181190DE0800E00016F6FD7
:10402000010E706F726B080EFDDA99EC6CF0D3DA4A
:10403000BB0EE3D2800ED4DA0A0E18EC32F018EC84
:104040006DF080510101821905E1000181510101EA
:1040500083190DE0820E00016F6F010E706F726B9D
:104060000A0EE0DA99EC6CF0B6DAC20EC6D2840E13
:10407000B7DA0C0EBEDA18EC6DF084510101841928
:104080000DE0840E00016F6F010E706F726B0C0EED
:10409000C5DA99EC6CF09FDAC90EAFD2840EA0DAC3
:1040A0000D0EA7DA18EC6DF08451010186190DE0B0
:1040B000860E00016F6F010E706F726B0D0EAEDA1F
:1040C00099EC6CF088DAD00E98D2840E89DA0E0E54
:1040D00090DA18EC6DF0845101017D190DE07D0E30
:1040E00000016F6F010E706F726B0E0E97DA99EC14
:1040F0006CF071DAD70E81D2840E72DA0F0E79DA93
:1041000018EC6DF08451010175190DE0750E000178
:104110006F6F010E706F726B0F0E80DA99EC6CF09E
:104120005ADADE0E6AD2840E5BDA100E62DA18EC0E
:104130006DF08451010157190DE0570E00016F6FAA
:10414000010E706F726B100E69DA99EC6CF043DA45
:10415000E50E53D27C0E44DA110E68DA18EC6DF0DD
:1041600056DA5B51000178190FE101015C51000141
:1041700079190AE101015D5100017A1905E1010196
:104180005E5100017B190CE05B0E6F6F010E706FCA
:10419000726B110E4FDA99EC6CF01DDAEC0E2DD229
:1041A00052DA150E43DA18EC6DF031DA5F51000186
:1041B00078190FE101016051000179190AE101014B
:1041C000615100017A1905E10101625100017B1979
:1041D0000CE05F0E6F6F010E706F726B150E2ADAB6
:1041E00099EC6CF0F8D9F30E08D22DDA190E1EDA1C
:1041F00018EC6DF00CDA6351000178190FE1010140
:104200006451000179190AE10101655100017A192F
:1042100005E10101665100017B190CE0630E6F6F2F
:10422000010E706F726B190E05DA99EC6CF0D3D930
:10423000FA0EE3D1800E6D6F6E6B706B1D0E18EC75
:1042400032F018EC6DF0805101018C1905E100018C
:10425000815101018D190FE08C0E00016F6F010E6D
:10426000706F726B1D0EDED999EC6CF0B4D9010E33
:10427000DE6EDD6E010C7C0EB3D9250ED7D918EC9D
:104280006DF07C51010192190FE100017D51010196
:1042900093190AE100017E510101941905E1000121
:1042A0007F51010195190DE0920E00016F6F010E13
:1042B000706F726B250EBED999EC6CF08CD9080E1C
:1042C00094D1840E8DD9230E94D918EC6DF08451BD
:1042D00001017E190DE07E0E00016F6F010E706FFF
:1042E000726B230E9BD999EC6CF075D90F0E7DD1B2
:1042F000840E76D9240E7DD918EC6DF0845101011D
:104300007F190DE07F0E00016F6F010E706F726BF1
:10431000240E84D999EC6CF05ED9160E66D1840E09
:104320005FD9290E66D918EC6DF084510101AD19E1
:104330000DE0AD0E00016F6F010E706F726B290EF4
:104340006DD999EC6CF047D91D0E4FD1840E48D928
:104350002A0E4FD918EC6DF08451010158190DE067
:10436000580E00016F6F010E706F726B2A0E56D9D6
:1043700099EC6CF030D9240E38D1800E31D92B0E47
:1043800018EC32F018EC6DF080510101341905E1A0
:1043900000018151010135190AE0340E00016F6FEF
:1043A000010E2ED999EC6CF016D92B0E1ED1800E71
:1043B00017D92D0E18EC32F018EC6DF08051010178
:1043C0003E1905E10001815101013F190AE03E0E4D
:1043D00000016F6F010E14D999EC6CF0FCD8320E0D
:1043E00004D1800EFDD82F0E18EC32F018EC6DF0D1
:1043F00080510101481905E100018151010149196C
:104400000AE0480E00016F6F010EFAD899EC6CF0CB
:10441000E2D8390EEAD0800EE3D8310E18EC32F033
:1044200018EC6DF080510101441905E10001815142
:10443000010145190AE0440E00016F6F010EE0D83A
:1044400099EC6CF0C8D8400ED0D0840EC9D81F0E9D
:10445000D0D818EC6DF0845101018E190DE08E0E4C
:1044600000016F6F010E706F726B1F0ED7D899EC41
:104470006CF0B1D8470EB9D0840EB2D8200EB9D89E
:1044800018EC6DF0845101018F190DE08F0E0001C1
:104490006F6F010E706F726B200EC0D899EC6CF0CC
:1044A0009AD84E0EA2D0840E9BD8210EA2D818EC1A
:1044B0006DF084510101901991110DE0900E0001F1
:1044C0006F6F010E706F726B210EACD899EC6CF0AF
:1044D00082D8550E8AD0840E83D8330E8AD818EC31
:1044E0006DF08451010185190DE0850E00016F6F9B
:1044F000010E706F726B330E91D899EC6CF06BD823
:104500005C0E73D068D8010E78D065D8DECF78F015
:10451000DDCF79F0795103E0010A33E0E9D4785135
:10452000010AD8B41200990A01E1FAD4070A01E19C
:104530000ED5390A01E127D50B0A01E141D5190A47
:1045400001E15BD50F0A01E175D5790A01E18FD54B
:104550000B0A01E1A3D5190A01E1B7D5070A01E168
:10456000CBD5090A01E1DFD53B0A01E1F3D5090A00
:1045700001E116D61F0A01E138D6090A01E15AD62F
:10458000B7D47851010A01E176D6090A01E199D63A
:10459000070A01E1ADD6190A01E1C1D60B0A01E112
:1045A000D5D6390A01E1E9D60F0A01E100D7190A87
:1045B00001E117D70B0A01E12ED7790A01E145D7AE
:1045C000070A01E159D7090A01E16DD71B0A83E007
:1045D000090A98E08DD482C0D9FF83C0DAFF1200A7
:1045E00000016D6F6E6B706B1200DE6E010EDD6E82
:1045F000010C6F6F010E716F010CDE6EDD6A000C35
:10460000706F726B310E716F020E736F020C84C08B
:1046100078F0796B7A6B7B6B01011200716F010E80
:10462000736F010C716F020E736F020C6F6F040ECB
:10463000716F040C716F040E736F040C706B6F6BF1
:10464000010E716F010C7C0E6D6F6E6B706B120042
:10465000020E6F6F716F020C010E6F6F716F010CA4
:1046600021EEDAF0100EDE6AE806FDE2FAD2B20EB2
:1046700000016B6F010E6C6F01017551020D960EFA
:10468000F324D96E040EF420DA6EDECF6DF0DDCFA8
:104690006EF0BFEC67F0B20E0001E86F010EE96F3B
:1046A000770EEA6F010EEB6F2EEC58F0B20E0001A0
:1046B0006B6F010E6C6F350E6D6F1A0E6E6F22EC04
:1046C00063F0F2D2B20E00016B6F010E6C6F01014C
:1046D0007551020D8C0EF324D96E040EF420DA6E9F
:1046E000DECF6DF0DDCF6EF0BFEC67F0B20E0001F3
:1046F000E86F010EE96F670EEA6F010EEB6F010EB6
:10470000EC6FD6EC52F0B20E00016B6F010E6C6FC5
:10471000450E6D6F1B0E6E6F22EC63F0B20E000142
:10472000E86F010EE96F6B0EEA6F010EEB6F010E81
:10473000EC6F99EC47F0B8D2B20E00016B6F010E2E
:104740006C6F01017551020D780EF324D96E040EC1
:10475000F420DA6EDECF6DF0DDCF6EF0BFEC67F0E7
:10476000B20E0001E86F010EE96F7B0EEA6F010ED9
:10477000EB6F2EEC58F0B20E00016B6F010E6C6FF8
:10478000350E6D6F1A0E6E6F22EC63F08DD2B20E85
:1047900000016B6F010E6C6F01017551020D820EED
:1047A000F324D96E040EF420DA6EDECF6DF0DDCF87
:1047B0006EF0BFEC67F0B20E0001E86F010EE96F1A
:1047C000790EEA6F010EEB6F2EEC58F0B20E00017D
:1047D0006B6F010E6C6F350E6D6F1A0E6E6F22ECE3
:1047E00063F062D2B20E00016B6F010E6C6F0101BB
:1047F0007551020D6E0EF324D96E040EF420DA6E9C
:10480000DECF6DF0DDCF6EF0BFEC67F001017D51C2
:1048100015E1B20E00016B6F010E6C6F0101755155
:10482000020D1E0EF324D96E040EF420DA6EDECFD4
:104830006DF0DDCF6EF022EC63F036D2B20E0001E7
:104840006B6F010E6C6F01017551020D140EF32494
:10485000D96E040EF420DA6EDECF6DF0DDCF6EF08F
:1048600022EC63F021D2B20E00016B6F010E6C6F6F
:1048700001017551020D640EF324D96E040EF4206B
:10488000DA6EDECF6DF0DDCF6EF0BFEC67F0DA0EE2
:104890000001DB6F010EDC6F8A0EDD6F260EDE6F0E
:1048A00080C1DFF081C1E0F056EC6EF0B20E6B6FAC
:1048B000010E6C6FDA0E6D6F010E6E6F22EC63F0FD
:1048C000B20E00016B6F010E6C6F01017551020D8C
:1048D0000A0EF324D96E040EF420DA6EDECF6DF0EA
:1048E000DDCF6EF022EC63F0DFD1B20E00016B6F12
:1048F000010E6C6F01017551020D5A0EF324D96E31
:10490000040EF420DA6EDECF6DF0DDCF6EF0BFEC7A
:1049100067F0DA0E0001DB6F010EDC6F8A0EDD6FCF
:10492000260EDE6F82C1DFF083C1E0F056EC6EF040
:10493000B20E6B6F010E6C6FDA0E6D6F010E6E6F43
:1049400022EC63F0B20E00016B6F010E6C6F01017F
:104950007551020D000EF324D96E040EF420DA6EA8
:10496000DECF6DF0DDCF6EF022EC63F09DD1B20EA4
:1049700000016B6F010E6C6F01017551020D500E3D
:10498000F324D96E040EF420DA6EDECF6DF0DDCFA5
:104990006EF0BFEC67F0DA0E0001DB6F010EDC6F2A
:1049A000010EDD6F260EDE6F90C1DFF091C1E0F0E9
:1049B00056EC6EF0B20E6B6F010E6C6FDA0E6D6F0F
:1049C000010E6E6F22EC63F0B20E00016B6F010EF0
:1049D0006C6F9B0E6D6F260E6E6F22EC63F0DA0E1D
:1049E0000001DB6F010EDC6F010EDD6F260EDE6F46
:1049F0008FC1DFF0E06B56EC6EF0B20E6B6F010E04
:104A00006C6FDA0E6D6F010E6E6F22EC63F0B20EFA
:104A100000016B6F010E6C6F9B0E6D6F260E6E6F3B
:104A200022EC63F0DA0E0001DB6F010EDC6F010E89
:104A3000DD6F260EDE6F8EC1DFF0E06B56EC6EF0A0
:104A4000B20E6B6F010E6C6FDA0E6D6F010E6E6F32
:104A500022EC63F029D1B20E00016B6F010E6C6F76
:104A600001017551020D460EF324D96E040EF42097
:104A7000DA6EDECF6DF0DDCF6EF0BFEC67F0DA0EF0
:104A80000001DB6F010EDC6F7D0EDD6F260EDE6F29
:104A900092C1DFF093C1E0F094C1E1F095C1E2F082
:104AA00056EC6EF0B20E6B6F010E6C6FDA0E6D6F1E
:104AB000010E6E6F22EC63F0B20E00016B6F010EFF
:104AC0006C6F01017551020DC20EF324D96E050EF3
:104AD000F420DA6EDECF6DF0DDCF6EF022EC63F005
:104AE000E3D0B20E00016B6F010E6C6FF80E6D6FAC
:104AF000240E6E6FBFEC67F087C19EF088C19FF0F7
:104B000089C1A0F08AC1A1F05FEC5EF09EC0A8F060
:104B10009FC0A9F0A0C0AAF0AB6B7A0EAC6F440E98
:104B2000AD6FD4EC4EF0A8C0D7F1A9C0D8F1AAC09F
:104B3000D9F1DA0EDB6F010EDC6FD10EDD6F250EC1
:104B4000DE6FD7C1DFF0D8C1E0F0D9C1E1F056EC9B
:104B50006EF0B20E6B6F010E6C6FDA0E6D6F010EA0
:104B60006E6F22EC63F0B20E00016B6F010E6C6F82
:104B7000070E6D6F260E6E6F22EC63F095D0B20EAD
:104B800000016B6F010E6C6F8F0E6D6F250E6E6FD7
:104B9000BFEC67F00101AD5115E1B20E00016B6F82
:104BA000010E6C6F01017551080D2E0EF324D96EA4
:104BB000060EF420DA6EDECF6DF0DDCF6EF022EC63
:104BC00063F072D0B20E00016B6F010E6C6F0101C9
:104BD0007551080D2C0EF324D96E060EF420DA6EF2
:104BE000DECF6DF0DDCF6EF022EC63F030D0B20E90
:104BF00000016B6F010E6C6FE30E6D6F250E6E6F13
:104C000022EC63F051D0B20E00016B6F010E6C6F9D
:104C1000A70E6D6F250E6E6F22EC63F045D0B20EBD
:104C200000016B6F010E6C6FAD0E6D6F250E6E6F18
:104C300022EC63F039D0B20E00016B6F010E6C6F85
:104C4000B30E6D6F250E6E6F22EC63F02DD0010157
:104C5000AE51CDE0010AD7E0030AE1E0ECD7000055
:104C600023D001011F5101E102D5010A01E12AD53A
:104C7000030A01E161D5010A01E189D5070A01E1D1
:104C8000B1D5010A01E1EFD5030A01E12ED6010AEF
:104C900001E16DD60F0A01E1DED6010A01E121D75B
:104CA000030A01E16CD7DBD797EC77F0B20E000175
:104CB000816F010E826FE0EF67F0AED19BC0D9FF2C
:104CC0009CC0DAFFDF5001011B6F476A48EC77F0A8
:104CD0000101AD5104E11E0E0001F46F1E0C0A0E1D
:104CE0000001F46F0A0C020E82EC68F06B0E6B6F21
:104CF000020E6C6F9DC0D9FF9EC0DAFFDECF6DF053
:104D0000DDCF6EF0BFEC67F0B20E00016B6F010EED
:104D10006C6F20EE02F09D51D9269E51DA22DECF33
:104D20006DF0DDCF6EF0BFEC67F0475017E16B0E12
:104D300000016B6F020E6C6F4C0E6D6F1D0E6E6F6F
:104D400022EC63F0B20E00016B6F010E6C6F450E2A
:104D50006D6F1B0E6E6F22EC63F016D06B0E0001B0
:104D60006B6F020E6C6F450E6D6F1B0E6E6F22EC3B
:104D700063F0B20E00016B6F010E6C6F4C0E6D6F25
:104D80001D0E6E6F22EC63F06B0E00016B6F020E56
:104D90006C6F20EE04F09D51D9269E51DA22DECFB1
:104DA0006DF0DDCF6EF022EC63F0B20E00016B6FA0
:104DB000010E6C6F20EE06F09D51D9269E51DA222D
:104DC000DECF6DF0DDCF6EF022EC63F053EC78F0C7
:104DD0000001F42B12000101AD5104E1000E56EC6C
:104DE0005DF0F6D7AE2956EC5DF0F2D7476A77D77B
:104DF000010E476E0A0E0001F46F0A0C48EC77F0C2
:104E0000090E0101C96F090C48EC77F00F0E000183
:104E1000F46F0F0C01015551010AEAE0030AE6E0C4
:104E2000010AF2E0070AD8A41200E8D7020E82ECC9
:104E300068F0475001E04FD7010ECFEC77F06B0ED2
:104E40006B6F020E6C6F20EE04F09D51D9269E51BF
:104E5000DA22DECF6DF0DDCF6EF0BFEC67F053EC01
:104E600078F0100E0001F46F100C130EF46F130C99
:104E70000201546B556BF40E00012BD00101AF51B0
:104E8000B01103E0EDEC63F0A3D7D4EC77F0B8EC0D
:104E900071F0010ECFEC77F09BD7040E010155198C
:104EA00008E148EC77F0000ECFEC77F0090E010135
:104EB000C96F0201544B552BB00E545D040E555969
:104EC000D8A01200000ECFEC77F0140E0101C96FCC
:104ED000140C6B6F6C6B000E21EF75F0DEEC77F04D
:104EE00077D76B0E6B6F020E6C6F7D0E6D6F250E9C
:104EF0006E6FBFEC67F0B20E00016B6F010E6C6F4E
:104F0000410E6D6F1B0E6E6FBFEC67F001011B5100
:104F100017E16B0E00016B6F020E6C6F450E6D6F2B
:104F20001B0E6E6F22EC63F0B20E00016B6F010E70
:104F30006C6F4C0E6D6F1D0E6E6F22EC63F016D011
:104F40006B0E00016B6F020E6C6F4C0E6D6F1D0EC1
:104F50006E6F22EC63F0B20E00016B6F010E6C6F8E
:104F6000450E6D6F1B0E6E6F22EC63F06B0E000131
:104F70006B6F020E6C6F01017551080D540EF32416
:104F8000D96E060EF420DA6EDECF6DF0DDCF6EF056
:104F900022EC63F0B20E00016B6F010E6C6F010129
:104FA0007551080D560EF324D96E060EF420DA6EF4
:104FB000DECF6DF0DDCF6EF022EC63F053EC78F0D5
:104FC000546B556B05D7F40E84D7010E1B6F1D0E65
:104FD0000001F46F1D0C1B6B1D0E0001F46F1D0C06
:104FE0003C0EC96F3C0C9BC0D9FF9CC0DAFF1BC1B3
:104FF000DFFF1B51CAEC77F0320E0101C96F320C92
:1050000001015551010AE7E0030ADFE0010AEBE084
:10501000070AD8A41200E4D7F45101E14FD6090AD7
:10502000D2E0030A01E15FD6010A01E1D4D6070A02
:10503000CAE0010A01E1EED6020A01E1F7D61F0A31
:1050400001E113D7030A01E113D7070A01E116D7DB
:10505000010A01E122D7080AB6E0030A01E13ED7BE
:10506000010A01E13ED73F0AAEE0010AC9E01200A1
:1050700029C031F02AC032F0A1D1898020EE06F09B
:105080002950D9262A50DA22C90EDE6EF50EDE6EC0
:10509000C90EDE6EF50EDD6EB96BBA6B31C0D9FF8D
:1050A00032C0DAFF6F0EDE6EDD6A060E2924016E55
:1050B000000E2A20026E046A040E036ED7EC56F02E
:1050C000000901E11200899020EE06F02950D9264E
:1050D0002A50DA2210EE04F02950E1262A50E2226A
:1050E000DECFE6FFDDCFE5FF20EE04F02950D92624
:1050F0002A50DA22DECF2BF0DDCF2CF02BC02CF0A3
:105100002B6A2D6A2C502E6E20EE04F02950D926E1
:105110002A50DA22DECF2FF0DDCF30F030C02FF072
:10512000306A2F502D1220EE04F02950D9262A5033
:10513000DA222DC0DEFF2EC0DDFF20EE04F0295064
:10514000D9262A50DA22FF0EDE1ADD1A20EE04F0EC
:105150002950D9262A50DA22DECF0FF0DDCF10F009
:10516000A7C111F0A8C112F0CC0E146E136E7DEC25
:1051700044F00FC0A7F110C0A8F120EE04F02950B0
:10518000D9262A50DA22A7C1DEFFA8C1DDFF65ECCF
:1051900070F020EE0AF02950D9262A50DA2209C0F0
:1051A000DEFF0AC0DEFF0BC0DEFF0CC0DEFF20EE1C
:1051B0000EF02950D9262A50DA22430EDE6E0F0E49
:1051C000DD6E31C0D9FF32C0DAFF7B0EDE6EDD6AE4
:1051D00020EE0AF02950D9262A50DA22DECF23F019
:1051E000DECF24F0DECF25F0DECF26F020EE0EF06D
:1051F0002950D9262A50DA22DECF27F0DDCF28F039
:1052000086EC6EF0000901E11200898020EE06F0C4
:105210002950D9262A50DA22F90EDE6EF50EDE6EFE
:10522000F90EDE6EF50EDD6E0201B96BBA6B31C0A0
:10523000D9FF32C0DAFF800EDE6EDD6A060E292449
:10524000016E000E2A20026E046A040E036ED7EC73
:1052500056F0000901E11200899020EE06F0295075
:10526000D9262A50DA2210EE02F02950E1262A50DF
:10527000E222DECFE6FFDDCFE5FF20EE02F029508F
:10528000D9262A50DA22DECF2BF0DDCF2CF02BC02E
:105290002CF02B6A2D6A2C502E6E20EE02F0295035
:1052A000D9262A50DA22DECF2FF0DDCF30F030C001
:1052B0002FF0306A2F502D1220EE02F02950D926FF
:1052C0002A50DA222DC0DEFF2EC0DDFF20EE02F0D4
:1052D0002950D9262A50DA22FF0EDE1ADD1A20EED6
:1052E00002F02950D9262A50DA22DECF0FF0DDCF86
:1052F00010F0A5C111F0A6C112F0260E146E660EB4
:10530000136E7DEC44F00FC0A5F110C0A6F120EEA5
:1053100002F02950D9262A50DA22A5C1DEFFA6C103
:10532000DDFF65EC70F020EE0AF02950D9262A50F6
:10533000DA2209C0DEFF0AC0DEFF0BC0DEFF0CC0B0
:10534000DEFF20EE0EF02950D9262A50DA22430E35
:10535000DE6E0F0EDD6E20EE04F02950D9262A50A5
:10536000DA22010EDBAE05D0500EDE5CC90EDE582F
:105370000EE3010152812DC1D9FF2EC1DAFF10EEDB
:105380000DF0DE50E126DD50E222E7920FD0010160
:1053900052912DC1D9FF2EC1DAFF10EE0DF0DE5073
:1053A000E126DD50E222E7825297529531C0D9FFC3
:1053B00032C0DAFF010EDE6EDD6A000C31C0D9FFAB
:1053C00032C0DAFFDECF2BF0DDCF2CF02C5001E025
:1053D00054D62B50010AD8B412006E0A01E165D6EA
:1053E000140A01E1F5D6FB0A01E128D746D60201ED
:1053F000564B572B280E561903E1230E5719D8A4E4
:105400004ED1140E0101C96F4AD148EC77F000016A
:10541000F26B0101226B010EC96F010C5A6A5A0E20
:1054200000019B6F1CEC34F0060E0101C96F060CE5
:105430005A0E00019B6F1CEC34F05A50D8A4120095
:10544000070E0101C96F070C000EEEEC76F00009A3
:10545000D8B41200080EC96F0201566B576B1200C8
:105460001E0EC96F0001F46B12000001F25106E03C
:10547000F2070101220502E10101226B090E01017F
:10548000C96F090C0F0E0001F261F8D7F22B010170
:105490002251F4E1010E0101226FF0D7140EC96F01
:1054A000140C5551010AEEE0030ADFE0010AD8E0CE
:1054B000070AD8A41200F2D75A6A5A0E00019B6F4D
:1054C0001CEC34F00A0E0101C96F0A0C5A0E0001DF
:1054D0009B6F1CEC34F05A50D8A412000B0E010143
:1054E000C96F0B0C000EEEEC76F0000902E00C0E1A
:1054F000C96F56A11200550504E0020E5519D8A433
:1055000012000C0EC96F0C0C0201566B576B080E83
:105510000101C96F080C48EC77F0150E0101C96F45
:10552000150C000EEEEC76F00009D8B41200160E41
:10553000C96F160C0001F26B010152991F6BB6EC9A
:1055400078F00101765103E1216BC96B12007605F9
:1055500028E1E3EC77F001017551040D140EF324FA
:10556000D96E050EF420DA6EDECF81F0DDCF82F049
:1055700015EC64F097EC77F001017551040D160EEF
:10558000F324D96E050EF420DA6EDECF81F0DDCF84
:1055900082F015EC64F09A0E01011C6F170EC96FB2
:1055A000170C000012000A0E00016F6F01011C5160
:1055B000FAEC6BF0796F7A6B7B6B010E7C6F7FEC92
:1055C00042F001011C5102E01C0702D0180EC96F05
:1055D00063EC6DF0A4B102D00A9102D001010A81FE
:1055E00052A102D00B8102D001010B917D5104E147
:1055F0000A850A930A8703D00A850A830A97C3ECAF
:105600005DF0B8EC71F001015551D8B41200190EDB
:10561000C96F190CF6EC76F0216BC96B1200E6EC41
:1056200076F01A0E0101C96F1A0C97EC77F00101A0
:105630007551020DC50EF324D96E020EF420DA6EF8
:10564000DECF81F0DDCF82F015EC64F01B0E01019E
:10565000C96F000EEEEC76F00009D8B41200180EF7
:10566000C96F180C0E0E0001F21901E113D704D70F
:1056700048EC77F00101C92B1200000E78EC62F0C3
:10568000460E0101C96F460C010E78EC62F0F8D7A6
:10569000206BF0D7202B130E2065130CEFD60101E1
:1056A000C95101E1B2D6010A01E1B8D6070A01E108
:1056B000BFD6010A01E1C8D60F0A01E1F2D6010AFC
:1056C00001E1FAD6030A01E101D7010A01E10AD793
:1056D000070A01E119D7180A01E11DD7010A01E102
:1056E00020D7030A01E126D7010A01E15CD70F0A9E
:1056F00091E0010A94E0030A98E0010AAAE0050A91
:1057000002E147EF2EF03E0AADE0120AB1E0010AD5
:10571000B4E00F0AADE0010AB7E07B0AB9E0010A84
:10572000B9E012000001EE6F7DD177C158F078C169
:1057300059F07BC156F07CC157F079C154F07AC161
:1057400055F0DEEC77F0030E0001F46F030C56B356
:1057500008D000016C6B0A0E6B6FEE51FAEC41F051
:1057600007D000016C6B320E6B6FEE51FAEC41F01A
:105770000001F42B120056B308D000016C69F60E3C
:105780006B6FEE51FAEC41F0F3D700016C69CE0E6D
:105790006B6FEE51FAEC41F0EBD73C0EC96F3C0C4D
:1057A00058C077F159C078F156C07BF157C07CF1F1
:1057B00054C079F155C07AF1320EC96F320C010133
:1057C0005551010AD8E0030AC2E0010AE9E0070ADC
:1057D000D8A41200E2D78FEC75F0020E82EC68F0CC
:1057E00068D06B0E6B6F020E6C6F01017551040D6A
:1057F0008E0EF324D96E050EF420DA6EDECF6DF036
:10580000DDCF6EF0BFEC67F058C071F059C072F098
:105810000001746B0A0E736FA5EC5AF071C0ECF0C6
:1058200072C0EDF0ECC079F0EDC07AF0030E7B6F42
:10583000010E7C6F7FEC42F042D06B0E6B6F020E5C
:105840006C6F01017551040D7A0EF324D96E050EAB
:10585000F420DA6EDECF6DF0DDCF6EF0BFEC67F0D6
:1058600054C071F055C072F00001746B0A0E736F72
:10587000A5EC5AF0D3D76B0E6B6F020E6C6F010163
:105880007551040D160EF324D96E060EF420DA6E4F
:10589000DECF6DF0DDCF6EF0BFEC67F056C071F07B
:1058A00057C072F00001746B0A0E736FA5EC5AF0CA
:1058B000B5D7EE5196E0010AC0E0030ADCE0B8EC8F
:1058C00071F0E3EC77F054D76B0E816F020E826FAC
:1058D000E0EC67F097EC77F07ED0B20E6B6F010EC4
:1058E0006C6F840E6D6F260E6E6FBFEC67F0B20E9C
:1058F0000001E86F010EE96F540EEA6FEB6B2EECBE
:1059000058F0B20E00016B6F010E6C6F450E6D6F9B
:10591000260E6E6F22EC63F0B20E0001E86F010EEE
:10592000E96F560EEA6FEB6B2EEC58F021D7B20EF2
:105930006B6F010E6C6F4A0E6D6F260E6E6FBFECB3
:1059400067F0B20E0001E86F010EE96F580EEA6FC2
:10595000EB6B2EEC58F0B20E00016B6F010E6C6F0A
:10596000450E6D6F260E6E6F22EC63F0B20E0001D5
:10597000E86F010EE96F560EEA6FEB6B2EEC58F0F4
:10598000F7D6B20E6B6F010E6C6F840E6D6F260E24
:105990006E6FBFEC67F0B20E0001E86F010EE96FA9
:1059A000540EEA6FEB6B2EEC58F0B20E00016B6FE9
:1059B000010E6C6F490E6D6F260E6E6F22EC63F058
:1059C000B20E0001E86F010EE96F580EEA6FEB6B43
:1059D0002EEC58F0CDD60001EE5101E17ED7010A40
:1059E000A6E0030ACEE0C4D6B20E816F010E826F2C
:1059F000E0EC67F0BDD6F40E6B6F6C6B000E21EC23
:105A000075F056A104D0550502E10001F42B010107
:105A100056A11200020E551901E1AAD61200020E7B
:105A2000F46F020C0001F45101E17FD6020A01E19A
:105A3000C6D6010A01E1CFD6070A01E145D7010A1E
:105A4000D3E0030AD8E0010AEAE0120020D1760E82
:105A50009B6F010E9C6F01017551080D780EF324A8
:105A600000019D6F070EC6D0000E92EF2BF00101D2
:105A7000A451010ED8A4000EA46FA40E00019B6FC8
:105A8000010E9C6F01017551080D500EF3240001A9
:105A90009D6F060EF4209E6F79EC2EF00101A4514B
:105AA000010ED8A4000EA46FA4B102D0589102D068
:105AB000010158811200020E92EF2BF0010E92EFBD
:105AC0002BF001017D51010ED8A4000E7D6F7D0EDB
:105AD00000019B6F010E9C6F01017551080D500E66
:105AE000F32400019D6F070EF4209E6F79EC2EF0D9
:105AF00001017D51010ED8A4000E7D6F7DB102D051
:105B0000519302D001015183090EC919D8A4120082
:105B100020EE02F02D51D9262E51DA2210EE0FF090
:105B2000DE50E126DD50E2227D518BEC77F0E76E0E
:105B3000120001017551040DA00EF3240001826FC3
:105B4000060EF420836F800E846F010E0DD00101CC
:105B50007551040D8C0EF3240001826F060EF420A3
:105B6000836F820E846F010E856F876B3C0E866F8C
:105B7000896B010E886F8B6B8A6F8D6B050E8C6F36
:105B80008E6B010E8F6F906F1CEF32F085C1C1F2EA
:105B90000201C26B01017551040D780EF32400015E
:105BA000826F060EF420836FC10E846F020E856F24
:105BB000876B640E866F896B140E886F8B6B8A6F90
:105BC0008D6B8C6F8E6B010E8F6F906F1CEC32F0B3
:105BD000C1C285F1010185513AEF6BF07E0E9B6FDA
:105BE000010E9C6F01017551080D280EF324000170
:105BF0009D6F070EF4209E6F79EF2EF001017F510B
:105C0000010ED8A4000E7F6F7F0E00019B6F010E66
:105C10009C6F01017551080D280EF32400019D6F42
:105C2000060EF4209E6F79EC2EF001017F51010EDB
:105C3000D8A4000E7F6F090EC919D8A412007FB135
:105C400002D08C9601D08C861200AD0E9B6F010E97
:105C50009C6F01017551080D000EF32400019D6F2A
:105C6000070EF4209E6F5DEF26F0750E716F010E2A
:105C7000726F010175510E0DA00EF3240001736FB8
:105C8000090EF420746F050E756F16EF35F00001E4
:105C9000F25101E1DCD6010A01E1E6D6030A01E195
:105CA000E6D6010A01E107D7070A01E107D7010A91
:105CB00001E107D7030A01E13CD7010A01E147D717
:105CC0000F0A01E163D7010A02E108EF4AF0030A73
:105CD00002E1E8EF3AF0010A02E172EF41F0070A4F
:105CE00001E17CD7010A8AE0030AAFE0010ABDE0C6
:105CF00012000201246B24D19BC0D9FF9CC0DAFFA3
:105D0000DF50446EDEEC77F0030E0001F46F030CFD
:105D1000440401E1446A0001F42B12004450FBE109
:105D2000010E446EF8D73C0EC96F3C0C0001F251D5
:105D300009E1440407E1010157B304D0140E000146
:105D4000F46F140C9BC0D9FF9CC0DAFF44C0DFFF86
:105D5000320E0101C96F320C01015551010ADEE01A
:105D6000030AD6E0010AE2E0070AD8A41200DBD752
:105D7000B4EC78F00009D8B412006B0E6B6F020E11
:105D80006C6F9DC0D9FF9EC0DAFFDECF6DF0DDCF16
:105D90006EF0BFEC67F0B20E00016B6F010E6C6F1E
:105DA00020EE02F09D51D9269E51DA22DECF6DF011
:105DB000DDCF6EF0BFEC67F0445017E16B0E0001D1
:105DC0006B6F020E6C6F4C0E6D6F1D0E6E6F22ECC2
:105DD00063F0B20E00016B6F010E6C6F450E6D6FBC
:105DE0001B0E6E6F22EC63F016D06B0E00016B6F12
:105DF000020E6C6F450E6D6F1B0E6E6F22EC63F022
:105E0000B20E00016B6F010E6C6F4C0E6D6F1D0EAC
:105E10006E6F22EC63F06B0E00016B6F020E6C6F05
:105E200020EE04F09D51D9269E51DA22DECF6DF08E
:105E3000DDCF6EF022EC63F0B20E00016B6F010E4D
:105E40006C6F20EE06F09D51D9269E51DA22DECFEE
:105E50006DF0DDCF6EF022EC63F053EC78F05BD7A1
:105E60001BEC71F00009D8B4120045D0020EF46F9B
:105E7000020C000E6B6F090E6C6F01017551020D63
:105E80003C0EF324D96E040EF420DA6EDECF6DF0F2
:105E9000DDCF6EF0BFEC67F0E6EC76F03CD7E3ECDC
:105EA00077F001017551020D280EF324D96E040E0E
:105EB000F420DA6EDECF81F0DDCF82F015EC64F0F5
:105EC0002AD797EC77F001017551020D320EF324B9
:105ED000D96E040EF420DA6EDECF81F0DDCF82F0D1
:105EE00015EC64F0010E0201286F080E296F010EF7
:105EF00055EC76F010D7F40E6B6F6C6B000E21EF43
:105F000075F01B0EF46F1B0C000E55EC76F09BC069
:105F1000D9FF9CC0DAFF44C0DFFF320E04D0000E70
:105F200055EC76F03C0E0101C96F06D001015551C8
:105F3000030AEAE0070AF3E0180E0001F46F180CF8
:105F40000001F45101E1D8D6020A01E105D7010AA6
:105F500001E10ED7070A84E0010A88E0110A89E00E
:105F6000010A9DE0030AADE0010AC5E00F0AC9E09D
:105F7000010AC7E0020ADAE01200F2EC77F06BC027
:105F8000C7F16CC0C8F1010152A1B4D0529552972B
:105F9000FDD8D7D8E796FAD8D4D8E794F00E000108
:105FA000C06FE10EC16F410EC26F07D930EC6CF0CB
:105FB00010D9FE0E7C6FE80E7D6F3A0E7E6F30ECCE
:105FC0004BF0C6D80FEC3FF00BD9F7D830EC6CF0A3
:105FD00000D9F3D830EC6CF0F5D830EC4BF079C048
:105FE000BDF0C9D8460E7C6FDE0E7D6FB20E7E6F9F
:105FF00030EC4BF0ADD80FEC3FF0F2D8DED830ECFF
:106000006CF0E7D8DAD830EC6CF0DCD830EC4BF040
:1060100079C0BDF0B0D8D1D830EC6CF0D3D830EC2A
:106020004BF079C0BDF0A7D86D0E7C6FA00E7D6FD0
:106030002B0E7E6F30EC4BF08BD80FEC3FF0D0D8AE
:10604000C0C079F0C1C07AF0C2C07BF07C6B200E7A
:106050007D6F410E7E6F30EC4BF079C0C0F07AC09E
:10606000C1F07BC0C2F0C0C0B7F0C1C0B8F0C2C0C0
:10607000B9F069EC5AF094D808EC4DF08FC069F192
:1060800090C06AF183D810EE06F085D869C1E6FFAA
:106090006AC1E5FFC0C0A8F0C1C0A9F0C2C0AAF0A3
:1060A000AB6B200EAC6F410EAD6FD4EC4EF0A8C0C0
:1060B000B7F0A9C0B8F0AAC0B9F069EC5AF070D82E
:1060C00008EC4DF08FC067F190C068F1010168BF26
:1060D0000AD0685103E1330E675D05E3528556D857
:1060E00030D8E78611D068AF0FD052874FD829D863
:1060F000E7840AD0686B140E676F48D810EE06F07C
:106100004AD8C80EE66EE56A4DEC60F000016E6B91
:10611000120E6D6FDEEC71F06BC06BF16CC06CF148
:106120006BC171F06CC172F062D8A5EC5AF071C00D
:106130006BF172C06CF1200E01016B27000E6C2315
:10614000000C10EE0DF0DE50E126DD50E2221200D0
:1061500079C0BDF07AC0BEF07BC0BFF0C0C092F085
:10616000C1C093F0C2C094F0BDC095F0BEC096F01F
:10617000BFC097F012007AC0BEF07BC0BFF0BDC0B8
:1061800079F0BEC07AF0BFC07BF012002DC1D9FFFC
:106190002EC1DAFF1200DE50E126DD50E2221200AD
:1061A000B7C0C0F0B8C0C1F0B9C0C2F0C0C08FF075
:1061B000C1C090F0C2C091F01200C7C173F0C8C155
:1061C00074F0120073C07CF074C07DF075C07EF076
:1061D000120073C079F074C07AF075C07BF01200C1
:1061E00092C0C0F093C0C1F094C0C2F01200746BB2
:1061F0000A0E736F0A0C760E00016D6F010E6E6F42
:106200001EEC23F018EC6DF0A40E6D6F010E6E6F96
:10621000706B2CEC23F018EC6DF0770E6D6F010EA7
:106220006E6F706B28EC23F018EC6DF0790E6D6FCB
:10623000010E6E6F706B040EFBD818EC6DF07B0EC8
:106240006D6F010E6E6F706B060EF2D818EC6DF06C
:10625000800E6D6F010E6E6F706B080EE9D818EC32
:106260006DF0820E6D6F010E6E6F706B0A0EE0D8CE
:1062700018EC6DF0840E6D6F010E6E6F706B0C0E6E
:10628000F9EC22F018EC6DF0860E6D6F010E6E6F5A
:10629000706B0D0EF9EC22F018EC6DF07D0E6D6F49
:1062A000010E6E6F706B0E0EF9EC22F018EC6DF0B3
:1062B000750E6D6F010E6E6F706B0F0EF9EC22F0A4
:1062C00018EC6DF0570E6D6F010E6E6F706B100E47
:1062D000F9EC22F018EC6DF05B0E6D6F010E6E6F35
:1062E000706B110E16EC23F018EC6DF05F0E6D6FF5
:1062F000010E6E6F706B150E16EC23F018EC6DF03E
:10630000630E6D6F010E6E6F706B190E16EC23F03D
:1063100018EC6DF08C0E6D6F010E6E6F706B1D0EB4
:1063200087D818EC6DF08E0E6D6F010E6E6F706B6E
:106330001F0EF9EC22F018EC6DF08F0E6D6F010E50
:106340006E6F706B200EF9EC22F018EC6DF0900E71
:106350006D6F010E6E6F706B210E6AD818EC6DF0C8
:106360007E0E6D6F010E6E6F706B230EF9EC22F0D6
:1063700018EC6DF07F0E6D6F010E6E6F706B240E5A
:10638000F9EC22F018EC6DF0920E6D6F010E6E6F4D
:10639000706B250E16EC23F018EC6DF0AD0E6D6FE2
:1063A000010E6E6F706B290EF9EC22F018EC6DF097
:1063B000580E6D6F010E6E6F706B2A0EF9EC22F0A5
:1063C00018EC6DF0340E6D6F010E6E6F706B2B0E4E
:1063D0002FD818EC6DF03E0E6D6F010E6E6F706B66
:1063E0002D0E26D818EC6DF0480E6D6F010E6E6FF5
:1063F000706B2F0E1DD818EC6DF0440E6D6F010EF2
:106400006E6F706B310E14D818EC6DF044C13AF118
:1064100045C13BF144C14EF145C14FF1850E6D6F51
:10642000010E6E6F706B330EF9EC22F018EF6DF009
:106430006F6F020E716F020CF4D084C0D9FF85C05B
:10644000DAFFDECF08F1DDCF09F1DEEC77F00001F5
:10645000F42B12006B0E6B6F020E6C6F82C0D9FFB3
:1064600083C0DAFFDECF6DF0DDCF6EF0BFEC67F0FA
:10647000B20E00016B6F010E6C6F20EE02F08251C4
:10648000D9268351DA22DECF6DF0DDCF6EF0BFEC7E
:1064900067F053EC78F0030E0001F46F030C56B371
:1064A0001FD000018A51865D916F8B518759926F81
:1064B000010108510001915D9251800A936F010121
:1064C0000951800A0001935906E38A510101082706
:1064D00000018B511ED086C008F187C009F1B7D7E3
:1064E00000018C51865D916F8D518759926F01012A
:1064F00008510001915D9251800A936F0101095189
:10650000800A00019359E7E38C510101082700013B
:106510008D51010109239BD756B31DD000018A512B
:106520008825916F8B518921926F91510101085DEE
:106530000951800A0001936F9251800A935906E332
:106540008A510101085F00018B511CD088C008F1FD
:1065500089C009F17CD700018C518825916F8D513C
:106560008921926F91510101085D0951800A000152
:10657000936F9251800A9359E9E38C510101085FAE
:1065800000018D510101095B62D73C0EC96F3C0CC3
:1065900084C0D9FF85C0DAFF08C1DEFF09C1DDFF75
:1065A000320EC96F320C01015551010AB5E0030AE0
:1065B00001E175D7010AECE0070AD8A41200E5D77B
:1065C00008C171F009C172F090C073F0746BA5EC52
:1065D0005AF071C094F072C095F094C079F095C0F3
:1065E0007AF08EC07BF08FC07CF07FEC42F0B8EC8C
:1065F00071F02DD7F40E6B6F6C6B000E21EC75F003
:1066000056A104D0550502E10001F42B010156A169
:106610001200020E551901E11AD71200020EF46F92
:10662000020CF45101E109D7010A01E113D7030A71
:10663000BAE0010AC5E0070ADDE0010AEFE0120056
:106640008E6F00018EAF4BD08E6D8E51800A120F6F
:1066500025E3E3D8D0D86BBF6C07F7EC5DF0E7D843
:10666000A5EC5AF0D6D881D8746B640EDBD871BF14
:106670007207A5EC5AF07151120F030DD10E48ECC0
:1066800041F030EC4BF096D86BBF6C07F7EC5DF047
:106690006B51030D6AD830EC4BF09FD08E51800ABD
:1066A000750F16E3746B0A0EBDD871BF7207A5ECA7
:1066B0005AF0AFD8D10E48EC41F096D86BBF6C07BA
:1066C000F7EC5DF06B51030D50D830EC4BF085D0FA
:1066D0008E51030DD10EF324D96E0A0E91D08E5136
:1066E000800A120F25E399D886D86BBF6C07F7ECA8
:1066F0005DF09DD8A5EC5AF07151090F55D842D8DC
:10670000746B640E8FD871BF7207A5EC5AF071518B
:10671000120F4AD840D830EC4BF04CD86BBF6C0706
:10672000F7EC5DF06B5140D82DD830EC4BF055D0E4
:106730008E51800A750F16E3746B0A0E73D871BF01
:106740007207A5EC5AF07151090F2ED824D84CD8F5
:106750006BBF6C07F7EC5DF06B5126D813D830ECAB
:106760004BF03BD08E5120D84BD0D10EF324D96EB4
:106770000A0EF420DA6EDECF7CF0DECF7DF0DDCFC6
:106780007EF01200F420DA6EDECF7CF0DECF7DF0FA
:10679000DDCF7EF01200F420DA6EDECF79F0DECFAE
:1067A0007AF0DDCF7BF01200030DAA0EF324D96E30
:1067B0000A0E120079C08BF07AC08CF07BC08DF08D
:1067C0008BC079F08CC07AF08DC07BF06E6B0A0EB6
:1067D0006D6F8E516B6F6C6B120079C088F07AC050
:1067E00089F07BC08AF012006E6B0A0E6D6F8E51BD
:1067F0006B6F6C6B12006D6F8E516B6F6C6B120058
:10680000F420DA6EDECF88F0DECF89F0DDCF8AF0BB
:1068100012007151090F030D1200746B0A0E736F91
:106820006E6B640C736F8E51716F726B12006BC064
:1068300071F06CC072F01200F0D0020E82EC68F0C1
:106840006B0E6B6F020E6C6F01017551040D3C0EE7
:10685000F324D96E050EF420DA6EDECF6DF0DDCFB5
:106860006EF0BFEC67F0B20E00016B6F010E6C6F43
:1068700001017551040D3E0EF324D96E050EF4206E
:10688000DA6EDECF6DF0DDCF6EF0BFEC67F00101A8
:10689000225159E16B0E00016B6F020E6C6F4C0EB2
:1068A0006D6F1D0E6E6F22EC63F0B20E00016B6F08
:1068B000010E6C6F450E6D6F1B0E6E6F22EC63F058
:1068C0006B0E00016B6F020E6C6FF251020DF3CF75
:1068D0009CF0F4CF9DF001017551220D000EF324C0
:1068E00000019E6F0A0EF4209F6F9C519E25D96E69
:1068F0009D519F21DA6EDECF6DF0DDCF6EF022EC80
:1069000063F0B20E00016B6F010E6C6FF2519C6F61
:106910009D6BD8909C379D3701017551220D020E59
:10692000F32400019E6F0A0EF4209F6F9C519E2558
:10693000D96E9D519F21DA6EDECF6DF0DDCF6EF006
:1069400022EC63F058D06B0E00016B6F020E6C6F7F
:10695000450E6D6F1B0E6E6F22EC63F0B20E0001E0
:106960006B6F010E6C6F4C0E6D6F1D0E6E6F22EC17
:1069700063F06B0E00016B6F020E6C6FF2519C6F37
:106980009D6BD8909C379D3701017551220DFE0EED
:10699000F32400019E6F090EF4209F6F9C519E25E9
:1069A000D96E9D519F21DA6EDECF6DF0DDCF6EF096
:1069B00022EC63F0B20E00016B6F010E6C6FF251AE
:1069C000020DF3CF9CF0F4CF9DF001017551220D23
:1069D000000EF32400019E6F0A0EF4209F6F9C515D
:1069E0009E25D96E9D519F21DA6EDECF6DF0DDCFF1
:1069F0006EF022EC63F053EC78F000019B51D96EFD
:106A0000DA6ADF2A12001BEC71F00009D8B4120018
:106A10009B51D96EDA6ADF6A12009B51D96EDA6A2D
:106A2000DF5001E10AD7010AEEE01200ACD0EAD84B
:106A3000DF50436E4350766F776BFF0E7525786F8E
:106A4000796BFF0E79237651781906E17751791920
:106A500003E1010E476E01D0476ADEEC77F0030ECA
:106A60000001F46F030C435004E04306470401E1C6
:106A7000476A0001F42B1200FF0E00017525766FA6
:106A8000776BFF0E77234350786F796B7651785D83
:106A90007951800A7A6F7751800A7A59EAE2432A5B
:106AA0004750E7E1010E476EE4D73C0EC96F3C0C3E
:106AB000A9D843C0DFFF320EC96F320C0101555116
:106AC000010ADAE0030ACFE0010AF2E0070AD8A4DB
:106AD0001200EBD746EC56F073C0D9FF74C0DAFF52
:106AE00080D8BFEC67F040EC56F020EE02F0735116
:106AF000D9267451DA2275D8BFEC67F0475015E1FA
:106B000066D874D822EC63F067D876D822EC63F0AC
:106B10005ED845D8040E51D822EC63F05DD83FD83A
:106B2000060E4BD822EC63F014D051D865D822EC75
:106B300063F052D85BD822EC63F049D830D8020E0B
:106B40003CD822EC63F048D82AD8040E36D822EC80
:106B500063F053EC78F08DD7F40E6B6F6C6B000E16
:106B600021EC75F056A104D0550502E10001F42B8B
:106B7000010156A11200020E551901E17AD7120047
:106B8000020EF46F020CF45101E151D7020A96E0B3
:106B9000010AA0E0070AE0E0010AF2E012006C6FCF
:106BA0004350766F776BD890763777377651732569
:106BB000786F77517421796F12007825D96E000EA5
:106BC0007921DA6EDECF6DF0DDCF6EF012006B0E44
:106BD00000016B6F020E1200B20E00016B6F010E0E
