:10110000A8EF08F0FFFFFFFF5B82E5EF4FF0FFFF66
:10111000FFFFFFFFFFFFFFFF5B80D8CF66F0E8CF48
:1011200067F0E0CF68F0FACF69F0FBCF6AF0F2BA6F
:10113000F2A402D082EC77F06AC0FBFF69C0FAFF2C
:1011400068C0E0FF67C0E8FF66C0D8FF5B90100092
:10115000F4EF36F000C0F1A2ED90EDF0B192BDF2E7
:10116000F0BAC9BCF1B8F1B4F1B0F154F14EF148A4
:10117000F10CF0E6D51AC0010003000100010000E7
:10118000000A00000064000000E8030000102700CF
:1011900000A086010040420F008096980000E1F513
:1011A0000500CA9A3B98EC9CF1D0F176DCACECA03F
:1011B000F1D2F1A6DC30EBD2F084F146DC84EC987D
:1011C000F180F116DCAA020191384573207775721F
:1011D0006465206B65696E65206572666F6C677209
:1011E0006569636865204B616C69627269657275D7
:1011F0006E6720766F7267656E6F6D6D656E202D00
:10120000206469652070482D576572742D416E7A8F
:101210006569676520697374206D94676C6963689C
:1012200065727765697365206665686C657268616B
:101230006674202D20776F6C6C656E205369652075
:101240007769726B6C69636820666F727466616837
:1012500072656E3F2E2E2E2E20004E6F207365205D
:101260006861207265616C697A61646F20756E6176
:101270002063616C696272616369E26E20636F7200
:101280007265637461202D206C6173206C656374DA
:101290007572617320646520704820706F6472E11C
:1012A000616E2073657220696D7072656369736128
:1012B00073202D209F657374E02073656775726FCE
:1012C0002064652071756520646573656120636FB6
:1012D0006E74696E7561723F2E2E2E20004175630B
:1012E000756E208274616C6F6E6E616765207282AC
:1012F00075737369206E276120827482206566662B
:101300006563747582202D206C6573206C65637431
:101310007572657320646520704820706F757272F5
:101320006F6E74208874726520696E65786163746D
:101330006573202D20887465732D766F7573207307
:10134000967220646520766F756C6F697220636F8A
:101350006E74696E756572203F2E2E2E20004572C8
:10136000206973206765656E206765736C616167CE
:101370006465206B616C696272617469652075696E
:10138000746765766F657264202D2070482D6D65D9
:1013900074696E67656E207A6F7564656E206F6E16
:1013A0006E6175776B6575726967206B756E6E65BA
:1013B0006E207A696A6E202D2062656E7420752019
:1013C0007A656B65722064617420752077696C742E
:1013D00020646F6F726761616E3F2E2E2E20004E6B
:1013E0006F207375636365737366756C2063616CDE
:1013F0006962726174696F6E2068617320626565ED
:101400006E20706572666F726D6564202D20704865
:101410002072656164696E677320636F756C642008
:10142000626520696E6163637572617465202D2049
:1014300061726520796F75207375726520796F759B
:101440002077616E7420746F2070726F63656564BD
:101450003F2E2E2E2000207374656C6C656E2C2040
:101460003C63616C3E20647281636B656E2C2075F9
:101470006D20666F72747A7566616872656E2E2073
:10148000536965206B946E6E656E206A6564657243
:101490007A656974203C053E20647281636B656ED9
:1014A0002C20756D20646965204B616C69627269DE
:1014B0006572756E672061627A75627265636865D0
:1014C0006E2E2020002C2070756C736172203C639E
:1014D000616C3E207061726120636F6E74696E751D
:1014E00061722E2050756C736172203C053E206540
:1014F0006E206375616C7175696572206D6F6D65C5
:101500006E746F20706172612063616E63656C61DF
:1015100072206C612063616C696272616369E26E62
:101520002E2020002C2070726573736572203C633E
:10153000616C3E20706F757220636F6E74696E759A
:1015400065722E2050726573736572203C053E20D3
:101550008520746F7574206D6F6D656E7420706F6B
:10156000757220616E6E756C6572206C2782746175
:101570006C6F6E6E6167652E2020002C2064727582
:101580006B206F70203C63616C3E206F6D20646F38
:101590006F72207465206761616E2E204472756BD6
:1015A000206F70203C053E206F6D206B616C69627E
:1015B000726174696520746520616E6E756C657208
:1015C000656E2E20002C207072657373203C636161
:1015D0006C3E20746F20636F6E74696E75652E208B
:1015E0005072657373203C053E20616E7974696D9D
:1015F0006520746F2063616E63656C2063616C6944
:1016000062726174696F6E2E200052696E6365723A
:10161000206C6120736F6E64652064652070482CB7
:10162000206C6120706C616365722064616E732050
:101630006C6120736F6C7574696F6E2000456E6A03
:101640007561676172206C6120736F6E64612064E4
:10165000652070482C20636F6C6F63617220656E2B
:101660002000417373657274696F6E206661696CE6
:1016700065643A202573206C696E652025643A20E4
:10168000222573220A00636F6E6669672D3E7361BF
:10169000766553657474696E677320213D20283028
:1016A0002900636F6E6669672D3E70726F7669649C
:1016B0006553697A6520213D202830290053706FD9
:1016C000656C2070482D70726F62652C20706C61A3
:1016D00061747320696E2000636F6E6669672D3ECA
:1016E0007772697465427974657320213D202830D2
:1016F000290052696E73652070482050726F6265D0
:101700002C20706C61636520696E2000636F6E66CB
:1017100069672D3E72656164427974657320213D6D
:1017200020283029007772697465506572696F648A
:10173000203E207461736B506572696F640070485D
:101740002D536F6E64652061627370816C656E2CC1
:1017500020696E20007372632F5461736B732F7254
:101760006164696F5461736B2E63007372632F52EF
:101770006164696F2F726164696F2E630054206128
:101780006374697661646F20287365672900546506
:101790006D7073206D6172636865202873290090F5
:1017A00074616C6F6E6E6572207048342F3130003A
:1017B0005A65697420616267656C2E21203C063E83
:1017C00000546D656F7574207672737472203C06D8
:1017D0003E0044826C616920657870697282213CA8
:1017E000063E0053696E642053696520736963681F
:1017F00065723F00496E7374207665726569737413
:1018000065207048004573207775726465206B65AC
:10181000696E65204B004E6F20737563636573734B
:1018200066756C2063610045722069732067656589
:101830006E206765736C61004E6F20736520686170
:10184000207265616C697A6100417563756E2082F2
:1018500074616C6F6E6E616765007048342F313053
:101860002043616C696272617465005282676C65C5
:101870007220636F6E747261737465004D6F6E6970
:10188000746F72696E672062657A69670054657269
:10189000756773746C6C6E2062657A696700704856
:1018A000342D4B616C696272696572756E67007088
:1018B00048372D4B616C696272696572756E67009D
:1018C0007374616E64616172647761617264656E84
:1018D000005282696E697469616C69736174696FC1
:1018E0006E007048342F3130206B616C6962726514
:1018F000726E0044726B206F702004206F6D207434
:10190000652070006482666175742072657374610D
:1019100075728273005282676C6572207048207203
:101920006571756973005265737420616A757320FF
:101930007072656465740045696E73742E205281FF
:10194000636B6C6963687400526573657420746FAF
:101950002044656661756C740041636874726772D7
:1019600076726C2062696A737400416A757374617F
:1019700072206C757A20706F73740054657275678D
:10198000206F702073746E64726477005265737494
:101990006F72656420466163746F7279006F75744D
:1019A0004361706163697479203E20330041616E48
:1019B0002D74696A6420287365632E290041756659
:1019C000205A656974202853656B2E290055697467
:1019D0002D74696A6420286D696E2E290054707315
:1019E00020617272887420286D696E290050756DAF
:1019F00070652048616E64626574722E0053746174
:101A00006E642E207A757281636B732E0043616C55
:101A10006962726172207048342F313000887465B9
:101A2000732D766F757320739672203F0053657423
:101A300020526571756972656420704800416A754D
:101A4000737465732066E0627269636100426F6D52
:101A500062612076656C6F636964616400507265D1
:101A600073736572200420706F6D706500416A7534
:101A7000737420636F6E7472617374650070482DA7
:101A80004B616C696272696572756E67005282673C
:101A90006C657220728274726F82636C00506F6D1D
:101AA000706520656E206D616E75656C00446F73A6
:101AB0006572656E206F6D682F6F6D6C0041636895
:101AC00074657267726F6E647665726C007048310F
:101AD00030206B616C6962726572656E00363053DE
:101AE000656320436F756E74646F776E0031355394
:101AF000656320436F756E74646F776E0050726516
:101B00007373200420746F2050756D700050726FD5
:101B1000766973696F6E6E656D656E740045696E8A
:101B200073742E204B6F6E747261737400436F6E0A
:101B300074726173742041646A757374002020208C
:101B4000202020202020202020202000322F332081
:101B500070756E742063616C2020009074616C203D
:101B6000322F3320707473202000322F3320506FB7
:101B7000696E742043616C20004175737A656974E5
:101B800020284D696E2E29005420646573616374AA
:101B900020286D696E29004F75693C063E2C4E6FFA
:101BA0006E3C053E2C00322F332D50756E6B742D1C
:101BB0004B616C2E007048342F31302D4B616C69B5
:101BC00062722E009074616C6F6E6E657220704848
:101BD0003130004A613C063E2C204E65696E3C0562
:101BE0003E004F75693C063E2C204E6F6E3C053E14
:101BF0000054696D6564204F757421203C063E00D9
:101C00005420657870697261646F203C063E004321
:101C10006F6E7369676E652064652070480043616C
:101C20006C696272616369E26E207048005282746E
:101C3000726F82636C6169726167650070483130F0
:101C40002043616C69627261746500436F6E7472E7
:101C50006F6C652062657A696700426572656974B8
:101C60007374656C6C756E6700704834206B616CC2
:101C70006962726572656E00704837206B616C69CD
:101C800062726572656E0070482043616C696272B1
:101C90006174696F6E003130302520656E63656E4A
:101CA0006469646F005265737461626C6563696531
:101CB0006E646F0053756269722F416C63616C6969
:101CC0006E6F00506172616D8A747265732070610D
:101CD000720043616C20322F332070756E746F7305
:101CE00000436F6E74726173742062696A7374006A
:101CF0005265737461757220648266617574004FF9
:101D0000666654696D6520284D696E2900576572B5
:101D10006B65696E7374656C6C2E0043616C6962EF
:101D20007261722070483130009074616C6F6E6E19
:101D3000657220704834009074616C6F6E6E6572CD
:101D400020704837004A613C063E2C204E65653CB9
:101D5000053E004A613C063E2C4E65696E3C053EE0
:101D6000005965733C063E2C204E6F3C053E0041F9
:101D7000726520796F7520737572653F009F45739A
:101D800074E02073656775726F3F0042656E742062
:101D900075207A656B65723F009074616C6F6E6E32
:101DA00061676520704800416C61726D61206DE172
:101DB0006E696D6100416C61726D61206DE07869E2
:101DC0006D610050756D70204F7665727269646543
:101DD0000070482D6B616C696272617469650041C5
:101DE00075676D2F64696D20646F736500506F6D4A
:101DF000706520766974657373650070483420439C
:101E0000616C696272617465007048372043616C6F
:101E1000696272617465004F6D686F6F672F616CE6
:101E20006B616C69004261636B6C69676874204127
:101E3000646A00506F6D70206F7068656666656ECD
:101E40000070482065696E7374656C6C656E004B3C
:101E50006F6E74726F6C6C696572656E007048208D
:101E6000436F6E74726F6C6C6572004C757A207083
:101E70006F73746572696F72005375622F42616A85
:101E800020646F736973007265737461626C65635B
:101E900069646F730043616C20322F3370756E7408
:101EA0006F73005469656D706F206465736163744E
:101EB000007A757281636B67657365747A74004D1F
:101EC00069736C756B74203C063E00005A756D207A
:101ED00070756D70656E2004004F6E54696D6520DD
:101EE000285365632900704831302D4B616C69625D
:101EF000722E0043616C6962726172207048340016
:101F000043616C696272617220704837004A613CBB
:101F1000063E2C4E65653C053E0053E13C063E2CDA
:101F2000204E6F3C053E005965733C063E2C4E6FBB
:101F30003C053E00496E7374656C6C656E2070489C
:101F4000005375727665696C6C616E6365005465EB
:101F50006D7073206D617263686500416C61726DB4
:101F60006520626173736500416C61726D65206804
:101F70006175746500496E6566666563746965764A
:101F8000650050726F766973696F6E696E670042A3
:101F90006F6D6261206D616E75616C00506F6D7068
:101FA00065206D616E75656C005A757281636B7327
:101FB00065747A656E007061726120626F6D626532
:101FC0006172004375656E746120617472E0730024
:101FD0007265626F757273203630207300726562AD
:101FE0006F7572732031352073004661696C6564CA
:101FF000203C063E00004665686C6572203C063E4B
:102000000000547073206D6172636865200053E1B5
:102010003C063E2C4E6F3C053E004765616E6E757A
:102020006C656572640031303025206D61726368C3
:102030006500496E6566666563746976650042652C
:10204000766F6F726164696E6700436F6E74726F52
:102050006C6C696E67009A62657277616368756E11
:1020600067004175676D2F616C63616C6900416247
:10207000676562726F6368656E00436F6E74726F3E
:102080006C6572656E0042616A61722FE06369641B
:102090006F0050756D70652054656D706F004F6DE9
:1020A0006C6161672F7A7575720054656D7073206D
:1020B00061727288740047657370656963686572E0
:1020C0007400456E7265676973747282009063680C
:1020D0006563203C063E00004572726F72203C062C
:1020E0003E00004872206D617263686520004561A2
:1020F0007274684C696E6B200048696768416C6156
:10210000726D20004C616167616C61726D200048E6
:102110006F6F67616C61726D2000416C61726D61FF
:102120004DE16E200052657175657269646F200023
:10213000416C61726D614DE0782000416C61726D9F
:102140002D4D696E2E00416C61726D2D4D61782EA2
:1021500000462F572076322E322E320041736967A7
:102160006E617220704800416A75737461722070EC
:10217000480050756D702053706565640050756D32
:1021800070204F7672646500556E7769726B73616B
:102190006D65004D6F6E69746F72696E67004D6991
:1021A0006E2D20416C61726D004D61782D20416C67
:1021B00061726D004869676820416C61726D004C06
:1021C00061616720616C61726D00486F6F672061AB
:1021D0006C61726D00446F73652055702F446E0002
:1021E0004F706765736C6167656E009A62657277A0
:1021F000616368656E00528267756C6174696F6EA9
:10220000003025206170616761646F004D656D6FFE
:1022100072697A61646F00506F6D702074656D70C3
:102220006F005469656D706F206163740073616E37
:1022300073206566666574009074616C20322F337C
:102240007074005461616C20202020200049646972
:102250006F6D61202020004C616E67756520202025
:102260000053707261636865202000416C61726D7B
:102270006520422000416C61726D6520482000524B
:1022800065717569726564200041616E2D74696ABB
:102290006420005569742D74696A64200057657262
:1022A0006B74696A6420004C616E677561676520B4
:1022B00000566572656973746520004C6F77416CD8
:1022C00061726D2000542064657361637420004165
:1022D0007566205A65697420004C6175667A656977
:1022E00074200054707320617272742000446F7304
:1022F0006973202B2F2D0043616E63656C6C6564E0
:1023000000446F776E2F416369640044696D2F61EB
:1023100063696465004865727374656C6465004B3D
:102320006F6E74726F6C6C6500436F6E7472617364
:10233000746500616674656C6C696E6700526573E4
:10234000657474696E67002B2F42617369736368EB
:102350000055702F416C6B616C6900456172746847
:102360004C696E6B00322F3370742043616C003205
:102370002F3370742063616C004C6F7720416C6167
:10238000726D004D6F6E69746F72656E0043616EA1
:1023900063656C61646F004D6F6E69746F72656F19
:1023A000005296636B6C69636874004261636B6C86
:1023B0006967687400436F6D70746520850050759F
:1023C0006C7361722004004572666F72642E200087
:1023D0004F666654696D65200052756E54696D656F
:1023E00020004175737A6569742000496E616374D9
:1023F0006976610041616E2D74696A640055697483
:102400002D74696A64004C616E677561676500636D
:102410006F6E74726F6C6500313030252061616EB3
:1024200000313030252045696E005470726F63654D
:10243000736F0044656661756C74730030252061AC
:1024400072728874004C6175667A65697400436FB6
:102450006E747261737400696E65666963617A0097
:1024600054206163742E20004F6E54696D65200006
:10247000446F73696E67200052657175697320003F
:1024800070483428313029003630207365632E00BF
:102490003135207365632E0036302053656B2E0076
:1024A00031352053656B2E0053707261636865008F
:1024B0004F666654696D6500436F6E74726F6C0091
:1024C00031303025204F6E00647281636B656E0081
:1024D000446F736572656E002D2F536175657200D0
:1024E0004D6F6E69746F72004175737A656974001F
:1024F000286E756C6C2900416E6E756C8200546597
:102500006D702E2000426F6D62612000506F6D7003
:1025100065200050756D706520004170726F762ED9
:1025200000536574207048004964696F6D61004113
:102530006C61726D6100416374697661004D617216
:10254000636865004F6E54696D6500416C61726D22
:1025500065004C616E677565003025204F6666002A
:10256000363020736567003135207365670030258C
:102570002041757300302520756974004D454E5516
:1025800020004461746120004D6F64652000446F39
:102590007365200057694669200054656D702000FE
:1025A000506F6D70200050756D7020002045727264
:1025B0003100204572723200204572723300426F42
:1025C0006D626100536176656400506F6D706500E7
:1025D00050756D70650025332E31660025342E311F
:1025E000660057692D46690020436F6E6E00446F88
:1025F000736973004D6F6475730041727288740063
:102600004E696368740025302E327500206D5620A7
:10261000006D696E2E0044617461004D6F64650049
:10262000446F7365005461616C004D6F646F0050BE
:102630006F6D70004E6965740064617461003530BF
:10264000250032352500373525002048410020532C
:1026500050007370610066726100736563006E6C98
:102660006400656E670041616E006D696E004E6FBB
:102670006E0048727300556974004E6F7400646593
:102680007500256C75002D2D004C41004F4B002529
:102690006400416E004E6F004F72005572000300DF
:1026A0003A004300460000FF0001A06B9F69020151
:1026B000246B040E010155190CE112510AE1000EC0
:1026C0006AEC76F0400E0101C96F010E126FE8EF5F
:1026D00018F0280E965D230E975902E2E8EF18F0E5
:1026E000000E6AEC76F0400E0101C96F966B976B95
:1026F000E8EF18F056A10ED00001A06B030E9F6FFB
:102700000101529DC00EC96FFCEC77F0010E010172
:10271000146F0BD0000E0CEC77F0000906E00001FE
:102720009F6BA06B0101216BC96B0201286B040E2A
:10273000296F0101126B7FEF19F001EC78F00101B4
:102740007551020DE30EF324D96E020EF420DA6EF9
:10275000DECF81F0DDCF82F018EC64F0020E0101D3
:1027600020D056A504D0010E126F500E1AD0000EC4
:102770000CEC77F0000902E17FEF19F0050E11D0A3
:10278000136B52A102D00B8102D001010B91579320
:1027900057915795366B406B4A6BF9EC6EF0060E0D
:1027A000DED7C96F7FEF19F0C6EC5DF0CDEC71F0AC
:1027B000080ED5D7020EAEEC68F0000E6B6F090E56
:1027C0006C6F01017551020DB90EF324D96E030E21
:1027D000F420DA6EDECF6DF0DDCF6EF00BEC68F03A
:1027E000000E00016B6F090E6C6F090E6D6F1F0EEE
:1027F0006E6F25EC63F0000E00016B6F090E6C6FBD
:1028000001017551020DAF0EF324D96E030EF420B1
:10281000DA6EDECF6DF0DDCF6EF025EC63F0010EE9
:102820000201246F6AEC76F0090E99D7F9EC6EF08C
:10283000010E0201246F0A0E92D7050E0CEC77F000
:102840000009F2E0000E6AEC76F0700E0101C96F2B
:10285000100E3ED1966B976BFCEC77F0C00E010129
:10286000C96F110E4BEF18F06B0E00016B6F020E6B
:102870006C6F01017551020DE30EF324D96E020E47
:10288000F420DA6EDECF6DF0DDCF6EF00BEC68F089
:1028900001EC78F06B0E0001816F020E826F2CEC60
:1028A00068F0120E5CD7C00EC96F900E146F70BF27
:1028B00008D070516F1129E1510E6D5DC30E6E5934
:1028C00024E270AF09D0B00E6D5D3C0E6E59FF0E64
:1028D0006F59FF0E705919E3A7EC74F0B20E0001A6
:1028E0006B6F010E6C6F01017551020DA50EF32483
:1028F000D96E030EF420DA6EDECF6DF0DDCF6EF010
:102900000BEC68F0200E010119D051EC66F0B20E0C
:102910006B6F010E6C6F01017551020D9B0EF3245C
:10292000D96E030EF420DA6EDECF6DF0DDCF6EF0DF
:102930000BEC68F0010E0101126F310E166FB5EC51
:1029400077F0B20E0001816F010E826F18EC64F017
:1029500090EC6DF0C6EC5DF0CDEC71F07FEF19F00E
:1029600004EC77F0C00E0101C96F210E94D301EC85
:1029700078F0000E00016B6F090E6C6F010175514C
:10298000020DB90EF324D96E030EF420DA6EDECFF9
:102990006DF0DDCF6EF00BEC68F0010157A11CD09B
:1029A000000E00016B6F090E6C6F240E6D6F1D0E13
:1029B0006E6F25EC63F001017551020DCF0EF3240B
:1029C000D96E020EF420DA6EDECF81F0DDCF82F018
:1029D00018EC64F0020E39D057A51CD0000E00018F
:1029E0006B6F090E6C6FFC0E6D6F1E0E6E6F25EC1B
:1029F00063F001017551020DD90EF324D96E020E58
:102A0000F420DA6EDECF81F0DDCF82F018EC64F0D6
:102A1000010E1BD0000E00016B6F090E6C6F800E53
:102A20006D6F240E6E6F25EC63F001017551020D80
:102A3000C30EF324D96E030EF420DA6EDECF81F0DC
:102A4000DDCF82F018EC64F0030E0101136F220E4B
:102A5000A8D6000E00016B6F090E6C6F0101755155
:102A6000020DAF0EF324D96E030EF420DA6EDECF22
:102A70006DF0DDCF6EF025EC63F0B5EC77F0230E52
:102A80006ED690EC6DF0C6EC5DF0CDEC71F0010E01
:102A90000201246F6AEC76F0A00E0101C96F240ECA
:102AA000E5D190EC6DF0C6EC5DF009EC5CF0010E48
:102AB0000201246F250E53D6050E0CEC77F00009A9
:102AC0000AE0000E6AEC76F0700E0101C96F270E65
:102AD000176F7FEF19F0240E64D6966B976B57979C
:102AE0000A990A9D0A9B0A9FFCEC77F0C00E01012F
:102AF000C96F280ED0D269C1A5F06AC1A6F02A0E0E
:102B0000176F5B516D5D0001A16F01015C516E5942
:102B10000001A26F01015D516F590001A36F010116
:102B20005E5170590001A46FA4BF9BD0A45108E16D
:102B3000D00EA15DFB0EA259010EA35901E291D066
:102B4000A4BF0AD0A45107E1210EA15D3C0EA259F9
:102B5000030EA359D8B085D0EAEC72F021EE5BF0F9
:102B6000DECF6BF0DDCF6CF00001000E6CBFFF0E0E
:102B70006D6F6E6FE80E6F6F030E706F716B726B1F
:102B8000F2EC4BF06BC0A8F06CC0A9F00101000E94
:102B900057B3010E00016B6FA8C06CF0A9C06DF0B7
:102BA000AAC06EF0A5C06FF0A6C070F0A7C071F00B
:102BB000010EC8EC63F021EE5FF0DECF6BF0DDCFED
:102BC0006CF00001000E6CBFFF0E6D6F6E6FE80EB3
:102BD0006F6F030E706F716B726BF2EC4BF06BC02A
:102BE000A8F06CC0A9F00101000E57B1010E000160
:102BF0006B6FA8C06CF0A9C06DF0AAC06EF0A5C044
:102C00006FF0A6C070F0A7C071F0000EC8EC63F0C2
:102C10006B0E00016B6F020E6C6F01017551020D9E
:102C2000D90EF324D96E020EF420DA6EDECF6DF0E9
:102C3000DDCF6EF00BEC68F0B20E00016B6F010E91
:102C40006C6F01017551020DA50EF324D96E030EB0
:102C5000F420DA6EDECF6DF0DDCF6EF00BEC68F0B5
:102C6000CDD0A4AF9CD0310EA15D040EA259FE0EB2
:102C7000A359FF0EA45901E392D0A4AF0AD0E00EED
:102C8000A15DC30EA259FC0EA359FF0EA45901E287
:102C900086D011EC70F021EE5BF0DECF6BF0DDCF73
:102CA0006CF00001000E6CBFFF0E6D6F6E6FE80ED2
:102CB0006F6F030E706F716B726BF2EC4BF06BC049
:102CC000A8F06CC0A9F00101000E57B3010E00017D
:102CD0006B6FA8C06CF0A9C06DF0AAC06EF0A5C063
:102CE0006FF0A6C070F0A7C071F0010EC8EC63F0E1
:102CF00021EE63F0DECF6BF0DDCF6CF00001000E53
:102D00006CBFFF0E6D6F6E6FE80E6F6F030E706F0E
:102D1000716B726BF2EC4BF06BC0A8F06CC0A9F059
:102D20000101000E57B5010E00016B6FA8C06CF0D9
:102D3000A9C06DF0AAC06EF0A5C06FF0A6C070F07B
:102D4000A7C071F0020EC8EC63F0206B6B0E00019F
:102D50006B6F020E6C6F01017551020DCF0EF324E3
:102D6000D96E020EF420DA6EDECF6DF0DDCF6EF09C
:102D70000BEC68F0B20E00016B6F010E6C6F01017D
:102D80007551020DA50EF324D96E030EF420DA6EF0
:102D9000DECF6DF0DDCF6EF00BEC68F02FD0010EC2
:102DA0000101126F51EC66F06B0E6B6F020E6C6FCF
:102DB00001017551020DC30EF324D96E030EF420E8
:102DC000DA6EDECF6DF0DDCF6EF00BEC68F0B20E98
:102DD00000016B6F010E6C6F01017551020D9B0EAE
:102DE000F324D96E030EF420DA6EDECF6DF0DDCF62
:102DF0006EF00BEC68F0310E0101176F01EC78F00A
:102E00006B0E0001816F020E826F2CEC68F0B5EC46
:102E100077F0290EA4D4B20E0001816F010E826FEB
:102E20002CEC68F090EC6DF0C6EC5DF0CDEC71F040
:102E3000C00E0101C96F900E146F17C116F15FD259
:102E4000A00EC96F7E5103E057B157A502D0300ED6
:102E50000DD0200E156F6DD4529D579768EC3EF043
:102E600001018D6B010E8C6F8CD1420E156F47D214
:102E7000030E0CEC77F0000901E141D2420E91D42F
:102E8000FCEC77F0410E0101146FC00E68D401EC28
:102E900078F001017551020DCD0EF324D96E030EA9
:102EA000F420DA6EDECF81F0DDCF82F018EC64F032
:102EB000B5EC77F001017551020DC50EF324D96E02
:102EC000020EF420DA6EDECF81F0DDCF82F018EC56
:102ED00064F00101AB6BAC6B966B976B900EC96F96
:102EE000800ED1D066EC77F0C00E0101C96F430EA1
:102EF000D2D000019F6BA06B0101216B766B0001AA
:102F00008A6B896BB6EC64F00101C96B1F6B75ECC1
:102F100078F0C8EC78F0F3D1B00EC96F510EBBD089
:102F200001EC78F001017551020DCD0EF324D96E3C
:102F3000030EF420DA6EDECF81F0DDCF82F018ECE4
:102F400064F0B5EC77F001017551020DBE0EF3246B
:102F5000D96E040EF420DA6EDECF81F0DDCF82F080
:102F600018EC64F0A00E0101C96FB00E156F520E7F
:102F700092D001EC78F001017551020DD20EF324CC
:102F8000D96E040EF420DA6EDECF81F0DDCF82F050
:102F900018EC64F0B5EC77F001017551020DC80E24
:102FA000F324D96E040EF420DA6EDECF81F0DDCF8B
:102FB00082F018EC64F0530EAFEF13F0030E5519C6
:102FC00004E1B00EC96F540E66D0040E551901E02D
:102FD00096D1B00EC96F550E5ED001EC78F00101AC
:102FE0007551020DDC0EF324D96E040EF420DA6E56
:102FF000DECF81F0DDCF82F018EC64F051EC66F0AA
:10300000900E0101C96FA00E166F2FD701EC78F05A
:1030100001017551020DC50EF324D96E020EF42084
:10302000DA6EDECF81F0DDCF82F018EC64F0E8D705
:10303000966B976B66EC77F0610E25D751EC66F0D6
:10304000200E816F400E4FEC73F00101135122EC02
:103050005DF0620EAFEF13F0B5EC77F00101755142
:10306000020DB40EF324D96E040EF420DA6EDECF16
:1030700081F0DDCF82F018EC64F0C00E0101C96F61
:10308000900E146F310E166F3AD104EC77F0C00E2B
:103090000101C96F710E146F32D1135122EC5DF032
:1030A000720EAFEF13F06DC16FF06EC170F06FC1B3
:1030B00071F070C172F0000E0AEC36F000019E6BE8
:1030C0000101186B1A6B196B0201506B516BB5EC57
:1030D00077F001011851F1EC6BF0730EAFEF13F0C4
:1030E000F9EC6EF00201504B512BAC0E505D260EE8
:1030F000515905E3010E0101126F600EC96F010104
:103100001A2B090E1A65FBD01A6B6DC16FF06EC1D8
:1031100070F06FC171F070C172F0010E0AEC36F000
:1031200000019E6F0101192B0201515104E1320E81
:10313000505D01E2E4D0010E01011965E0D0196B88
:10314000B5EC77F000019E510101185D05E2182BE6
:103150001851F1EC6BF0D3D0060E181901E0CFD066
:1031600017C1C9F1CCD0FEEC30F068EC3EF00101A3
:1031700057A307D0D10E8C5D020E8D5902E3528DFC
:103180005787A00EC96F71D6206B910ED1EF13F047
:10319000202B310E2065B3D016C1C9F1B0D0000E7E
:1031A0000CEC77F0000901E1AAD015C1C9F1A7D054
:1031B00004EC77F06AD608EC71F0000901E19FD0C9
:1031C00030EC71F0000901E19AD014C1C9F197D037
:1031D000C95102E17AEF13F0010A02E19DEF13F009
:1031E000030A02E1B1EF13F0070A02E1C0EF13F0A6
:1031F000030A02E1D4EF13F00E0A02E1DAEF13F052
:10320000010A02E116EF14F0030A02E11DEF14F0C7
:103210001A0A02E12AEF14F0010A02E134EF14F075
:10322000030A02E153EF14F0320A02E1B0EF14F0A6
:10323000010A02E1B7EF14F0030A01E10AD4010A1E
:1032400001E11FD4070A01E12CD4010A01E134D4C1
:10325000020A01E142D40F0A01E14DD4010A01E161
:10326000DAD5030A01E1ECD51A0A01E1F5D5010A24
:1032700001E1FED5710A01E103D6010A01E107D699
:10328000030A01E12FD6010A01E133D6130A01E155
:1032900043D6010A01E144D6030A01E16AD6010AD4
:1032A00001E18CD6070A01E198D6010A01E1AED608
:1032B000350A01E1BDD6010A01E1C0D6030A01E1E8
:1032C000CBD6120A01E1E1D6010A01E1E6D6030AF2
:1032D00001E1E9D6010A01E103D7F30A01E143D78D
:1032E000100A01E151D7010A01E152D7310A01E187
:1032F00056D7100A01E15CD7700A01E15CD79FC084
:103300009CF0A0C09DF0120073EF1EF0250EDA199C
:103310001CE093EC1EF011E0B651D96E8BEC1EF060
:1033200002D873EF1EF00500FA6EBA51FD6EBB5164
:10333000FE6EFF6AFA50DA5112007FEC1EF0DAC01E
:10334000DFFFA3EC1EF073EF1EF0D66BD76BD46BD0
:10335000D56B03D0D485B74BB82BD2EC1EF0300A16
:10336000F9E0D2EC1EF09CEC73F01CE3D66BD76B4B
:10337000D6C06BF0D7C06CF065EC1FF0F3EC71F0C9
:103380006BC0D6F06CC0D7F0B7C0F6FF09EC1FF0E9
:10339000D627BC51D723B74BB82BD2EC1EF09CECF0
:1033A00073F0E6E2D2EC1EF02E0A22E1D58DB74B87
:1033B000B82BD86BD96B15D0D8C06BF0D9C06CF0D6
:1033C00065EC1FF0F3EC71F06BC0D8F06CC0D9F075
:1033D000B7C0F6FF09EC1FF0D827BC51D923B74B73
:1033E000B82BD2EC1EF09CEC73F001E2B3D0E4D722
:1033F000D86BD96BD589AED0D489ACD0D585C2D0A5
:10340000B951D96EDA6A020EDF26DF5CD96EDA6A4C
:10341000DECFC3F0DECFC4F0C351C41104E1F00E1F
:10342000C36F240EC46FC56BC66B03D00001C54BC0
:10343000C62BC551C325BA6FC651C421BB6FBAC0D4
:10344000F6FFBBC0F7FF000EF86E0F0EF76403D057
:103450000800F55003D082EC47F0EF500009E6E198
:103460000001D851D9110BE0C55169EC1FF0C651CC
:10347000800ABA5904E2D8C0C5F0D9C0C6F0D65106
:10348000C55DD751C65905E2C551D65FC651D75B58
:103490001AD0D66BD76B17D093EC1EF00FE0B65155
:1034A000D96E8BEC1EF001D80ED00500FA6EBA5121
:1034B000FD6EBB51FE6EFF6AFA50200C7FEC1EF0D1
:1034C000200E9BEC1EF00001D607D8A0D707D62906
:1034D000E3E1D72934E0E0D793EC1EF01EE0B651CB
:1034E000D96E8BEC1EF001D814D00500FA6EBA51DB
:1034F000FD6EBB51FE6EFF6AFA5049EC1FF00F0ED5
:10350000F76403D00800F55003D082EC47F0EF5089
:1035100012000001C34BC42B12D049EC1FF0EFDBAB
:103520000F0EF76403D00800F55003D082EC47F08B
:10353000EF50DF6E0001C34BC42BA3EC1EF0C50798
:10354000D8A0C607C529C8E1C62901E1CCD3C4D794
:10355000D48D18D0B7C0F6FFB8C0F7FF41EC1FF00C
:1035600001E1CAD3640A0EE0020A01E147D70F0A5B
:1035700009E0050A01E140D71F0A01E141D7060A27
:10358000E7E0B1D3070ED51501E181D2D5A903D06B
:10359000D96B060ED86FB951D96EDA6ADFCFBAF09F
:1035A000030EDF26BA51D96EDA6ADECFD1F0DECF54
:1035B000D2F0DDCFD3F0D3AF10D0D1C06BF0D2C0FA
:1035C0006CF0D3C06DF029EC75F06BC0D1F06CC01D
:1035D000D2F06DC0D3F0030ED413C76BC86BD151BA
:1035E000D211D31169E0820EBA6FBB69D1C0BCF0B1
:1035F000D2C0BDF0D3C0BEF0D4C0BFF0100E05D015
:10360000D890BF33BE33BD33BC33E82EF9D7BC519D
:10361000BA25C76F000EBB21C86FC707D8A0C8075F
:10362000C7C06BF0C8C06CF06E6B030E6D6FF3EC2F
:1036300071F06BC0C7F06CC0C8F0C7C071F0C8C0F3
:1036400072F0FAEC30F0A8EC5AF071C0C7F072C01A
:10365000C8F0C8AF03D0C707D8A0C807C751000833
:1036600023EC33F050EC1FF0CDC079F0CEC07AF0EF
:10367000CFC07BF057EC1FF033EC4BF079C0CDF0AE
:103680007AC0CEF07BC0CFF0E3DB6E6B800E6F6F45
:103690003F0E706FA6EC62F004E2C707D8A0C8071F
:1036A0000BD0D6DB6E6B200E6F6F410E706FA6ECE9
:1036B00062F002E3C74BC82BD9BF05D0D9511AE13C
:1036C0000D0ED85D17E2D1C092F0D2C093F0D3C0F6
:1036D00094F0D851ECEC40F088C095F089C096F099
:1036E0008AC097F012EC3FF092C0D1F093C0D2F0B4
:1036F00094C0D3F0C8BF05D0C85116E10A0EC75D0B
:1037000013E2D151D211D3113CE0D8DB0BEC4DF0D8
:103710008F5190119111921134E1C8BF32D0C8512C
:1037200003E1020EC75D2DE393DB700E6E6F890E11
:103730006F6F400E706FA6EC62F0F70ED8B0F80E07
:10374000C727FF0EC823C75123EC33F0A9DBD1C034
:103750006BF0D2C06CF0D3C06DF0CDC06EF0CEC0B7
:103760006FF0CFC070F0DBEC48F06BC0C9F06CC0FC
:10377000CAF06DC0CBF06EC0CCF0D16BD26BD36B06
:1037800024D09CDB0BEC4DF06ADBD1C0B0F0D2C092
:10379000B1F0D3C0B2F0C9C073F0CAC074F0CBC0EE
:1037A00075F0CCC076F003EC65F073C0B3F074C074
:1037B000B4F075C0B5F042EC6CF0B0C0D1F0B1C05F
:1037C000D2F0B2C0D3F0C76BC86B010EDA6FC2DAA9
:1037D0002EDB04E3DA2B0A0EDA19F9E1DA51D825E7
:1037E000BA6F000ED921BB6FC751BA27C851BB238E
:1037F000BA51D65FBB51D75BD851D91103E0D60778
:10380000D8A0D70720DB03E0D607D8A0D707D4A5D8
:103810004CD019DB2BE087DA0EE0B651D96E7BDA9B
:1038200001D824D00500FA6EBA51FD6EBB51FE6E70
:10383000FF6AFA502D0C63DA2D0E7DDA17D073DA99
:103840000EE0B651D96E67DA01D80CD00500FA6ED9
:10385000BA51FD6EBB51FE6EFF6AFA50300C4FDA62
:10386000300E69DA0001D607D8A0D7070001D7BF0C
:103870004ED0D751E4E1D6054AE3E1D754DA0EE061
:10388000B651D96E48DA01D80CD00500FA6EBA519B
:10389000FD6EBB51FE6EFF6AFA50200C30DA200E2E
:1038A0004ADA0001D607D8A0D707D7BF04D0D7512E
:1038B000E5E1D605E3E2C7DA2AE035DA0EE0B651F3
:1038C000D96E29DA01D823D00500FA6EBA51FD6EFF
:1038D000BB51FE6EFF6AFA502D0C11DA2D0E16D078
:1038E0008FDA38DA67DA30EC5AF046DA2EEC5FF02D
:1038F0007EDA19DA08E0B651D96E0DDA01D807D0B0
:103900000500FA6E7AD0FBD9CD51300F14DA0001E0
:10391000DA07DA2918E0E4D706DA0EE0B651D96EF4
:10392000FAD901D80CD00500FA6EBA51FD6EBB5120
:10393000FE6EFF6AFA50300CE2D9300EFCD900015D
:10394000C707D8A0C807C8BF04D0C851E5E1C7055C
:10395000E3E2D9BF08D0D95103E1090ED85D03E3F2
:10396000080EDA6F02D0D8C0DAF0DA51D85F000E54
:10397000D95BDA5113E0D7D90EE0B651D96ECBD965
:1039800001D80CD00500FA6EBA51FD6EBB51FE6E27
:10399000FF6AFA502E0CB3D92E0ECDD90001DA51A0
:1039A00023EC33F088C0C0F089C0C1F08AC0C2F0F7
:1039B0007EDAC0C079F0C1C07AF0C2C07BF033ECCF
:1039C0004BF079C08FF07AC090F07BC091F00BEC97
:1039D0004DF045DA3CD014DABDD9ECD930EC5AF0D0
:1039E000CBD92EEC5FF003DA9ED90EE0B651D96E3A
:1039F00092D901D80DD00500FA6EBA51FD6EBB51B7
:103A0000FE6EFF6AFA506FD27AD9CD51300F93D93A
:103A1000C9C078F0CAC079F0CBC07AF0CCC07BF0D6
:103A2000000198D9F5CF7CF00900F5CF7DF00900B1
:103A3000F5CF7EF00A00F5CF7FF02EEC5FF078C076
:103A4000C9F079C0CAF07AC0CBF07BC0CCF0DA07FD
:103A5000DA2918E0C0D767D90EE0B651D96E5BD924
:103A600001D80CD00500FA6EBA51FD6EBB51FE6E46
:103A7000FF6AFA50300C43D9300E5DD90001D807E7
:103A8000D8A0D907D851D91101E12DD1E4D7D4BD9F
:103A90001BD0D4A902D09AD90AD0EAD9DECFC9F076
:103AA000DDCFCAF0000ECABFFF0ECB6FCC6FCCAF1C
:103AB0001AD0030ED413CC1FCB1FCA1FC96D000E22
:103AC000CA23CB23CC230FD0D4A902D07FD90BD0CB
:103AD000CFD9DECFBAF0DDCFBBF0BAC0C9F0BBC0E2
:103AE000CAF0CB6BCC6BD851D91107E1C951CA11BF
:103AF000CB11CC1102E1D84BD92B010EDA6F2AD9A8
:103B000096D904E3DA2B0A0EDA19F9E1DA51BA6F21
:103B1000BB6BD851E3D9D951800ABC5903E2D8C054
:103B2000DAF00FD0DA51BA6FBB6BBA51D85DD95108
:103B3000800ABC6FBB51800ABC5903E2DAC0D8F0DE
:103B4000D96BD651D71105E07ED903E0D607D8A0AE
:103B5000D707D5AD0DD0D651BCD9D751800ABA59A7
:103B600005E2D851D65FD951D75B02D0D66BD76B5F
:103B7000DA51BA6FBB6BD651B1D9D751800ABC5953
:103B800005E2DA51D65F000ED75B02D0D66BD76B59
:103B9000D4A532D058D913E0C6D80EE0B651D96EAC
:103BA000BAD801D80CD00500FA6EBA51FD6EBB51DF
:103BB000FE6EFF6AFA502D0CA2D82D0EBCD8000163
:103BC000D651D71101E187D0AED80EE0B651D96EEB
:103BD000A2D801D80CD00500FA6EBA51FD6EBB51C7
:103BE000FE6EFF6AFA50300C8AD8300EA4D800015D
:103BF000D607D8A0D707E4D7D651D7111AE093D863
:103C00000EE0B651D96E87D801D80CD00500FA6EF7
:103C1000BA51FD6EBB51FE6EFF6AFA50200C6FD890
:103C2000200E89D80001D607D8A0D707D651D711C2
:103C3000E6E109D950E077D80EE0B651D96E6BD8DD
:103C400001D849D00500FA6EBA51FD6EBB51FE6E27
:103C5000FF6AFA502D0C53D82D0EDF6E3BD0D8C022
:103C6000BAF0D9C0BBF0D890BA37BB37D890BA37C2
:103C7000BB377D0EBA25F66E110EBB21F76E77D8D5
:103C800099D8BED830EC5AF06BC078F06CC079F09F
:103C90006DC07AF06EC07BF00A0E7C6F7D6B7E6B20
:103CA0007F6B2EEC5FF07851300FDA6F3CD80FE06D
:103CB000B651D96E30D801D80ED00500FA6EBA517F
:103CC000FD6EBB51FE6EFF6AFA50DA51120017D832
:103CD000DAC0DFFF38D80001D807D8A0D907D82923
:103CE000BEE1D929BCE1B7C0F6FFB8C0F7FF0001BB
:103CF000C8D802E086EF19F0B66BB76B1200B65168
:103D0000D96EDA6ADECFBAF0DDCFBBF0BAC0D9FF28
:103D1000BBC0DAFF1200DA6A020ED926DECFBAF093
:103D2000DDCFBBF0020CB651D96EDA6A020ED9268D
:103D3000DE50DE101200DF6EB651D96EDA6ADE2A6E
:103D4000000EDD22000CB651D96EDA6ADE2A000EB2
:103D5000DD22000CDA51040D7D0EF324F66E110EF7
:103D6000F420F76EF86A000EF82209001200F86AD3
:103D7000000EF822090012006BC0CDF06CC0CEF02E
:103D80006DC0CFF06EC0D0F0CDC078F0CEC079F06D
:103D9000CFC07AF0D0C07BF00A0E7C6F7D6B7E6B5B
:103DA0007F6B0A0CB7C0F6FFB8C0F7FFF86A0800CF
:103DB000F5501200F5CF6FF00900F5CF70F0090053
:103DC000F5CF71F00A00F5CF72F01200B951D96E3B
:103DD000DA6A040EDF26DF5CD96EDA6ADECFC9F05C
:103DE000DECFCAF0DECFCBF0DECFCCF0120078C051
:103DF000CDF079C0CEF07AC0CFF07BC0D0F0120009
:103E0000C9C06BF0CAC06CF0CBC06DF0CCC06EF016
:103E10001200B8C0F7FFF86A0800F5CFBAF0D00E6C
:103E2000BA25BB6FBC6BFF0EBC23BB511200F55013
:103E3000C95D0900F550CA590900F550CB59090070
:103E4000F550CC591200D4C0BAF0030EBA17030CC7
:103E5000CDC06BF0CEC06CF0CFC06DF012008FC043
:103E6000C9F090C0CAF091C0CBF092C0CCF0120063
:103E7000B951D96EDA6ADF50DF2ADF2AD96EDA6AE1
:103E80001200B74BB82BF86A0800F5CFDAF0DA5118
:103E90001200C3C0F6FFC4C0F7FF000EF86E120098
:103EA00088C0CDF089C0CEF08AC0CFF01200D1C05A
:103EB0007CF0D2C07DF0D3C07EF01200D1C08FF074
:103EC000D2C090F0D3C091F012006E6B0A0E6D6FED
:103ED0000A0CD85DD951800ABA6F1200BA5DBB5185
:103EE000800ABC6F1200CD51300F120076C082F0F4
:103EF00077C083F00DD3840E6D6F6E6BA7DB45EC3E
:103F00006DF08451010176190EE0760E00016F6F9D
:103F1000010E706F726B716B010E736FC6EC6CF0FB
:103F20005DDB980E6DD3840E5EDB99DB45EC6DF0A6
:103F300084510101A4190EE0A40E00016F6F010E5F
:103F4000706F726B010E716F736FC6EC6CF046DBB5
:103F50009F0E56D3800E47DB7EDB45EC6DF0805123
:103F60000101771905E100018151010178190EE085
:103F7000770E00016F6F010E706F726B020E716F22
:103F8000736FC6EC6CF02ADBA60E3AD3800E2BDBE7
:103F9000040E1BEC32F045EC6DF0805101017919F3
:103FA00005E10001815101017A190DE0790E00014E
:103FB0006F6F010E706F726B040E37DBC6EC6CF026
:103FC0000DDBAD0E1DD3800E0EDB060E1BEC32F0AA
:103FD00045EC6DF0805101017B1905E10001815133
:103FE00001017C190DE07B0E00016F6F010E706FF7
:103FF000726B060E1ADBC6EC6CF0F0DAB40E00D36E
:10400000800EF1DA080E1BEC32F045EC6DF08051B9
:104010000101801905E100018151010181190DE0C3
:10402000800E00016F6F010E706F726B080EFDDA6B
:10403000C6EC6CF0D3DABB0EE3D2800ED4DA0A0EF3
:104040001BEC32F045EC6DF080510101821905E165
:1040500000018151010183190DE0820E00016F6F93
:10406000010E706F726B0A0EE0DAC6EC6CF0B6DA15
:10407000C20EC6D2840EB7DA0C0EBEDA45EC6DF075
:104080008451010184190DE0840E00016F6F010E4F
:10409000706F726B0C0EC5DAC6EC6CF09FDAC90E4D
:1040A000AFD2840EA0DA0D0EA7DA45EC6DF0845184
:1040B000010186190DE0860E00016F6F010E706F11
:1040C000726B0D0EAEDAC6EC6CF088DAD00E98D2B8
:1040D000840E89DA0E0E90DA45EC6DF08451010100
:1040E0007D190DE07D0E00016F6F010E706F726B18
:1040F0000E0E97DAC6EC6CF071DAD70E81D2840E10
:1041000072DA0F0E79DA45EC6DF084510101751900
:104110000DE0750E00016F6F010E706F726B0F0E68
:1041200080DAC6EC6CF05ADADE0E6AD2840E5BDA04
:10413000100E62DA45EC6DF08451010157190DE063
:10414000570E00016F6F010E706F726B100E69DAFF
:10415000C6EC6CF043DAE50E53D27C0E44DA110E55
:1041600068DA45EC6DF056DA5B51000178190FE121
:1041700001015C51000179190AE101015D51000161
:104180007A1905E101015E5100017B190CE05B0E1B
:104190006F6F010E706F726B110E4FDAC6EC6CF020
:1041A0001DDAEC0E2DD24DDA150E43DA45EC6DF02A
:1041B00031DA5F51000178190FE10101605100010E
:1041C00079190AE10101615100017A1905E1010142
:1041D000625100017B190CE05F0E6F6F010E706F72
:1041E000726B150E2ADAC6EC6CF0F8D9F30E08D211
:1041F00028DA190E1EDA45EC6DF00CDA6351000175
:1042000078190FE101016451000179190AE10101F6
:10421000655100017A1905E10101665100017B1920
:104220000CE0630E6F6F010E706F726B190E05DA82
:10423000C6EC6CF0D3D9FA0EE3D1800E6D6F6E6BC5
:10424000706B1D0E1BEC32F045EC6DF080510101DE
:104250008C1905E10001815101018D190FE08C0ECF
:1042600000016F6F010E706F726B1D0EDED9C6EC10
:104270006CF0B4D9010EDE6EDD6E010C7C0EB3D98C
:10428000250ED7D945EC6DF07C51010192190FE153
:1042900000017D51010193190AE100017E510101E4
:1042A000941905E100017F51010195190DE0920E6D
:1042B00000016F6F010E706F726B250EBED9C6ECD8
:1042C0006CF08CD9080E94D1840E8DD9230E94D91C
:1042D00045EC6DF0845101017E190DE07E0E000168
:1042E0006F6F010E706F726B230E9BD9C6EC6CF072
:1042F00075D90F0E7DD1840E76D9240E7DD945EC6B
:104300006DF0845101017F190DE07F0E00016F6F88
:10431000010E706F726B240E84D9C6EC6CF05ED9FE
:10432000160E66D1840E5FD9290E66D945EC6DF064
:1043300084510101AD190DE0AD0E00016F6F010E4A
:10434000706F726B290E6DD9C6EC6CF047D91D0EDB
:104350004FD1840E48D92A0E4FD945EC6DF08451C7
:10436000010158190DE0580E00016F6F010E706FBA
:10437000726B2A0E56D9C6EC6CF030D9240E38D1A7
:10438000800E31D92B0E1BEC32F045EC6DF08051D4
:104390000101341905E100018151010135190AE0DB
:1043A000340E00016F6F010E2ED9C6EC6CF016D9D9
:1043B0002B0E1ED1800E17D92D0E1BEC32F045ECC2
:1043C0006DF0805101013E1905E1000181510101AB
:1043D0003F190AE03E0E00016F6F010E14D9C6ECC2
:1043E0006CF0FCD8320E04D1800EFDD82F0E1BECE1
:1043F00032F045EC6DF080510101481905E10001F2
:104400008151010149190AE0480E00016F6F010E48
:10441000FAD8C6EC6CF0E2D8390EEAD0800EE3D8B8
:10442000310E1BEC32F045EC6DF080510101441966
:1044300005E100018151010145190AE0440E000126
:104440006F6F010EE0D8C6EC6CF0C8D8400ED0D02B
:10445000840EC9D81F0ED0D845EC6DF084510101EF
:104460008E190DE08E0E00016F6F010E706F726B72
:104470001F0ED7D8C6EC6CF0B1D8470EB9D0840E59
:10448000B2D8200EB9D845EC6DF0845101018F19D6
:104490000DE08F0E00016F6F010E706F726B200EBA
:1044A000C0D8C6EC6CF09AD84E0EA2D0840E9BD821
:1044B000210EA2D845EC6DF08451010190199111A3
:1044C0000DE0900E00016F6F010E706F726B210E88
:1044D000ACD8C6EC6CF082D8550E8AD0840E83D846
:1044E000330E8AD845EC6DF08451010185190DE039
:1044F000850E00016F6F010E706F726B330E91D8D5
:10450000C6EC6CF06BD85C0E73D068D8010E78D016
:1045100065D8DECF78F0DDCF79F0795103E0010A7C
:1045200033E0E9D47851010AD8B41200990A01E1C4
:10453000FAD4070A01E10ED5390A01E127D50B0AA1
:1045400001E141D5190A01E15BD50F0A01E175D5F9
:10455000790A01E18FD50B0A01E1A3D5190A01E11E
:10456000B7D5070A01E1CBD5090A01E1DFD53B0A3E
:1045700001E1F3D5090A01E116D61F0A01E138D697
:10458000090A01E15AD6B7D47851010A01E176D679
:10459000090A01E199D6070A01E1ADD6190A01E13C
:1045A000C1D60B0A01E1D5D6390A01E1E9D60F0AD5
:1045B00001E100D7190A01E117D70B0A01E12ED753
:1045C000790A01E145D7070A01E159D7090A01E152
:1045D0006DD71B0A83E0090A98E08DD482C0D9FF09
:1045E00083C0DAFF120000016D6F6E6B706B1200FA
:1045F000DE6E010EDD6E010C6F6F010E716F010C2E
:10460000DE6EDD6A000C706F726B310E716F020E20
:10461000736F020C84C078F0796B7A6B7B6B01014D
:104620001200716F010E736F010C716F020E736FC8
:10463000020C6F6F040E716F040C716F040E736FB8
:10464000040C7C0E6D6F6E6B706B1200706B6F6B79
:10465000010E716F010C020E6F6F716F020C010E73
:104660006F6F716F010C21EEDAF0100EDE6AE80652
:10467000FDE2FAD2B20E00016B6F010E6C6F010108
:104680007551020D960EF324D96E040EF420DA6EE5
:10469000DECF6DF0DDCF6EF00BEC68F0B20E0001F6
:1046A000E86F010EE96F770EEA6F010EEB6F31ECE8
:1046B00058F0B20E00016B6F010E6C6F3A0E6D6F09
:1046C0001A0E6E6F25EC63F0F2D2B20E00016B6F22
:1046D000010E6C6F01017551020D8C0EF324D96E21
:1046E000040EF420DA6EDECF6DF0DDCF6EF00BEC51
:1046F00068F0B20E0001E86F010EE96F670EEA6F15
:10470000010EEB6F010EEC6FD9EC52F0B20E00010E
:104710006B6F010E6C6F4A0E6D6F1B0E6E6F25EC8A
:1047200063F0B20E0001E86F010EE96F6B0EEA6FE5
:10473000010EEB6F010EEC6F9CEC47F0B8D2B20E9D
:1047400000016B6F010E6C6F01017551020D780E47
:10475000F324D96E040EF420DA6EDECF6DF0DDCFD7
:104760006EF00BEC68F0B20E0001E86F010EE96F1D
:104770007B0EEA6F010EEB6F31EC58F0B20E0001C8
:104780006B6F010E6C6F3A0E6D6F1A0E6E6F25EC2B
:1047900063F08DD2B20E00016B6F010E6C6F0101E0
:1047A0007551020D820EF324D96E040EF420DA6ED8
:1047B000DECF6DF0DDCF6EF00BEC68F0B20E0001D5
:1047C000E86F010EE96F790EEA6F010EEB6F31ECC5
:1047D00058F0B20E00016B6F010E6C6F3A0E6D6FE8
:1047E0001A0E6E6F25EC63F062D2B20E00016B6F91
:1047F000010E6C6F01017551020D6E0EF324D96E1E
:10480000040EF420DA6EDECF6DF0DDCF6EF00BEC2F
:1048100068F001017D5115E1B20E00016B6F010ED0
:104820006C6F01017551020D1E0EF324D96E040E3A
:10483000F420DA6EDECF6DF0DDCF6EF025EC63F0A4
:1048400036D2B20E00016B6F010E6C6F0101755113
:10485000020D140EF324D96E040EF420DA6EDECFAE
:104860006DF0DDCF6EF025EC63F021D2B20E0001C9
:104870006B6F010E6C6F01017551020D640EF32414
:10488000D96E040EF420DA6EDECF6DF0DDCF6EF05F
:104890000BEC68F0DA0E0001DB6F010EDC6F8F0E9F
:1048A000DD6F260EDE6F80C1DFF081C1E0F06BECC2
:1048B0006EF0B20E6B6F010E6C6FDA0E6D6F010E43
:1048C0006E6F25EC63F0B20E00016B6F010E6C6F22
:1048D00001017551020D0A0EF324D96E040EF42065
:1048E000DA6EDECF6DF0DDCF6EF025EC63F0DFD158
:1048F000B20E00016B6F010E6C6F01017551020D5C
:104900005A0EF324D96E040EF420DA6EDECF6DF069
:10491000DDCF6EF00BEC68F0DA0E0001DB6F010EFC
:10492000DC6F8F0EDD6F260EDE6F82C1DFF083C17C
:10493000E0F06BEC6EF0B20E6B6F010E6C6FDA0E86
:104940006D6F010E6E6F25EC63F0B20E00016B6FA0
:10495000010E6C6F01017551020D000EF324D96E2A
:10496000040EF420DA6EDECF6DF0DDCF6EF025ECB4
:1049700063F09DD1B20E00016B6F010E6C6F0101EF
:104980007551020D500EF324D96E040EF420DA6E28
:10499000DECF6DF0DDCF6EF00BEC68F0DA0E0001CB
:1049A000DB6F010EDC6F060EDD6F260EDE6F90C131
:1049B000DFF091C1E0F06BEC6EF0B20E6B6F010EA8
:1049C0006C6FDA0E6D6F010E6E6F25EC63F0B20E38
:1049D00000016B6F010E6C6FA00E6D6F260E6E6F77
:1049E00025EC63F0DA0E0001DB6F010EDC6F060EC2
:1049F000DD6F260EDE6F8FC1DFF0E06B6BEC6EF0CB
:104A0000B20E6B6F010E6C6FDA0E6D6F010E6E6F72
:104A100025EC63F0B20E00016B6F010E6C6FA00EFF
:104A20006D6F260E6E6F25EC63F0DA0E0001DB6F02
:104A3000010EDC6F060EDD6F260EDE6F8EC1DFF01D
:104A4000E06B6BEC6EF0B20E6B6F010E6C6FDA0EFA
:104A50006D6F010E6E6F25EC63F029D1B20E00016F
:104A60006B6F010E6C6F01017551020D460EF32440
:104A7000D96E040EF420DA6EDECF6DF0DDCF6EF06D
:104A80000BEC68F0DA0E0001DB6F010EDC6F820EBA
:104A9000DD6F260EDE6F92C1DFF093C1E0F094C1AE
:104AA000E1F095C1E2F06BEC6EF0B20E6B6F010EAF
:104AB0006C6FDA0E6D6F010E6E6F25EC63F0B20E47
:104AC00000016B6F010E6C6F01017551020DC20E7A
:104AD000F324D96E050EF420DA6EDECF6DF0DDCF53
:104AE0006EF025EC63F0E3D0B20E00016B6F010EA7
:104AF0006C6FFD0E6D6F240E6E6F0BEC68F087C14E
:104B00009EF088C19FF089C1A0F08AC1A1F062EC3B
:104B10005EF09EC0A8F09FC0A9F0A0C0AAF0AB6B49
:104B20007A0EAC6F440EAD6FD7EC4EF0A8C0D7F143
:104B3000A9C0D8F1AAC0D9F1DA0EDB6F010EDC6F83
:104B4000D60EDD6F250EDE6FD7C1DFF0D8C1E0F0E5
:104B5000D9C1E1F06BEC6EF0B20E6B6F010E6C6FB1
:104B6000DA0E6D6F010E6E6F25EC63F0B20E000170
:104B70006B6F010E6C6F0C0E6D6F260E6E6F25EC59
:104B800063F095D0B20E00016B6F010E6C6F940E46
:104B90006D6F250E6E6F0BEC68F00101AD5115E1E4
:104BA000B20E00016B6F010E6C6F01017551080DA3
:104BB0002E0EF324D96E060EF420DA6EDECF6DF0E1
:104BC000DDCF6EF025EC63F072D0B20E00016B6F9A
:104BD000010E6C6F01017551080D2C0EF324D96E76
:104BE000060EF420DA6EDECF6DF0DDCF6EF025EC30
:104BF00063F030D0B20E00016B6F010E6C6FE80EE7
:104C00006D6F250E6E6F25EC63F051D0B20E000172
:104C10006B6F010E6C6FAC0E6D6F250E6E6F25EC19
:104C200063F045D0B20E00016B6F010E6C6FB20ED7
:104C30006D6F250E6E6F25EC63F039D0B20E00015A
:104C40006B6F010E6C6FB80E6D6F250E6E6F25ECDD
:104C500063F02DD00101AE51CDE0010AD7E0030A87
:104C6000E1E0ECD7000023D001011F5101E102D5A2
:104C7000010A01E12AD5030A01E161D5010A01E136
:104C800089D5070A01E1B1D5010A01E1EFD5030A8F
:104C900001E12ED6010A01E16DD60F0A01E1DED64F
:104CA000010A01E121D7030A01E16CD7DBD7B5EC9A
:104CB00077F0B20E0001816F010E826F2CEF68F069
:104CC000AED19BC0D9FF9CC0DAFFDF5001011B6F42
:104CD000476A66EC77F00101AD5104E11E0E000158
:104CE000F46F1E0C0A0E0001F46F0A0C020EAEECFB
:104CF00068F06B0E6B6F020E6C6F9DC0D9FF9EC08B
:104D0000DAFFDECF6DF0DDCF6EF00BEC68F0B20EA7
:104D100000016B6F010E6C6F20EE02F09D51D926E1
:104D20009E51DA22DECF6DF0DDCF6EF00BEC68F035
:104D3000475017E16B0E00016B6F020E6C6F510E46
:104D40006D6F1D0E6E6F25EC63F0B20E00016B6F80
:104D5000010E6C6F4A0E6D6F1B0E6E6F25EC63F0CB
:104D600016D06B0E00016B6F020E6C6F4A0E6D6FEA
:104D70001B0E6E6F25EC63F0B20E00016B6F010E1F
:104D80006C6F510E6D6F1D0E6E6F25EC63F06B0E28
:104D900000016B6F020E6C6F20EE04F09D51D9265E
:104DA0009E51DA22DECF6DF0DDCF6EF025EC63F0A0
:104DB000B20E00016B6F010E6C6F20EE06F09D517C
:104DC000D9269E51DA22DECF6DF0DDCF6EF025ECD4
:104DD00063F071EC78F00001F42B12000101AD5189
:104DE00004E1000E59EC5DF0F6D7AE2959EC5DF008
:104DF000F2D7476A77D7010E476E0A0E0001F46FAB
:104E00000A0C66EC77F0090E0101C96F090C66EC1B
:104E100077F00F0E0001F46F0F0C01015551010ADC
:104E2000EAE0030AE6E0010AF2E0070AD8A4120069
:104E3000E8D7020EAEEC68F0475001E04FD7010E04
:104E4000EDEC77F06B0E6B6F020E6C6F20EE04F0E2
:104E50009D51D9269E51DA22DECF6DF0DDCF6EF066
:104E60000BEC68F071EC78F0100E0001F46F100C90
:104E7000130EF46F130C0201546B556BF40E00010A
:104E80002BD00101AF51B01103E0F0EC63F0A3D7D8
:104E9000F2EC77F0CDEC71F0010EEDEC77F09BD7F2
:104EA000040E0101551908E166EC77F0000EEDECF7
:104EB00077F0090E0101C96F0201544B552BB00E5A
:104EC000545D040E5559D8A01200000EEDEC77F099
:104ED000140E0101C96F140C6B6F6C6B000E36EF72
:104EE00075F0FCEC77F077D76B0E6B6F020E6C6F82
:104EF000820E6D6F250E6E6F0BEC68F0B20E000126
:104F00006B6F010E6C6F460E6D6F1B0E6E6F0BECB0
:104F100068F001011B5117E16B0E00016B6F020E6F
:104F20006C6F4A0E6D6F1B0E6E6F25EC63F0B20E48
:104F300000016B6F010E6C6F510E6D6F1D0E6E6F69
:104F400025EC63F016D06B0E00016B6F020E6C6FD8
:104F5000510E6D6F1D0E6E6F25EC63F0B20E0001E9
:104F60006B6F010E6C6F4A0E6D6F1B0E6E6F25EC32
:104F700063F06B0E00016B6F020E6C6F01017551D7
:104F8000080D540EF324D96E060EF420DA6EDECF2F
:104F90006DF0DDCF6EF025EC63F0B20E00016B6FAB
:104FA000010E6C6F01017551080D560EF324D96E78
:104FB000060EF420DA6EDECF6DF0DDCF6EF025EC5C
:104FC00063F071EC78F0546B556B05D7F40E84D711
:104FD000010E1B6F1D0E0001F46F1D0C1B6B1D0ECF
:104FE0000001F46F1D0C3C0EC96F3C0C9BC0D9FF37
:104FF0009CC0DAFF1BC1DFFF1B51E8EC77F0320EDB
:105000000101C96F320C01015551010AE7E0030AA1
:10501000DFE0010AEBE0070AD8A41200E4D7F4515C
:1050200001E14FD6090AD2E0030A01E15FD6010A85
:1050300001E1D4D6070ACAE0010A01E1EED6020A6C
:1050400001E1F7D61F0A01E113D7030A01E113D7E3
:10505000070A01E116D7010A01E122D7080AB6E0E2
:10506000030A01E13ED7010A01E13ED73F0AAEE063
:10507000010AC9E0120029C031F02AC032F0A1D1E2
:10508000898020EE06F02950D9262A50DA22C90E4E
:10509000DE6EF50EDE6EC90EDE6EF50EDD6EB96BE0
:1050A000BA6B31C0D9FF32C0DAFF6F0EDE6EDD6A37
:1050B000060E2924016E000E2A20026E046A040ED8
:1050C000036EDAEC56F0000901E11200899020EE3F
:1050D00006F02950D9262A50DA2210EE04F0295081
:1050E000E1262A50E222DECFE6FFDDCFE5FF20EE0B
:1050F00004F02950D9262A50DA22DECF2BF0DDCF5A
:105100002CF02BC02CF02B6A2D6A2C502E6E20EE2A
:1051100004F02950D9262A50DA22DECF2FF0DDCF35
:1051200030F030C02FF0306A2F502D1220EE04F0F6
:105130002950D9262A50DA222DC0DEFF2EC0DDFFED
:1051400020EE04F02950D9262A50DA22FF0EDE1A6A
:10515000DD1A20EE04F02950D9262A50DA22DECFBB
:105160000FF0DDCF10F0A7C111F0A8C112F0CC0EE6
:10517000146E136E80EC44F00FC0A7F110C0A8F1BC
:1051800020EE04F02950D9262A50DA22A7C1DEFFEA
:10519000A8C1DDFF7AEC70F020EE0AF02950D92684
:1051A0002A50DA2209C0DEFF0AC0DEFF0BC0DEFF94
:1051B0000CC0DEFF20EE0EF02950D9262A50DA224C
:1051C000430EDE6E0F0EDD6E31C0D9FF32C0DAFF46
:1051D0007B0EDE6EDD6A20EE0AF02950D9262A50B9
:1051E000DA22DECF23F0DECF24F0DECF25F0DECFD3
:1051F00026F020EE0EF02950D9262A50DA22DECFF2
:1052000027F0DDCF28F09BEC6EF0000901E11200E1
:10521000898020EE06F02950D9262A50DA22F90E8C
:10522000DE6EF50EDE6EF90EDE6EF50EDD6E02013F
:10523000B96BBA6B31C0D9FF32C0DAFF800EDE6EB7
:10524000DD6A060E2924016E000E2A20026E046A11
:10525000040E036EDAEC56F0000901E112008990A9
:1052600020EE06F02950D9262A50DA2210EE02F05C
:105270002950E1262A50E222DECFE6FFDDCFE5FF0E
:1052800020EE02F02950D9262A50DA22DECF2BF068
:10529000DDCF2CF02BC02CF02B6A2D6A2C502E6EFB
:1052A00020EE02F02950D9262A50DA22DECF2FF044
:1052B000DDCF30F030C02FF0306A2F502D1220EEAD
:1052C00002F02950D9262A50DA222DC0DEFF2EC046
:1052D000DDFF20EE02F02950D9262A50DA22FF0EF7
:1052E000DE1ADD1A20EE02F02950D9262A50DA22E1
:1052F000DECF0FF0DDCF10F0A5C111F0A6C112F086
:10530000260E146E660E136E80EC44F00FC0A5F1ED
:1053100010C0A6F120EE02F02950D9262A50DA2238
:10532000A5C1DEFFA6C1DDFF7AEC70F020EE0AF029
:105330002950D9262A50DA2209C0DEFF0AC0DEFF32
:105340000BC0DEFF0CC0DEFF20EE0EF02950D92688
:105350002A50DA22430EDE6E0F0EDD6E20EE04F0D0
:105360002950D9262A50DA22010EDBAE05D0500E84
:10537000DE5CC90EDE580EE3010152812DC1D9FF5A
:105380002EC1DAFF10EE0DF0DE50E126DD50E222F4
:10539000E7920FD0010152912DC1D9FF2EC1DAFF42
:1053A00010EE0DF0DE50E126DD50E222E78252974A
:1053B000529531C0D9FF32C0DAFF010EDE6EDD6AD0
:1053C000000C31C0D9FF32C0DAFFDECF2BF0DDCFC9
:1053D0002CF02C5001E054D62B50010AD8B4120006
:1053E0006E0A01E165D6140A01E1F5D6FB0A01E176
:1053F00028D746D60201564B572B280E561903E1E3
:10540000230E5719D8A44ED1140E0101C96F4AD1E9
:1054100066EC77F00001F26B0101226B010EC96F9F
:10542000010C5A6A5A0E00019B6F1FEC34F0060EF5
:105430000101C96F060C5A0E00019B6F1FEC34F07E
:105440005A50D8A41200070E0101C96F070C000EB4
:105450000CEC77F00009D8B41200080EC96F0201F5
:10546000566B576B12001E0EC96F0001F46B1200D1
:105470000001F25106E0F2070101220502E10101FB
:10548000226B090E0101C96F090C0F0E0001F261B8
:10549000F8D7F22B01012251F4E1010E0101226F34
:1054A000F0D7140EC96F140C5551010AEEE0030A2F
:1054B000DFE0010AD8E0070AD8A41200F2D75A6A3E
:1054C0005A0E00019B6F1FEC34F00A0E0101C96FE8
:1054D0000A0C5A0E00019B6F1FEC34F05A50D8A4EE
:1054E00012000B0E0101C96F0B0C000E0CEC77F0D3
:1054F000000902E00C0EC96F56A11200550504E028
:10550000020E5519D8A412000C0EC96F0C0C020122
:10551000566B576B080E0101C96F080C66EC77F0EB
:10552000150E0101C96F150C000E0CEC77F0000987
:10553000D8B41200160EC96F160C0001F26B0101EF
:1055400052991F6BD4EC78F00101765103E1216B85
:10555000C96B1200760528E101EC78F00101755164
:10556000040D140EF324D96E050EF420DA6EDECF8E
:1055700081F0DDCF82F018EC64F0B5EC77F001013A
:105580007551040D160EF324D96E050EF420DA6E53
:10559000DECF81F0DDCF82F018EC64F09A0E0101CD
:1055A0001C6F170EC96F170C000012000A0E0001C5
:1055B0006F6F01011C5127EC6CF0796F7A6B7B6B7C
:1055C000010E7C6F82EC42F001011C5102E01C07CD
:1055D00002D0180EC96F90EC6DF0A4B102D00A9100
:1055E00002D001010A8152A102D00B8102D0010137
:1055F0000B917D5104E10A850A930A8703D00A853D
:105600000A830A97C6EC5DF0CDEC71F001015551AB
:10561000D8B41200190EC96F190C14EC77F0216B75
:10562000C96B120004EC77F01A0E0101C96F1A0C55
:10563000B5EC77F001017551020DC50EF324D96E5A
:10564000020EF420DA6EDECF81F0DDCF82F018ECAE
:1056500064F01B0E0101C96F000E0CEC77F000091D
:10566000D8B41200180EC96F180C0E0E0001F219F2
:1056700001E113D704D766EC77F00101C92B1200C2
:10568000000E7BEC62F0460E0101C96F460C010E64
:105690007BEC62F0F8D7206BF0D7202B130E20653F
:1056A000130CEFD60101C95101E1B2D6010A01E1A3
:1056B000B8D6070A01E1BFD6010A01E1C8D60F0A30
:1056C00001E1F2D6010A01E1FAD6030A01E101D7AC
:1056D000010A01E10AD7070A01E119D7180A01E115
:1056E0001DD7010A01E120D7030A01E126D7010AEB
:1056F00001E15CD70F0A91E0010A94E0030A98E007
:10570000010AAAE0050A02E14AEF2EF03E0AADE0E6
:10571000120AB1E0010AB4E00F0AADE0010AB7E0F5
:105720007B0AB9E0010AB9E012000001EE6F7DD1F9
:1057300077C158F078C159F07BC156F07CC157F061
:1057400079C154F07AC155F0FCEC77F0030E0001FA
:10575000F46F030C56B308D000016C6B0A0E6B6F2C
:10576000EE51FDEC41F007D000016C6B320E6B6F17
:10577000EE51FDEC41F00001F42B120056B308D0BD
:1057800000016C69F60E6B6FEE51FDEC41F0F3D742
:1057900000016C69CE0E6B6FEE51FDEC41F0EBD762
:1057A0003C0EC96F3C0C58C077F159C078F156C017
:1057B0007BF157C07CF154C079F155C07AF1320EBB
:1057C000C96F320C01015551010AD8E0030AC2E049
:1057D000010AE9E0070AD8A41200E2D7A4EC75F0A8
:1057E000020EAEEC68F068D06B0E6B6F020E6C6F41
:1057F00001017551040D8E0EF324D96E050EF420AF
:10580000DA6EDECF6DF0DDCF6EF00BEC68F058C0D5
:1058100071F059C072F00001746B0A0E736FA8EC3E
:105820005AF071C0ECF072C0EDF0ECC079F0EDC050
:105830007AF0030E7B6F010E7C6F82EC42F042D057
:105840006B0E6B6F020E6C6F01017551040D7A0EB9
:10585000F324D96E050EF420DA6EDECF6DF0DDCFC5
:105860006EF00BEC68F054C071F055C072F000019E
:10587000746B0A0E736FA8EC5AF0D3D76B0E6B6F74
:10588000020E6C6F01017551040D160EF324D96ED2
:10589000060EF420DA6EDECF6DF0DDCF6EF00BEC8D
:1058A00068F056C071F057C072F00001746B0A0EB8
:1058B000736FA8EC5AF0B5D7EE5196E0010AC0E03C
:1058C000030ADCE0CDEC71F001EC78F054D76B0EFC
:1058D000816F020E826F2CEC68F0B5EC77F07ED011
:1058E000B20E6B6F010E6C6F890E6D6F260E6E6FB0
:1058F0000BEC68F0B20E0001E86F010EE96F540E78
:10590000EA6FEB6B31EC58F0B20E00016B6F010ED9
:105910006C6F4A0E6D6F260E6E6F25EC63F0B20E43
:105920000001E86F010EE96F560EEA6FEB6B31EC88
:1059300058F021D7B20E6B6F010E6C6F4F0E6D6F6A
:10594000260E6E6F0BEC68F0B20E0001E86F010ED0
:10595000E96F580EEA6FEB6B31EC58F0B20E0001B4
:105960006B6F010E6C6F4A0E6D6F260E6E6F25EC1D
:1059700063F0B20E0001E86F010EE96F560EEA6F98
:10598000EB6B31EC58F0F7D6B20E6B6F010E6C6F0B
:10599000890E6D6F260E6E6F0BEC68F0B20E000173
:1059A000E86F010EE96F540EEA6FEB6B31EC58F0C3
:1059B000B20E00016B6F010E6C6F4E0E6D6F260EF6
:1059C0006E6F25EC63F0B20E0001E86F010EE96F17
:1059D000580EEA6FEB6B31EC58F0CDD60001EE516A
:1059E00001E17ED7010AA6E0030ACEE0C4D6B20EDA
:1059F000816F010E826F2CEC68F0BDD6F40E6B6FD8
:105A00006C6B000E36EC75F056A104D0550502E122
:105A10000001F42B010156A11200020E551901E1FB
:105A2000AAD61200020EF46F020C0001F45101E13B
:105A30007FD6020A01E1C6D6010A01E1CFD6070AE4
:105A400001E145D7010AD3E0030AD8E0010AEAE000
:105A5000120020D1760E9B6F010E9C6F01017551D3
:105A6000080D780EF32400019D6F070EC6D0000EBE
:105A700095EF2BF00101A451010ED8A4000EA46FE4
:105A8000A40E00019B6F010E9C6F01017551080D62
:105A9000500EF32400019D6F060EF4209E6F7CECE7
:105AA0002EF00101A451010ED8A4000EA46FA4B1E0
:105AB00002D0589102D0010158811200020E95EFD8
:105AC0002BF0010E95EF2BF001017D51010ED8A4B2
:105AD000000E7D6F7D0E00019B6F010E9C6F01011A
:105AE0007551080D500EF32400019D6F070EF42030
:105AF0009E6F7CEC2EF001017D51010ED8A4000EAA
:105B00007D6F7DB102D0519302D001015183090E06
:105B1000C919D8A4120020EE02F02D51D9262E5119
:105B2000DA2210EE0FF0DE50E126DD50E2227D5148
:105B3000A9EC77F0E76E120001017551040DA00E7B
:105B4000F3240001826F060EF420836F800E846FB1
:105B5000010E0DD001017551040D8C0EF3240001CE
:105B6000826F060EF420836F820E846F010E856FA4
:105B7000876B3C0E866F896B010E886F8B6B8A6F0B
:105B80008D6B050E8C6F8E6B010E8F6F906F1FEFFC
:105B900032F085C1C1F20201C26B01017551040DE1
:105BA000780EF3240001826F060EF420836FC10E7D
:105BB000846F020E856F876B640E866F896B140E7F
:105BC000886F8B6B8A6F8D6B8C6F8E6B010E8F6FF6
:105BD000906F1FEC32F0C1C285F10101855182EF57
:105BE0006BF07E0E9B6F010E9C6F01017551080DCD
:105BF000280EF32400019D6F070EF4209E6F7CEFAA
:105C00002EF001017F51010ED8A4000E7F6F7F0E90
:105C100000019B6F010E9C6F01017551080D280E4C
:105C2000F32400019D6F060EF4209E6F7CEC2EF095
:105C300001017F51010ED8A4000E7F6F090EC91912
:105C4000D8A412007FB102D08C9601D08C861200AD
:105C5000AD0E9B6F010E9C6F01017551080D000E7A
:105C6000F32400019D6F070EF4209E6F60EF26F075
:105C7000750E716F010E726F010175510E0DA00E40
:105C8000F3240001736F090EF420746F050E756F15
:105C900019EF35F00001F25101E1DCD6010A01E112
:105CA000E6D6030A01E1E6D6010A01E107D7070AB1
:105CB00001E107D7010A01E107D7030A01E13CD757
:105CC000010A01E147D70F0A01E163D7010A02E1A6
:105CD0000BEF4AF0030A02E1EBEF3AF0010A02E1AE
:105CE00075EF41F0070A01E17CD7010A8AE0030A57
:105CF000AFE0010ABDE012000201246B24D19BC079
:105D0000D9FF9CC0DAFFDF50446EFCEC77F0030E45
:105D10000001F46F030C440401E1446A0001F42B18
:105D200012004450FBE1010E446EF8D73C0EC96FDF
:105D30003C0C0001F25109E1440407E1010157B3B1
:105D400004D0140E0001F46F140C9BC0D9FF9CC04A
:105D5000DAFF44C0DFFF320E0101C96F320C0101CE
:105D60005551010ADEE0030AD6E0010AE2E0070A23
:105D7000D8A41200DBD7D2EC78F00009D8B4120016
:105D80006B0E6B6F020E6C6F9DC0D9FF9EC0DAFF69
:105D9000DECF6DF0DDCF6EF00BEC68F0B20E0001DF
:105DA0006B6F010E6C6F20EE02F09D51D9269E5153
:105DB000DA22DECF6DF0DDCF6EF00BEC68F04450F0
:105DC00017E16B0E00016B6F020E6C6F510E6D6F61
:105DD0001D0E6E6F25EC63F0B20E00016B6F010EAD
:105DE0006C6F4A0E6D6F1B0E6E6F25EC63F016D054
:105DF0006B0E00016B6F020E6C6F4A0E6D6F1B0E07
:105E00006E6F25EC63F0B20E00016B6F010E6C6FCC
:105E1000510E6D6F1D0E6E6F25EC63F06B0E000161
:105E20006B6F020E6C6F20EE04F09D51D9269E51CF
:105E3000DA22DECF6DF0DDCF6EF025EC63F0B20E2E
:105E400000016B6F010E6C6F20EE06F09D51D9269C
:105E50009E51DA22DECF6DF0DDCF6EF025EC63F0DF
:105E600071EC78F05BD730EC71F00009D8B4120017
:105E700045D0020EF46F020C000E6B6F090E6C6FB2
:105E800001017551020D3C0EF324D96E040EF4206D
:105E9000DA6EDECF6DF0DDCF6EF00BEC68F004EC67
:105EA00077F03CD701EC78F001017551020D280E16
:105EB000F324D96E040EF420DA6EDECF81F0DDCF4C
:105EC00082F018EC64F02AD7B5EC77F00101755137
:105ED000020D320EF324D96E040EF420DA6EDECFFA
:105EE00081F0DDCF82F018EC64F0010E0201286F22
:105EF000080E296F010E6AEC76F010D7F40E6B6F66
:105F00006C6B000E36EF75F01B0EF46F1B0C000E61
:105F10006AEC76F09BC0D9FF9CC0DAFF44C0DFFF7B
:105F2000320E04D0000E6AEC76F03C0E0101C96F0F
:105F300006D001015551030AEAE0070AF3E0180E02
:105F40000001F46F180C0001F45101E1D8D6020AE7
:105F500001E105D7010A01E10ED7070A84E0010A31
:105F600088E0110A89E0010A9DE0030AADE0010A18
:105F7000C5E00F0AC9E0010AC7E0020ADAE0120030
:105F800010EC78F06BC0C7F16CC0C8F1010152A1F0
:105F9000B4D052955297FDD8D7D8E796FAD8D4D82E
:105FA000E794F00E0001C06FE10EC16F410EC26FA9
:105FB00007D95DEC6CF010D9FE0E7C6FE80E7D6F9A
:105FC0003A0E7E6F33EC4BF0C6D812EC3FF00BD993
:105FD000F7D85DEC6CF000D9F3D85DEC6CF0F5D837
:105FE00033EC4BF079C0BDF0C9D8460E7C6FDE0EA5
:105FF0007D6FB20E7E6F33EC4BF0ADD812EC3FF0FC
:10600000F2D8DED85DEC6CF0E7D8DAD85DEC6CF055
:10601000DCD833EC4BF079C0BDF0B0D8D1D85DEC12
:106020006CF0D3D833EC4BF079C0BDF0A7D86D0E2F
:106030007C6FA00E7D6F2B0E7E6F33EC4BF08BD8F8
:1060400012EC3FF0D0D8C0C079F0C1C07AF0C2C025
:106050007BF07C6B200E7D6F410E7E6F33EC4BF03E
:1060600079C0C0F07AC0C1F07BC0C2F0C0C0B7F048
:10607000C1C0B8F0C2C0B9F06CEC5AF094D80BECC7
:106080004DF08FC069F190C06AF183D810EE06F030
:1060900085D869C1E6FF6AC1E5FFC0C0A8F0C1C0EC
:1060A000A9F0C2C0AAF0AB6B200EAC6F410EAD6F71
:1060B000D7EC4EF0A8C0B7F0A9C0B8F0AAC0B9F0AC
:1060C0006CEC5AF070D80BEC4DF08FC067F190C0BB
:1060D00068F1010168BF0AD0685103E1330E675DC2
:1060E00005E3528556D830D8E78611D068AF0FD077
:1060F00052874FD829D8E7840AD0686B140E676F8F
:1061000048D810EE06F04AD8C80EE66EE56A50ECA4
:1061100060F000016E6B120E6D6FF3EC71F06BC0EE
:106120006BF16CC06CF16BC171F06CC172F062D834
:10613000A8EC5AF071C06BF172C06CF1200E010135
:106140006B27000E6C23000C10EE0DF0DE50E126E4
:10615000DD50E222120079C0BDF07AC0BEF07BC0F3
:10616000BFF0C0C092F0C1C093F0C2C094F0BDC0F7
:1061700095F0BEC096F0BFC097F012007AC0BEF096
:106180007BC0BFF0BDC079F0BEC07AF0BFC07BF06D
:1061900012002DC1D9FF2EC1DAFF1200DE50E12618
:1061A000DD50E2221200B7C0C0F0B8C0C1F0B9C0E3
:1061B000C2F0C0C08FF0C1C090F0C2C091F0120018
:1061C000C7C173F0C8C174F0120073C07CF074C012
:1061D0007DF075C07EF0120073C079F074C07AF063
:1061E00075C07BF0120092C0C0F093C0C1F094C0A3
:1061F000C2F01200746B0A0E736F0A0C760E000167
:106200006D6F010E6E6F26EC23F045EC6DF0A40E61
:106210006D6F010E6E6F706B2FEC23F045EC6DF01F
:10622000770E6D6F010E6E6F706B2BEC23F045ECEB
:106230006DF0790E6D6F010E6E6F706B040EFBD8F2
:1062400045EC6DF07B0E6D6F010E6E6F706B060E80
:10625000F2D845EC6DF0800E6D6F010E6E6F706BB5
:10626000080EE9D845EC6DF0820E6D6F010E6E6F71
:10627000706B0A0EE0D845EC6DF0840E6D6F010E68
:106280006E6F706B0C0EFCEC22F045EC6DF0860E20
:106290006D6F010E6E6F706B0D0EFCEC22F045EC15
:1062A0006DF07D0E6D6F010E6E6F706B0E0EFCEC5F
:1062B00022F045EC6DF0750E6D6F010E6E6F706B18
:1062C0000F0EFCEC22F045EC6DF0570E6D6F010ED9
:1062D0006E6F706B100EFCEC22F045EC6DF05B0EF7
:1062E0006D6F010E6E6F706B110E19EC23F045ECA3
:1062F0006DF05F0E6D6F010E6E6F706B150E19EC09
:1063000023F045EC6DF0630E6D6F010E6E6F706BD8
:10631000190E19EC23F045EC6DF08C0E6D6F010E2B
:106320006E6F706B1D0E87D845EC6DF08E0E6D6F25
:10633000010E6E6F706B1F0EFCEC22F045EC6DF0E1
:106340008F0E6D6F010E6E6F706B200EFCEC22F0E5
:1063500045EC6DF0900E6D6F010E6E6F706B210E3F
:106360006AD845EC6DF07E0E6D6F010E6E6F706B2E
:10637000230EFCEC22F045EC6DF07F0E6D6F010EEC
:106380006E6F706B240EFCEC22F045EC6DF0920EFB
:106390006D6F010E6E6F706B250E19EC23F045ECDE
:1063A0006DF0AD0E6D6F010E6E6F706B290EFCEC13
:1063B00022F045EC6DF0580E6D6F010E6E6F706B34
:1063C0002A0EFCEC22F045EC6DF0340E6D6F010EE0
:1063D0006E6F706B2B0E2FD845EC6DF03E0E6D6F0F
:1063E000010E6E6F706B2D0E26D845EC6DF0480EC9
:1063F0006D6F010E6E6F706B2F0E1DD845EC6DF03A
:10640000440E6D6F010E6E6F706B310E14D845EC3B
:106410006DF044C13AF145C13BF144C14EF145C173
:106420004FF1850E6D6F010E6E6F706B330EFCECCD
:1064300022F045EF6DF06F6F020E716F020CF4D019
:1064400084C0D9FF85C0DAFFDECF08F1DDCF09F1C6
:10645000FCEC77F00001F42B12006B0E6B6F020E58
:106460006C6F82C0D9FF83C0DAFFDECF6DF0DDCF65
:106470006EF00BEC68F0B20E00016B6F010E6C6FEA
:1064800020EE02F08251D9268351DA22DECF6DF060
:10649000DDCF6EF00BEC68F071EC78F0030E0001CC
:1064A000F46F030C56B31FD000018A51865D916FC3
:1064B0008B518759926F010108510001915D9251F2
:1064C000800A936F01010951800A0001935906E384
:1064D0008A510101082700018B511ED086C008F1A6
:1064E00087C009F1B7D700018C51865D916F8D513E
:1064F0008759926F010108510001915D9251800A04
:10650000936F01010951800A00019359E7E38C510F
:106510000101082700018D51010109239BD756B3C2
:106520001DD000018A518825916F8B518921926F6E
:1065300091510101085D0951800A0001936F925148
:10654000800A935906E38A510101085F00018B51CB
:106550001CD088C008F189C009F17CD700018C519A
:106560008825916F8D518921926F91510101085DAC
:106570000951800A0001936F9251800A9359E9E30F
:106580008C510101085F00018D510101095B62D747
:106590003C0EC96F3C0C84C0D9FF85C0DAFF08C12E
:1065A000DEFF09C1DDFF320EC96F320C010155510A
:1065B000010AB5E0030A01E175D7010AECE0070A18
:1065C000D8A41200E5D708C171F009C172F090C0DB
:1065D00073F0746BA8EC5AF071C094F072C095F02F
:1065E00094C079F095C07AF08EC07BF08FC07CF0BB
:1065F00082EC42F0CDEC71F02DD7F40E6B6F6C6B2A
:10660000000E36EC75F056A104D0550502E10001EC
:10661000F42B010156A11200020E551901E11AD7FF
:106620001200020EF46F020CF45101E109D7010AC5
:1066300001E113D7030ABAE0010AC5E0070ADDE069
:10664000010AEFE012008E6F00018EAF4BD08E6D0D
:106650008E51800A120F25E3DFD8D0D86BBF6C07AC
:10666000FAEC5DF0E7D8A8EC5AF0DBD881D8746B6F
:10667000640EDBD871BF7207A8EC5AF07151120F8B
:10668000030DD10E4BEC41F033EC4BF096D86BBFC1
:106690006C07FAEC5DF06B51030D6AD833EC4BF0EC
:1066A0009FD08E51800A750F16E3746B0A0EBDD809
:1066B00071BF7207A8EC5AF0B4D8D10E4BEC41F080
:1066C00096D86BBF6C07FAEC5DF06B51030D50D898
:1066D00033EC4BF085D08E51030DD10EF324D96EDF
:1066E0000A0E91D08E51800A120F25E395D886D8D4
:1066F0006BBF6C07FAEC5DF09DD8A8EC5AF07151B5
:10670000090F55D842D8746B640E8FD871BF7207C9
:10671000A8EC5AF07151120F4AD840D833EC4BF024
:106720004CD86BBF6C07FAEC5DF06B5140D82DD89C
:1067300033EC4BF055D08E51800A750F16E3746B15
:106740000A0E73D871BF7207A8EC5AF07151090F85
:106750002ED824D84CD86BBF6C07FAEC5DF06B5187
:1067600026D813D833EC4BF03BD08E5120D84BD0E9
:10677000D10EF324D96E0A0EF420DA6EDECF7CF04F
:10678000DECF7DF0DDCF7EF01200F420DA6EDECFBA
:106790007CF0DECF7DF0DDCF7EF01200F420DA6EEB
:1067A000DECF79F0DECF7AF0DDCF7BF01200030D83
:1067B000AA0EF324D96E0A0E120079C08BF07AC0AB
:1067C0008CF07BC08DF08BC079F08CC07AF08DC0DE
:1067D0007BF06E6B0A0E6D6F8E516B6F6C6B1200DF
:1067E00079C088F07AC089F07BC08AF012006E6BA5
:1067F0000A0E6D6F8E516B6F6C6B12006D6F8E5148
:106800006B6F6C6B1200F420DA6EDECF88F0DECF97
:1068100089F0DDCF8AF01200746B0A0E736F6E6B15
:10682000640C7151090F030D1200736F8E51716F5B
:10683000726B12006BC071F06CC072F01200F0D07D
:10684000020EAEEC68F06B0E6B6F020E6C6F010106
:106850007551040D3C0EF324D96E050EF420DA6E4A
:10686000DECF6DF0DDCF6EF00BEC68F0B20E000104
:106870006B6F010E6C6F01017551040D3E0EF32418
:10688000D96E050EF420DA6EDECF6DF0DDCF6EF03E
:106890000BEC68F00101225159E16B0E00016B6FA6
:1068A000020E6C6F510E6D6F1D0E6E6F25EC63F056
:1068B000B20E00016B6F010E6C6F4A0E6D6F1B0EF6
:1068C0006E6F25EC63F06B0E00016B6F020E6C6F48
:1068D000F251020DF3CF9CF0F4CF9DF00101755100
:1068E000220D000EF32400019E6F0A0EF4209F6F0C
:1068F0009C519E25D96E9D519F21DA6EDECF6DF0A1
:10690000DDCF6EF025EC63F0B20E00016B6F010E6F
:106910006C6FF2519C6F9D6BD8909C379D37010135
:106920007551220D020EF32400019E6F0A0EF42011
:106930009F6F9C519E25D96E9D519F21DA6EDECFAF
:106940006DF0DDCF6EF025EC63F058D06B0E0001DA
:106950006B6F020E6C6F4A0E6D6F1B0E6E6F25EC27
:1069600063F0B20E00016B6F010E6C6F510E6D6F14
:106970001D0E6E6F25EC63F06B0E00016B6F020E47
:106980006C6FF2519C6F9D6BD8909C379D370101C5
:106990007551220DFE0EF32400019E6F090EF420A6
:1069A0009F6F9C519E25D96E9D519F21DA6EDECF3F
:1069B0006DF0DDCF6EF025EC63F0B20E00016B6F71
:1069C000010E6C6FF251020DF3CF9CF0F4CF9DF0ED
:1069D00001017551220D000EF32400019E6F0A0E75
:1069E000F4209F6F9C519E25D96E9D519F21DA6E98
:1069F000DECF6DF0DDCF6EF025EC63F071EC78F05A
:106A000000019B51D96EDA6ADF2A120030EC71F076
:106A10000009D8B412009B51D96EDA6ADF6A1200FD
:106A20009B51D96EDA6ADF5001E10AD7010AEEE024
:106A30001200ACD0EAD8DF50436E4350766F776BCC
:106A4000FF0E7525786F796BFF0E792376517819D3
:106A500006E17751791903E1010E476E01D0476ACB
:106A6000FCEC77F0030E0001F46F030C435004E0DC
:106A70004306470401E1476A0001F42B1200FF0EB0
:106A800000017525766F776BFF0E77234350786F83
:106A9000796B7651785D7951800A7A6F7751800AE7
:106AA0007A59EAE2432A4750E7E1010E476EE4D7FC
:106AB0003C0EC96F3C0CA9D843C0DFFF320EC96F32
:106AC000320C01015551010ADAE0030ACFE0010A54
:106AD000F2E0070AD8A41200EBD749EC56F073C0D5
:106AE000D9FF74C0DAFF80D80BEC68F043EC56F0A5
:106AF00020EE02F07351D9267451DA2275D80BECCE
:106B000068F0475015E166D87AD825EC63F067D86D
:106B100070D825EC63F05ED845D8040E51D825EC2A
:106B200063F05DD83FD8060E4BD825EC63F014D047
:106B300051D85FD825EC63F052D861D825EC63F0CA
:106B400049D830D8020E3CD825EC63F048D82AD872
:106B5000040E36D825EC63F071EC78F08DD7F40E86
:106B60006B6F6C6B000E36EC75F056A104D05505BA
:106B700002E10001F42B010156A11200020E551989
:106B800001E17AD71200020EF46F020CF45101E118
:106B900051D7020A96E0010AA0E0070AE0E0010AE4
:106BA000F2E012006C6F4350766F776BD8907637B7
:106BB000773776517325786F77517421796F12008A
:106BC0007825D96E000E7921DA6EDECF6DF0DDCF3B
:106BD0006EF012006B0E00016B6F020E1200B20E0F
