:10110000A8EF08F0FFFFFFFF5F822EEF51F0FFFF17
:10111000FFFFFFFFFFFFFFFF5F80D8CF66F0E8CF44
:1011200067F0E0CF68F0FACF69F0FBCF6AF0F2BA6F
:10113000F2A402D0B2EC77F06AC0FBFF69C0FAFFFC
:1011400068C0E0FF67C0E8FF66C0D8FF5F9010008E
:1011500003EF37F00038F222EE10EE44B372BE5EB9
:10116000F196CA34F230F22CF228F2C8F1C2F1BC86
:10117000F178F034D6010000000A0000006400009D
:1011800000E803000010270000A086010040420F85
:10119000008096980000E1F50500CA9A3B2AED14FC
:1011A000F244F2E6DC3EED18F246F216DDC2EB3E0A
:1011B000F1FCF1B6DC16ED10F2F8F186DC45732097
:1011C0007775726465206B65696E65206572666F00
:1011D0006C67726569636865204B616C69627269EE
:1011E0006572756E6720766F7267656E6F6D6D657F
:1011F0006E202D206469652070482D576572742D0E
:10120000416E7A6569676520697374206D94676CB7
:1012100069636865727765697365206665686C6582
:101220007268616674202D20776F6C6C656E205338
:101230006965207769726B6C69636820666F727488
:1012400066616872656E3F2E2E2E2E20004E6F2036
:101250007365206861207265616C697A61646F20D2
:10126000756E612063616C696272616369E26E2010
:10127000636F727265637461202D206C6173206CE2
:101280006563747572617320646520704820706FA7
:101290006472E1616E2073657220696D70726563BE
:1012A00069736173202D209F657374E020736567F7
:1012B00075726F2064652071756520646573656162
:1012C00020636F6E74696E7561723F2E2E2E200042
:1012D000417563756E208274616C6F6E6E616765B7
:1012E00020728275737369206E2761208274822058
:1012F0006566666563747582202D206C6573206C4D
:101300006563747572657320646520704820706F22
:101310007572726F6E74208874726520696E65785C
:101320006163746573202D20887465732D766F75E5
:10133000732073967220646520766F756C6F697286
:1013400020636F6E74696E756572203F2E2E2E209D
:10135000004572206973206765656E206765736C50
:101360006161676465206B616C6962726174696553
:10137000207569746765766F657264202D207048EA
:101380002D6D6574696E67656E207A6F7564656E24
:10139000206F6E6E6175776B6575726967206B750E
:1013A0006E6E656E207A696A6E202D2062656E749D
:1013B0002075207A656B65722064617420752077D2
:1013C000696C7420646F6F726761616E3F2E2E2EA0
:1013D00020004E6F207375636365737366756C20B0
:1013E00063616C6962726174696F6E2068617320F9
:1013F0006265656E20706572666F726D6564202D22
:101400002070482072656164696E677320636F7530
:101410006C6420626520696E6163637572617465D6
:10142000202D2061726520796F752073757265209B
:10143000796F752077616E7420746F2070726F639E
:101440006565643F2E2E2E2000207374656C6C65DC
:101450006E2C203C63616C3E20647281636B656E10
:101460002C20756D20666F72747A7566616872657E
:101470006E2E20536965206B946E6E656E206A65D2
:101480006465727A656974203C053E2064728163EC
:101490006B656E2C20756D20646965204B616C69ED
:1014A0006272696572756E672061627A75627265D3
:1014B0006368656E2E2020002C2070756C7361723D
:1014C000203C63616C3E207061726120636F6E74BA
:1014D000696E7561722E2050756C736172203C05C7
:1014E0003E20656E206375616C7175696572206D53
:1014F0006F6D656E746F20706172612063616E63E1
:10150000656C6172206C612063616C6962726163F9
:1015100069E26E2E2020002C207072657373657254
:10152000203C63616C3E20706F757220636F6E7437
:10153000696E7565722E2050726573736572203CFA
:10154000053E208520746F7574206D6F6D656E7417
:1015500020706F757220616E6E756C6572206C27DD
:101560008274616C6F6E6E6167652E2020002C2086
:101570006472756B206F70203C63616C3E206F6DF0
:1015800020646F6F72207465206761616E2E204445
:1015900072756B206F70203C053E206F6D206B6173
:1015A0006C6962726174696520746520616E6E7524
:1015B0006C6572656E2E20002C207072657373202E
:1015C0003C63616C3E20746F20636F6E74696E754E
:1015D000652E205072657373203C053E20616E7944
:1015E00074696D6520746F2063616E63656C206340
:1015F000616C6962726174696F6E2E200052696E4F
:10160000636572206C6120736F6E64652064652071
:1016100070482C206C6120706C616365722064617D
:101620006E73206C6120736F6C7574696F6E20002F
:10163000456E6A7561676172206C6120736F6E64BC
:10164000612064652070482C20636F6C6F63617249
:1016500020656E2000417373657274696F6E206639
:1016600061696C65643A202573206C696E6520257C
:10167000643A20222573220A00636F6E6669672D23
:101680003E7361766553657474696E677320213D9E
:101690002028302900636F6E6669672D3E70726F77
:1016A0007669646553697A6520213D2028302900D8
:1016B00053706F656C2070482D70726F62652C20BE
:1016C000706C6161747320696E2000636F6E66696F
:1016D000672D3E7772697465427974657320213D88
:1016E000202830290052696E73652070482050729E
:1016F0006F62652C20706C61636520696E200063E9
:101700006F6E6669672D3E726561644279746573B8
:1017100020213D2028302900777269746550657258
:10172000696F64203E207461736B506572696F64E9
:101730000070482D536F6E64652061627370816C18
:10174000656E2C20696E20007372632F5461736B79
:10175000732F726164696F5461736B2E63007372CF
:10176000632F526164696F2F726164696F2E630029
:101770005420616374697661646F202873656729FA
:101780000054656D7073206D617263686520287305
:1017900029009074616C6F6E6E6572207048342FF2
:1017A0003130005A65697420616267656C2E2120B2
:1017B0003C063E00546D656F7574207672737472CA
:1017C000203C063E0044826C616920657870697235
:1017D00082213C063E0053696E6420536965207384
:1017E00069636865723F00496E737420766572653F
:1017F000697374652070480045732077757264655D
:10180000206B65696E65204B004E6F2073756363B6
:1018100065737366756C206361004572206973207F
:101820006765656E206765736C61004E6F20736538
:10183000206861207265616C697A61004175637529
:101840006E208274616C6F6E6E61676500704834E3
:101850002F31302043616C6962726174650052827D
:10186000676C657220636F6E747261737465004D8E
:101870006F6E69746F72696E672062657A6967005E
:10188000546572756773746C6C6E2062657A6967F3
:10189000007048342D4B616C696272696572756EB7
:1018A00067007048372D4B616C69627269657275AB
:1018B0006E67007374616E646161726477616172F6
:1018C00064656E005282696E697469616C697361E6
:1018D00074696F6E007048342F3130206B616C6911
:1018E000627265726E0044726B206F702004206F0C
:1018F0006D20746520700064826661757420726565
:1019000073746175728273005282676C65722070A5
:101910004820726571756973005265737420616A3D
:101920007573207072656465740045696E73742EFA
:10193000205281636B6C69636874005265736574CF
:1019400020746F2044656661756C7400416368742F
:1019500072677276726C2062696A737400416A758C
:1019600073746172206C757A20706F7374005465A3
:10197000727567206F702073746E647264770052A2
:101980006573746F72656420466163746F72790069
:101990006F75744361706163697479203E20330010
:1019A00041616E2D74696A6420287365632E290075
:1019B000417566205A656974202853656B2E29008D
:1019C0005569742D74696A6420286D696E2E29002A
:1019D00054707320617272887420286D696E2900BA
:1019E00050756D70652048616E64626574722E007A
:1019F0005374616E642E207A757281636B732E004E
:101A000043616C6962726172207048342F3130001A
:101A1000887465732D766F757320739672203F00FE
:101A20005365742052657175697265642070480051
:101A3000416A75737465732066E062726963610060
:101A4000426F6D62612076656C6F636964616400EA
:101A500050726573736572200420706F6D7065003D
:101A6000416A75737420636F6E747261737465007C
:101A700070482D4B616C696272696572756E6700A2
:101A80005282676C657220728274726F82636C001E
:101A9000506F6D706520656E206D616E75656C00B0
:101AA000446F736572656E206F6D682F6F6D6C008B
:101AB00041636874657267726F6E647665726C00FC
:101AC00070483130206B616C6962726572656E00BE
:101AD000363053656320436F756E74646F776E00A4
:101AE000313553656320436F756E74646F776E0094
:101AF0005072657373200420746F2050756D7000F0
:101B000050726F766973696F6E6E656D656E740085
:101B100045696E73742E204B6F6E7472617374001E
:101B2000436F6E74726173742041646A75737400DC
:101B300020202020202020202020202020200032B3
:101B40002F332070756E742063616C2020009074B8
:101B5000616C20322F3320707473202000322F33B9
:101B600020506F696E742043616C20004175737A58
:101B700065697420284D696E2E29005420646573B0
:101B800061637420286D696E29004F75693C063EBB
:101B90002C4E6F6E3C053E2C00322F332D50756E4F
:101BA0006B742D4B616C2E007048342F31302D4BEF
:101BB000616C6962722E009074616C6F6E6E6572FA
:101BC0002070483130004A613C063E2C204E656949
:101BD0006E3C053E004F75693C063E2C204E6F6EF4
:101BE0003C053E0054696D6564204F757421203CAE
:101BF000063E005420657870697261646F203C066F
:101C00003E00436F6E7369676E652064652070489F
:101C10000043616C696272616369E26E2070480022
:101C2000528274726F82636C616972616765007061
:101C30004831302043616C69627261746500436FA2
:101C40006E74726F6C652062657A696700426572B6
:101C50006569747374656C6C756E670070483420C8
:101C60006B616C6962726572656E00704837206BDB
:101C7000616C6962726572656E0070482043616CC8
:101C80006962726174696F6E003130302520656E53
:101C900063656E6469646F005265737461626C653C
:101CA0006369656E646F0053756269722F416C637E
:101CB000616C696E6F00506172616D8A74726573D8
:101CC000207061720043616C20322F332070756E7A
:101CD000746F7300436F6E74726173742062696A0B
:101CE00073740052657374617572206482666175E5
:101CF00074004F666654696D6520284D696E290031
:101D00005765726B65696E7374656C6C2E00436108
:101D10006C69627261722070483130009074616C3D
:101D20006F6E6E657220704834009074616C6F6ED7
:101D30006E657220704837004A613C063E2C204E8A
:101D400065653C053E004A613C063E2C4E65696E69
:101D50003C053E005965733C063E2C204E6F3C0509
:101D60003E0041726520796F7520737572653F0082
:101D70009F457374E02073656775726F3F0042651D
:101D80006E742075207A656B65723F009074616C8B
:101D90006F6E6E61676520704800416C61726D61A5
:101DA000206DE16E696D6100416C61726D61206D45
:101DB000E078696D610050756D70204F76657272C4
:101DC0006964650070482D6B616C69627261746949
:101DD00065004175676D2F64696D20646F736500E0
:101DE000506F6D7065207669746573736500704817
:101DF000342043616C6962726174650070483720F9
:101E000043616C696272617465004F6D686F6F67E2
:101E10002F616C6B616C69004261636B6C69676810
:101E2000742041646A00506F6D70206F7068656641
:101E300066656E0070482065696E7374656C6C65CC
:101E40006E004B6F6E74726F6C6C696572656E00BC
:101E5000704820436F6E74726F6C6C6572004C75C5
:101E60007A20706F73746572696F72005375622F98
:101E700042616A20646F7369730072657374616292
:101E80006C656369646F730043616C20322F33703B
:101E9000756E746F73005469656D706F206465733F
:101EA000616374007A757281636B67657365747AB8
:101EB00074004D69736C756B74203C063E00005ACB
:101EC000756D2070756D70656E2004004F6E5469DD
:101ED0006D6520285365632900704831302D4B61B2
:101EE0006C6962722E0043616C696272617220706B
:101EF00048340043616C6962726172207048370037
:101F00004A613C063E2C4E65653C053E0053E13C73
:101F1000063E2C204E6F3C053E005965733C063E44
:101F20002C4E6F3C053E00496E7374656C6C656E9B
:101F3000207048005375727665696C6C616E6365DC
:101F40000054656D7073206D617263686500416C4B
:101F500061726D6520626173736500416C61726DC1
:101F60006520686175746500496E656666656374B1
:101F7000696576650050726F766973696F6E696E18
:101F80006700426F6D6261206D616E75616C00501B
:101F90006F6D7065206D616E75656C005A7572812C
:101FA000636B7365747A656E007061726120626F35
:101FB0006D62656172004375656E74612061747253
:101FC000E073007265626F757273203630207300A3
:101FD0007265626F757273203135207300466169D6
:101FE0006C6564203C063E00004665686C657220A6
:101FF0003C063E0000547073206D6172636865207A
:102000000053E13C063E2C4E6F3C053E00476561A7
:102010006E6E756C656572640031303025206D61BF
:102020007263686500496E656666656374697665A6
:10203000004265766F6F726164696E6700436F6E10
:1020400074726F6C6C696E67009A62657277616317
:1020500068756E67004175676D2F616C63616C69AF
:10206000004162676562726F6368656E00436F6E00
:1020700074726F6C6572656E0042616A61722FE006
:102080006369646F0050756D70652054656D706F85
:10209000004F6D6C6161672F7A7575720054656DC4
:1020A000707320617272887400476573706569632C
:1020B0006865727400456E72656769737472820038
:1020C0009063686563203C063E00004572726F7243
:1020D000203C063E00004872206D617263686520F6
:1020E0000045617274684C696E6B200048696768CE
:1020F000416C61726D20004C616167616C61726D51
:102100002000486F6F67616C61726D2000416C61E7
:10211000726D614DE16E2000526571756572696482
:102120006F2000416C61726D614DE0782000416C60
:1021300061726D2D4D696E2E00416C61726D2D4D79
:1021400061782E00462F572076302E302E390041F0
:102150007369676E617220704800416A75737461BB
:10216000722070480050756D702053706565640072
:1021700050756D70204F7672646500556E77697288
:102180006B73616D65004D6F6E69746F72696E6718
:10219000004D696E2D20416C61726D004D61782D8E
:1021A00020416C61726D004869676820416C617202
:1021B0006D004C61616720616C61726D00486F6FEA
:1021C0006720616C61726D00446F73652055702FDC
:1021D000446E004F706765736C6167656E009A624C
:1021E000657277616368656E00528267756C6174B1
:1021F000696F6E003025206170616761646F004D0A
:10220000656D6F72697A61646F00506F6D702074D4
:10221000656D706F005469656D706F206163740047
:1022200073616E73206566666574009074616C20DE
:10223000322F337074005461616C20202020200004
:102240004964696F6D61202020004C616E6775657F
:102250002020200053707261636865202000416C6B
:1022600061726D6520422000416C61726D6520488D
:1022700020005265717569726564200041616E2DA0
:1022800074696A6420005569742D74696A64200059
:102290005765726B74696A6420004C616E67756182
:1022A00067652000566572656973746520004C6F20
:1022B00077416C61726D20005420646573616374B2
:1022C0002000417566205A65697420004C6175666E
:1022D0007A656974200054707320617272742000F2
:1022E000446F736973202B2F2D0043616E63656CFF
:1022F0006C656400446F776E2F41636964004469C4
:102300006D2F6163696465004865727374656C6400
:1023100065004B6F6E74726F6C6C6500436F6E740A
:10232000726173746500616674656C6C696E6700D8
:10233000526573657474696E67002B2F426173690F
:102340007363680055702F416C6B616C6900456167
:102350007274684C696E6B00322F33707420436165
:102360006C00322F3370742063616C004C6F7720E7
:10237000416C61726D004D6F6E69746F72656E00B5
:1023800043616E63656C61646F004D6F6E69746F5D
:1023900072656F005296636B6C696368740042618A
:1023A000636B6C6967687400436F6D70746520853A
:1023B0000050756C7361722004004572666F726420
:1023C0002E20004F666654696D65200052756E546C
:1023D000696D6520004175737A6569742000496EE6
:1023E0006163746976610041616E2D74696A64008D
:1023F0005569742D74696A64004C616E6775616714
:102400006500636F6E74726F6C650031303025202B
:1024100061616E00313030252045696E0054707264
:102420006F6365736F0044656661756C747300302B
:1024300025206172728874004C6175667A656974D2
:1024400000436F6E747261737400696E65666963D0
:10245000617A0054206163742E20004F6E54696DC0
:10246000652000446F73696E67200052657175695D
:1024700073200070483428313029003630207365CD
:10248000632E003135207365632E0036302053658E
:102490006B2E0031352053656B2E005370726163D3
:1024A0006865004F666654696D6500436F6E7472AF
:1024B0006F6C0031303025204F6E00647281636B89
:1024C000656E00446F736572656E002D2F536175E4
:1024D0006572004D6F6E69746F72004175737A6535
:1024E000697400286E756C6C2900416E6E756C8283
:1024F0000054656D702E2000426F6D6261200050A7
:102500006F6D7065200050756D70652000417072B0
:102510006F762E00536574207048004964696F6DB2
:102520006100416C61726D610041637469766100A4
:102530004D6172636865004F6E54696D6500416C52
:1025400061726D65004C616E677565003025204FC6
:102550006666003630207365670031352073656725
:102560000030252041757300302520756974004DB9
:10257000454E5520004461746120004D6F64652014
:1025800000446F7365200057694669200054656DEB
:10259000702000506F6D70200050756D702000200D
:1025A00045727231002045727232002045727233DA
:1025B00000426F6D626100536176656400506F6D1B
:1025C00070650050756D70650025332E31660025ED
:1025D000342E31660057692D46690020436F6E6EB8
:1025E00000446F736973004D6F64757300417272BC
:1025F0008874004E696368740025302E327500209F
:102600006D5620006D696E2E0044617461004D6F3F
:10261000646500446F7365005461616C004D6F64C4
:102620006F00506F6D70004E696574003530250085
:102630003235250037352500204841002053500011
:102640007370610066726100736563006E6C640094
:10265000656E670041616E006D696E004E6F6E00C1
:1026600048727300556974004E6F7400646575009C
:10267000256C75002D2D004C41004F4B002564004A
:10268000416E004E6F004F720055720003003A0019
:102690004300460000FF0001A06B9F690201246B0C
:1026A000040E01015C190CE118510AE1000EB3ECB3
:1026B00076F0400E0101C86F010E186FDDEF18F0C3
:1026C000280E9D5D230E9E5902E2DDEF18F0000EEC
:1026D000B3EC76F0400E0101C86F9D6B9E6BDDEF91
:1026E00018F05DA10ED00001A06B030E9F6F0101D9
:1026F000599DC00EC86F32EC78F0010E01011A6FBF
:102700000BD0000E4CEC77F0000906E000019F6B47
:10271000A06B0101266BC86B0201286B040E296FA8
:102720000101186B74EF19F037EC78F001017C515E
:10273000020DE90EF324D96E020EF420DA6EDECF1C
:1027400081F0DDCF82F0ADEC64F0020E010120D00B
:102750005DA504D0010E186F500E1AD0000E4CEC7F
:1027600077F0000902E174EF19F0050E11D0196B32
:1027700059A102D00F8102D001010F915E935E91A9
:102780005E953D6B476B516B2FEC6FF0060EDED7FD
:10279000C86F74EF19F036EC5EF017EC72F0080EAB
:1027A000D5D7020ED4EC68F0000E6B6F090E6C6F7B
:1027B00001017C51020DB90EF324D96E030EF420F1
:1027C000DA6EDECF6DF0DDCF6EF011EC68F0000E4A
:1027D00000016B6F090E6C6FFC0E6D6F1E0E6E6F3D
:1027E000BAEC63F0000E00016B6F090E6C6F010113
:1027F0007C51020DAF0EF324D96E030EF420DA6E75
:10280000DECF6DF0DDCF6EF0BAEC63F0010E0201A9
:10281000246FB3EC76F0090E99D72FEC6FF0010E10
:102820000201246F0A0E92D7050E4CEC77F00009D6
:10283000F2E0000EB3EC76F0700E0101C86F100EDE
:102840003ED19D6B9E6B32EC78F0C00E0101C86FDB
:10285000110E42EF18F0720E00016B6F020E6C6FDA
:1028600001017C51020DE90EF324D96E020EF42011
:10287000DA6EDECF6DF0DDCF6EF011EC68F037EC84
:1028800078F0720E0001816F020E826F32EC68F0F8
:10289000120E5CD7C00EC86F900E1A6F77BF08D0AB
:1028A0007751761129E1510E745DC30E755924E2FA
:1028B00077AF09D0B00E745D3C0E7559FF0E765996
:1028C000FF0E775919E3F0EC74F0600E00016B6FA6
:1028D000020E6C6F01017C51020DA50EF324D96E1E
:1028E000030EF420DA6EDECF6DF0DDCF6EF011EC6A
:1028F00068F0200E010119D09AEC66F0600E6B6F43
:10290000020E6C6F01017C51020D9B0EF324D96EF7
:10291000030EF420DA6EDECF6DF0DDCF6EF011EC39
:1029200068F0010E0101186F310E1C6FE5EC77F0B5
:10293000600E0001816F020E826FADEC64F07FECDF
:102940006DF036EC5EF017EC72F074EF19F044ECB9
:1029500077F0C00E0101C86F210E94D337EC78F0E8
:10296000000E00016B6F090E6C6F01017C51020DAE
:10297000B90EF324D96E030EF420DA6EDECF6DF0BB
:10298000DDCF6EF011EC68F001015EA11CD0000EED
:1029900000016B6F090E6C6F170E6D6F1D0E6E6F61
:1029A000BAEC63F001017C51020DD50EF324D96E0F
:1029B000020EF420DA6EDECF81F0DDCF82F0ADECD6
:1029C00064F0020E39D05EA51CD0000E00016B6FC2
:1029D000090E6C6FEF0E6D6F1E0E6E6FBAEC63F02A
:1029E00001017C51020DDF0EF324D96E020EF4209A
:1029F000DA6EDECF81F0DDCF82F0ADEC64F0010E57
:102A00001BD0000E00016B6F090E6C6F730E6D6FA3
:102A1000240E6E6FBAEC63F001017C51020DC30EFF
:102A2000F324D96E030EF420DA6EDECF81F0DDCF11
:102A300082F0ADEC64F0030E0101196F220EA8D6EE
:102A4000000E00016B6F090E6C6F01017C51020DCD
:102A5000AF0EF324D96E030EF420DA6EDECF6DF0E4
:102A6000DDCF6EF0BAEC63F0E5EC77F0230E6ED6B6
:102A70007FEC6DF036EC5EF017EC72F0010E0201A7
:102A8000246FB3EC76F0A00E0101C86F240EE5D1DF
:102A90007FEC6DF036EC5EF0B3EC5CF0010E020101
:102AA000246F250E53D6050E4CEC77F000090AE092
:102AB000000EB3EC76F0700E0101C86F270E1D6F8B
:102AC00074EF19F0240E64D69D6B9E6B5E970E9981
:102AD0000E9D0E9B0E9F32EC78F0C00E0101C86F68
:102AE000280ED0D270C1A5F071C1A6F02A0E1D6FBC
:102AF0006251745D0001A16F0101635175590001BC
:102B0000A26F0101645176590001A36F0101655163
:102B100077590001A46FA4BF9BD0A45108E1D00E47
:102B2000A15DFB0EA259010EA35901E291D0A4BFF1
:102B30000AD0A45107E1210EA15D3C0EA259030E5B
:102B4000A359D8B085D034EC73F021EE62F0DECF1B
:102B50006BF0DDCF6CF00001000E6CBFFF0E6D6FEF
:102B60006E6FE80E6F6F030E706F716B726BEAEC35
:102B70004CF06BC0A8F06CC0A9F00101000E5EB370
:102B8000010E00016B6FA8C06CF0A9C06DF0AAC067
:102B90006EF0A5C06FF0A6C070F0A7C071F0010E76
:102BA0005DEC64F021EE66F0DECF6BF0DDCF6CF013
:102BB0000001000E6CBFFF0E6D6F6E6FE80E6F6F41
:102BC000030E706F716B726BEAEC4CF06BC0A8F087
:102BD0006CC0A9F00101000E5EB1010E00016B6F27
:102BE000A8C06CF0A9C06DF0AAC06EF0A5C06FF0CF
:102BF000A6C070F0A7C071F0000E5DEC64F0720E1C
:102C000000016B6F020E6C6F01017C51020DDF0E33
:102C1000F324D96E020EF420DA6EDECF6DF0DDCF34
:102C20006EF011EC68F0600E00016B6F020E6C6FBD
:102C300001017C51020DA50EF324D96E030EF42080
:102C4000DA6EDECF6DF0DDCF6EF011EC68F0CDD036
:102C5000A4AF9CD0310EA15D040EA259FE0EA35963
:102C6000FF0EA45901E392D0A4AF0AD0E00EA15DFB
:102C7000C30EA259FC0EA359FF0EA45901E286D03F
:102C800033EC70F021EE62F0DECF6BF0DDCF6CF054
:102C90000001000E6CBFFF0E6D6F6E6FE80E6F6F60
:102CA000030E706F716B726BEAEC4CF06BC0A8F0A6
:102CB0006CC0A9F00101000E5EB3010E00016B6F44
:102CC000A8C06CF0A9C06DF0AAC06EF0A5C06FF0EE
:102CD000A6C070F0A7C071F0010E5DEC64F021EEAB
:102CE0006AF0DECF6BF0DDCF6CF00001000E6CBF40
:102CF000FF0E6D6F6E6FE80E6F6F030E706F716B6E
:102D0000726BEAEC4CF06BC0A8F06CC0A9F001014A
:102D1000000E5EB5010E00016B6FA8C06CF0A9C07B
:102D20006DF0AAC06EF0A5C06FF0A6C070F0A7C08D
:102D300071F0020E5DEC64F0256B720E00016B6F9A
:102D4000020E6C6F01017C51020DD50EF324D96E79
:102D5000020EF420DA6EDECF6DF0DDCF6EF011ECF6
:102D600068F0600E00016B6F020E6C6F01017C5108
:102D7000020DA50EF324D96E030EF420DA6EDECF19
:102D80006DF0DDCF6EF011EC68F02FD0010E010177
:102D9000186F9AEC66F0720E6B6F020E6C6F010189
:102DA0007C51020DC30EF324D96E030EF420DA6EAB
:102DB000DECF6DF0DDCF6EF011EC68F0600E00013B
:102DC0006B6F020E6C6F01017C51020D9B0EF324A0
:102DD000D96E030EF420DA6EDECF6DF0DDCF6EF02B
:102DE00011EC68F0310E01011D6F37EC78F0720EB6
:102DF0000001816F020E826F32EC68F0E5EC77F033
:102E0000290EA4D4600E0001816F020E826F32EC95
:102E100068F07FEC6DF036EC5EF017EC72F0C00EEF
:102E20000101C86F900E1A6F1DC11CF15DD2A00E7A
:102E3000C86F855103E05EB15EA502D0300E0DD0A3
:102E4000200E1B6F6DD4599D5E9777EC3EF001010B
:102E5000946B010E936F8AD1420E1B6F45D2030E05
:102E60004CEC77F0000901E13FD2420E91D432ECF4
:102E700078F0410E01011A6FC00E68D437EC78F07B
:102E800001017C51020DCD0EF324D96E030EF42006
:102E9000DA6EDECF81F0DDCF82F0ADEC64F0E5ECF0
:102EA00077F001017C51020DCB0EF324D96E020E96
:102EB000F420DA6EDECF81F0DDCF82F0ADEC64F08D
:102EC0000101B26BB36B9D6B9E6B900EC86F800E51
:102ED000D1D096EC77F0C00E0101C86F430ED2D06E
:102EE00000019F6BA06B0101266B7D6B00018A6B5B
:102EF000896B24EC65F00101C86B246BABEC78F0B6
:102F000004EC79F0F1D1B00EC86F510EBBD037ECA4
:102F100078F001017C51020DCD0EF324D96E030E21
:102F2000F420DA6EDECF81F0DDCF82F0ADEC64F01C
:102F3000E5EC77F001017C51020DB40EF324D96E5B
:102F4000040EF420DA6EDECF81F0DDCF82F0ADEC3E
:102F500064F0A00E0101C86FB00E1B6F520E92D02C
:102F600037EC78F001017C51020DC80EF324D96EC4
:102F7000040EF420DA6EDECF81F0DDCF82F0ADEC0E
:102F800064F0E5EC77F001017C51020DBE0EF324F4
:102F9000D96E040EF420DA6EDECF81F0DDCF82F040
:102FA000ADEC64F0530EA6EF13F0030E5C1904E1D0
:102FB000B00EC86F540E66D0040E5C1901E094D1B7
:102FC000B00EC86F550E5ED037EC78F001017C5121
:102FD000020DD20EF324D96E040EF420DA6EDECF89
:102FE00081F0DDCF82F0ADEC64F09AEC66F0900EEB
:102FF0000101C86FA00E1C6F2FD737EC78F00101CC
:103000007C51020DCB0EF324D96E020EF420DA6E41
:10301000DECF81F0DDCF82F0ADEC64F0E8D79D6BC0
:103020009E6B96EC77F0610E25D79AEC66F0200E39
:10303000816F400E88EC73F00101195193EC5DF043
:10304000620EA6EF13F0E5EC77F001017C51020D62
:10305000AA0EF324D96E040EF420DA6EDECF81F0CE
:10306000DDCF82F0ADEC64F0C00E0101C86F900EB0
:103070001A6F310E1C6F38D144EC77F0C00E01018D
:10308000C86F710E1A6F30D1195193EC5DF0720E4A
:10309000A6EF13F074C16FF075C170F076C171F0D6
:1030A00077C172F0000E19EC36F000019E6B3F6A9A
:1030B00001011F6B1E6B02014C6B4D6BE5EC77F051
:1030C0003F50FAEC6BF0730EA6EF13F02FEC6FF09D
:1030D00002014C4B4D2BAC0E4C5D260E4D5905E3B9
:1030E000010E0101186F600EC86F01011F2B090E40
:1030F0001F65FAD01F6B74C16FF075C170F076C197
:1031000071F077C172F0010E19EC36F000019E6F7C
:1031100001011E2B02014D5104E1320E4C5D01E212
:10312000E3D0010E01011E65DFD01E6BE5EC77F0E8
:1031300000019E513F5C05E23F2A3F50FAEC6BF0E4
:10314000D3D0060E3F1801E0CFD01DC1C8F1CCD0BE
:103150000EEC31F077EC3EF001015EA307D0D10E0A
:10316000935D020E945902E3598D5E87A00EC86FDD
:1031700073D6256B910EC8EF13F0252B310E256504
:10318000B3D01CC1C8F1B0D0000E4CEC77F00009F0
:1031900001E1AAD01BC1C8F1A7D044EC77F06CD6EE
:1031A0003EEC71F0000901E19FD066EC71F000097E
:1031B00001E19AD01AC1C8F197D0C85102E171EF6C
:1031C00013F0010A02E194EF13F0030A02E1A8EF01
:1031D00013F0070A02E1B7EF13F0030A02E1CBEFA5
:1031E00013F00E0A02E1D1EF13F0010A02E10DEF34
:1031F00014F0030A02E114EF14F01A0A02E121EFBD
:1032000014F0010A02E12BEF14F0030A02E14AEF85
:1032100014F0320A02E1A7EF14F0010A02E1AEEF66
:1032200014F0030A01E10CD4010A01E121D4070AD8
:1032300001E12ED4010A01E136D4020A01E144D4AD
:103240000F0A01E14FD4010A01E1DCD5030A01E1D3
:10325000EED51A0A01E1F7D5010A01E100D6710A9B
:1032600001E105D6010A01E109D6030A01E131D6DF
:10327000010A01E135D6130A01E145D6010A01E14F
:1032800046D6030A01E16CD6010A01E18ED6070A8F
:1032900001E19AD6010A01E1B0D6350A01E1BFD6B3
:1032A000010A01E1C2D6030A01E1CDD6120A01E109
:1032B000E3D6010A01E1E8D6030A01E1EBD6010AEF
:1032C00001E104D7F30A01E143D7100A01E151D724
:1032D000010A01E152D7310A01E156D7100A01E192
:1032E0005CD7700A01E15CD79FC09CF0A0C09DF044
:1032F000120068EF1EF0250EDA191CE088EC1EF0B3
:1033000011E0B651D96E80EC1EF002D868EF1EF0C5
:103310000500FA6EBA51FD6EBB51FE6EFF6AFA509F
:10332000DA51120074EC1EF0DAC0DFFF98EC1EF0E8
:1033300068EF1EF0D66BD76BD46BD56B03D0D485FA
:10334000B74BB82BC7EC1EF0300AF9E0C7EC1EF003
:10335000E5EC73F01CE3D66BD76BD6C06BF0D7C02F
:103360006CF05AEC1FF03DEC72F06BC0D6F06CC004
:10337000D7F0B7C0F6FFFEEC1EF0D627BC51D7231E
:10338000B74BB82BC7EC1EF0E5EC73F0E6E2C7ECE8
:103390001EF02E0A22E1D58DB74BB82BD86BD96B16
:1033A00015D0D8C06BF0D9C06CF05AEC1FF03DECD2
:1033B00072F06BC0D8F06CC0D9F0B7C0F6FFFEEC6D
:1033C0001EF0D827BC51D923B74BB82BC7EC1EF041
:1033D000E5EC73F001E2B3D0E4D7D86BD96BD589B3
:1033E000AED0D489ACD0D585C2D0B951D96EDA6A05
:1033F000020EDF26DF5CD96EDA6ADECFC3F0DECFE5
:10340000C4F0C351C41104E1E30EC36F240EC46FB2
:10341000C56BC66B03D00001C54BC62BC551C32578
:10342000BA6FC651C421BB6FBAC0F6FFBBC0F7FF6D
:10343000000EF86E0F0EF76403D00800F55003D0AD
:103440001AEC48F0EF500009E6E10001D851D9111B
:103450000BE0C55163EC1FF0C651800ABA5904E273
:10346000D8C0C5F0D9C0C6F0D651C55DD751C65930
:1034700005E2C551D65FC651D75B1AD0D66BD76B64
:1034800017D088EC1EF00FE0B651D96E80EC1EF01C
:1034900001D80ED00500FA6EBA51FD6EBB51FE6E1A
:1034A000FF6AFA50200C74EC1EF0200E90EC1EF017
:1034B0000001D607D8A0D707D629E3E1D72934E001
:1034C000E0D788EC1EF01EE0B651D96E80EC1EF0FD
:1034D00001D814D00500FA6EBA51FD6EBB51FE6ED4
:1034E000FF6AFA5045EC1FF00F0EF76403D0080096
:1034F000F55003D01AEC48F0EF5012000001C34B16
:10350000C42B12D045EC1FF0EFDB0F0EF76403D095
:103510000800F55003D01AEC48F0EF50DF6E0001C0
:10352000C34BC42B98EC1EF0C507D8A0C607C5290D
:10353000C8E1C62901E1CCD3C4D7D48D18D0B7C017
:10354000F6FFB8C0F7FF36EC1FF001E1CAD3640AFA
:103550000EE0020A01E147D70F0A09E0050A01E17E
:1035600040D71F0A01E141D7060AE7E0B1D3070EB1
:10357000D51501E181D2D5A903D0D96B060ED86F3C
:10358000B951D96EDA6ADFCFBAF0030EDF26BA512D
:10359000D96EDA6ADECFD1F0DECFD2F0DDCFD3F054
:1035A000D3AF10D0D1C06BF0D2C06CF0D3C06DF0EF
:1035B00072EC75F06BC0D1F06CC0D2F06DC0D3F07E
:1035C000030ED413C76BC86BD151D211D31169E06C
:1035D000820EBA6FBB69D1C0BCF0D2C0BDF0D3C0FF
:1035E000BEF0D4C0BFF0100E05D0D890BF33BE33AC
:1035F000BD33BC33E82EF9D7BC51BA25C76F000ED6
:10360000BB21C86FC707D8A0C807C7C06BF0C8C028
:103610006CF06E6B030E6D6F3DEC72F06BC0C7F01B
:103620006CC0C8F0C7C071F0C8C072F00AEC31F0CD
:1036300052EC5BF071C0C7F072C0C8F0C8AF03D0E5
:10364000C707D8A0C807C751000833EC33F04CECCB
:103650001FF0CDC079F0CEC07AF0CFC07BF053EC34
:103660001FF02BEC4CF079C0CDF07AC0CEF07BC0CF
:10367000CFF0E3DB6E6B800E6F6F3F0E706F11EC5F
:1036800063F004E2C707D8A0C8070BD0D6DB6E6B87
:10369000200E6F6F410E706F11EC63F002E3C74BA9
:1036A000C82BD9BF05D0D9511AE10D0ED85D17E24C
:1036B000D1C092F0D2C093F0D3C094F0D851FBECBB
:1036C00040F088C095F089C096F08AC097F021EC50
:1036D0003FF092C0D1F093C0D2F094C0D3F0C8BFF5
:1036E00005D0C85116E10A0EC75D13E2D151D211BF
:1036F000D3113CE0C3DB03EC4EF08F5190119111DC
:10370000921134E1C8BF32D0C85103E1020EC75D47
:103710002DE393DB700E6E6F890E6F6F400E706F2E
:1037200011EC63F0F70ED8B0F80EC727FF0EC823D0
:10373000C75133EC33F0B0DBD1C06BF0D2C06CF0CA
:10374000D3C06DF0CDC06EF0CEC06FF0CFC070F0C2
:103750006EEC49F06BC0C9F06CC0CAF06DC0CBF024
:103760006EC0CCF0D16BD26BD36B24D087DB03EC73
:103770004EF06ADBD1C0B0F0D2C0B1F0D3C0B2F02D
:10378000C9C073F0CAC074F0CBC075F0CCC076F07D
:1037900071EC65F073C0B3F074C0B4F075C0B5F0EF
:1037A0004BEC6CF0B0C0D1F0B1C0D2F0B2C0D3F0ED
:1037B000C76BC86B010EDA6FC2DA2EDB04E3DA2BBB
:1037C0000A0EDA19F9E1DA51D825BA6F000ED921BB
:1037D000BB6FC751BA27C851BB23BA51D65FBB5183
:1037E000D75BD851D91103E0D607D8A0D70720DB83
:1037F00003E0D607D8A0D707D4A54CD019DB2BE01F
:1038000087DA0EE0B651D96E7BDA01D824D00500F4
:10381000FA6EBA51FD6EBB51FE6EFF6AFA502D0C66
:1038200063DA2D0E7DDA17D073DA0EE0B651D96E59
:1038300067DA01D80CD00500FA6EBA51FD6EBB51A3
:10384000FE6EFF6AFA50300C4FDA300E69DA000172
:10385000D607D8A0D7070001D7BF4ED0D751E4E193
:10386000D6054AE3E1D754DA0EE0B651D96E48DA0C
:1038700001D80CD00500FA6EBA51FD6EBB51FE6E38
:10388000FF6AFA50200C30DA200E4ADA0001D6071F
:10389000D8A0D707D7BF04D0D751E5E1D605E3E2DA
:1038A000C7DA2AE035DA0EE0B651D96E29DA01D846
:1038B00023D00500FA6EBA51FD6EBB51FE6EFF6A51
:1038C000FA502D0C11DA2D0E16D08FDA38DA67DAAD
:1038D000DAEC5AF046DA9EEC5FF07EDA19DA08E0AC
:1038E000B651D96E0DDA01D807D00500FA6E7AD03C
:1038F000FBD9CD51300F14DA0001DA07DA2918E0CC
:10390000E4D706DA0EE0B651D96EFAD901D80CD058
:103910000500FA6EBA51FD6EBB51FE6EFF6AFA5099
:10392000300CE2D9300EFCD90001C707D8A0C80777
:10393000C8BF04D0C851E5E1C705E3E2D9BF08D04C
:10394000D95103E1090ED85D03E3080EDA6F02D006
:10395000D8C0DAF0DA51D85F000ED95BDA5113E043
:10396000D7D90EE0B651D96ECBD901D80CD005000D
:10397000FA6EBA51FD6EBB51FE6EFF6AFA502E0C04
:10398000B3D92E0ECDD90001DA5133EC33F088C013
:10399000C0F089C0C1F08AC0C2F085DAC0C079F039
:1039A000C1C07AF0C2C07BF02BEC4CF079C08FF034
:1039B0007AC090F07BC091F003EC4EF045DA3CD039
:1039C00014DABDD9ECD9DAEC5AF0CBD99EEC5FF021
:1039D00003DA9ED90EE0B651D96E92D901D80DD036
:1039E0000500FA6EBA51FD6EBB51FE6EFF6AFA50C9
:1039F0006FD27AD9CD51300F93D9C9C078F0CAC0EF
:103A000079F0CBC07AF0CCC07BF0000198D9F5CF2B
:103A10007CF00900F5CF7DF00900F5CF7EF00A00BB
:103A2000F5CF7FF09EEC5FF078C0C9F079C0CAF0A6
:103A30007AC0CBF07BC0CCF0DA07DA2918E0C0D727
:103A400067D90EE0B651D96E5BD901D80CD005000C
:103A5000FA6EBA51FD6EBB51FE6EFF6AFA50300C21
:103A600043D9300E5DD90001D807D8A0D907D85165
:103A7000D91101E12DD1E4D7D4BD1BD0D4A902D0F6
:103A80009AD90AD0EAD9DECFC9F0DDCFCAF0000E4C
:103A9000CABFFF0ECB6FCC6FCCAF1AD0030ED413BE
:103AA000CC1FCB1FCA1FC96D000ECA23CB23CC234A
:103AB0000FD0D4A902D07FD90BD0CFD9DECFBAF0A6
:103AC000DDCFBBF0BAC0C9F0BBC0CAF0CB6BCC6BCA
:103AD000D851D91107E1C951CA11CB11CC1102E15A
:103AE000D84BD92B010EDA6F2AD996D904E3DA2BF9
:103AF0000A0EDA19F9E1DA51BA6FBB6BD851DED987
:103B0000D951800ABC5903E2D8C0DAF00FD0DA519B
:103B1000BA6FBB6BBA51D85DD951800ABC6FBB512B
:103B2000800ABC5903E2DAC0D8F0D96BD651D7115C
:103B300005E07ED903E0D607D8A0D707D5AD0DD0D4
:103B4000D651C1D9D751800ABA5905E2D851D65FAA
:103B5000D951D75B02D0D66BD76BDA51BA6FBB6B3A
:103B6000D651ACD9D751800ABC5905E2DA51D65F9B
:103B7000000ED75B02D0D66BD76BD4A532D058D904
:103B800013E0C6D80EE0B651D96EBAD801D80CD021
:103B90000500FA6EBA51FD6EBB51FE6EFF6AFA5017
:103BA0002D0CA2D82D0EBCD80001D651D71101E1A1
:103BB00087D0AED80EE0B651D96EA2D801D80CD0BD
:103BC0000500FA6EBA51FD6EBB51FE6EFF6AFA50E7
:103BD000300C8AD8300EA4D80001D607D8A0D70759
:103BE000E4D7D651D7111AE093D80EE0B651D96E6A
:103BF00087D801D80CD00500FA6EBA51FD6EBB51C2
:103C0000FE6EFF6AFA50200C6FD8200E89D8000192
:103C1000D607D8A0D707D651D711E6E109D950E089
:103C200077D80EE0B651D96E6BD801D849D00500CF
:103C3000FA6EBA51FD6EBB51FE6EFF6AFA502D0C42
:103C400053D82D0EDF6E3BD0D8C0BAF0D9C0BBF030
:103C5000D890BA37BB37D890BA37BB37750EBA256C
:103C6000F66E110EBB21F76E77D899D8BED8DAEC74
:103C70005AF06BC078F06CC079F06DC07AF06EC00D
:103C80007BF00A0E7C6F7D6B7E6B7F6B9EEC5FF032
:103C90007851300FDA6F3CD80FE0B651D96E30D87A
:103CA00001D80ED00500FA6EBA51FD6EBB51FE6E02
:103CB000FF6AFA50DA51120017D8DAC0DFFF38D89D
:103CC0000001D807D8A0D907D829BEE1D929BCE17D
:103CD000B7C0F6FFB8C0F7FF0001C8D802E07BEF1D
:103CE00019F0B66BB76B1200B651D96EDA6ADECF37
:103CF000BAF0DDCFBBF0BAC0D9FFBBC0DAFF12000B
:103D0000DA6A020ED926DECFBAF0DDCFBBF0020CA4
:103D1000B651D96EDA6A020ED926DE50DE101200D4
:103D2000DF6EB651D96EDA6ADE2A000EDD22000C93
:103D3000B651D96EDA6ADE2A000EDD22000CDA51A5
:103D4000040D750EF324F66E110EF420F76EF86A6A
:103D5000000EF82209001200F86A000EF82209008D
:103D600012006BC0CDF06CC0CEF06DC0CFF06EC055
:103D7000D0F0CDC078F0CEC079F0CFC07AF0D0C00E
:103D80007BF00A0E7C6F7D6B7E6B7F6B0A0CB7C07D
:103D9000F6FFB8C0F7FFF86A0800F5501200F5CF3B
:103DA0006FF00900F5CF70F00900F5CF71F00A004F
:103DB000F5CF72F01200B951D96EDA6A040EDF261F
:103DC000DF5CD96EDA6ADECFC9F0DECFCAF0DECFB3
:103DD000CBF0DECFCCF0120078C0CDF079C0CEF0C1
:103DE0007AC0CFF07BC0D0F01200C9C06BF0CAC05F
:103DF0006CF0CBC06DF0CCC06EF01200B8C0F7FF15
:103E0000F86A0800F5CFBAF0D00EBA25BB6FBC6BCC
:103E1000FF0EBC23BB511200F550C95D0900F550DF
:103E2000CA590900F550CB590900F550CC59120078
:103E3000D4C0BAF0030EBA17030CCDC06BF0CEC0DD
:103E40006CF0CFC06DF012008FC0C9F090C0CAF006
:103E500091C0CBF092C0CCF01200B951D96EDA6AA1
:103E6000DF50DF2ADF2AD96EDA6A1200B74BB82B8F
:103E7000F86A0800F5CFDAF0DA511200D1C08FF0FD
:103E8000D2C090F0D3C091F01200C3C0F6FFC4C0FE
:103E9000F7FF000EF86E120088C0CDF089C0CEF09A
:103EA0008AC0CFF01200D1C07CF0D2C07DF0D3C068
:103EB0007EF012006E6B0A0E6D6F0A0CBA5DBB517C
:103EC000800ABC6F1200D85DD951800ABA6F120007
:103ED000CD51300F120076C082F077C083F00DD341
:103EE000840E6D6F6E6BA7DB34EC6DF084510101B5
:103EF0007D190EE07D0E00016F6F010E706F726B09
:103F0000716B010E736FB5EC6CF05DDB980E6DD3C9
:103F1000840E5EDB99DB34EC6DF084510101AB194A
:103F20000EE0AB0E00016F6F010E706F726B010E31
:103F3000716F736FB5EC6CF046DB9F0E56D3800E3D
:103F400047DB7EDB34EC6DF0805101017E1905E129
:103F50000001815101017F190EE07E0E00016F6F9B
:103F6000010E706F726B020E716F736FB5EC6CF0B7
:103F70002ADBA60E3AD3800E2BDB040E2BEC32F09C
:103F800034EC6DF080510101801905E1000181518F
:103F9000010181190DE0800E00016F6F010E706F3D
:103FA000726B040E37DBB5EC6CF00DDBAD0E1DD380
:103FB000800E0EDB060E2BEC32F034EC6DF08051EF
:103FC0000101821905E100018151010183190DE010
:103FD000820E00016F6F010E706F726B060E1ADB9E
:103FE000B5EC6CF0F0DAB40E00D3800EF1DA080E06
:103FF0002BEC32F034EC6DF080510101871905E1B2
:1040000000018151010188190DE0870E00016F6FD9
:10401000010E706F726B080EFDDAB5EC6CF0D3DA3E
:10402000BB0EE3D2800ED4DA0A0E2BEC32F034EC65
:104030006DF080510101891905E1000181510101F3
:104040008A190DE0890E00016F6F010E706F726B9F
:104050000A0EE0DAB5EC6CF0B6DAC20EC6D2840E07
:10406000B7DA0C0EBEDA34EC6DF0845101018B1915
:104070000DE08B0E00016F6F010E706F726B0C0EF6
:10408000C5DAB5EC6CF09FDAC90EAFD2840EA0DAB7
:104090000D0EA7DA34EC6DF0845101018D190DE09D
:1040A0008D0E00016F6F010E706F726B0D0EAEDA28
:1040B000B5EC6CF088DAD00E98D2840E89DA0E0E48
:1040C00090DA34EC6DF08451010184190DE0840E16
:1040D00000016F6F010E706F726B0E0E97DAB5EC08
:1040E0006CF071DAD70E81D2840E72DA0F0E79DAA3
:1040F00034EC6DF0845101017C190DE07C0E00015F
:104100006F6F010E706F726B0F0E80DAB5EC6CF092
:104110005ADADE0E6AD2840E5BDA100E62DA34EC02
:104120006DF0845101015E190DE05E0E00016F6FAC
:10413000010E706F726B100E69DAB5EC6CF043DA39
:10414000E50E53D27C0E44DA110E68DA34EC6DF0D1
:1041500056DA6251000178190FE101016351000143
:1041600079190AE10101645100017A1905E101019F
:10417000655100017B190CE0620E6F6F010E706FCC
:10418000726B110E4FDAB5EC6CF01DDAEC0E2DD21D
:104190004DDA150E43DA34EC6DF031DA6651000178
:1041A00078190FE101016751000179190AE1010154
:1041B000685100017A1905E10101695100017B197B
:1041C0000CE0660E6F6F010E706F726B150E2ADABF
:1041D000B5EC6CF0F8D9F30E08D228DA190E1EDA15
:1041E00034EC6DF00CDA6A51000178190FE101012D
:1041F0006B51000179190AE101016C5100017A1932
:1042000005E101016D5100017B190CE06A0E6F6F31
:10421000010E706F726B190E05DAB5EC6CF0D3D924
:10422000FA0EE3D1800E6D6F6E6B706B1D0E2BEC72
:1042300032F034EC6DF080510101931905E1000179
:104240008151010194190FE0930E00016F6F010E6F
:10425000706F726B1D0EDED9B5EC6CF0B4D9010E27
:10426000DE6EDD6E010C7C0EB3D9250ED7D934EC91
:104270006DF07C51010199190FE100017D5101019F
:104280009A190AE100017E5101019B1905E1000123
:104290007F5101019C190DE0990E00016F6F010E15
:1042A000706F726B250EBED9B5EC6CF08CD9080E10
:1042B00094D1840E8DD9230E94D934EC6DF08451B1
:1042C000010185190DE0850E00016F6F010E706F01
:1042D000726B230E9BD9B5EC6CF075D90F0E7DD1A6
:1042E000840E76D9240E7DD934EC6DF08451010111
:1042F00086190DE0860E00016F6F010E706F726BF4
:10430000240E84D9B5EC6CF05ED9160E66D1840EFD
:104310005FD9290E66D934EC6DF084510101B419CE
:104320000DE0B40E00016F6F010E706F726B290EFD
:104330006DD9B5EC6CF047D91D0E4FD1840E48D91C
:104340002A0E4FD934EC6DF0845101015F190DE054
:104350005F0E00016F6F010E706F726B2A0E56D9DF
:10436000B5EC6CF030D9240E38D1800E31D92B0E3B
:104370002BEC32F034EC6DF0805101013B1905E17A
:104380000001815101013C190AE03B0E00016F6FF1
:10439000010E2ED9B5EC6CF016D92B0E1ED1800E65
:1043A00017D92D0E2BEC32F034EC6DF08051010159
:1043B000451905E100018151010146190AE0450E48
:1043C00000016F6F010E14D9B5EC6CF0FCD8320E01
:1043D00004D1800EFDD82F0E2BEC32F034EC6DF0B2
:1043E000805101014F1905E100018151010150196E
:1043F0000AE04F0E00016F6F010EFAD8B5EC6CF0B9
:10440000E2D8390EEAD0800EE3D8310E2BEC32F030
:1044100034EC6DF0805101014B1905E1000181512F
:1044200001014C190AE04B0E00016F6F010EE0D83C
:10443000B5EC6CF0C8D8400ED0D0840EC9D81F0E91
:10444000D0D834EC6DF08451010195190DE0950E32
:1044500000016F6F010E706F726B1F0ED7D8B5EC35
:104460006CF0B1D8470EB9D0840EB2D8200EB9D8AE
:1044700034EC6DF08451010196190DE0960E0001A7
:104480006F6F010E706F726B200EC0D8B5EC6CF0C0
:104490009AD84E0EA2D0840E9BD8210EA2D834EC0E
:1044A0006DF084510101971998110DE0970E0001EC
:1044B0006F6F010E706F726B210EACD8B5EC6CF0A3
:1044C00082D8550E8AD0840E83D8330E8AD834EC25
:1044D0006DF0845101018C190DE08C0E00016F6F9D
:1044E000010E706F726B330E91D8B5EC6CF06BD817
:1044F0005C0E73D068D8010E78D065D8DECF78F026
:10450000DDCF79F0795103E0010A33E0E9D4785145
:10451000010AD8B41200990A01E1FAD4070A01E1AC
:104520000ED5390A01E127D50B0A01E141D5190A57
:1045300001E15BD50F0A01E175D5790A01E18FD55B
:104540000B0A01E1A3D5190A01E1B7D5070A01E178
:10455000CBD5090A01E1DFD53B0A01E1F3D5090A10
:1045600001E116D61F0A01E138D6090A01E15AD63F
:10457000B7D47851010A01E176D6090A01E199D64A
:10458000070A01E1ADD6190A01E1C1D60B0A01E122
:10459000D5D6390A01E1E9D60F0A01E100D7190A97
:1045A00001E117D70B0A01E12ED7790A01E145D7BE
:1045B000070A01E159D7090A01E16DD71B0A83E017
:1045C000090A98E08DD482C0D9FF83C0DAFF1200B7
:1045D00000016D6F6E6B706B1200DE6E010EDD6E92
:1045E000010C6F6F010E716F010CDE6EDD6A000C45
:1045F000706F726B310E716F020E736F020C84C09C
:1046000078F0796B7A6B7B6B01011200716F010E90
:10461000736F010C716F020E736F020C6F6F040EDB
:10462000716F040C716F040E736F040C7C0E6D6F50
:104630006E6B706B1200706B6F6B010E716F010C03
:10464000020E6F6F716F020C010E6F6F716F010CB4
:1046500021EED9F0100EDE6AE806FDE2FAD2600E15
:1046600000016B6F020E6C6F01017C51020D8C0E0C
:10467000F324D96E040EF420DA6EDECF6DF0DDCFB8
:104680006EF011EC68F0600E0001E86F020EE96F49
:104690007E0EEA6F010EEB6FDBEC58F0600E00014E
:1046A0006B6F020E6C6F2D0E6D6F1A0E6E6FBAEC83
:1046B00063F0F2D2600E00016B6F020E6C6F0101AD
:1046C0007C51020D820EF324D96E040EF420DA6EB2
:1046D000DECF6DF0DDCF6EF011EC68F0600E000102
:1046E000E86F020EE96F6E0EEA6F010EEB6F010EBE
:1046F000EC6FC9EC53F0600E00016B6F020E6C6F33
:104700003D0E6D6F1B0E6E6FBAEC63F0600E000114
:10471000E86F020EE96F720EEA6F010EEB6F010E89
:10472000EC6F34EC48F0B8D2600E00016B6F020EF3
:104730006C6F01017C51020D6E0EF324D96E040ED4
:10474000F420DA6EDECF6DF0DDCF6EF011EC68F0A4
:10475000600E0001E86F020EE96F820EEA6F010E33
:10476000EB6FDBEC58F0600E00016B6F020E6C6FAC
:104770002D0E6D6F1A0E6E6FBAEC63F08DD2600E57
:1047800000016B6F020E6C6F01017C51020D780EFF
:10479000F324D96E040EF420DA6EDECF6DF0DDCF97
:1047A0006EF011EC68F0600E0001E86F020EE96F28
:1047B000800EEA6F010EEB6FDBEC58F0600E00012B
:1047C0006B6F020E6C6F2D0E6D6F1A0E6E6FBAEC62
:1047D00063F062D2600E00016B6F020E6C6F01011C
:1047E0007C51020D640EF324D96E040EF420DA6EAF
:1047F000DECF6DF0DDCF6EF011EC68F00101845179
:1048000015E1600E00016B6F020E6C6F01017C51AF
:10481000020D140EF324D96E040EF420DA6EDECFEE
:104820006DF0DDCF6EF0BAEC63F036D2600E0001B1
:104830006B6F020E6C6F01017C51020D0A0EF324A6
:10484000D96E040EF420DA6EDECF6DF0DDCF6EF09F
:10485000BAEC63F021D2600E00016B6F020E6C6F38
:1048600001017C51020D5A0EF324D96E040EF4207E
:10487000DA6EDECF6DF0DDCF6EF011EC68F0D90EA0
:104880000001DB6F010EDC6F7D0EDD6F260EDE6F2B
:1048900087C1DFF088C1E0F0A3EC6EF0600E6B6FB3
:1048A000020E6C6FD90E6D6F010E6E6FBAEC63F075
:1048B000600E00016B6F020E6C6F01017C51020DE6
:1048C000000EF324D96E040EF420DA6EDECF6DF004
:1048D000DDCF6EF0BAEC63F0DFD1600E00016B6FDC
:1048E000020E6C6F01017C51020D500EF324D96E43
:1048F000040EF420DA6EDECF6DF0DDCF6EF011EC39
:1049000068F0D90E0001DB6F010EDC6F7D0EDD6FEC
:10491000260EDE6F89C1DFF08AC1E0F0A3EC6EF0F5
:10492000600E6B6F020E6C6FD90E6D6F010E6E6FA5
:10493000BAEC63F0600E00016B6F020E6C6F010148
:104940007C51020DB80EF324D96E050EF420DA6EF8
:10495000DECF6DF0DDCF6EF0BAEC63F09DD1600E6E
:1049600000016B6F020E6C6F01017C51020D460E4F
:10497000F324D96E040EF420DA6EDECF6DF0DDCFB5
:104980006EF011EC68F0D90E0001DB6F010EDC6FE8
:10499000F90EDD6F250EDE6F97C1DFF098C1E0F0F4
:1049A000A3EC6EF0600E6B6F020E6C6FD90E6D6F24
:1049B000010E6E6FBAEC63F0600E00016B6F020EB9
:1049C0006C6F8E0E6D6F260E6E6FBAEC63F0D90EA3
:1049D0000001DB6F010EDC6FF90EDD6F250EDE6F5F
:1049E00096C1DFF0E06BA3EC6EF0600E6B6F020E11
:1049F0006C6FD90E6D6F010E6E6FBAEC63F0600EC6
:104A000000016B6F020E6C6F8E0E6D6F260E6E6F57
:104A1000BAEC63F0D90E0001DB6F010EDC6FF90E0A
:104A2000DD6F250EDE6F95C1DFF0E06BA3EC6EF05D
:104A3000600E6B6F020E6C6FD90E6D6F010E6E6F94
:104A4000BAEC63F029D1600E00016B6F020E6C6F3F
:104A500001017C51020D3C0EF324D96E040EF420AA
:104A6000DA6EDECF6DF0DDCF6EF011EC68F0D90EAE
:104A70000001DB6F010EDC6F700EDD6F260EDE6F46
:104A800099C1DFF09AC1E0F09BC1E1F09CC1E2F076
:104A9000A3EC6EF0600E6B6F020E6C6FD90E6D6F33
:104AA000010E6E6FBAEC63F0600E00016B6F020EC8
:104AB0006C6F01017C51020DAE0EF324D96E050E10
:104AC000F420DA6EDECF6DF0DDCF6EF0BAEC63F07D
:104AD000E3D0600E00016B6F020E6C6FF00E6D6F15
:104AE000240E6E6F11EC68F08EC19EF08FC19FF0A6
:104AF00090C1A0F091C1A1F0D2EC5EF09EC0A8F0F0
:104B00009FC0A9F0A0C0AAF0AB6B7A0EAC6F440EA8
:104B1000AD6F73EC4FF0A8C0D6F1A9C0D7F1AAC011
:104B2000D8F1D90EDB6F010EDC6FC90EDD6F250EDB
:104B3000DE6FD6C1DFF0D7C1E0F0D8C1E1F0A3EC61
:104B40006EF0600E6B6F020E6C6FD90E6D6F010E02
:104B50006E6FBAEC63F0600E00016B6F020E6C6F4B
:104B6000FF0E6D6F250E6E6FBAEC63F095D0600E80
:104B700000016B6F020E6C6F870E6D6F250E6E6FEE
:104B800011EC68F00101B45115E1600E00016B6F8A
:104B9000020E6C6F01017C51080D420EF324D96E98
:104BA000060EF420DA6EDECF6DF0DDCF6EF0BAECDB
:104BB00063F072D0600E00016B6F020E6C6F01012A
:104BC0007C51080D400EF324D96E060EF420DA6EE7
:104BD000DECF6DF0DDCF6EF0BAEC63F030D0600E5A
:104BE00000016B6F020E6C6FDB0E6D6F250E6E6F2A
:104BF000BAEC63F051D0600E00016B6F020E6C6F67
:104C00009F0E6D6F250E6E6FBAEC63F045D0600E8F
:104C100000016B6F020E6C6FA50E6D6F250E6E6F2F
:104C2000BAEC63F039D0600E00016B6F020E6C6F4E
:104C3000AB0E6D6F250E6E6FBAEC63F02DD00101D7
:104C4000B551CDE0010AD7E0030AE1E0ECD700005E
:104C500023D00101245101E102D5010A01E12AD545
:104C6000030A01E161D5010A01E189D5070A01E1E1
:104C7000B1D5010A01E1EFD5030A01E12ED6010AFF
:104C800001E16DD60F0A01E1DED6010A01E121D76B
:104C9000030A01E16CD7DBD7E5EC77F0600E000189
:104CA000816F020E826F32EF68F025C02DF026C0B2
:104CB0002EF0BAD189802DC0D9FF2EC0DAFF7A0E2E
:104CC000DE6EDD6A000C20EE06F02550D926265057
:104CD000DA22C90EDE6EF50EDE6EC90EDE6EF50E40
:104CE000DD6E82EC78F02DC0D9FF2EC0DAFF7D0E8C
:104CF000DE6EDD6A060E2524056E000E2620066E89
:104D0000B00E076E020E086E040E84EC41F000092E
:104D100001E11200899020EE06F02550D926265098
:104D2000DA2210EE04F02550E1262650E222DECFF2
:104D3000E6FFDDCFE5FF20EE04F02550D926265012
:104D4000DA22DECF27F0DDCF28F027C028F0276A4F
:104D5000296A28502A6E20EE04F02550D9262650C4
:104D6000DA22DECF2BF0DDCF2CF02CC02BF02C6A1A
:104D70002B50291220EE04F02550D9262650DA2295
:104D800029C0DEFF2AC0DDFF20EE04F02550D92621
:104D90002650DA22DECF0FF0DDCF10F0AEC111F0D9
:104DA000AFC112F0CC0E146E136E18EC45F00FC0AC
:104DB000AEF110C0AFF120EE04F02550D9262650F8
:104DC000DA22AEC1DEFFAFC1DDFF9CEC70F020EE59
:104DD0000AF02550D9262650DA2209C0DEFF0AC083
:104DE000DEFF0BC0DEFF0CC0DEFF20EE0EF0255014
:104DF000D9262650DA22430EDE6E0F0EDD6E20EE2F
:104E00000EF02550D9262650DA22DECFB9F1DDCFBB
:104E1000BAF120EE0AF02550D9262650DA22DECF4C
:104E2000BBF1DECFBCF1DECFBDF1DECFBEF12DC0D8
:104E3000D9FF2EC0DAFF8A0EDE6EDD6A20EE0AF0A0
:104E40002550D9262650DA22DECF1FF0DECF20F003
:104E5000DECF21F0DECF22F020EE0EF02550D92655
:104E60002650DA22DECF23F0DDCF24F0BBEC6EF04B
:104E7000000901E1120089802DC0D9FF2EC0DAFFA0
:104E80008D0EDE6EDD6A000C20EE06F02550D92670
:104E90002650DA22F90EDE6EF50EDE6EF90EDE6EAB
:104EA000F50EDD6E82EC78F02DC0D9FF2EC0DAFF52
:104EB000900EDE6EDD6A060E2524056E000E26209D
:104EC000066EB00E076E020E086E040E84EC41F002
:104ED000000901E11200899020EE06F02550D92644
:104EE0002650DA2210EE02F02550E1262650E2226A
:104EF000DECFE6FFDDCFE5FF20EE02F02550D9261C
:104F00002650DA22DECF27F0DDCF28F027C028F0A8
:104F1000276A296A28502A6E20EE02F02550D926E9
:104F20002650DA22DECF2BF0DDCF2CF02CC02BF078
:104F30002C6A2B50291220EE02F02550D92626503B
:104F4000DA2229C0DEFF2AC0DDFF20EE02F0255064
:104F5000D9262650DA22DECF0FF0DDCF10F0ACC11B
:104F600011F0ADC112F0260E146E660E136E18EC21
:104F700045F00FC0ACF110C0ADF120EE02F02550AD
:104F8000D9262650DA22ACC1DEFFADC1DDFF9CEC94
:104F900070F020EE0AF02550D9262650DA2209C0FA
:104FA000DEFF0AC0DEFF0BC0DEFF0CC0DEFF20EE1E
:104FB0000EF02550D9262650DA22430EDE6E0F0E53
:104FC000DD6E20EE04F02550D9262650DA22010E9F
:104FD000DBAE05D0500EDE5CC90EDE580EE30101DB
:104FE000598134C1D9FF35C1DAFF10EE0DF0DE5022
:104FF000E126DD50E222E7920FD00101599134C140
:10500000D9FF35C1DAFF10EE0DF0DE50E126DD509C
:10501000E222E782599759952DC0D9FF2EC0DAFFB9
:10502000010EDE6EDD6A000C2DC0D9FF2EC0DAFF46
:10503000DECF27F0DDCF28F0285001E03BD6275007
:10504000010AD8B412007B0A01E13DD6070A01E14A
:1050500051D6F70A01E1F2D6070A01E115D71D0A78
:1050600001E129D727D6AED19BC0D9FF9CC0DAFF7A
:10507000DF500101206F446A96EC77F00101B451D2
:1050800004E11E0E0001F46F1E0C0A0E0001F46F05
:105090000A0C020ED4EC68F0720E6B6F020E6C6F8D
:1050A0009DC0D9FF9EC0DAFFDECF6DF0DDCF6EF080
:1050B00011EC68F0600E00016B6F020E6C6F20EE59
:1050C00002F09D51D9269E51DA22DECF6DF0DDCF60
:1050D0006EF011EC68F0445017E1720E00016B6F36
:1050E000020E6C6F440E6D6F1D0E6E6FBAEC63F0A6
:1050F000600E00016B6F020E6C6F3D0E6D6F1B0E2C
:105100006E6FBAEC63F016D0720E00016B6F020E78
:105110006C6F3D0E6D6F1B0E6E6FBAEC63F0600E20
:1051200000016B6F020E6C6F440E6D6F1D0E6E6F83
:10513000BAEC63F0720E00016B6F020E6C6F20EE22
:1051400004F09D51D9269E51DA22DECF6DF0DDCFDD
:105150006EF0BAEC63F0600E00016B6F020E6C6FC4
:1051600020EE06F09D51D9269E51DA22DECF6DF059
:10517000DDCF6EF0BAEC63F0A7EC78F00001F42B11
:1051800012000101B45104E1000ECAEC5DF0F6D743
:10519000B529CAEC5DF0F2D7446A77D7010E446EA8
:1051A0000A0E0001F46F0A0C96EC77F0090E01016B
:1051B000C86F090C96EC77F00F0E0001F46F0F0C1E
:1051C00001015C51010AEAE0030AE6E0010AF2E0AB
:1051D000070AD8A41200E8D7020ED4EC68F04450B5
:1051E00001E04FD7010E23EC78F0720E6B6F020EC8
:1051F0006C6F20EE04F09D51D9269E51DA22DECF4D
:105200006DF0DDCF6EF011EC68F0A7EC78F0100EC9
:105210000001F46F100C130EF46F130C0201506BAD
:10522000516BF40E00012BD00101B651B71103E010
:1052300085EC64F0A3D728EC78F017EC72F0010E3F
:1052400023EC78F09BD7040E01015C1908E196EC81
:1052500077F0000E23EC78F0090E0101C86F02010F
:10526000504B512BB00E505D040E5159D8A0120076
:10527000000E23EC78F0140E0101C86F140C6B6F54
:105280006C6B000E7FEF75F032EC78F077D7720E12
:105290006B6F020E6C6F750E6D6F250E6E6F11ECDD
:1052A00068F0600E00016B6F020E6C6F390E6D6F4F
:1052B0001B0E6E6F11EC68F00101205117E1720EA8
:1052C00000016B6F020E6C6F3D0E6D6F1B0E6E6FEB
:1052D000BAEC63F0600E00016B6F020E6C6F440E4F
:1052E0006D6F1D0E6E6FBAEC63F016D0720E00017A
:1052F0006B6F020E6C6F440E6D6F1D0E6E6FBAEC0D
:1053000063F0600E00016B6F020E6C6F3D0E6D6FEF
:105310001B0E6E6FBAEC63F0720E00016B6F020E23
:105320006C6F01017C51080D680EF324D96E060ED6
:10533000F420DA6EDECF6DF0DDCF6EF0BAEC63F004
:10534000600E00016B6F020E6C6F01017C51080D45
:105350006A0EF324D96E060EF420DA6EDECF6DF0FD
:10536000DDCF6EF0BAEC63F0A7EC78F0506B516BC8
:1053700005D7F40E84D7010E206F1D0E0001F46FC7
:105380001D0C206B1D0E0001F46F1D0C3C0EC86F30
:105390003C0C9BC0D9FF9CC0DAFF20C1DFFF20512D
:1053A0001EEC78F0320E0101C86F320C01015C5125
:1053B000010AE7E0030ADFE0010AEBE0070AD8A4EC
:1053C0001200E4D7F45101E14FD6090AD2E0030AF2
:1053D00001E15FD6010A01E1D4D6070ACAE0010A59
:1053E00001E1EED6020A01E1F7D61F0A01E113D767
:1053F000030A01E113D7070A01E116D7010A01E107
:1054000022D7080AB6E0030A01E13ED7010A01E10A
:105410003ED73F0AAEE0010AC9E012000201524B3A
:10542000532B280E521903E1230E5319D8A44AD145
:10543000140E0101C86F46D196EC77F00001F26BB3
:10544000456A010E0101C86F010C5A6A5A0E00012B
:105450009B6F2FEC34F0060E0101C86F060C5A0E3C
:1054600000019B6F2FEC34F05A50D8A41200070EA5
:105470000101C86F070C000E4CEC77F00009D8B49E
:105480001200080EC86F0201526B536B12001E0E01
:10549000C86F0001F46B12000001F25104E0F20742
:1054A000450401E1456A090E0101C86F090C0F0EA0
:1054B0000001F261F8D7F22B4550F5E1010E456E7F
:1054C000F2D7140EC86F140C5C51010AF0E0030A05
:1054D000E3E0010ADCE0070AD8A41200F2D75A6A16
:1054E0005A0E00019B6F2FEC34F00A0E0101C86FB9
:1054F0000A0C5A0E00019B6F2FEC34F05A50D8A4BE
:1055000012000B0E0101C86F0B0C000E4CEC77F073
:10551000000902E00C0EC86F5DA112005C0504E0FA
:10552000020E5C19D8A412000C0EC86F0C0C0201FC
:10553000526B536B080E0101C86F080C96EC77F0A4
:10554000150E0101C86F150C000E4CEC77F0000928
:10555000D8B41200160EC86F160C0001F26B0101D0
:105560005999246B10EC79F001017D5103E1266B10
:10557000C86B12007D0528E137EC78F001017C5101
:10558000040D140EF324D96E050EF420DA6EDECF6E
:1055900081F0DDCF82F0ADEC64F0E5EC77F0010155
:1055A0007C51040D160EF324D96E050EF420DA6E2C
:1055B000DECF81F0DDCF82F0ADEC64F09A0E010118
:1055C000216F170EC86F170C000012000A0E0001A1
:1055D0006F6F0101215130EC6CF0796F7A6B7B6B4E
:1055E000010E7C6F1AEC43F00101215102E021070A
:1055F00002D0180EC86F7FEC6DF0ABB102D00E91E7
:1056000002D001010E8159A102D00F8102D0010107
:105610000F91845104E10E850E930E8703D00E8501
:105620000E830E9736EC5EF017EC72F001015C51C0
:10563000D8B41200190EC86F190C54EC77F0266B11
:10564000C86B120044EC77F01A0E0101C86F1A0CF7
:10565000E5EC77F001017C51020DCB0EF324D96EFD
:10566000020EF420DA6EDECF81F0DDCF82F0ADECF9
:1056700064F01B0E0101C86F000E4CEC77F00009BE
:10568000D8B41200180EC86F180C0E0E0001F219D3
:1056900001E114D707D796EC77F00101C82B12006F
:1056A000000EE6EC62F0460E0101C86F460C010EDA
:1056B000E6EC62F0F8D7256BF0D7252B130E2565A5
:1056C000130CF1D60101C85101E1B6D6010A01E17E
:1056D000BCD6070A01E1C3D6010A01E1CCD60F0A04
:1056E00001E1F2D6010A01E1FAD6030A01E101D78C
:1056F000010A01E10AD7070A01E119D7180A01E1F5
:105700001DD7010A01E120D7030A01E126D7010ACA
:1057100001E15CD70F0A91E0010A94E0030A98E0E6
:10572000010AAAE0050A02E15AEF2EF03E0AADE0B6
:10573000120AB1E0010AB4E00F0AADE0010AB7E0D5
:105740007B0AB9E0010AB9E012000001EE6F7DD1D9
:105750007EC158F07FC159F082C156F083C157F025
:1057600080C154F081C155F032EC78F0030E000195
:10577000F46F030C5DB308D000016C6B0A0E6B6F05
:10578000EE5195EC42F007D000016C6B320E6B6F5E
:10579000EE5195EC42F00001F42B12005DB308D0FD
:1057A00000016C69F60E6B6FEE5195EC42F0F3D789
:1057B00000016C69CE0E6B6FEE5195EC42F0EBD7A9
:1057C0003C0EC86F3C0C58C07EF159C07FF156C0EA
:1057D00082F157C083F154C080F155C081F1320E7F
:1057E000C86F320C01015C51010AD8E0030AC2E023
:1057F000010AE9E0070AD8A41200E2D7EDEC75F03F
:10580000020ED4EC68F068D0720E6B6F020E6C6FF3
:1058100001017C51040D7A0EF324D96E050EF4209B
:10582000DA6EDECF6DF0DDCF6EF011EC68F058C0AF
:1058300071F059C072F00001746B0A0E736F52EC74
:105840005BF071C0ECF072C0EDF0ECC079F0EDC02F
:105850007AF0030E7B6F010E7C6F1AEC43F042D09E
:10586000720E6B6F020E6C6F01017C51040D2A0EDB
:10587000F324D96E060EF420DA6EDECF6DF0DDCFA4
:105880006EF011EC68F054C071F055C072F0000178
:10589000746B0A0E736F52EC5BF0D3D7720E6B6FA2
:1058A000020E6C6F01017C51040D160EF324D96EAB
:1058B000060EF420DA6EDECF6DF0DDCF6EF011EC67
:1058C00068F056C071F057C072F00001746B0A0E98
:1058D000736F52EC5BF0B5D7EE5196E0010AC0E071
:1058E000030ADCE017EC72F037EC78F054D7720E54
:1058F000816F020E826F32EC68F0E5EC77F07ED0BB
:10590000600E6B6F020E6C6F770E6D6F260E6E6FF2
:1059100011EC68F0600E0001E86F020EE96F540EA2
:10592000EA6FEB6BDBEC58F0600E00016B6F020E60
:105930006C6F380E6D6F260E6E6FBAEC63F0600EF2
:105940000001E86F020EE96F560EEA6FEB6BDBECBD
:1059500058F021D7600E6B6F020E6C6F3D0E6D6FAD
:10596000260E6E6F11EC68F0600E0001E86F020EFB
:10597000E96F580EEA6FEB6BDBEC58F0600E00013C
:105980006B6F020E6C6F380E6D6F260E6E6FBAEC79
:1059900063F0600E0001E86F020EE96F560EEA6FC9
:1059A000EB6BDBEC58F0F7D6600E6B6F020E6C6F92
:1059B000770E6D6F260E6E6F11EC68F0600E0001B1
:1059C000E86F020EE96F540EEA6FEB6BDBEC58F0F8
:1059D000600E00016B6F020E6C6F3C0E6D6F260E39
:1059E0006E6FBAEC63F0600E0001E86F020EE96FB3
:1059F000580EEA6FEB6BDBEC58F0CDD60001EE51A0
:105A000001E17ED7010AA6E0030ACEE0C4D6600E0B
:105A1000816F020E826F32EC68F0BDD6F40E6B6FB0
:105A20006C6B000E7FEC75F05DA104D05C0502E1AB
:105A30000001F42B01015DA11200020E5C1901E1CD
:105A4000AAD61200020EF46F020C0001F45101E11B
:105A50007FD6020A01E1C6D6010A01E1CFD6070AC4
:105A600001E145D7010AD3E0030AD8E0010AEAE0E0
:105A7000120020D17D0E9B6F010E9C6F01017C51A5
:105A8000080D780EF32400019D6F070EC6D0000E9E
:105A9000A5EF2BF00101AB51010ED8A4000EAB6FA6
:105AA000AB0E00019B6F010E9C6F01017C51080D34
:105AB000640EF32400019D6F060EF4209E6F8CECA3
:105AC0002EF00101AB51010ED8A4000EAB6FABB1AB
:105AD00002D05F9102D001015F811200020EA5EF9A
:105AE0002BF0010EA5EF2BF001018451010ED8A47B
:105AF000000E846F840E00019B6F010E9C6F0101EC
:105B00007C51080D500EF32400019D6F070EF42008
:105B10009E6F8CEC2EF001018451010ED8A4000E72
:105B2000846F84B102D0589302D001015883090ECA
:105B3000C819D8A4120020EE02F03451D9263551EC
:105B4000DA2210EE0FF0DE50E126DD50E222845121
:105B5000D9EC77F0E76E120001017C51040DB40E10
:105B6000F3240001826F060EF420836F870E846F8A
:105B7000010E0DD001017C51040DA00EF324000193
:105B8000826F060EF420836F890E846F010E856F7D
:105B9000876B3C0E866F896B010E886F8B6B8A6FEB
:105BA0008D6B050E8C6F8E6B010E8F6F906F2FEFCC
:105BB00032F08CC1C7F20201C86B01017C51040DA7
:105BC0008C0EF3240001826F060EF420836FC70E43
:105BD000846F020E856F876B640E866F896B140E5F
:105BE000886F8B6B8A6F8D6B8C6F8E6B010E8F6FD6
:105BF000906F2FEC32F0C7C28CF101018C5170EF25
:105C00006BF0850E9B6F010E9C6F01017C51080D9E
:105C1000280EF32400019D6F070EF4209E6F8CEF79
:105C20002EF001018651010ED8A4000E866F860E5B
:105C300000019B6F010E9C6F01017C51080D3C0E11
:105C4000F32400019D6F060EF4209E6F8CEC2EF065
:105C500001018651010ED8A4000E866F090EC819E5
:105C6000D8A4120086B102D08C9601D08C86120086
:105C7000B40E9B6F010E9C6F01017C51080D000E4C
:105C8000F32400019D6F070EF4209E6F33EF28F080
:105C90007C0E716F010E726F01017C510E0DA00E12
:105CA000F3240001736F090EF420746F050E756FF5
:105CB00028EF35F00001F25101E1DCD6010A01E1E3
:105CC000E6D6030A01E1E6D6010A01E107D7070A91
:105CD00001E107D7010A01E107D7030A01E13CD737
:105CE000010A01E147D70F0A01E163D7010A02E186
:105CF00002EF4BF0030A02E1FBEF3AF0010A02E186
:105D00000DEF42F0070A01E17CD7010A8AE0030A9D
:105D1000AFE0010ABDE012000201246B24D19BC058
:105D2000D9FF9CC0DAFFDF50416E32EC78F0030EF1
:105D30000001F46F030C410401E1416A0001F42BFE
:105D400012004150FBE1010E416EF8D73C0EC86FC6
:105D50003C0C0001F25109E1410407E101015EB38D
:105D600004D0140E0001F46F140C9BC0D9FF9CC02A
:105D7000DAFF41C0DFFF320E0101C86F320C0101B2
:105D80005C51010ADEE0030AD6E0010AE2E0070AFC
:105D9000D8A41200DBD70EEC79F00009D8B41200B9
:105DA000720E6B6F020E6C6F9DC0D9FF9EC0DAFF42
:105DB000DECF6DF0DDCF6EF011EC68F0600E00010B
:105DC0006B6F020E6C6F20EE02F09D51D9269E5132
:105DD000DA22DECF6DF0DDCF6EF011EC68F04150CD
:105DE00017E1720E00016B6F020E6C6F440E6D6F47
:105DF0001D0E6E6FBAEC63F0600E00016B6F020E49
:105E00006C6F3D0E6D6F1B0E6E6FBAEC63F016D0AB
:105E1000720E00016B6F020E6C6F3D0E6D6F1B0EEC
:105E20006E6FBAEC63F0600E00016B6F020E6C6F68
:105E3000440E6D6F1D0E6E6FBAEC63F0720E0001B2
:105E40006B6F020E6C6F20EE04F09D51D9269E51AF
:105E5000DA22DECF6DF0DDCF6EF0BAEC63F0600ECB
:105E600000016B6F020E6C6F20EE06F09D51D9267B
:105E70009E51DA22DECF6DF0DDCF6EF0BAEC63F02A
:105E8000A7EC78F05BD766EC71F00009D8B412008B
:105E900045D0020EF46F020C000E6B6F090E6C6F92
:105EA00001017C51020D320EF324D96E040EF42050
:105EB000DA6EDECF6DF0DDCF6EF011EC68F044EC01
:105EC00077F03CD737EC78F001017C51020D1E0EC3
:105ED000F324D96E040EF420DA6EDECF81F0DDCF2C
:105EE00082F0ADEC64F02AD7E5EC77F001017C514B
:105EF000020D280EF324D96E040EF420DA6EDECFE4
:105F000081F0DDCF82F0ADEC64F0010E0201286F6C
:105F1000080E296F010EB3EC76F010D7F40E6B6FFC
:105F20006C6B000E7FEF75F01B0EF46F1B0C000EF8
:105F3000B3EC76F09BC0D9FF9CC0DAFF41C0DFFF15
:105F4000320E04D0000EB3EC76F03C0E0101C86FA7
:105F500006D001015C51030AEAE0070AF3E0180EDB
:105F60000001F46F180C0001F45101E1D8D6020AC7
:105F700001E105D7010A01E10ED7070A84E0010A11
:105F800088E0110A89E0010A9DE0030AADE0010AF8
:105F9000C5E00F0AC9E0010AC7E0020ADAE0120010
:105FA00046EC78F06BC0C2F16CC0C3F1010159A19D
:105FB000B4D059955997FDD8D7D8E796FAD8D4D800
:105FC000E794F00E0001C06FE10EC16F410EC26F89
:105FD00007D966EC6CF017D9FE0E7C6FE80E7D6F6A
:105FE0003A0E7E6F2BEC4CF0C6D821EC3FF0FDD87A
:105FF000F7D866EC6CF007D9F3D866EC6CF0FCD8F7
:106000002BEC4CF079C0BDF0C9D8460E7C6FDE0E8B
:106010007D6FB20E7E6F2BEC4CF0ADD821EC3FF0D3
:10602000E4D8DED866EC6CF0EED8DAD866EC6CF02A
:10603000E3D82BEC4CF079C0BDF0B0D8D1D866ECE9
:106040006CF0DAD82BEC4CF079C0BDF0A7D86D0E0F
:106050007C6FA00E7D6F2B0E7E6F2BEC4CF08BD8DF
:1060600021EC3FF0C2D8C0C079F0C1C07AF0C2C004
:106070007BF07C6B200E7D6F410E7E6F2BEC4CF025
:1060800079C0C0F07AC0C1F07BC0C2F0C0C0B7F028
:10609000C1C0B8F0C2C0B9F016EC5BF094D803EC04
:1060A0004EF08FC070F190C071F183D810EE06F001
:1060B00085D870C1E6FF71C1E5FFC0C0A8F0C1C0BE
:1060C000A9F0C2C0AAF0AB6B200EAC6F410EAD6F51
:1060D00073EC4FF0A8C0B7F0A9C0B8F0AAC0B9F0EF
:1060E00016EC5BF070D803EC4EF08FC06EF190C0F0
:1060F0006FF101016FBF0AD06F5103E1330E6E5D86
:1061000005E3598556D830D8E78611D06FAF0FD048
:1061100059874FD829D8E7840AD06F6B140E6E6F59
:1061200048D810EE06F04AD8C80EE66EE56A8FEC45
:1061300060F000016E6B120E6D6F3DEC72F06BC083
:1061400072F16CC073F172C171F073C172F062D8F8
:1061500052EC5BF071C072F172C073F1200E01015C
:106160007227000E7323000C10EE0DF0DE50E126B6
:10617000DD50E222120079C0BDF07AC0BEF07BC0D3
:10618000BFF0C0C092F0C1C093F0C2C094F0BDC0D7
:1061900095F0BEC096F0BFC097F012007AC0BEF076
:1061A0007BC0BFF0BDC079F0BEC07AF0BFC07BF04D
:1061B000120034C1D9FF35C1DAFF1200DE50E126EA
:1061C000DD50E2221200B7C0C0F0B8C0C1F0B9C0C3
:1061D000C2F0C0C08FF0C1C090F0C2C091F01200F8
:1061E000C2C173F0C3C174F0120092C0C0F093C07A
:1061F000C1F094C0C2F0120073C07CF074C07DF096
:1062000075C07EF0120073C079F074C07AF075C06A
:106210007BF01200746B0A0E736F0A0C7D0E000186
:106220006D6F010E6E6F1BEC23F034EC6DF0AB0E56
:106230006D6F010E6E6F706B24EC23F034EC6DF01B
:106240007E0E6D6F010E6E6F706B20EC23F034ECE0
:106250006DF0800E6D6F010E6E6F706B040EFBD8CB
:1062600034EC6DF0820E6D6F010E6E6F706B060E6A
:10627000F2D834EC6DF0870E6D6F010E6E6F706B9F
:10628000080EE9D834EC6DF0890E6D6F010E6E6F5B
:10629000706B0A0EE0D834EC6DF08B0E6D6F010E52
:1062A0006E6F706B0C0EF1EC22F034EC6DF08D0E15
:1062B0006D6F010E6E6F706B0D0EF1EC22F034EC11
:1062C0006DF0840E6D6F010E6E6F706B0E0EF1EC43
:1062D00022F034EC6DF07C0E6D6F010E6E6F706B02
:1062E0000F0EF1EC22F034EC6DF05E0E6D6F010ECE
:1062F0006E6F706B100EF1EC22F034EC6DF0620EEC
:106300006D6F010E6E6F706B110E0EEC23F034EC9E
:106310006DF0660E6D6F010E6E6F706B150E0EECEC
:1063200023F034EC6DF06A0E6D6F010E6E6F706BC2
:10633000190E0EEC23F034EC6DF0930E6D6F010E20
:106340006E6F706B1D0E87D834EC6DF0950E6D6F0F
:10635000010E6E6F706B1F0EF1EC22F034EC6DF0DD
:10636000960E6D6F010E6E6F706B200EF1EC22F0C9
:1063700034EC6DF0970E6D6F010E6E6F706B210E29
:106380006AD834EC6DF0850E6D6F010E6E6F706B18
:10639000230EF1EC22F034EC6DF0860E6D6F010EE1
:1063A0006E6F706B240EF1EC22F034EC6DF0990EF0
:1063B0006D6F010E6E6F706B250E0EEC23F034ECDA
:1063C0006DF0B40E6D6F010E6E6F706B290EF1ECF7
:1063D00022F034EC6DF05F0E6D6F010E6E6F706B1E
:1063E0002A0EF1EC22F034EC6DF03B0E6D6F010ED5
:1063F0006E6F706B2B0E2FD834EC6DF0450E6D6FF9
:10640000010E6E6F706B2D0E26D834EC6DF04F0EB2
:106410006D6F010E6E6F706B2F0E1DD834EC6DF02A
:106420004B0E6D6F010E6E6F706B310E14D834EC25
:106430006DF04BC141F14CC142F14BC155F14CC122
:1064400056F18C0E6D6F010E6E6F706B330EF1ECAA
:1064500022F034EF6DF06F6F020E716F020CF4D00A
:1064600084C0D9FF85C0DAFFDECF0CF1DDCF0DF19E
:1064700032EC78F00001F42B1200720E6B6F020EFA
:106480006C6F82C0D9FF83C0DAFFDECF6DF0DDCF45
:106490006EF011EC68F0600E00016B6F020E6C6F15
:1064A00020EE02F08251D9268351DA22DECF6DF040
:1064B000DDCF6EF011EC68F0A7EC78F0030E000170
:1064C000F46F030C5DB31FD000018A51865D916F9C
:1064D0008B518759926F01010C510001915D9251CE
:1064E000800A936F01010D51800A0001935906E360
:1064F0008A5101010C2700018B511ED086C00CF17E
:1065000087C00DF1B7D700018C51865D916F8D5119
:106510008759926F01010C510001915D9251800ADF
:10652000936F01010D51800A00019359E7E38C51EB
:1065300001010C2700018D5101010D239BD75DB393
:106540001DD000018A518825916F8B518921926F4E
:10655000915101010C5D0D51800A0001936F925120
:10656000800A935906E38A5101010C5F00018B51A7
:106570001CD088C00CF189C00DF17CD700018C5172
:106580008825916F8D518921926F915101010C5D88
:106590000D51800A0001936F9251800A9359E9E3EB
:1065A0008C5101010C5F00018D5101010D5B62D71F
:1065B0003C0EC86F3C0C84C0D9FF85C0DAFF0CC10B
:1065C000DEFF0DC1DDFF320EC86F320C01015C51E0
:1065D000010AB5E0030A01E175D7010AECE0070AF8
:1065E000D8A41200E5D70CC171F00DC172F090C0B3
:1065F00073F0746B52EC5BF071C094F072C095F064
:1066000094C079F095C07AF08EC07BF08FC07CF09A
:106610001AEC43F017EC72F02DD7F40E6B6F6C6B25
:10662000000E7FEC75F05DA104D05C0502E1000175
:10663000F42B01015DA11200020E5C1901E11AD7D1
:106640001200020EF46F020CF45101E109D7010AA5
:1066500001E113D7030ABAE0010AC5E0070ADDE049
:10666000010AEFE012008E6F00018EAF4BD08E6DED
:106670008E51800A120F25E3E3D8D0D86BBF6C0788
:106680006AEC5EF0E7D852EC5BF0D6D881D8746B38
:10669000640EDBD871BF720752EC5BF07151120FC0
:1066A000030DD10E5AEC41F02BEC4CF096D86BBF99
:1066B0006C076AEC5EF06B51030D6AD82BEC4CF062
:1066C0009FD08E51800A750F16E3746B0A0EBDD8E9
:1066D00071BF720752EC5BF0AFD8D10E5AEC41F0AB
:1066E00096D86BBF6C076AEC5EF06B51030D50D807
:1066F0002BEC4CF085D08E51030DD10EF324D96EC6
:106700000A0E91D08E51800A120F25E399D886D8AF
:106710006BBF6C076AEC5EF09DD852EC5BF0715178
:10672000090F55D842D8746B640E8FD871BF7207A9
:1067300052EC5BF07151120F4AD840D82BEC4CF060
:106740004CD86BBF6C076AEC5EF06B5140D82DD80B
:106750002BEC4CF055D08E51800A750F16E3746BFC
:106760000A0E73D871BF720752EC5BF07151090FBA
:106770002ED824D84CD86BBF6C076AEC5EF06B51F6
:1067800026D813D82BEC4CF03BD08E5120D84BD0D0
:10679000D10EF324D96E0A0EF420DA6EDECF7CF02F
:1067A000DECF7DF0DDCF7EF01200F420DA6EDECF9A
:1067B0007CF0DECF7DF0DDCF7EF01200F420DA6ECB
:1067C000DECF79F0DECF7AF0DDCF7BF01200030D63
:1067D000AA0EF324D96E0A0E120079C08BF07AC08B
:1067E0008CF07BC08DF08BC079F08CC07AF08DC0BE
:1067F0007BF06E6B0A0E6D6F8E516B6F6C6B1200BF
:1068000079C088F07AC089F07BC08AF012006E6B84
:106810000A0E6D6F8E516B6F6C6B12006D6F8E5127
:106820006B6F6C6B1200F420DA6EDECF88F0DECF77
:1068300089F0DDCF8AF012007151090F030D1200AB
:10684000746B0A0E736F6E6B640C736F8E51716F85
:10685000726B12006BC071F06CC072F01200EFD05E
:10686000020ED4EC68F0720E6B6F020E6C6F0101B9
:106870007C51040D3C0EF324D96E050EF420DA6E23
:10688000DECF6DF0DDCF6EF011EC68F0600E000130
:106890006B6F020E6C6F01017C51040D3E0EF324F0
:1068A000D96E050EF420DA6EDECF6DF0DDCF6EF01E
:1068B00011EC68F0455059E1720E00016B6F020E49
:1068C0006C6F440E6D6F1D0E6E6FBAEC63F0600E50
:1068D00000016B6F020E6C6F3D0E6D6F1B0E6E6FC5
:1068E000BAEC63F0720E00016B6F020E6C6FF25126
:1068F000020DF3CF9CF0F4CF9DF001017C51220DED
:10690000000EF32400019E6F0A0EF4209F6F9C512D
:106910009E25D96E9D519F21DA6EDECF6DF0DDCFC1
:106920006EF0BAEC63F0600E00016B6F020E6C6FDC
:10693000F2519C6F9D6BD8909C379D3701017C5123
:10694000220D020EF32400019E6F0A0EF4209F6FA9
:106950009C519E25D96E9D519F21DA6EDECF6DF040
:10696000DDCF6EF0BAEC63F058D0720E00016B6FA1
:10697000020E6C6F3D0E6D6F1B0E6E6FBAEC63F006
:10698000600E00016B6F020E6C6F440E6D6F1D0E7A
:106990006E6FBAEC63F0720E00016B6F020E6C6FDB
:1069A000F2519C6F9D6BD8909C379D3701017C51B3
:1069B000220DFE0EF32400019E6F090EF4209F6F3E
:1069C0009C519E25D96E9D519F21DA6EDECF6DF0D0
:1069D000DDCF6EF0BAEC63F0600E00016B6F020E5B
:1069E0006C6FF251020DF3CF9CF0F4CF9DF00101DA
:1069F0007C51220D000EF32400019E6F0A0EF4203C
:106A00009F6F9C519E25D96E9D519F21DA6EDECFDE
:106A10006DF0DDCF6EF0BAEC63F0A7EC78F000011A
:106A20009B51D96EDA6ADF2A120066EC71F0000918
:106A3000D8B412009B51D96EDA6ADF6A12009B51FA
:106A4000D96EDA6ADF5001E10BD7010AEEE01200DD
:106A5000ACD0EAD8DF50406E4050766F776BFF0EB7
:106A60007525786F796BFF0E79237651781906E1D9
:106A70007751791903E1010E446E01D0446A32EC7A
:106A800078F0030E0001F46F030C405004E0400660
:106A9000440401E1446A0001F42B1200FF0E0001DE
:106AA0007525766F776BFF0E77234050786F796B83
:106AB0007651785D7951800A7A6F7751800A7A59D8
:106AC000EAE2402A4450E7E1010E446EE4D73C0E6E
:106AD000C86F3C0CA9D840C0DFFF320EC86F320C23
:106AE00001015C51010ADAE0030ACFE0010AF2E099
:106AF000070AD8A41200EBD739EC57F073C0D9FFBE
:106B000074C0DAFF80D811EC68F027EC57F020EE63
:106B100002F07351D9267451DA2275D811EC68F05D
:106B2000445015E166D87AD8BAEC63F067D870D8CB
:106B3000BAEC63F05ED845D8040E51D8BAEC63F0D5
:106B40005DD83FD8060E4BD8BAEC63F014D051D8BC
:106B50005FD8BAEC63F052D861D8BAEC63F049D888
:106B600030D8020E3CD8BAEC63F048D82AD8040ECC
:106B700036D8BAEC63F0A7EC78F08DD7F40E6B6FD3
:106B80006C6B000E7FEC75F05DA104D05C0502E13A
:106B90000001F42B01015DA11200020E5C1901E15C
:106BA0007AD71200020EF46F020CF45101E151D7B2
:106BB000020A96E0010AA0E0070AE0E0010AF2E01A
:106BC00012006C6F4050766F776BD89076377737BE
:106BD00076517325786F77517421796F120078257B
