:10110000A8EF08F0FFFFFFFF5B82CDEF4DF0FFFF80
:10111000FFFFFFFFFFFFFFFF5B80D8CF66F0E8CF48
:1011200067F0E0CF68F0FACF69F0FBCF6AF0F2BA6F
:10113000F2A402D08BEC78F06AC0FBFF69C0FAFF22
:1011400068C0E0FF67C0E8FF66C0D8FF5B90100092
:1011500055EF38F000E4F3DCEFCAEFBCB384BE1CFB
:10116000F3CECAE0F3DCF3D8F3D4F37EF378F37272
:10117000F32CF28CD7010000000A0000006400008C
:1011800000E803000010270000A086010040420F85
:10119000008096980000E1F50500CA9A3BBEEEC8B3
:1011A000F3F4F33CDED2EECCF3F6F36CDE9AEDFC16
:1011B000F2B0F30CDE82EDC4F3ACF3DCDD4573205A
:1011C0007775726465206B65696E65206572666F00
:1011D0006C67726569636865204B616C69627269EE
:1011E0006572756E6720766F7267656E6F6D6D657F
:1011F0006E202D206469652070482D576572742D0E
:10120000416E7A6569676520697374206D94676CB7
:1012100069636865727765697365206665686C6582
:101220007268616674202D20776F6C6C656E205338
:101230006965207769726B6C69636820666F727488
:1012400066616872656E3F2E2E2E2E20004E6F2036
:101250007365206861207265616C697A61646F20D2
:10126000756E612063616C696272616369E26E2010
:10127000636F727265637461202D206C6173206CE2
:101280006563747572617320646520704820706FA7
:101290006472E1616E2073657220696D70726563BE
:1012A00069736173202D209F657374E020736567F7
:1012B00075726F2064652071756520646573656162
:1012C00020636F6E74696E7561723F2E2E2E200042
:1012D000417563756E208274616C6F6E6E616765B7
:1012E00020728275737369206E2761208274822058
:1012F0006566666563747582202D206C6573206C4D
:101300006563747572657320646520704820706F22
:101310007572726F6E74208874726520696E65785C
:101320006163746573202D20887465732D766F75E5
:10133000732073967220646520766F756C6F697286
:1013400020636F6E74696E756572203F2E2E2E209D
:10135000004572206973206765656E206765736C50
:101360006161676465206B616C6962726174696553
:10137000207569746765766F657264202D207048EA
:101380002D6D6574696E67656E207A6F7564656E24
:10139000206F6E6E6175776B6575726967206B750E
:1013A0006E6E656E207A696A6E202D2062656E749D
:1013B0002075207A656B65722064617420752077D2
:1013C000696C7420646F6F726761616E3F2E2E2EA0
:1013D00020004E6F207375636365737366756C20B0
:1013E00063616C6962726174696F6E2068617320F9
:1013F0006265656E20706572666F726D6564202D22
:101400002070482072656164696E677320636F7530
:101410006C6420626520696E6163637572617465D6
:10142000202D2061726520796F752073757265209B
:10143000796F752077616E7420746F2070726F639E
:101440006565643F2E2E2E2000207374656C6C65DC
:101450006E2C203C63616C3E20647281636B656E10
:101460002C20756D20666F72747A7566616872657E
:101470006E2E20536965206B946E6E656E206A65D2
:101480006465727A656974203C053E2064728163EC
:101490006B656E2C20756D20646965204B616C69ED
:1014A0006272696572756E672061627A75627265D3
:1014B0006368656E2E2020002C2070756C7361723D
:1014C000203C63616C3E207061726120636F6E74BA
:1014D000696E7561722E2050756C736172203C05C7
:1014E0003E20656E206375616C7175696572206D53
:1014F0006F6D656E746F20706172612063616E63E1
:10150000656C6172206C612063616C6962726163F9
:1015100069E26E2E2020002C207072657373657254
:10152000203C63616C3E20706F757220636F6E7437
:10153000696E7565722E2050726573736572203CFA
:10154000053E208520746F7574206D6F6D656E7417
:1015500020706F757220616E6E756C6572206C27DD
:101560008274616C6F6E6E6167652E2020002C2086
:101570006472756B206F70203C63616C3E206F6DF0
:1015800020646F6F72207465206761616E2E204445
:1015900072756B206F70203C053E206F6D206B6173
:1015A0006C6962726174696520746520616E6E7524
:1015B0006C6572656E2E20002C207072657373202E
:1015C0003C63616C3E20746F20636F6E74696E754E
:1015D000652E205072657373203C053E20616E7944
:1015E00074696D6520746F2063616E63656C206340
:1015F000616C6962726174696F6E2E200052696E4F
:10160000636572206C6120736F6E64652064652071
:1016100070482C206C6120706C616365722064617D
:101620006E73206C6120736F6C7574696F6E20002F
:10163000456E6A7561676172206C6120736F6E64BC
:10164000612064652070482C20636F6C6F63617249
:1016500020656E2000417373657274696F6E206639
:1016600061696C65643A202573206C696E6520257C
:10167000643A20222573220A00636F6E6669672D23
:101680003E7361766553657474696E677320213D9E
:101690002028302900636F6E6669672D3E70726F77
:1016A0007669646553697A6520213D2028302900D8
:1016B00053706F656C2070482D70726F62652C20BE
:1016C000706C6161747320696E2000636F6E66696F
:1016D000672D3E7772697465427974657320213D88
:1016E000202830290052696E73652070482050729E
:1016F0006F62652C20706C61636520696E200063E9
:101700006F6E6669672D3E726561644279746573B8
:1017100020213D2028302900777269746550657258
:10172000696F64203E207461736B506572696F64E9
:101730000070482D536F6E64652061627370816C18
:10174000656E2C20696E20007372632F5461736B79
:10175000732F726164696F5461736B2E63007372CF
:10176000632F526164696F2F726164696F2E630029
:101770005420616374697661646F202873656729FA
:101780000054656D7073206D617263686520287305
:1017900029009074616C6F6E6E6572207048342FF2
:1017A0003130005A65697420616267656C2E2120B2
:1017B0003C063E00546D656F7574207672737472CA
:1017C000203C063E0044826C616920657870697235
:1017D00082213C063E0053696E6420536965207384
:1017E00069636865723F00496E737420766572653F
:1017F000697374652070480045732077757264655D
:10180000206B65696E65204B004E6F2073756363B6
:1018100065737366756C206361004572206973207F
:101820006765656E206765736C61004E6F20736538
:10183000206861207265616C697A61004175637529
:101840006E208274616C6F6E6E61676500704834E3
:101850002F31302043616C6962726174650052827D
:10186000676C657220636F6E747261737465004D8E
:101870006F6E69746F72696E672062657A6967005E
:10188000546572756773746C6C6E2062657A6967F3
:10189000007048342D4B616C696272696572756EB7
:1018A00067007048372D4B616C69627269657275AB
:1018B0006E67007374616E646161726477616172F6
:1018C00064656E005282696E697469616C697361E6
:1018D00074696F6E007048342F3130206B616C6911
:1018E000627265726E0044726B206F702004206F0C
:1018F0006D20746520700064826661757420726565
:1019000073746175728273005282676C65722070A5
:101910004820726571756973005265737420616A3D
:101920007573207072656465740045696E73742EFA
:10193000205281636B6C69636874005265736574CF
:1019400020746F2044656661756C7400416368742F
:1019500072677276726C2062696A737400416A758C
:1019600073746172206C757A20706F7374005465A3
:10197000727567206F702073746E647264770052A2
:101980006573746F72656420466163746F72790069
:101990006F75744361706163697479203E20330010
:1019A00041616E2D74696A6420287365632E290075
:1019B000417566205A656974202853656B2E29008D
:1019C0005569742D74696A6420286D696E2E29002A
:1019D00054707320617272887420286D696E2900BA
:1019E00050756D70652048616E64626574722E007A
:1019F0005374616E642E207A757281636B732E004E
:101A000043616C6962726172207048342F3130001A
:101A1000887465732D766F757320739672203F00FE
:101A20005365742052657175697265642070480051
:101A3000416A75737465732066E062726963610060
:101A4000426F6D62612076656C6F636964616400EA
:101A500050726573736572200420706F6D7065003D
:101A6000416A75737420636F6E747261737465007C
:101A700070482D4B616C696272696572756E6700A2
:101A80005282676C657220728274726F82636C001E
:101A9000506F6D706520656E206D616E75656C00B0
:101AA000446F736572656E206F6D682F6F6D6C008B
:101AB00041636874657267726F6E647665726C00FC
:101AC00070483130206B616C6962726572656E00BE
:101AD000363053656320436F756E74646F776E00A4
:101AE000313553656320436F756E74646F776E0094
:101AF0005072657373200420746F2050756D7000F0
:101B000050726F766973696F6E6E656D656E740085
:101B100045696E73742E204B6F6E7472617374001E
:101B2000436F6E74726173742041646A75737400DC
:101B300020202020202020202020202020200032B3
:101B40002F332070756E742063616C2020009074B8
:101B5000616C20322F3320707473202000322F33B9
:101B600020506F696E742043616C20004175737A58
:101B700065697420284D696E2E29005420646573B0
:101B800061637420286D696E29004F75693C063EBB
:101B90002C4E6F6E3C053E2C00322F332D50756E4F
:101BA0006B742D4B616C2E007048342F31302D4BEF
:101BB000616C6962722E009074616C6F6E6E6572FA
:101BC0002070483130004A613C063E2C204E656949
:101BD0006E3C053E004F75693C063E2C204E6F6EF4
:101BE0003C053E0054696D6564204F757421203CAE
:101BF000063E005420657870697261646F203C066F
:101C00003E00436F6E7369676E652064652070489F
:101C10000043616C696272616369E26E2070480022
:101C2000528274726F82636C616972616765007061
:101C30004831302043616C69627261746500436FA2
:101C40006E74726F6C652062657A696700426572B6
:101C50006569747374656C6C756E670070483420C8
:101C60006B616C6962726572656E00704837206BDB
:101C7000616C6962726572656E0070482043616CC8
:101C80006962726174696F6E003130302520656E53
:101C900063656E6469646F005265737461626C653C
:101CA0006369656E646F0053756269722F416C637E
:101CB000616C696E6F00506172616D8A74726573D8
:101CC000207061720043616C20322F332070756E7A
:101CD000746F7300436F6E74726173742062696A0B
:101CE00073740052657374617572206482666175E5
:101CF00074004F666654696D6520284D696E290031
:101D00005765726B65696E7374656C6C2E00436108
:101D10006C69627261722070483130009074616C3D
:101D20006F6E6E657220704834009074616C6F6ED7
:101D30006E657220704837004A613C063E2C204E8A
:101D400065653C053E004A613C063E2C4E65696E69
:101D50003C053E005965733C063E2C204E6F3C0509
:101D60003E0041726520796F7520737572653F0082
:101D70009F457374E02073656775726F3F0042651D
:101D80006E742075207A656B65723F009074616C8B
:101D90006F6E6E61676520704800416C61726D61A5
:101DA000206DE16E696D6100416C61726D61206D45
:101DB000E078696D610050756D70204F76657272C4
:101DC0006964650070482D6B616C69627261746949
:101DD00065004175676D2F64696D20646F736500E0
:101DE000506F6D7065207669746573736500704817
:101DF000342043616C6962726174650070483720F9
:101E000043616C696272617465004F6D686F6F67E2
:101E10002F616C6B616C69004261636B6C69676810
:101E2000742041646A00506F6D70206F7068656641
:101E300066656E0070482065696E7374656C6C65CC
:101E40006E004B6F6E74726F6C6C696572656E00BC
:101E5000704820436F6E74726F6C6C6572004C75C5
:101E60007A20706F73746572696F72005375622F98
:101E700042616A20646F7369730072657374616292
:101E80006C656369646F730043616C20322F33703B
:101E9000756E746F73005469656D706F206465733F
:101EA000616374007A757281636B67657365747AB8
:101EB00074004D69736C756B74203C063E00005ACB
:101EC000756D2070756D70656E2004004F6E5469DD
:101ED0006D6520285365632900704831302D4B61B2
:101EE0006C6962722E0043616C696272617220706B
:101EF00048340043616C6962726172207048370037
:101F00004A613C063E2C4E65653C053E0053E13C73
:101F1000063E2C204E6F3C053E005965733C063E44
:101F20002C4E6F3C053E00496E7374656C6C656E9B
:101F3000207048005375727665696C6C616E6365DC
:101F40000054656D7073206D617263686500416C4B
:101F500061726D6520626173736500416C61726DC1
:101F60006520686175746500496E656666656374B1
:101F7000696576650050726F766973696F6E696E18
:101F80006700426F6D6261206D616E75616C00501B
:101F90006F6D7065206D616E75656C005A7572812C
:101FA000636B7365747A656E007061726120626F35
:101FB0006D62656172004375656E74612061747253
:101FC000E073007265626F757273203630207300A3
:101FD0007265626F757273203135207300466169D6
:101FE0006C6564203C063E00004665686C657220A6
:101FF0003C063E0000547073206D6172636865207A
:102000000053E13C063E2C4E6F3C053E00476561A7
:102010006E6E756C656572640031303025206D61BF
:102020007263686500496E656666656374697665A6
:10203000004265766F6F726164696E6700436F6E10
:1020400074726F6C6C696E67009A62657277616317
:1020500068756E67004175676D2F616C63616C69AF
:10206000004162676562726F6368656E00436F6E00
:1020700074726F6C6572656E0042616A61722FE006
:102080006369646F0050756D70652054656D706F85
:10209000004F6D6C6161672F7A7575720054656DC4
:1020A000707320617272887400476573706569632C
:1020B0006865727400456E72656769737472820038
:1020C0009063686563203C063E00004572726F7243
:1020D000203C063E00004872206D617263686520F6
:1020E0000045617274684C696E6B200048696768CE
:1020F000416C61726D20004C616167616C61726D51
:102100002000486F6F67616C61726D2000416C61E7
:10211000726D614DE16E2000526571756572696482
:102120006F2000416C61726D614DE0782000416C60
:1021300061726D2D4D696E2E00416C61726D2D4D79
:1021400061782E00462F572076332E302E390041ED
:102150007369676E617220704800416A75737461BB
:10216000722070480050756D702053706565640072
:1021700050756D70204F7672646500556E77697288
:102180006B73616D65004D6F6E69746F72696E6718
:10219000004D696E2D20416C61726D004D61782D8E
:1021A00020416C61726D004869676820416C617202
:1021B0006D004C61616720616C61726D00486F6FEA
:1021C0006720616C61726D00446F73652055702FDC
:1021D000446E004F706765736C6167656E009A624C
:1021E000657277616368656E00528267756C6174B1
:1021F000696F6E003025206170616761646F004D0A
:10220000656D6F72697A61646F00506F6D702074D4
:10221000656D706F005469656D706F206163740047
:1022200073616E73206566666574009074616C20DE
:10223000322F337074005461616C20202020200004
:102240004964696F6D61202020004C616E6775657F
:102250002020200053707261636865202000416C6B
:1022600061726D6520422000416C61726D6520488D
:1022700020005265717569726564200041616E2DA0
:1022800074696A6420005569742D74696A64200059
:102290005765726B74696A6420004C616E67756182
:1022A00067652000566572656973746520004C6F20
:1022B00077416C61726D20005420646573616374B2
:1022C0002000417566205A65697420004C6175666E
:1022D0007A656974200054707320617272742000F2
:1022E000446F736973202B2F2D0043616E63656CFF
:1022F0006C656400446F776E2F41636964004469C4
:102300006D2F6163696465004865727374656C6400
:1023100065004B6F6E74726F6C6C6500436F6E740A
:10232000726173746500616674656C6C696E6700D8
:10233000526573657474696E67002B2F426173690F
:102340007363680055702F416C6B616C6900456167
:102350007274684C696E6B00322F33707420436165
:102360006C00322F3370742063616C004C6F7720E7
:10237000416C61726D004D6F6E69746F72656E00B5
:1023800043616E63656C61646F004D6F6E69746F5D
:1023900072656F005296636B6C696368740042618A
:1023A000636B6C6967687400436F6D70746520853A
:1023B0000050756C7361722004004572666F726420
:1023C0002E20004F666654696D65200052756E546C
:1023D000696D6520004175737A6569742000496EE6
:1023E0006163746976610041616E2D74696A64008D
:1023F0005569742D74696A64004C616E6775616714
:102400006500636F6E74726F6C650031303025202B
:1024100061616E00313030252045696E0054707264
:102420006F6365736F0044656661756C747300302B
:1024300025206172728874004C6175667A656974D2
:1024400000436F6E747261737400696E65666963D0
:10245000617A0054206163742E20004F6E54696DC0
:10246000652000446F73696E67200052657175695D
:1024700073200070483428313029003630207365CD
:10248000632E003135207365632E0036302053658E
:102490006B2E0031352053656B2E005370726163D3
:1024A0006865004F666654696D6500436F6E7472AF
:1024B0006F6C0031303025204F6E00647281636B89
:1024C000656E00446F736572656E002D2F536175E4
:1024D0006572004D6F6E69746F72004175737A6535
:1024E000697400286E756C6C2900416E6E756C8283
:1024F0000054656D702E2000426F6D6261200050A7
:102500006F6D7065200050756D70652000417072B0
:102510006F762E00536574207048004964696F6DB2
:102520006100416C61726D610041637469766100A4
:102530004D6172636865004F6E54696D6500416C52
:1025400061726D65004C616E677565003025204FC6
:102550006666003630207365670031352073656725
:102560000030252041757300302520756974004DB9
:10257000454E5520004461746120004D6F64652014
:1025800000446F7365200057694669200054656DEB
:10259000702000506F6D70200050756D702000200D
:1025A00045727231002045727232002045727233DA
:1025B00000426F6D626100536176656400506F6D1B
:1025C00070650050756D70650025332E31660025ED
:1025D000342E31660057692D46690020436F6E6EB8
:1025E00000446F736973004D6F64757300417272BC
:1025F0008874004E696368740025302E327500209F
:102600006D5620006D696E2E0044617461004D6F3F
:10261000646500446F7365005461616C004D6F64C4
:102620006F00506F6D70004E696574003530250085
:102630003235250037352500204841002053500011
:102640007370610066726100736563006E6C640094
:10265000656E670041616E006D696E004E6F6E00C1
:1026600048727300556974004E6F7400646575009C
:10267000256C75002D2D004C41004F4B002564004A
:10268000416E004E6F004F720055720003003A0019
:102690004300460000FF00019F6B9E690201246B0E
:1026A000040E01015D190CE117510AE1000E7DECE9
:1026B00077F0400E0101CA6F010E176FD9EF18F0C5
:1026C000280EA35D230EA45902E2D9EF18F0000EE4
:1026D0007DEC77F0400E0101CA6FA36BA46BD9EFBC
:1026E00018F05EA10ED000019F6B030E9E6F0101DA
:1026F0005A9DC00ECA6F07EC79F0010E0101196FE7
:102700000BD0000E18EC78F0000906E000019E6B7B
:102710009F6B0101266BCA6B0201286B040E296FA7
:102720000101176B70EF19F00CEC79F00101825187
:10273000020DE40EF324D96E020EF420DA6EDECF21
:1027400081F0DDCF82F0CAEC64F0020E010120D0EE
:102750005EA504D0010E176F500E1AD0000E18ECB3
:1027600078F0000902E170EF19F0050E11D0186B36
:102770005AA102D00F8102D001010F915F935F91A6
:102780005F953E6B486B526BC3EC6FF0060EDED765
:10279000CA6F70EF19F072EC5EF09AEC72F0080EEE
:1027A000D5D7020E80EC69F0000E6B6F090E6C6FCE
:1027B00001018251020DB90EF324D96E030EF420EB
:1027C000DA6EDECF6DF0DDCF6EF07DEC68F0000EDE
:1027D00000016B6F090E6C6FFC0E6D6F1E0E6E6F3D
:1027E00027EC64F0000E00016B6F090E6C6F0101A5
:1027F0008251020DAF0EF324D96E030EF420DA6E6F
:10280000DECF6DF0DDCF6EF027EC64F0010E02013B
:10281000246F7DEC77F0090E99D7C3EC6FF0010EB1
:102820000201246F0A0E92D7050E18EC78F0000909
:10283000F2E0000E7DEC77F0700E0101CA6F100E11
:102840003AD1A36BA46B07EC79F0C00E0101CA6FFB
:10285000110E3DEF18F0760E00016B6F020E6C6FDB
:1028600001018251020DE40EF324D96E020EF42010
:10287000DA6EDECF6DF0DDCF6EF07DEC68F00CEC43
:1028800079F0760E0001816F020E826F9EEC68F087
:10289000120E5CD7C00ECA6F900E196F7DBF08D0A4
:1028A0007D517C1129E1510E7A5DC30E7B5924E2E2
:1028B0007DAF09D0B00E7A5D3C0E7B59FF0E7C597E
:1028C000FF0E7D5919E3B7EC75F0640E00016B6FD4
:1028D000020E6C6F01018251020DA50EF324D96E18
:1028E000030EF420DA6EDECF6DF0DDCF6EF07DECFE
:1028F00068F0200E010119D0B8EC66F0640E6B6F21
:10290000020E6C6F01018251020D9B0EF324D96EF1
:10291000030EF420DA6EDECF6DF0DDCF6EF07DECCD
:1029200068F0010E0101176F310E1B6FC5EC78F0D6
:10293000640E0001816F020E826FCAEC64F02AEC13
:102940006EF072EC5EF09AEC72F070EF19F010EC31
:1029500078F0C00E0101CA6F210E8FD30CEC79F014
:10296000000E00016B6F090E6C6F01018251020DA8
:10297000B90EF324D96E030EF420DA6EDECF6DF0BB
:10298000DDCF6EF07DEC68F001015FA11CD0000E80
:1029900000016B6F090E6C6F170E6D6F1D0E6E6F61
:1029A00027EC64F001018251020DCD0EF324D96EA3
:1029B000030EF420DA6EDECF81F0DDCF82F0CAECB8
:1029C00064F0020E39D05FA51CD0000E00016B6FC1
:1029D000090E6C6FEF0E6D6F1E0E6E6F27EC64F0BC
:1029E00001018251020DDA0EF324D96E020EF42099
:1029F000DA6EDECF81F0DDCF82F0CAEC64F0010E3A
:102A00001BD0000E00016B6F090E6C6F730E6D6FA3
:102A1000240E6E6F27EC64F001018251020DC30E8B
:102A2000F324D96E030EF420DA6EDECF81F0DDCF11
:102A300082F0CAEC64F0030E0101186F220EA8D6D2
:102A4000000E00016B6F090E6C6F01018251020DC7
:102A5000AF0EF324D96E030EF420DA6EDECF6DF0E4
:102A6000DDCF6EF027EC64F0C5EC78F0230E6ED667
:102A70002AEC6EF072EC5EF09AEC72F0010E02013C
:102A8000246F7DEC77F0A00E0101CA6F240EDFD118
:102A9000C3EC6FF0010E0201246F250E57D6050E10
:102AA00018EC78F000090AE0000E7DEC77F0700E6B
:102AB0000101CA6F270E1C6F70EF19F0240E68D643
:102AC000A36BA46B5F970E990E9D0E9B0E9F07EC58
:102AD00079F0C00E0101CA6F280ECFD276C1A4F0E2
:102AE00077C1A5F02A0E1C6F68517A5D0001A06FB6
:102AF000010169517B590001A16F01016A517C59A3
:102B00000001A26F01016B517D590001A36FA3BFAA
:102B100099D0A35108E1D00EA05DFB0EA159010E82
:102B2000A25901E28FD0A3BF0AD0A35107E1210E21
:102B3000A05D3C0EA159030EA259D8B083D0EEEC93
:102B400073F021EE68F0DECF6BF0DDCF6CF00001AA
:102B5000000E6CBFFF0E6D6F6E6FE80E6F6F030E91
:102B6000706F716B726B6FEC4DF06BC0A7F06CC047
:102B7000A8F00101000E5FB3010E00016B6FA7C04A
:102B80006CF0A8C06DF0A9C06EF0A4C06FF0A5C035
:102B900070F0A6C071F0010E19EC65F021EE6CF03A
:102BA000DECF6BF0DDCF6CF0000E6CBFFF0E6D6FF3
:102BB0006E6FE80E6F6F030E706F716B726B6FEC60
:102BC0004DF06BC0A7F06CC0A8F00101000E5FB122
:102BD000010E00016B6FA7C06CF0A8C06DF0A9C01A
:102BE0006EF0A4C06FF0A5C070F0A6C071F0000E2A
:102BF00019EC65F0760E6B6F020E6C6F010182515D
:102C0000020DDA0EF324D96E020EF420DA6EDECF56
:102C10006DF0DDCF6EF07DEC68F0640E00016B6F3F
:102C2000020E6C6F01018251020DA50EF324D96EC4
:102C3000030EF420DA6EDECF6DF0DDCF6EF07DECAA
:102C400068F0CDD0A3AF9CD0310EA05D040EA15989
:102C5000FE0EA259FF0EA35901E392D0A3AF0AD0F2
:102C6000E00EA05DC30EA159FC0EA259FF0EA359A0
:102C700001E286D0DDEC70F021EE68F0DECF6BF083
:102C8000DDCF6CF00001000E6CBFFF0E6D6F6E6F3C
:102C9000E80E6F6F030E706F716B726B6FEC4DF01F
:102CA0006BC0A7F06CC0A8F00101000E5FB3010E6D
:102CB00000016B6FA7C06CF0A8C06DF0A9C06EF0EA
:102CC000A4C06FF0A5C070F0A6C071F0010E19ECA1
:102CD00065F021EE70F0DECF6BF0DDCF6CF0000E12
:102CE0006CBFFF0E6D6F6E6FE80E6F6F030E706F2F
:102CF000716B726B6FEC4DF06BC0A7F06CC0A8F0FD
:102D00000101000E5FB5010E00016B6FA7C06CF0F2
:102D1000A8C06DF0A9C06EF0A4C06FF0A5C070F09F
:102D2000A6C071F0020E19EC65F00101256B760E5C
:102D300000016B6F020E6C6F01018251020DCD0E0E
:102D4000F324D96E030EF420DA6EDECF6DF0DDCF02
:102D50006EF07DEC68F0640E00016B6F020E6C6F1C
:102D600001018251020DA50EF324D96E030EF42049
:102D7000DA6EDECF6DF0DDCF6EF07DEC68F02FD037
:102D8000010E0101176FB8EC66F0760E6B6F020E44
:102D90006C6F01018251020DC30EF324D96E030E34
:102DA000F420DA6EDECF6DF0DDCF6EF07DEC68F0F2
:102DB000640E00016B6F020E6C6F01018251020DF7
:102DC0009B0EF324D96E030EF420DA6EDECF6DF085
:102DD000DDCF6EF07DEC68F0310E01011C6F0CEC64
:102DE00079F0760E0001816F020E826F9EEC68F022
:102DF000C5EC78F0290EAAD4640E0001816F020E92
:102E0000826F9EEC68F02AEC6EF072EC5EF09AEC49
:102E100072F0C00E0101CA6F900E196F1CC11BF138
:102E20005FD2A00ECA6F8B5103E05FB15FA502D0E5
:102E3000300E0DD0200E1A6F73D45A9D5F9713EC8D
:102E40003FF001019A6B010E996F8CD1420E1A6FFF
:102E500047D2030E18EC78F0000901E141D2420E8E
:102E600097D407EC79F0410E0101196FC00E6ED4B2
:102E70000CEC79F001018251020DD70EF324D96ECA
:102E8000030EF420DA6EDECF81F0DDCF82F0CAECE3
:102E900064F0C5EC78F001018251020DD00EF324EC
:102EA000D96E020EF420DA6EDECF81F0DDCF82F033
:102EB000CAEC64F00101B86BB96BA36BA46B900E04
:102EC000CA6F800ED2D076EC78F0C00E0101CA6FC6
:102ED000430ED3D000019E6B9F6B0101266B836B69
:102EE00000018A6B896BD3EC63F00101CA6B246B20
:102EF0008AEC79F0200E11EC79F0F2D1B00ECA6FA5
:102F0000510EBBD00CEC79F001018251020DD70EAD
:102F1000F324D96E030EF420DA6EDECF81F0DDCF1C
:102F200082F0CAEC64F0C5EC78F001018251020D28
:102F3000AA0EF324D96E040EF420DA6EDECF81F0EF
:102F4000DDCF82F0CAEC64F0A00E0101CA6FB00EB2
:102F50001A6F520E92D00CEC79F001018251020DE1
:102F6000BE0EF324D96E040EF420DA6EDECF81F0AB
:102F7000DDCF82F0CAEC64F0C5EC78F0010182513B
:102F8000020DB40EF324D96E040EF420DA6EDECFF7
:102F900081F0DDCF82F0CAEC64F0530EA6EF13F09F
:102FA000030E5D1904E1B00ECA6F540E66D0040E14
:102FB0005D1901E095D1B00ECA6F550E5ED00CECD4
:102FC00079F001018251020DC80EF324D96E040E6E
:102FD000F420DA6EDECF81F0DDCF82F0CAEC64F04F
:102FE000B8EC66F0900E0101CA6FA00E1B6F2ED7D1
:102FF0000CEC79F001018251020DD00EF324D96E50
:10300000020EF420DA6EDECF81F0DDCF82F0CAEC62
:1030100064F0E8D7A36BA46B76EC78F0610E24D74C
:10302000B8EC66F0200E816F400E41EC74F00101A7
:103030001851CFEC5DF0620EA6EF13F0C5EC78F0FE
:1030400001018251020DA00EF324D96E040EF4206A
:10305000DA6EDECF81F0DDCF82F0CAEC64F0C00E14
:103060000101CA6F900E196F310E1B6F39D110EC30
:1030700078F0C00E0101CA6F710E196F31D118516D
:10308000CFEC5DF0720EA6EF13F07AC16FF07BC14A
:1030900070F07CC171F07DC172F0000E6BEC37F006
:1030A00000019D6B01011D6B1F6B1E6B02014C6BC0
:1030B0004D6BC5EC78F001011D51A5EC6CF0730E61
:1030C000A6EF13F0C3EC6FF002014C4B4D2BAC0E8E
:1030D0004C5D260E4D5905E3010E0101176F600E80
:1030E000CA6F01011F2B090E1F65FAD01F6B7AC131
:1030F0006FF07BC170F07CC171F07DC172F0010E88
:103100006BEC37F000019D6F01011E2B02014D5148
:1031100004E1320E4C5D01E2E3D0010E01011E65B7
:10312000DFD01E6BC5EC78F000019D5101011D5DE3
:1031300005E21D2B1D51A5EC6CF0D2D0060E1D1919
:1031400001E0CED01CC1CAF1CBD03FEC31F013EC82
:103150003FF001015FA306D0020E9A6FD00E996F67
:103160005A8D5F87A00ECA6F71D6256B910EC8EF7E
:1031700013F0252B310E2565B3D01BC1CAF1B0D099
:10318000000E18EC78F0000901E1AAD01AC1CAF1CA
:10319000A7D010EC78F06AD6FCEC71F0000901E1E0
:1031A0009FD010EC72F0000901E19AD019C1CAF168
:1031B00097D0CA5102E171EF13F0010A02E194EFD6
:1031C00013F0030A02E1A8EF13F0070A02E1B7EFD8
:1031D00013F0030A02E1CBEF13F00E0A02E1D1EF84
:1031E00013F0010A02E10DEF14F0030A02E114EFFB
:1031F00014F01A0A02E121EF14F0010A02E12BEFA8
:1032000014F0030A02E14AEF14F0320A02E1A7EFD8
:1032100014F0010A02E1AEEF14F0030A01E110D448
:10322000010A01E125D4070A01E132D4010A01E1D2
:1032300036D4020A01E144D40F0A01E14FD4010A55
:1032400001E1DAD5030A01E1ECD51A0A01E1F5D56D
:10325000010A01E1FED5710A01E103D6010A01E18B
:1032600007D6030A01E12FD6010A01E133D6130A7A
:1032700001E144D6010A01E145D6030A01E16BD61A
:10328000010A01E18DD6070A01E199D6010A01E19F
:10329000AFD6350A01E1BED6010A01E1C1D6030A63
:1032A00001E1CCD6120A01E1E2D6010A01E1E7D63A
:1032B000030A01E1EAD6010A01E104D7F30A01E1B8
:1032C00044D7100A01E151D7010A01E152D7310A6E
:1032D00001E156D7100A01E15CD7700A01E15CD721
:1032E0009EC09BF09FC09CF0120064EF1EF0250E64
:1032F000DA191CE084EC1EF011E0B651D96E7CECBA
:103300001EF002D864EF1EF00500FA6EBA51FD6E91
:10331000BB51FE6EFF6AFA50DA51120070EC1EF0DB
:10332000DAC0DFFF94EC1EF064EF1EF0D66BD76BB3
:10333000D46BD56B03D0D485B74BB82BC3EC1EF040
:10334000300AF9E0C3EC1EF09EEC74F01CE3D66B7F
:10335000D76BD6C06BF0D7C06CF056EC1FF0C0EC4A
:1033600072F06BC0D6F06CC0D7F0B7C0F6FFFAECC5
:103370001EF0D627BC51D723B74BB82BC3EC1EF099
:103380009EEC74F0E6E2C3EC1EF02E0A22E1D58D2D
:10339000B74BB82BD86BD96B15D0D8C06BF0D9C050
:1033A0006CF056EC1FF0C0EC72F06BC0D8F06CC043
:1033B000D9F0B7C0F6FFFAEC1EF0D827BC51D923DC
:1033C000B74BB82BC3EC1EF09EEC74F001E2B3D007
:1033D000E4D7D86BD96BD589AED0D489ACD0D5859C
:1033E000C2D0B951D96EDA6A020EDF26DF5CD96E1F
:1033F000DA6ADECFC3F0DECFC4F0C351C41104E1FA
:10340000E30EC36F240EC46FC56BC66B03D00001FF
:10341000C54BC62BC551C325BA6FC651C421BB6F5E
:10342000BAC0F6FFBBC0F7FF000EF86E0F0EF764D0
:1034300003D00800F55003D033EC48F0EF500009FA
:10344000E6E10001D851D9110BE0C5515FEC1FF046
:10345000C651800ABA5904E2D8C0C5F0D9C0C6F036
:10346000D651C55DD751C65905E2C551D65FC65183
:10347000D75B1AD0D66BD76B17D084EC1EF00FE059
:10348000B651D96E7CEC1EF001D80ED00500FA6E54
:10349000BA51FD6EBB51FE6EFF6AFA50200C70EC03
:1034A0001EF0200E8CEC1EF00001D607D8A0D70726
:1034B000D629E3E1D72934E0E0D784EC1EF01EE002
:1034C000B651D96E7CEC1EF001D814D00500FA6E0E
:1034D000BA51FD6EBB51FE6EFF6AFA503AEC1FF016
:1034E0000F0EF76403D00800F55003D033EC48F01A
:1034F000EF5012000001C34BC42B12D03AEC1FF066
:10350000EFDB0F0EF76403D00800F55003D033EC67
:1035100048F0EF50DF6E0001C34BC42B94EC1EF05B
:10352000C507D8A0C607C529C8E1C62901E1CCD383
:10353000C4D7D48D18D0B7C0F6FFB8C0F7FF32ECAF
:103540001FF001E1CAD3640A0EE0020A01E147D785
:103550000F0A09E0050A01E140D71F0A01E141D73E
:10356000060AE7E0B1D3070ED51501E181D2D5A94E
:1035700003D0D96B060ED86FB951D96EDA6ADFCF96
:10358000BAF0030EDF26BA51D96EDA6ADECFD1F077
:10359000DECFD2F0DDCFD3F0D3AF10D0D1C06BF0FF
:1035A000D2C06CF0D3C06DF039EC76F06BC0D1F0C6
:1035B0006CC0D2F06DC0D3F0030ED413C76BC86BD0
:1035C000D151D211D31169E0820EBA6FBB69D1C05B
:1035D000BCF0D2C0BDF0D3C0BEF0D4C0BFF0100E5E
:1035E00005D0D890BF33BE33BD33BC33E82EF9D7F6
:1035F000BC51BA25C76F000EBB21C86FC707D8A042
:10360000C807C7C06BF0C8C06CF06E6B030E6D6F5F
:10361000C0EC72F06BC0C7F06CC0C8F0C7C071F0EE
:10362000C8C072F03BEC31F08EEC5BF071C0C7F0BB
:1036300072C0C8F0C8AF03D0C707D8A0C807C75129
:10364000000884EC34F041EC1FF0CDC079F0CEC01E
:103650007AF0CFC07BF048EC1FF051EC4CF079C011
:10366000CDF07AC0CEF07BC0CFF0E3DB6E6B800E86
:103670006F6F3F0E706F54EC63F004E2C707D8A081
:10368000C8070BD0D6DB6E6B200E6F6F410E706FCC
:1036900054EC63F002E3C74BC82BD9BF05D0D95116
:1036A0001AE10D0ED85D17E2D1C092F0D2C093F0AE
:1036B000D3C094F0D85199EC41F088C095F089C0FE
:1036C00096F08AC097F0BDEC3FF092C0D1F093C065
:1036D000D2F094C0D3F0C8BF05D0C85116E10A0E8D
:1036E000C75D13E2D151D211D3113CE0D8DBE6EC37
:1036F0004EF08F5190119111921134E1C8BF32D028
:10370000C85103E1020EC75D2DE393DB700E6E6FAF
:10371000890E6F6F400E706F54EC63F0F70ED8B0E7
:10372000F80EC727FF0EC823C75184EC34F0A9DB7D
:10373000D1C06BF0D2C06CF0D3C06DF0CDC06EF0D4
:10374000CEC06FF0CFC070F0F7EC49F06BC0C9F09D
:103750006CC0CAF06DC0CBF06EC0CCF0D16BD26B38
:10376000D36B24D09CDBE6EC4EF06ADBD1C0B0F02A
:10377000D2C0B1F0D3C0B2F0C9C073F0CAC074F007
:10378000CBC075F0CCC076F08DEC65F073C0B3F0B3
:1037900074C0B4F075C0B5F0F6EC6CF0B0C0D1F008
:1037A000B1C0D2F0B2C0D3F0C76BC86B010EDA6FF4
:1037B000C2DA2EDB04E3DA2B0A0EDA19F9E1DA5168
:1037C000D825BA6F000ED921BB6FC751BA27C8518F
:1037D000BB23BA51D65FBB51D75BD851D91103E097
:1037E000D607D8A0D70720DB03E0D607D8A0D70795
:1037F000D4A54CD019DB2BE087DA0EE0B651D96E98
:103800007BDA01D824D00500FA6EBA51FD6EBB51A7
:10381000FE6EFF6AFA502D0C63DA2D0E7DDA17D09A
:1038200073DA0EE0B651D96E67DA01D80CD0050014
:10383000FA6EBA51FD6EBB51FE6EFF6AFA50300C43
:103840004FDA300E69DA0001D607D8A0D707000199
:10385000D7BF4ED0D751E4E1D6054AE3E1D754DAD9
:103860000EE0B651D96E48DA01D80CD00500FA6ED8
:10387000BA51FD6EBB51FE6EFF6AFA50200C30DA71
:10388000200E4ADA0001D607D8A0D707D7BF04D048
:10389000D751E5E1D605E3E2C7DA2AE035DA0EE0F2
:1038A000B651D96E29DA01D823D00500FA6EBA5183
:1038B000FD6EBB51FE6EFF6AFA502D0C11DA2D0E13
:1038C00016D08FDA38DA67DA16EC5BF046DAA7EC56
:1038D0005FF07EDA19DA08E0B651D96E0DDA01D858
:1038E00007D00500FA6E7AD0FBD9CD51300F14DA2B
:1038F0000001DA07DA2918E0E4D706DA0EE0B6515B
:10390000D96EFAD901D80CD00500FA6EBA51FD6E05
:10391000BB51FE6EFF6AFA50300CE2D9300EFCD972
:103920000001C707D8A0C807C8BF04D0C851E5E147
:10393000C705E3E2D9BF08D0D95103E1090ED85D2C
:1039400003E3080EDA6F02D0D8C0DAF0DA51D85F9C
:10395000000ED95BDA5113E0D7D90EE0B651D96E1B
:10396000CBD901D80CD00500FA6EBA51FD6EBB510F
:10397000FE6EFF6AFA502E0CB3D92E0ECDD900017F
:10398000DA5184EC34F088C0C0F089C0C1F08AC03C
:10399000C2F07EDAC0C079F0C1C07AF0C2C07BF05C
:1039A00051EC4CF079C08FF07AC090F07BC091F070
:1039B000E6EC4EF045DA3CD014DABDD9ECD916EC81
:1039C0005BF0CBD9A7EC5FF003DA9ED90EE0B651DD
:1039D000D96E92D901D80DD00500FA6EBA51FD6E9C
:1039E000BB51FE6EFF6AFA506FD27AD9CD51300FBB
:1039F00093D9C9C078F0CAC079F0CBC07AF0CCC0F6
:103A00007BF0000198D9F5CF7CF00900F5CF7DF06F
:103A10000900F5CF7EF00A00F5CF7FF0A7EC5FF04C
:103A200078C0C9F079C0CAF07AC0CBF07BC0CCF0C6
:103A3000DA07DA2918E0C0D767D90EE0B651D96E97
:103A40005BD901D80CD00500FA6EBA51FD6EBB519E
:103A5000FE6EFF6AFA50300C43D9300E5DD900017A
:103A6000D807D8A0D907D851D91101E12DD1E4D771
:103A7000D4BD1BD0D4A902D09AD90AD0EAD9DECFBE
:103A8000C9F0DDCFCAF0000ECABFFF0ECB6FCC6FFE
:103A9000CCAF1AD0030ED413CC1FCB1FCA1FC96DD5
:103AA000000ECA23CB23CC230FD0D4A902D07FD9B8
:103AB0000BD0CFD9DECFBAF0DDCFBBF0BAC0C9F0A2
:103AC000BBC0CAF0CB6BCC6BD851D91107E1C9513F
:103AD000CA11CB11CC1102E1D84BD92B010EDA6FF0
:103AE0002AD996D904E3DA2B0A0EDA19F9E1DA5168
:103AF000BA6FBB6BD851DED9D951800ABC5903E2E9
:103B0000D8C0DAF00FD0DA51BA6FBB6BBA51D85DBA
:103B1000D951800ABC6FBB51800ABC5903E2DAC09C
:103B2000D8F0D96BD651D71105E07ED903E0D6077E
:103B3000D8A0D707D5AD0DD0D651C1D9D751800A5D
:103B4000BA5905E2D851D65FD951D75B02D0D66BAE
:103B5000D76BDA51BA6FBB6BD651ACD9D751800A4B
:103B6000BC5905E2DA51D65F000ED75B02D0D66BA6
:103B7000D76BD4A532D058D913E0C6D80EE0B651D1
:103B8000D96EBAD801D80CD00500FA6EBA51FD6EC4
:103B9000BB51FE6EFF6AFA502D0CA2D82D0EBCD878
:103BA0000001D651D71101E187D0AED80EE0B65151
:103BB000D96EA2D801D80CD00500FA6EBA51FD6EAC
:103BC000BB51FE6EFF6AFA50300C8AD8300EA4D872
:103BD0000001D607D8A0D707E4D7D651D7111AE0ED
:103BE00093D80EE0B651D96E87D801D80CD0050015
:103BF000FA6EBA51FD6EBB51FE6EFF6AFA50200C90
:103C00006FD8200E89D80001D607D8A0D707D65183
:103C1000D711E6E109D950E077D80EE0B651D96E58
:103C20006BD801D849D00500FA6EBA51FD6EBB5170
:103C3000FE6EFF6AFA502D0C53D82D0EDF6E3BD06E
:103C4000D8C0BAF0D9C0BBF0D890BA37BB37D8903B
:103C5000BA37BB37750EBA25F66E110EBB21F76E5B
:103C600077D899D8BED816EC5BF06BC078F06CC0F2
:103C700079F06DC07AF06EC07BF00A0E7C6F7D6BC0
:103C80007E6B7F6BA7EC5FF07851300FDA6F3CD81A
:103C90000FE0B651D96E30D801D80ED00500FA6EBB
:103CA000BA51FD6EBB51FE6EFF6AFA50DA51120036
:103CB00017D8DAC0DFFF38D80001D807D8A0D90755
:103CC000D829BEE1D929BCE1B7C0F6FFB8C0F7FFDB
:103CD0000001C8D802E077EF19F0B66BB76B12009D
:103CE000B651D96EDA6ADECFBAF0DDCFBBF0BAC01A
:103CF000D9FFBBC0DAFF1200DA6A020ED926DECF86
:103D0000BAF0DDCFBBF0020CB651D96EDA6A020E02
:103D1000D926DE50DE101200DF6EB651D96EDA6A97
:103D2000DE2A000EDD22000CB651D96EDA6ADE2AD8
:103D3000000EDD22000CDA51040D750EF324F66E30
:103D4000110EF420F76EF86A000EF8220900120036
:103D5000F86A000EF822090012006BC0CDF06CC0AA
:103D6000CEF06DC0CFF06EC0D0F0CDC078F0CEC038
:103D700079F0CFC07AF0D0C07BF00A0E7C6F7D6BFB
:103D80007E6B7F6B0A0CB7C0F6FFB8C0F7FFF86A0E
:103D90000800F5501200F5CF6FF00900F5CF70F074
:103DA0000900F5CF71F00A00F5CF72F01200B95199
:103DB000D96EDA6A040EDF26DF5CD96EDA6ADECFEE
:103DC000C9F0DECFCAF0DECFCBF0DECFCCF01200F0
:103DD00078C0CDF079C0CEF07AC0CFF07BC0D0F003
:103DE0001200C9C06BF0CAC06CF0CBC06DF0CCC083
:103DF0006EF01200B8C0F7FFF86A0800F5CFBAF00D
:103E0000D00EBA25BB6FBC6BFF0EBC23BB5112009A
:103E1000F550C95D0900F550CA590900F550CB5954
:103E20000900F550CC591200D4C0BAF0030EBA17ED
:103E3000030CCDC06BF0CEC06CF0CFC06DF01200A3
:103E40008FC0C9F090C0CAF091C0CBF092C0CCF046
:103E50001200B951D96EDA6ADF50DF2ADF2AD96E33
:103E6000DA6A1200B74BB82BF86A0800F5CFDAF01F
:103E7000DA511200C3C0F6FFC4C0F7FF000EF86E9F
:103E8000120088C0CDF089C0CEF08AC0CFF01200F9
:103E9000D1C07CF0D2C07DF0D3C07EF01200D1C082
:103EA0008FF0D2C090F0D3C091F012006E6B0A0E6A
:103EB0006D6F0A0CBA5DBB51800ABC6F1200D85DF1
:103EC000D951800ABA6F1200CD51300F120076C05E
:103ED00081F077C082F025D3800E6D6F6E6BBBDBF7
:103EE00043EC6EF08051010183190EE0830E000156
:103EF0006F6F010E706F726B716B010E736F60EC00
:103F00006DF079DBA30E94D3800E7ADBADDB43EC4E
:103F10006EF080510101B1190EE0B10E00016F6F1A
:103F2000010E706F726B010E716F736F60EC6DF04C
:103F300062DBAA0E7DD37E0E63DB92DB43EC6EF078
:103F40007E510101841905E100017F5101018519AC
:103F50000EE0840E00016F6F010E706F726B020E27
:103F6000716F736F60EC6DF046DBB10E61D37E0E46
:103F700047DB040E59DB43EC6EF07E5101018619DC
:103F800005E100017F51010187190DE0860E000156
:103F90006F6F010E706F726B040E51DB60EC6DF091
:103FA0002ADBB80E45D37E0E2BDB060E3DDB43EC41
:103FB0006EF07E510101881905E100017F51010178
:103FC00089190DE0880E00016F6F010E706F726B22
:103FD000060E35DB60EC6DF00EDBBF0E29D37E0ED6
:103FE0000FDB080E21DB43EC6EF07E5101018D19D1
:103FF00005E100017F5101018E190DE08D0E0001D8
:104000006F6F010E706F726B080E19DB60EC6DF054
:10401000F2DAC60E0DD37E0EF3DA0A0E05DB43ECA0
:104020006EF07E5101018F1905E100017F51010100
:1040300090190DE08F0E00016F6F010E706F726BA3
:104040000A0EFDDA60EC6DF0D6DACD0EF1D2800EFC
:10405000D7DA0C0EE5DA43EC6EF0805101019119CC
:104060000DE0910E00016F6F010E706F726B0C0E00
:10407000E2DA60EC6DF0BFDAD40EDAD2800EC0DA8C
:104080000D0ECEDA43EC6EF08051010193190DE074
:10409000930E00016F6F010E706F726B0D0ECBDA15
:1040A00060EC6DF0A8DADB0EC3D2800EA9DA0E0E3A
:1040B000B7DA43EC6EF0805101018A190DE08A0EE7
:1040C00000016F6F010E706F726B0E0EB4DA60EC50
:1040D0006DF091DAE20EACD2800E92DA0F0EA0DA19
:1040E00043EC6EF08051010182190DE0820E000157
:1040F0006F6F010E706F726B0F0E9DDA60EC6DF0DA
:104100007ADAE90E95D2800E7BDA100E89DA43EC6A
:104110006EF0805101015F190DE05F0E00016F6FBD
:10412000010E706F726B100E86DA60EC6DF063DA60
:10413000F00E7ED27A0E64DA110E85DA43EC6EF060
:104140007A51010168190FE100017B5101016919E0
:104150000AE100017C5101016A1905E100017D516C
:1041600001016B190DE0680E00016F6F010E706F99
:10417000726B110E6CDA60EC6DF03DDAF70E58D20E
:104180007A0E3EDA150E5FDA43EC6EF07A510101D9
:104190006C190FE100017B5101016D190AE1000169
:1041A0007C5101016E1905E100017D5101016F197A
:1041B0000DE06C0E00016F6F010E706F726B150ECB
:1041C00046DA60EC6DF017DAFE0E32D27A0E18DAAB
:1041D000190E39DA43EC6EF07A51010170190FE1D2
:1041E00000017B51010171190AE100017C510101BB
:1041F000721905E100017D51010173190DE0700E86
:1042000000016F6F010E706F726B190E20DA60EC97
:104210006DF0F1D9050EF9D1800EF2D9230E00DA36
:1042200043EC6EF0805101018B190DE08B0E000103
:104230006F6F010E706F726B230EFDD960EC6DF025
:10424000DAD90C0EE2D1800EDBD9240EE9D943EC89
:104250006EF0805101018C190DE08C0E00016F6F22
:10426000010E706F726B240EE6D960EC6DF0C3D94D
:10427000130ECBD1800EC4D9290ED2D943EC6EF0E7
:104280008051010164190DE0640E00016F6F010E91
:10429000706F726B290ECFD960EC6DF0ACD91A0E2D
:1042A000B4D1800EADD92A0EBBD943EC6EF080514B
:1042B000010160190DE0600E00016F6F010E706F5B
:1042C000726B2A0EB8D960EC6DF095D9210E9DD194
:1042D0007E0E96D92B0EA8D943EC6EF07E510101CB
:1042E0003C1905E100017F5101013D190AE03C0E36
:1042F00000016F6F010E8DD960EC6DF07CD9280E36
:1043000084D17E0E7DD92D0E8FD943EC6EF07E5177
:104310000101461905E100017F51010147190AE039
:10432000460E00016F6F010E74D960EC6DF063D919
:104330002F0E6BD17E0E64D92F0E76D943EC6EF022
:104340007E510101501905E100017F510101511910
:104350000AE0500E00016F6F010E5BD960EC6DF04A
:104360004AD9360E52D17E0E4BD9310E5DD943EC6F
:104370006EF07E5101014C1905E100017F510101F0
:104380004D190AE04C0E00016F6F010E42D960EC2E
:104390006DF031D93D0E39D1800E32D9330E40D96E
:1043A00043EC6EF08051010192190DE0920E000174
:1043B0006F6F010E706F726B330E3DD960EC6DF054
:1043C0001AD9440E22D17E0E1BD9310E2DD943ECC1
:1043D0006EF07E5101017E1905E100017F5101015E
:1043E0007F190AE07E0E00016F6F010E12D960EC9A
:1043F0006DF001D94B0E09D10101145101E18ED0AC
:104400007A0EFED8250E1FD943EC6EF07A510101C9
:104410009F190FE100017B510101A0190AE1000180
:104420007C510101A11905E100017D510101A21991
:104430000DE09F0E00016F6F010E706F726B250E05
:1044400006D960EC6DF0D7D8540EDFD07E0ED8D8E8
:104450001D0EEAD843EC6EF07E510101991905E179
:1044600000017F5101019A190DE0990E00016F6F53
:10447000010E706F726B1D0EE2D860EC6DF0BBD850
:104480005B0EC3D0800EBCD81F0ECAD843EC6EF0B2
:10449000805101019B190DE09B0E00016F6F010E11
:1044A000706F726B1F0EC7D860EC6DF0A4D8620EEF
:1044B000ACD0800EA5D8200EB3D843EC6EF080515E
:1044C00001019C190DE09C0E00016F6F010E706FD1
:1044D000726B200EB0D860EC6DF08DD8690E95D05F
:1044E0007E0E8ED8210EA0D843EC6EF07E510101D5
:1044F0009D1905E100017F5101019E190DE09D0EFE
:1045000000016F6F010E706F726B210E98D860EC16
:104510006DF071D8700E79D00101146B6CD8010E5A
:1045200087D069D8DECF78F0DDCF79F0795103E01C
:10453000010A30E0D1D47851010AD8B41200A20A9D
:1045400001E1E2D4090A01E1F6D41B0A01E10FD529
:10455000090A01E128D5070A01E141D5790A01E1FB
:104560005AD50B0A01E173D5190A01E187D50F0A63
:1045700001E19BD5390A01E1AFD50B0A01E1C3D5B1
:10458000190A01E1D7D5070A01E1FAD5090A01E1C3
:104590001DD6A2D47851050A01E13ED6090A01E1EF
:1045A00052D61F0A01E166D6090A01E17AD63B0A12
:1045B00001E18ED6090A01E1A4D6070A01E1BAD6C3
:1045C000190A01E1D0D60B0A01E1E6D6790A01E128
:1045D000FAD60F0A01E110D71F0A01E137D70F0AF7
:1045E00001E150D7390A01E164D70B0A01E178D71C
:1045F000190A92E071D481C0D9FF82C0DAFF12009B
:1046000000016D6F6E6B706B1200DE6E010EDD6E61
:10461000010C706F726B310E716F020E736F020CB2
:104620006F6F010E716F010C6F6F020E716F020CD4
:10463000DE6EDD6A000C716F010E736F010C716F1D
:10464000020E736F020C6F6F040E716F040C716FAA
:10465000040E736F040C706B6F6B010E716F010CA5
:10466000020E6F6F716F020C010E6F6F716F010C94
:1046700021EEDBF0100EDE6AE806FDE2FCD2640EED
:1046800000016B6F020E6C6F01018251020D820EF0
:10469000F324D96E040EF420DA6EDECF6DF0DDCF98
:1046A0006EF07DEC68F0640E0001E86F020EE96FB9
:1046B000840EEA6F010EEB6F17EC59F0640E0001E7
:1046C0006B6F020E6C6F2D0E6D6F1A0E6E6F27ECF6
:1046D00064F0F4D2640E00016B6F020E6C6F010186
:1046E0008251020D780EF324D96E040EF420DA6E96
:1046F000DECF6DF0DDCF6EF07DEC68F0640E000172
:10470000E86F020EE96F740EEA6F010EEB6F010E97
:10471000EC6F08EC54F0640E00016B6F020E6C6FCE
:104720003D0E6D6F1B0E6E6F27EC64F0640E000182
:10473000E86F020EE96F780EEA6F010EEB6F010E63
:10474000EC6F4DEC48F0BAD2640E00016B6F020EB4
:104750006C6F01018251020D640EF324D96E040EB8
:10476000F420DA6EDECF6DF0DDCF6EF07DEC68F018
:10477000640E0001E86F020EE96F880EEA6F010E09
:10478000EB6F17EC59F0640E00016B6F020E6C6F4B
:104790002D0E6D6F1A0E6E6F27EC64F08FD2640EC3
:1047A00000016B6F020E6C6F01018251020D6E0EE3
:1047B000F324D96E040EF420DA6EDECF6DF0DDCF77
:1047C0006EF07DEC68F0640E0001E86F020EE96F98
:1047D000860EEA6F010EEB6F17EC59F0640E0001C4
:1047E0006B6F020E6C6F2D0E6D6F1A0E6E6F27ECD5
:1047F00064F064D2640E00016B6F020E6C6F0101F5
:104800008251020D5A0EF324D96E040EF420DA6E92
:10481000DECF6DF0DDCF6EF07DEC68F001018A51E6
:1048200015E1640E00016B6F020E6C6F0101825185
:10483000020D0A0EF324D96E040EF420DA6EDECFD8
:104840006DF0DDCF6EF027EC64F038D2640E00011D
:104850006B6F020E6C6F01018251020D000EF3248A
:10486000D96E040EF420DA6EDECF6DF0DDCF6EF07F
:1048700027EC64F023D2640E00016B6F020E6C6FA4
:1048800001018251020D500EF324D96E040EF42062
:10489000DA6EDECF6DF0DDCF6EF07DEC68F0DB0E12
:1048A0000001DB6F010EDC6F7D0EDD6F260EDE6F0B
:1048B0008DC1DFF08EC1E0F04EEC6FF0640E6B6FD7
:1048C000020E6C6FDB0E6D6F010E6E6F27EC64F0E5
:1048D000640E00016B6F020E6C6F01018251020DBC
:1048E000C20EF324D96E050EF420DA6EDECF6DF021
:1048F000DDCF6EF027EC64F0E1D1640E00016B6F48
:10490000020E6C6F01018251020D460EF324D96E26
:10491000040EF420DA6EDECF6DF0DDCF6EF07DECAC
:1049200068F0DB0E0001DB6F010EDC6F7D0EDD6FCA
:10493000260EDE6F8FC1DFF090C1E0F04EEC6FF01D
:10494000640E6B6F020E6C6FDB0E6D6F010E6E6F7F
:1049500027EC64F0640E00016B6F020E6C6F0101B6
:104960008251020DB80EF324D96E050EF420DA6ED2
:10497000DECF6DF0DDCF6EF027EC64F09FD1640EDA
:1049800000016B6F020E6C6F01018251020D3C0E33
:10499000F324D96E040EF420DA6EDECF6DF0DDCF95
:1049A0006EF07DEC68F0DB0E0001DB6F010EDC6F5A
:1049B000F90EDD6F250EDE6F9DC1DFF09EC1E0F0C8
:1049C0004EEC6FF0640E6B6F020E6C6FDB0E6D6F52
:1049D000010E6E6F27EC64F0640E00016B6F020E27
:1049E0006C6F8E0E6D6F260E6E6F27EC64F0DB0E13
:1049F0000001DB6F010EDC6FF90EDD6F250EDE6F3F
:104A00009CC1DFF0E06B4EEC6FF0640E6B6F020E3A
:104A10006C6FDB0E6D6F010E6E6F27EC64F0640E31
:104A200000016B6F020E6C6F8E0E6D6F260E6E6F37
:104A300027EC64F0DB0E0001DB6F010EDC6FF90E7A
:104A4000DD6F250EDE6F9BC1DFF0E06B4EEC6FF08B
:104A5000640E6B6F020E6C6FDB0E6D6F010E6E6F6E
:104A600027EC64F02BD1640E00016B6F020E6C6FAB
:104A700001018251020D320EF324D96E040EF4208E
:104A8000DA6EDECF6DF0DDCF6EF07DEC68F0DB0E20
:104A90000001DB6F010EDC6F700EDD6F260EDE6F26
:104AA0009FC1DFF0A0C1E0F0A1C1E1F0A2C1E2F03E
:104AB0004EEC6FF0640E6B6F020E6C6FDB0E6D6F61
:104AC000010E6E6F27EC64F0640E00016B6F020E36
:104AD0006C6F01018251020DAE0EF324D96E050EEA
:104AE000F420DA6EDECF6DF0DDCF6EF027EC64F0EF
:104AF000E5D0640E00016B6F020E6C6FF00E6D6FEF
:104B0000240E6E6F7DEC68F094C19EF095C19FF00D
:104B100096C1A0F097C1A1F00EEC5FF09EC0A8F086
:104B20009FC0A9F0A0C0AAF0AB6B7A0EAC6F440E88
:104B3000AD6FB1EC50F0A8C0D8F1A9C0D9F1AAC0AE
:104B4000DAF1DB0EDB6F010EDC6FC90EDD6F250EB7
:104B5000DE6FD8C1DFF0D9C1E0F0DAC1E1F04EEC90
:104B60006FF0640E6B6F020E6C6FDB0E6D6F010EDB
:104B70006E6F27EC64F0640E00016B6F020E6C6FB9
:104B8000FF0E6D6F250E6E6F27EC64F097D0640EEC
:104B900000016B6F020E6C6F870E6D6F250E6E6FCE
:104BA0007DEC68F00101645115E1640E00016B6F4A
:104BB000020E6C6F01018251080D420EF324D96E72
:104BC000060EF420DA6EDECF6DF0DDCF6EF027EC4E
:104BD00064F074D0010E11EC79F0640E6B6F020E6C
:104BE0006C6F01018251080D400EF324D96E060E40
:104BF000F420DA6EDECF6DF0DDCF6EF027EC64F0DE
:104C000030D0640E00016B6F020E6C6FDB0E6D6FA7
:104C1000250E6E6F27EC64F051D0640E00016B6FAF
:104C2000020E6C6F9F0E6D6F250E6E6F27EC64F099
:104C300045D0640E00016B6F020E6C6FA50E6D6F98
:104C4000250E6E6F27EC64F039D0640E00016B6F97
:104C5000020E6C6FAB0E6D6F250E6E6F27EC64F05D
:104C60002DD001016151CDE0010AD7E0030AE1E056
:104C7000ECD7000023D00101245101E100D5010A45
:104C800001E128D5030A01E15FD5010A01E187D5D9
:104C9000070A01E1AFD5010A01E1EDD5030A01E1FF
:104CA0002CD6010A01E16BD60F0A01E1DCD6010A1C
:104CB00001E11FD7030A01E16AD7DBD7C5EC78F021
:104CC000640E0001816F020E826F9EEF68F0C3D107
:104CD00089C0D9FF8AC0DAFFDF500101206F456A21
:104CE00076EC78F00101645104E11E0E0001F46FCE
:104CF0001E0C0A0E0001F46F0A0C020E80EC69F023
:104D0000760E6B6F020E6C6F8BC0D9FF8CC0DAFF12
:104D1000DECF6DF0DDCF6EF07DEC68F0640E00014B
:104D20006B6F020E6C6F20EE02F08B51D9268C5106
:104D3000DA22DECF6DF0DDCF6EF07DEC68F045500D
:104D400017E1760E00016B6F020E6C6F440E6D6FF3
:104D50001D0E6E6F27EC64F0640E00016B6F020E87
:104D60006C6F3D0E6D6F1B0E6E6F27EC64F016D0EE
:104D7000760E00016B6F020E6C6F3D0E6D6F1B0E99
:104D80006E6F27EC64F0640E00016B6F020E6C6FA7
:104D9000440E6D6F1D0E6E6F27EC64F0760E0001F1
:104DA0006B6F020E6C6F20EE04F08B51D9268C5184
:104DB000DA22DECF6DF0DDCF6EF027EC64F0640E0A
:104DC00000016B6F020E6C6F20EE06F08B51D9263E
:104DD0008C51DA22DECF6DF0DDCF6EF027EC64F07F
:104DE00086EC79F00001F42B12000101645104E11A
:104DF000000E06EC5EF0F6D7612906EC5EF0F2D705
:104E0000456A77D7010E456E0A0E0001F46F0A0C51
:104E100076EC78F0090E0101CA6F090C455001E0EB
:104E200064D7010E646F658311EC79F0100E11ECFC
:104E300079F076EC78F00F0E0001F46F0F0C0101A1
:104E40005D51010ADFE0030ADBE0010AE7E0070A3F
:104E5000D8A41200DDD7020E80EC69F0455001E0C5
:104E600044D7760E6B6F020E6C6F20EE04F08B5100
:104E7000D9268C51DA22DECF6DF0DDCF6EF07DECDD
:104E800068F086EC79F0100E0001F46F100C130E30
:104E9000F46F130C0201506B516BF40E000136D00D
:104EA00001016251631103E0A2EC64F09BD7FDECB9
:104EB00078F09AEC72F0E7D7040E01015D190AE16F
:104EC00076EC78F001016593100E11EC79F0090E83
:104ED0000101CA6F0201504B512BB00E505D040E00
:104EE00051590BE301016593100E11EC79F0040E9A
:104EF00011EC79F0140E0101CA6F010162516311C6
:104F0000D8A41200140E0001F46F140C6B6F6C6BBC
:104F1000000E46EF76F007EC79F064D7760E6B6FF3
:104F2000020E6C6F750E6D6F250E6E6F7DEC68F066
:104F3000640E00016B6F020E6C6F390E6D6F1B0EED
:104F40006E6F7DEC68F00101205117E1760E0001D3
:104F50006B6F020E6C6F3D0E6D6F1B0E6E6F27EC4C
:104F600064F0640E00016B6F020E6C6F440E6D6F87
:104F70001D0E6E6F27EC64F016D0760E00016B6F7D
:104F8000020E6C6F440E6D6F1D0E6E6F27EC64F099
:104F9000640E00016B6F020E6C6F3D0E6D6F1B0E89
:104FA0006E6F27EC64F0760E00016B6F020E6C6F73
:104FB00001018251080D680EF324D96E060EF4200B
:104FC000DA6EDECF6DF0DDCF6EF027EC64F0640EAC
:104FD00000016B6F020E6C6F01018251080D6A0EA9
:104FE000F324D96E060EF420DA6EDECF6DF0DDCF3D
:104FF0006EF027EC64F086EC79F0506B516BF2D6D2
:10500000F40E84D7010E206F1D0E0001F46F1D0CED
:10501000206B1D0E0001F46F1D0C3C0ECA6F3C0C82
:1050200089C0D9FF8AC0DAFF20C1DFFF20C164F147
:10503000010E11EC79F0320E0101CA6F320C010140
:105040005D51010AE5E0030ADDE0010AE9E0070A33
:10505000D8A41200E2D7F45101E13AD6090AD0E00F
:10506000030A01E14AD6010A01E1BFD6070AC8E0F6
:10507000010A01E1E4D6020A01E1EDD61F0A01E1CD
:1050800006D7030A01E106D7070A01E109D7010A99
:1050900001E112D7080AB4E0030A01E13CD7010A92
:1050A00001E13CD73F0AACE0010AC9E0120025C08B
:1050B0002DF026C02EF0BAD189802DC0D9FF2EC088
:1050C000DAFFA20EDE6EDD6A000C20EE06F025503F
:1050D000D9262650DA22C90EDE6EF50EDE6EC90E16
:1050E000DE6EF50EDD6EA0EC78F02DC0D9FF2EC07F
:1050F000DAFFA50EDE6EDD6A060E2524036E000EB5
:105100002620046EB40E056E020E066E040EB3EC7D
:1051100043F0000901E11200899020EE06F02550CD
:10512000D9262650DA2210EE04F02550E12626502A
:10513000E222DECFE6FFDDCFE5FF20EE04F02550D2
:10514000D9262650DA22DECF27F0DDCF28F027C07F
:1051500028F0276A296A28502A6E20EE04F025508C
:10516000D9262650DA22DECF2BF0DDCF2CF02CC052
:105170002BF02C6A2B50291220EE04F02550D92652
:105180002650DA2229C0DEFF2AC0DDFF20EE04F01F
:105190002550D9262650DA22DECF0FF0DDCF10F0D1
:1051A000B4C111F0B5C112F0CC0E146E136EA7ECA1
:1051B00045F00FC0B4F110C0B5F120EE04F0255059
:1051C000D9262650DA22B4C1DEFFB5C1DDFF31ECAD
:1051D00071F020EE0AF02550D9262650DA2209C0B7
:1051E000DEFF0AC0DEFF0BC0DEFF0CC0DEFF20EEDC
:1051F0000EF02550D9262650DA22430EDE6E0F0E11
:10520000DD6E20EE0EF02550D9262650DA22DECFB4
:10521000BBF1DDCFBCF120EE0AF02550D926265097
:10522000DA22DECFBDF1DECFBEF1DECFBFF1DECFC1
:10523000C0F12DC0D9FF2EC0DAFFB20EDE6EDD6ADE
:1052400020EE0AF02550D9262650DA22DECF1FF0B4
:10525000DECF20F0DECF21F0DECF22F020EE0EF008
:105260002550D9262650DA22DECF23F0DDCF24F0D8
:1052700066EC6FF0000901E1120089802DC0D9FFB2
:105280002EC0DAFFB50EDE6EDD6A000C20EE06F0F1
:105290002550D9262650DA22F90EDE6EF50EDE6E86
:1052A000F90EDE6EF50EDD6EA0EC78F02DC0D9FFA4
:1052B0002EC0DAFFB80EDE6EDD6A060E2524036E00
:1052C000000E2620046EB40E056E020E066E040E4D
:1052D000B3EC43F0000901E11200899020EE06F0E2
:1052E0002550D9262650DA2210EE02F02550E1266C
:1052F0002650E222DECFE6FFDDCFE5FF20EE02F012
:105300002550D9262650DA22DECF27F0DDCF28F02F
:1053100027C028F0276A296A28502A6E20EE02F05A
:105320002550D9262650DA22DECF2BF0DDCF2CF007
:105330002CC02BF02C6A2B50291220EE02F02550A5
:10534000D9262650DA2229C0DEFF2AC0DDFF20EE52
:1053500002F02550D9262650DA22DECF0FF0DDCF1D
:1053600010F0B2C111F0B3C112F0260E146E660E29
:10537000136EA7EC45F00FC0B2F110C0B3F120EEF0
:1053800002F02550D9262650DA22B2C1DEFFB3C181
:10539000DDFF31EC71F020EE0AF02550D9262650C1
:1053A000DA2209C0DEFF0AC0DEFF0BC0DEFF0CC040
:1053B000DEFF20EE0EF02550D9262650DA22430ECD
:1053C000DE6E0F0EDD6E20EE04F02550D92626503D
:1053D000DA22010EDBAE05D0500EDE5CC90EDE58BF
:1053E0000EE301015A8135C1D9FF36C1DAFF10EE53
:1053F0000DF0DE50E126DD50E222E7920FD00101F0
:105400005A9135C1D9FF36C1DAFF10EE0DF0DE50EA
:10541000E126DD50E222E7825A975A952DC0D9FF46
:105420002EC0DAFF010EDE6EDD6A000C2DC0D9FF42
:105430002EC0DAFFDECF27F0DDCF28F0285001E0C4
:105440003BD62750010AD8B41200A30A01E13DD689
:10545000070A01E151D6170A01E1F2D6070A01E174
:1054600015D70D0A01E129D727D60201524B532B3C
:10547000280E521903E1230E5319D8A459D1140E42
:105480000101CA6F3FEC31F001019351C0EC6CF0A7
:1054900001019151A9EC6BF04BD176EC78F0000151
:1054A000F26B0101276B010ECA6F010C5A6A5A0E8A
:1054B00000019B6F80EC35F0060E0101CA6F060CEF
:1054C0005A0E00019B6F80EC35F05A50D8A41200A0
:1054D000070E0101CA6F070C000E18EC78F00009E6
:1054E000D8B41200080ECA6F0201526B536B12003F
:1054F0001E0ECA6F0001F46B12000001F25106E0AB
:10550000F2070101270502E10101276B090E0101E4
:10551000CA6F090C0F0E0001F261F8D7F22B0101DE
:105520002751F4E1010E0101276FF0D7140ECA6F65
:10553000140C5D51010AEEE0030ADFE0010AD8E035
:10554000070AD8A41200F2D75A6A5A0E00019B6FBC
:1055500080EC35F00A0E0101CA6F0A0C5A0E0001E8
:105560009B6F80EC35F05A50D8A412000B0E01014D
:10557000CA6F0B0C000E18EC78F0000902E00C0E5C
:10558000CA6F5EA112005D0504E0020E5D19D8A489
:1055900012000C0ECA6F0C0C0201526B536B080EFA
:1055A0000101CA6F080C76EC78F0150E0101CA6F84
:1055B000150C000E18EC78F00009D8B41200160E85
:1055C000CA6F160C0001F26B01015A99246B040E8C
:1055D00011EC79F00101835103E1266BCA6B1200D3
:1055E000830528E10CEC79F001018251040D140EC1
:1055F000F324D96E050EF420DA6EDECF81F0DDCF14
:1056000082F0CAEC64F0C5EC78F001018251040D1F
:10561000160EF324D96E050EF420DA6EDECF81F07B
:10562000DDCF82F0CAEC64F09A0E0101216F170EF3
:10563000CA6F170C000012000A0E00016F6F010103
:105640002151DBEC6CF0796F7A6B7B6B010E7C6F18
:105650002FEC43F00101215102E0210702D0180E86
:10566000CA6F2AEC6EF0B1B102D00E9102D00101E6
:105670000E815AA102D00F8102D001010F918A51EF
:1056800004E10E850E930E8703D00E850E830E97D0
:1056900072EC5EF09AEC72F001015D51D8B4120028
:1056A000190ECA6F190C20EC78F0266BCA6B120029
:1056B00010EC78F01A0E0101CA6F1A0CC5EC78F0E4
:1056C00001018251020DD00EF324D96E020EF42096
:1056D000DA6EDECF81F0DDCF82F0CAEC64F01B0E13
:1056E0000101CA6F000E18EC78F00009D8B412005E
:1056F000180ECA6F180C0E0E0001F21901E112D734
:1057000003D776EC78F00101CA2B1200000E29ECC9
:1057100063F0460E0101CA6F460C010E29EC63F0DE
:10572000F8D7256BF0D7252B130E2565130CEED675
:105730000101CA5101E1B1D6010A01E1B7D6070A58
:1057400001E1BED6010A01E1C7D60F0A01E1F1D697
:10575000010A01E1F9D6030A01E100D7010A01E1DA
:1057600009D7070A01E118D7180A01E11CD7010A75
:1057700001E11FD7030A01E125D7010A01E15CD746
:105780000F0A91E0010A94E0030A98E0010AAAE0F6
:10579000050A02E18CEF2EF03E0AADE0120AB1E0FC
:1057A000010AB4E00F0AADE0010AB7E07B0AB9E0F4
:1057B000010AB9E012000001EE6F7DD184C158F0FA
:1057C00085C159F088C156F089C157F086C154F09F
:1057D00087C155F007EC79F0030E0001F46F030C5C
:1057E0005EB308D000016C6B0A0E6B6FEE51AAEC31
:1057F00042F007D000016C6B320E6B6FEE51AAECD9
:1058000042F00001F42B12005EB308D000016C6975
:10581000F60E6B6FEE51AAEC42F0F3D700016C6903
:10582000CE0E6B6FEE51AAEC42F0EBD73C0ECA6F76
:105830003C0C58C084F159C085F156C088F157C05E
:1058400089F154C086F155C087F1320ECA6F320C0F
:1058500001015D51010AD8E0030AC2E0010AE9E052
:10586000070AD8A41200E2D7D9EC76F0020E80EC39
:1058700069F068D0760E6B6F020E6C6F0101825179
:10588000040D7A0EF324D96E050EF420DA6EDECF05
:105890006DF0DDCF6EF07DEC68F058C071F059C04E
:1058A00072F00001746B0A0E736F8EEC5BF071C0C6
:1058B000ECF072C0EDF0ECC079F0EDC07AF0030EC0
:1058C0007B6F010E7C6F2FEC43F042D0760E6B6F36
:1058D000020E6C6F01018251040D2A0EF324D96E61
:1058E000060EF420DA6EDECF6DF0DDCF6EF07DECCB
:1058F00068F054C071F055C072F00001746B0A0E6C
:10590000736F8EEC5BF0D3D7760E6B6F020E6C6FFD
:1059100001018251040D160EF324D96E060EF420F7
:10592000DA6EDECF6DF0DDCF6EF07DEC68F056C044
:1059300071F057C072F00001746B0A0E736F8EEC39
:105940005BF0B5D7EE5196E0010AC0E0030ADCE057
:105950009AEC72F00CEC79F054D7760E816F020E4F
:10596000826F9EEC68F0C5EC78F07ED0640E6B6FB1
:10597000020E6C6F770E6D6F260E6E6F7DEC68F009
:10598000640E0001E86F020EE96F540EEA6FEB6BD4
:1059900017EC59F0640E00016B6F020E6C6F380E3D
:1059A0006D6F260E6E6F27EC64F0640E0001E86FD9
:1059B000020EE96F560EEA6FEB6B17EC59F021D728
:1059C000640E6B6F020E6C6F3D0E6D6F260E6E6F68
:1059D0007DEC68F0640E0001E86F020EE96F580E6E
:1059E000EA6FEB6B17EC59F0640E00016B6F020E5F
:1059F0006C6F380E6D6F260E6E6F27EC64F0640EC0
:105A00000001E86F020EE96F560EEA6FEB6B17ECC0
:105A100059F0F7D6640E6B6F020E6C6F770E6D6FD8
:105A2000260E6E6F7DEC68F0640E0001E86F020ECA
:105A3000E96F540EEA6FEB6B17EC59F0640E00013E
:105A40006B6F020E6C6F3C0E6D6F260E6E6F27EC47
:105A500064F0640E0001E86F020EE96F580EEA6F01
:105A6000EB6B17EC59F0CDD60001EE5101E17ED77A
:105A7000010AA6E0030ACEE0C4D6640E816F020ECE
:105A8000826F9EEC68F0BDD6F40E6B6F6C6B000EEF
:105A900046EC76F05EA104D05D0502E10001F42B36
:105AA00001015EA11200020E5D1901E1AAD61200E9
:105AB000020EF46F020C0001F45101E17FD6020ADC
:105AC00001E1C6D6010A01E1CFD6070A01E145D7B7
:105AD000010AD3E0030AD8E0010AEAE012001CD16F
:105AE000830E9B6F010E9C6F01018251080D780E91
:105AF000F32400019D6F070EC6D0000EDBEF2BF0E4
:105B00000101B151010ED8A4000EB16FB10E000118
:105B10009B6F010E9C6F01018251080D640EF324EE
:105B200000019D6F060EF4209E6FBDEC2EF001016A
:105B3000B151010ED8A4000EB16FB1B102D0609185
:105B400002D0010160811200020EDBEF2BF0010E8A
:105B5000DBEF2BF001018A51010ED8A4000E8A6FF1
:105B60008A0E00019B6F010E9C6F01018251080D8E
:105B7000500EF32400019D6F070EF4209E6FBDECC4
:105B80002EF001018A51010ED8A4000E8A6F8AB14D
:105B900002D0599302D001015983090ECA19D8A421
:105BA000120020EE02F03551D9263651DA2210EEDD
:105BB0000FF0DE50E126DD50E2228A51BFEC78F092
:105BC000E76E120001018251040DB40EF3240001AE
:105BD000826F060EF420836F8D0E846F010E0DD040
:105BE00001018251040DA00EF3240001826F060E04
:105BF000F420836F8F0E846F010E856F876B3C0ED0
:105C0000866F896B010E886F8B6B8A6F8D6B050EAB
:105C10008C6F8E6B010E8F6F906F80EF33F092C19F
:105C2000CCF20201CD6B01018251040D8C0EF324E4
:105C30000001826F060EF420836FCC0E846F020E7B
:105C4000856F876B640E866F896B140E886F8B6B04
:105C50008A6F8D6B8C6F8E6B010E8F6F906F80ECE7
:105C600033F0CCC292F1010192511CEF6CF08B0E1B
:105C70009B6F010E9C6F01018251080D280EF324C9
:105C800000019D6F070EF4209E6FBDEF2EF0010105
:105C90008C51010ED8A4000E8C6F8C0E00019B6FEE
:105CA000010E9C6F01018251080D3C0EF32400018E
:105CB0009D6F060EF4209E6FBDEC2EF001018C51FD
:105CC000010ED8A4000E8C6F8CB102D08C9601D03E
:105CD0008C861200640E896F010E8A6F0101825159
:105CE000080D000EF32400018B6F070EF4208C6F5B
:105CF00067EF26F0820E716F010E726F0101825103
:105D00000E0DA00EF3240001736F090EF420746FC2
:105D1000050E756F7AEF36F00001F25101E1E0D621
:105D2000010A01E1EAD6030A01E1EAD6010A01E12A
:105D30000BD7070A01E10BD7010A01E10BD7030AD0
:105D400001E140D7010A01E14BD70F0A01E167D712
:105D5000010A02E18BEF4BF0030A02E14CEF3CF049
:105D6000010A02E122EF42F0070A81E0010A8FE016
:105D7000030AB0E0010ABEE012000201246B24D144
:105D80009BC0D9FF9CC0DAFFDF50426E07EC79F070
:105D9000030E0001F46F030C420401E1426A0001AA
:105DA000F42B12004250FBE1010E426EF8D73C0E7C
:105DB000CA6F3C0C0001F25109E1420407E1010104
:105DC0005FB304D0140E0001F46F140C9BC0D9FF14
:105DD0009CC0DAFF42C0DFFF320E0101CA6F320CF5
:105DE00001015D51010ADEE0030AD6E0010AE2E0AA
:105DF000070AD8A41200DBD7E8EC79F00009D8B480
:105E00001200760E6B6F020E6C6F9DC0D9FF9EC0A4
:105E1000DAFFDECF6DF0DDCF6EF07DEC68F0640E62
:105E200000016B6F020E6C6F20EE02F09D51D926BF
:105E30009E51DA22DECF6DF0DDCF6EF07DEC68F0A2
:105E4000425017E1760E00016B6F020E6C6F440E2C
:105E50006D6F1D0E6E6F27EC64F0640E00016B6FAA
:105E6000020E6C6F3D0E6D6F1B0E6E6F27EC64F0B3
:105E700016D0760E00016B6F020E6C6F3D0E6D6FCB
:105E80001B0E6E6F27EC64F0640E00016B6F020E48
:105E90006C6F440E6D6F1D0E6E6F27EC64F0760E06
:105EA00000016B6F020E6C6F20EE04F09D51D9263D
:105EB0009E51DA22DECF6DF0DDCF6EF027EC64F07C
:105EC000640E00016B6F020E6C6F20EE06F09D51A8
:105ED000D9269E51DA22DECF6DF0DDCF6EF027ECB1
:105EE00064F086EC79F05BD710EC72F00009D8B45E
:105EF000120045D0020EF46F020C000E6B6F090EFB
:105F00006C6F01018251020D280EF324D96E040E2C
:105F1000F420DA6EDECF6DF0DDCF6EF07DEC68F050
:105F200010EC78F03CD70CEC79F001018251020DB5
:105F3000140EF324D96E040EF420DA6EDECF81F055
:105F4000DDCF82F0CAEC64F02AD7C5EC78F001010D
:105F50008251020D1E0EF324D96E040EF420DA6E67
:105F6000DECF81F0DDCF82F0CAEC64F0010E0201D9
:105F7000286F080E296F010E7DEC77F010D7F40E14
:105F80006B6F6C6B000E46EF76F01B0EF46F1B0C04
:105F9000000E7DEC77F09BC0D9FF9CC0DAFF42C0B9
:105FA000DFFF320E04D0000E7DEC77F03C0E0101D5
:105FB000CA6F06D001015D51030AEAE0070AF3E067
:105FC000180E0001F46F180C0001F45101E1D8D64D
:105FD000020A01E105D7010A01E10ED7070A84E0B0
:105FE000010A88E0110A89E0010A9DE0030AADE098
:105FF000010AC5E00F0AC9E0010AC7E0020ADAE0B7
:10600000120020EC79F06BC0C4F16CC0C5F1010145
:106010005AA1B4D05A955A97FDD8D7D8E796FAD84E
:10602000D4D8E794F00E0001C06FE10EC16F410EAD
:10603000C26F07D911EC6DF010D9FE0E7C6FE80E1F
:106040007D6F3A0E7E6F51EC4CF0C6D8BDEC3FF040
:106050000BD9F7D811EC6DF000D9F3D811EC6DF035
:10606000F5D851EC4CF079C0BDF0C9D8460E7C6F24
:10607000DE0E7D6FB20E7E6F51EC4CF0ADD8BDECF4
:106080003FF0F2D8DED811EC6DF0E7D8DAD811EC99
:106090006DF0DCD851EC4CF079C0BDF0B0D8D1D85F
:1060A00011EC6DF0D3D851EC4CF079C0BDF0A7D80D
:1060B0006D0E7C6FA00E7D6F2B0E7E6F51EC4CF041
:1060C0008BD8BDEC3FF0D0D8C0C079F0C1C07AF019
:1060D000C2C07BF07C6B200E7D6F410E7E6F51EC59
:1060E0004CF079C0C0F07AC0C1F07BC0C2F0C0C033
:1060F000B7F0C1C0B8F0C2C0B9F052EC5BF094D8B0
:10610000E6EC4EF08FC076F190C077F183D810EEB8
:1061100006F085D876C1E6FF77C1E5FFC0C0A8F0DC
:10612000C1C0A9F0C2C0AAF0AB6B200EAC6F410E8B
:10613000AD6FB1EC50F0A8C0B7F0A9C0B8F0AAC0DC
:10614000B9F052EC5BF070D8E6EC4EF08FC074F111
:1061500090C075F1010175BF0AD0755103E1330E8E
:10616000745D05E35A8556D830D8E78611D075AFEF
:106170000FD05A874FD829D8E7840AD0756B140EF0
:10618000746F48D810EE06F04AD8C80EE66EE56A7D
:10619000FAEC60F000016E6B120E6D6FC0EC72F0E5
:1061A0006BC078F16CC079F178C171F079C172F08F
:1061B00062D88EEC5BF071C078F172C079F1200E7C
:1061C00001017827000E7923000C10EE0DF0DE504F
:1061D000E126DD50E222120079C0BDF07AC0BEF0A7
:1061E0007BC0BFF0C0C092F0C1C093F0C2C094F0B9
:1061F000BDC095F0BEC096F0BFC097F012007AC047
:10620000BEF07BC0BFF0BDC079F0BEC07AF0BFC0A9
:106210007BF0120035C1D9FF36C1DAFF1200DE5023
:10622000E126DD50E2221200B7C0C0F0B8C0C1F0D4
:10623000B9C0C2F0C0C08FF0C1C090F0C2C091F030
:106240001200C4C173F0C5C174F0120073C07CF0B9
:1062500074C07DF075C07EF0120073C079F074C018
:106260007AF075C07BF0120092C0C0F093C0C1F00C
:1062700094C0C2F01200746B0A0E736F0A0C830E86
:1062800000016D6F010E6E6F2BEC23F043EC6EF08E
:10629000B10E6D6F010E6E6F706B34EC23F043EC3A
:1062A0006EF0840E6D6F010E6E6F706B30EC23F02C
:1062B00043EC6EF0860E6D6F010E6E6F706B040E08
:1062C00014EC23F043EC6EF0880E6D6F010E6E6FD0
:1062D000706B060E14EC23F043EC6EF08D0E6D6FB8
:1062E000010E6E6F706B080E14EC23F043EC6EF031
:1062F0008F0E6D6F010E6E6F706B0A0E14EC23F033
:1063000043EC6EF0910E6D6F010E6E6F706B0C0EA4
:1063100010EC23F043EC6EF0930E6D6F010E6E6F78
:10632000706B0D0E10EC23F043EC6EF08A0E6D6F67
:10633000010E6E6F706B0E0E10EC23F043EC6EF0DE
:10634000820E6D6F010E6E6F706B0F0E10EC23F0EE
:1063500043EC6EF05F0E6D6F010E6E6F706B100E82
:1063600010EC23F043EC6EF0680E6D6F010E6E6F53
:10637000706B110E23EC23F043EC6EF06C0E6D6F1E
:10638000010E6E6F706B150E23EC23F043EC6EF074
:10639000700E6D6F010E6E6F706B190E23EC23F093
:1063A00043EC6EF0990E6D6F010E6E6F706B1D0EEB
:1063B00014EC23F043EC6EF09B0E6D6F010E6E6FCC
:1063C000706B1F0E10EC23F043EC6EF09C0E6D6FA3
:1063D000010E6E6F706B200E10EC23F043EC6EF02C
:1063E0009D0E6D6F010E6E6F706B210E14EC23F01D
:1063F00043EC6EF08B0E6D6F010E6E6F706B230EA3
:1064000010EC23F043EC6EF08C0E6D6F010E6E6F8E
:10641000706B240E10EC23F043EC6EF09F0E6D6F4A
:10642000010E6E6F706B250E23EC23F043EC6EF0C3
:10643000640E6D6F010E6E6F706B290E10EC23F001
:1064400043EC6EF0600E6D6F010E6E6F706B2A0E76
:1064500010EC23F043EC6EF03C0E6D6F010E6E6F8E
:10646000706B2B0E14EC23F043EC6EF0460E6D6F48
:10647000010E6E6F706B2D0E14EC23F043EC6EF07A
:10648000500E6D6F010E6E6F706B2F0E14EC23F0BB
:1064900043EC6EF04C0E6D6F010E1ED814EC23F021
:1064A00043EC6EF04CC142F14DC143F14CC156F189
:1064B0004DC157F1920E6D6F010E6E6F706B330E02
:1064C00010EC23F043EC6EF07E0E6D6F010E04D8DD
:1064D00014EC23F043EF6EF06E6F706B310C06C15D
:1064E000D9FF07C1DAFFDECFF8F1DDCFF9F101D82E
:1064F0000AD00500FA6E0101F851FD6EF951FE6EE9
:10650000FF6AFA5012006BC0FEF46CC0FFF4040185
:10651000FE51FF1139E0020140510401FE1934E13E
:10652000020141510401FF192FE1000E00016D6FBE
:106530000B0E6E6F706B800E6F6F010120EE02F01C
:106540000651D6D801D809D00500FA6EF851FD6E73
:10655000F951FE6EFF6AFA5012006DC0FAF46EC077
:10656000FBF4000E0101CB6F0B0ECC6FFAC4CDF122
:10657000FBC4CEF1000ECF6F0C0ED06F010ED26FA8
:10658000000ED16F30EC45F0FEC440F2FFC441F282
:106590002EC281F02FC282F030C283F031C284F06B
:1065A00002012E2B000E2F233023312381C078F0DF
:1065B00082C079F083C07AF084C07BF032C27CF074
:1065C00033C27DF034C27EF035C27FF0A7EC5FF0BD
:1065D000785179117A117B1101E002D0010E01D0BE
:1065E000000E00092CE0000E7C6F0C0E7D6F010E7A
:1065F0007F6F7E6BB3EC70F07CC0FCF47DC0FDF46B
:10660000000E6C6F0C0E6D6FFCC46EF0FDC46FF06D
:10661000010120EE04F006516BD801D809D0050025
:10662000FA6EF851FD6EF951FE6EFF6AFA501200D3
:106630003F5004E001D002D0408001D040906B6B0D
:106640003F5008E001D006D040A004D001D002D0D5
:10665000010E6B6F6B5100094AE001D0010C403014
:106660007F0BAF6F040EAF6538D001D036D03FA698
:1066700005D001D003D0DEEC79F03F963FA007D0E3
:1066800001D005D001016451DFEC6DF03F903FA2D5
:1066900005D001D003D053EC78F03F923FA405D051
:1066A00001D003D0DCEC79F03F943FA80CD001D0AE
:1066B0000AD0010165B301D002D0010E01D0000E55
:1066C00008EC77F03F983FAA05D001D003D0E0EC6A
:1066D00079F03F9A4090010E401640307F0BAF6F2B
:1066E000AF2BAF374050AF19010BAF19406E010C03
:1066F000D9260751DA22DECFF8F1DDCFF9F1120009
:10670000F4D084C0D9FF85C0DAFFDECF0CF1DDCF35
:106710000DF107EC79F00001F42B1200760E6B6F8F
:10672000020E6C6F82C0D9FF83C0DAFFDECF6DF03E
:10673000DDCF6EF07DEC68F0640E00016B6F020E31
:106740006C6F20EE02F08251D9268351DA22DECF1F
:106750006DF0DDCF6EF07DEC68F086EC79F0030E25
:106760000001F46F030C5EB31FD000018A51865DF7
:10677000916F8B518759926F01010C510001915D0E
:106780009251800A936F01010D51800A00019359C3
:1067900006E38A5101010C2700018B511ED086C0EF
:1067A0000CF187C00DF1B7D700018C51865D916F58
:1067B0008D518759926F01010C510001915D9251E9
:1067C000800A936F01010D51800A00019359E7E39C
:1067D0008C5101010C2700018D5101010D239BD724
:1067E0005EB31DD000018A518825916F8B5189219C
:1067F000926F915101010C5D0D51800A0001936F60
:106800009251800A935906E38A5101010C5F0001FD
:106810008B511CD088C00CF189C00DF17CD70001D0
:106820008C518825916F8D518921926F9151010171
:106830000C5D0D51800A0001936F9251800A9359AB
:10684000E9E38C5101010C5F00018D5101010D5BE9
:1068500062D73C0ECA6F3C0C84C0D9FF85C0DAFFFA
:106860000CC1DEFF0DC1DDFF320ECA6F320C01011B
:106870005D51010AB5E0030A01E175D7010AECE0B8
:10688000070AD8A41200E5D70CC171F00DC172F04F
:1068900090C073F0746B8EEC5BF071C094F072C0BA
:1068A00095F094C079F095C07AF08EC07BF08FC0DF
:1068B0007CF02FEC43F09AEC72F02DD7F40E6B6F56
:1068C0006C6B000E46EC76F05EA104D05D0502E133
:1068D0000001F42B01015EA11200020E5D1901E11D
:1068E0001AD71200020EF46F020CF45101E109D71D
:1068F000010A01E113D7030ABAE0010AC5E0070A59
:10690000DDE0010AEFE012008E6F00018EAF4BD088
:106910008E6D8E51800A120F25E3E3D8D0D86BBF5D
:106920006C07A6EC5EF0E7D88EEC5BF0D6D881D889
:10693000746B640EDBD871BF72078EEC5BF0715123
:10694000120F030DD10EF8EC41F051EC4CF096D83B
:106950006BBF6C07A6EC5EF06B51030D6AD851EC6F
:106960004CF09FD08E51800A750F16E3746B0A0E9F
:10697000BDD871BF72078EEC5BF0AFD8D10EF8ECCA
:1069800041F096D86BBF6C07A6EC5EF06B51030D1F
:1069900050D851EC4CF085D08E51030DD10EF3241C
:1069A000D96E0A0E91D08E51800A120F25E399D824
:1069B00086D86BBF6C07A6EC5EF09DD88EEC5BF0C2
:1069C0007151090F55D842D8746B640E8FD871BFBE
:1069D00072078EEC5BF07151120F4AD840D851EC1F
:1069E0004CF04CD86BBF6C07A6EC5EF06B5140D8F6
:1069F0002DD851EC4CF055D08E51800A750F16E30E
:106A0000746B0A0E73D871BF72078EEC5BF0715114
:106A1000090F2ED824D84CD86BBF6C07A6EC5EF0BB
:106A20006B5126D813D851EC4CF03BD08E5120D866
:106A30004BD0D10EF324D96E0A0EF420DA6EDECFDD
:106A40007CF0DECF7DF0DDCF7EF01200F420DA6E38
:106A5000DECF7CF0DECF7DF0DDCF7EF01200F420C3
:106A6000DA6EDECF79F0DECF7AF0DDCF7BF0120088
:106A7000030DAA0EF324D96E0A0E120079C08BF012
:106A80007AC08CF07BC08DF08BC079F08CC07AF02E
:106A90008DC07BF06E6B0A0E6D6F8E516B6F6C6BE1
:106AA000120079C088F07AC089F07BC08AF01200A9
:106AB0006E6B0A0E6D6F8E516B6F6C6B12006D6F8B
:106AC0008E516B6F6C6B1200F420DA6EDECF88F0A3
:106AD000DECF89F0DDCF8AF012007151090F030D6E
:106AE0001200746B0A0E736F6E6B640C736F8E51B1
:106AF000716F726B12006BC071F06CC072F012009B
:106B0000F0D0020E80EC69F0760E6B6F020E6C6FA7
:106B100001018251040D3C0EF324D96E050EF420C0
:106B2000DA6EDECF6DF0DDCF6EF07DEC68F0640ED6
:106B300000016B6F020E6C6F01018251040D3E0E5D
:106B4000F324D96E050EF420DA6EDECF6DF0DDCFC2
:106B50006EF07DEC68F00101275159E1760E0001DD
:106B60006B6F020E6C6F440E6D6F1D0E6E6F27EC17
:106B700064F0640E00016B6F020E6C6F3D0E6D6F62
:106B80001B0E6E6F27EC64F0760E00016B6F020E29
:106B90006C6FF251020DF3CF9CF0F4CF9DF0010128
:106BA0008251220D000EF32400019E6F0A0EF42084
:106BB0009F6F9C519E25D96E9D519F21DA6EDECF2D
:106BC0006DF0DDCF6EF027EC64F0640E00016B6FAA
:106BD000020E6C6FF2519C6F9D6BD8909C379D3765
