:10110000A8EF08F0FFFFFFFF5B8266EF4DF0FFFFE7
:10111000FFFFFFFFFFFFFFFF5B80D8CF66F0E8CF48
:1011200067F0E0CF68F0FACF69F0FBCF6AF0F2BA6F
:10113000F2A402D058EC78F06AC0FBFF69C0FAFF55
:1011400068C0E0FF67C0E8FF66C0D8FF5B90100092
:1011500039EF38F00076F374EF62EF92B35ABEAC19
:10116000F2ECCA72F36EF36AF366F316F310F30A45
:10117000F3BCF114D7010000000A00000064000075
:1011800000E803000010270000A086010040420F85
:10119000008096980000E1F50500CA9A3B68EE5A77
:1011A000F386F3C4DD7CEE5EF388F3F4DD48ED8C6A
:1011B000F242F394DD54EE56F33EF364DD457320C2
:1011C0007775726465206B65696E65206572666F00
:1011D0006C67726569636865204B616C69627269EE
:1011E0006572756E6720766F7267656E6F6D6D657F
:1011F0006E202D206469652070482D576572742D0E
:10120000416E7A6569676520697374206D94676CB7
:1012100069636865727765697365206665686C6582
:101220007268616674202D20776F6C6C656E205338
:101230006965207769726B6C69636820666F727488
:1012400066616872656E3F2E2E2E2E20004E6F2036
:101250007365206861207265616C697A61646F20D2
:10126000756E612063616C696272616369E26E2010
:10127000636F727265637461202D206C6173206CE2
:101280006563747572617320646520704820706FA7
:101290006472E1616E2073657220696D70726563BE
:1012A00069736173202D209F657374E020736567F7
:1012B00075726F2064652071756520646573656162
:1012C00020636F6E74696E7561723F2E2E2E200042
:1012D000417563756E208274616C6F6E6E616765B7
:1012E00020728275737369206E2761208274822058
:1012F0006566666563747582202D206C6573206C4D
:101300006563747572657320646520704820706F22
:101310007572726F6E74208874726520696E65785C
:101320006163746573202D20887465732D766F75E5
:10133000732073967220646520766F756C6F697286
:1013400020636F6E74696E756572203F2E2E2E209D
:10135000004572206973206765656E206765736C50
:101360006161676465206B616C6962726174696553
:10137000207569746765766F657264202D207048EA
:101380002D6D6574696E67656E207A6F7564656E24
:10139000206F6E6E6175776B6575726967206B750E
:1013A0006E6E656E207A696A6E202D2062656E749D
:1013B0002075207A656B65722064617420752077D2
:1013C000696C7420646F6F726761616E3F2E2E2EA0
:1013D00020004E6F207375636365737366756C20B0
:1013E00063616C6962726174696F6E2068617320F9
:1013F0006265656E20706572666F726D6564202D22
:101400002070482072656164696E677320636F7530
:101410006C6420626520696E6163637572617465D6
:10142000202D2061726520796F752073757265209B
:10143000796F752077616E7420746F2070726F639E
:101440006565643F2E2E2E2000207374656C6C65DC
:101450006E2C203C63616C3E20647281636B656E10
:101460002C20756D20666F72747A7566616872657E
:101470006E2E20536965206B946E6E656E206A65D2
:101480006465727A656974203C053E2064728163EC
:101490006B656E2C20756D20646965204B616C69ED
:1014A0006272696572756E672061627A75627265D3
:1014B0006368656E2E2020002C2070756C7361723D
:1014C000203C63616C3E207061726120636F6E74BA
:1014D000696E7561722E2050756C736172203C05C7
:1014E0003E20656E206375616C7175696572206D53
:1014F0006F6D656E746F20706172612063616E63E1
:10150000656C6172206C612063616C6962726163F9
:1015100069E26E2E2020002C207072657373657254
:10152000203C63616C3E20706F757220636F6E7437
:10153000696E7565722E2050726573736572203CFA
:10154000053E208520746F7574206D6F6D656E7417
:1015500020706F757220616E6E756C6572206C27DD
:101560008274616C6F6E6E6167652E2020002C2086
:101570006472756B206F70203C63616C3E206F6DF0
:1015800020646F6F72207465206761616E2E204445
:1015900072756B206F70203C053E206F6D206B6173
:1015A0006C6962726174696520746520616E6E7524
:1015B0006C6572656E2E20002C207072657373202E
:1015C0003C63616C3E20746F20636F6E74696E754E
:1015D000652E205072657373203C053E20616E7944
:1015E00074696D6520746F2063616E63656C206340
:1015F000616C6962726174696F6E2E200052696E4F
:10160000636572206C6120736F6E64652064652071
:1016100070482C206C6120706C616365722064617D
:101620006E73206C6120736F6C7574696F6E20002F
:10163000456E6A7561676172206C6120736F6E64BC
:10164000612064652070482C20636F6C6F63617249
:1016500020656E2000417373657274696F6E206639
:1016600061696C65643A202573206C696E6520257C
:10167000643A20222573220A00636F6E6669672D23
:101680003E7361766553657474696E677320213D9E
:101690002028302900636F6E6669672D3E70726F77
:1016A0007669646553697A6520213D2028302900D8
:1016B00053706F656C2070482D70726F62652C20BE
:1016C000706C6161747320696E2000636F6E66696F
:1016D000672D3E7772697465427974657320213D88
:1016E000202830290052696E73652070482050729E
:1016F0006F62652C20706C61636520696E200063E9
:101700006F6E6669672D3E726561644279746573B8
:1017100020213D2028302900777269746550657258
:10172000696F64203E207461736B506572696F64E9
:101730000070482D536F6E64652061627370816C18
:10174000656E2C20696E20007372632F5461736B79
:10175000732F726164696F5461736B2E63007372CF
:10176000632F526164696F2F726164696F2E630029
:101770005420616374697661646F202873656729FA
:101780000054656D7073206D617263686520287305
:1017900029009074616C6F6E6E6572207048342FF2
:1017A0003130005A65697420616267656C2E2120B2
:1017B0003C063E00546D656F7574207672737472CA
:1017C000203C063E0044826C616920657870697235
:1017D00082213C063E0053696E6420536965207384
:1017E00069636865723F00496E737420766572653F
:1017F000697374652070480045732077757264655D
:10180000206B65696E65204B004E6F2073756363B6
:1018100065737366756C206361004572206973207F
:101820006765656E206765736C61004E6F20736538
:10183000206861207265616C697A61004175637529
:101840006E208274616C6F6E6E61676500704834E3
:101850002F31302043616C6962726174650052827D
:10186000676C657220636F6E747261737465004D8E
:101870006F6E69746F72696E672062657A6967005E
:10188000546572756773746C6C6E2062657A6967F3
:10189000007048342D4B616C696272696572756EB7
:1018A00067007048372D4B616C69627269657275AB
:1018B0006E67007374616E646161726477616172F6
:1018C00064656E005282696E697469616C697361E6
:1018D00074696F6E007048342F3130206B616C6911
:1018E000627265726E0044726B206F702004206F0C
:1018F0006D20746520700064826661757420726565
:1019000073746175728273005282676C65722070A5
:101910004820726571756973005265737420616A3D
:101920007573207072656465740045696E73742EFA
:10193000205281636B6C69636874005265736574CF
:1019400020746F2044656661756C7400416368742F
:1019500072677276726C2062696A737400416A758C
:1019600073746172206C757A20706F7374005465A3
:10197000727567206F702073746E647264770052A2
:101980006573746F72656420466163746F72790069
:101990006F75744361706163697479203E20330010
:1019A00041616E2D74696A6420287365632E290075
:1019B000417566205A656974202853656B2E29008D
:1019C0005569742D74696A6420286D696E2E29002A
:1019D00054707320617272887420286D696E2900BA
:1019E00050756D70652048616E64626574722E007A
:1019F0005374616E642E207A757281636B732E004E
:101A000043616C6962726172207048342F3130001A
:101A1000887465732D766F757320739672203F00FE
:101A20005365742052657175697265642070480051
:101A3000416A75737465732066E062726963610060
:101A4000426F6D62612076656C6F636964616400EA
:101A500050726573736572200420706F6D7065003D
:101A6000416A75737420636F6E747261737465007C
:101A700070482D4B616C696272696572756E6700A2
:101A80005282676C657220728274726F82636C001E
:101A9000506F6D706520656E206D616E75656C00B0
:101AA000446F736572656E206F6D682F6F6D6C008B
:101AB00041636874657267726F6E647665726C00FC
:101AC00070483130206B616C6962726572656E00BE
:101AD000363053656320436F756E74646F776E00A4
:101AE000313553656320436F756E74646F776E0094
:101AF0005072657373200420746F2050756D7000F0
:101B000050726F766973696F6E6E656D656E740085
:101B100045696E73742E204B6F6E7472617374001E
:101B2000436F6E74726173742041646A75737400DC
:101B300020202020202020202020202020200032B3
:101B40002F332070756E742063616C2020009074B8
:101B5000616C20322F3320707473202000322F33B9
:101B600020506F696E742043616C20004175737A58
:101B700065697420284D696E2E29005420646573B0
:101B800061637420286D696E29004F75693C063EBB
:101B90002C4E6F6E3C053E2C00322F332D50756E4F
:101BA0006B742D4B616C2E007048342F31302D4BEF
:101BB000616C6962722E009074616C6F6E6E6572FA
:101BC0002070483130004A613C063E2C204E656949
:101BD0006E3C053E004F75693C063E2C204E6F6EF4
:101BE0003C053E0054696D6564204F757421203CAE
:101BF000063E005420657870697261646F203C066F
:101C00003E00436F6E7369676E652064652070489F
:101C10000043616C696272616369E26E2070480022
:101C2000528274726F82636C616972616765007061
:101C30004831302043616C69627261746500436FA2
:101C40006E74726F6C652062657A696700426572B6
:101C50006569747374656C6C756E670070483420C8
:101C60006B616C6962726572656E00704837206BDB
:101C7000616C6962726572656E0070482043616CC8
:101C80006962726174696F6E003130302520656E53
:101C900063656E6469646F005265737461626C653C
:101CA0006369656E646F0053756269722F416C637E
:101CB000616C696E6F00506172616D8A74726573D8
:101CC000207061720043616C20322F332070756E7A
:101CD000746F7300436F6E74726173742062696A0B
:101CE00073740052657374617572206482666175E5
:101CF00074004F666654696D6520284D696E290031
:101D00005765726B65696E7374656C6C2E00436108
:101D10006C69627261722070483130009074616C3D
:101D20006F6E6E657220704834009074616C6F6ED7
:101D30006E657220704837004A613C063E2C204E8A
:101D400065653C053E004A613C063E2C4E65696E69
:101D50003C053E005965733C063E2C204E6F3C0509
:101D60003E0041726520796F7520737572653F0082
:101D70009F457374E02073656775726F3F0042651D
:101D80006E742075207A656B65723F009074616C8B
:101D90006F6E6E61676520704800416C61726D61A5
:101DA000206DE16E696D6100416C61726D61206D45
:101DB000E078696D610050756D70204F76657272C4
:101DC0006964650070482D6B616C69627261746949
:101DD00065004175676D2F64696D20646F736500E0
:101DE000506F6D7065207669746573736500704817
:101DF000342043616C6962726174650070483720F9
:101E000043616C696272617465004F6D686F6F67E2
:101E10002F616C6B616C69004261636B6C69676810
:101E2000742041646A00506F6D70206F7068656641
:101E300066656E0070482065696E7374656C6C65CC
:101E40006E004B6F6E74726F6C6C696572656E00BC
:101E5000704820436F6E74726F6C6C6572004C75C5
:101E60007A20706F73746572696F72005375622F98
:101E700042616A20646F7369730072657374616292
:101E80006C656369646F730043616C20322F33703B
:101E9000756E746F73005469656D706F206465733F
:101EA000616374007A757281636B67657365747AB8
:101EB00074004D69736C756B74203C063E00005ACB
:101EC000756D2070756D70656E2004004F6E5469DD
:101ED0006D6520285365632900704831302D4B61B2
:101EE0006C6962722E0043616C696272617220706B
:101EF00048340043616C6962726172207048370037
:101F00004A613C063E2C4E65653C053E0053E13C73
:101F1000063E2C204E6F3C053E005965733C063E44
:101F20002C4E6F3C053E00496E7374656C6C656E9B
:101F3000207048005375727665696C6C616E6365DC
:101F40000054656D7073206D617263686500416C4B
:101F500061726D6520626173736500416C61726DC1
:101F60006520686175746500496E656666656374B1
:101F7000696576650050726F766973696F6E696E18
:101F80006700426F6D6261206D616E75616C00501B
:101F90006F6D7065206D616E75656C005A7572812C
:101FA000636B7365747A656E007061726120626F35
:101FB0006D62656172004375656E74612061747253
:101FC000E073007265626F757273203630207300A3
:101FD0007265626F757273203135207300466169D6
:101FE0006C6564203C063E00004665686C657220A6
:101FF0003C063E0000547073206D6172636865207A
:1020000000462F572076302E302E31380053E13CD9
:10201000063E2C4E6F3C053E004765616E6E756C4A
:10202000656572640031303025206D6172636865CA
:1020300000496E656666656374697665004265761B
:102040006F6F726164696E6700436F6E74726F6C5C
:102050006C696E67009A62657277616368756E6716
:10206000004175676D2F616C63616C690041626747
:102070006562726F6368656E00436F6E74726F6C39
:102080006572656E0042616A61722FE06369646F18
:102090000050756D70652054656D706F004F6D6CEC
:1020A0006161672F7A7575720054656D7073206178
:1020B00072728874004765737065696368657274CD
:1020C00000456E726567697374728200906368651B
:1020D00063203C063E00004572726F72203C063E53
:1020E00000004872206D617263686520004561726E
:1020F00074684C696E6B200048696768416C617256
:102100006D20004C616167616C61726D2000486FE9
:102110006F67616C61726D2000416C61726D614D21
:10212000E16E200052657175657269646F2000412F
:102130006C61726D614DE0782000416C61726D2DB3
:102140004D696E2E00416C61726D2D4D61782E00CF
:10215000417369676E617220704800416A757374DB
:1021600061722070480050756D7020537065656411
:102170000050756D70204F7672646500556E7769FA
:10218000726B73616D65004D6F6E69746F72696E0D
:1021900067004D696E2D20416C61726D004D617854
:1021A0002D20416C61726D004869676820416C6147
:1021B000726D004C61616720616C61726D00486FE7
:1021C0006F6720616C61726D00446F73652055709C
:1021D0002F446E004F706765736C6167656E009A7F
:1021E00062657277616368656E00528267756C61C3
:1021F00074696F6E003025206170616761646F00E3
:102200004D656D6F72697A61646F00506F6D7020FB
:1022100074656D706F005469656D706F20616374D3
:102220000073616E73206566666574009074616CFE
:1022300020322F337074005461616C2020202020E4
:10224000004964696F6D61202020004C616E6775E4
:102250006520202000537072616368652020004172
:102260006C61726D6520422000416C61726D652069
:102270004820005265717569726564200041616E85
:102280002D74696A6420005569742D74696A64202C
:10229000005765726B74696A6420004C616E6775E3
:1022A0006167652000566572656973746520004C2E
:1022B0006F77416C61726D200054206465736163B7
:1022C000742000417566205A65697420004C617560
:1022D000667A65697420005470732061727274208C
:1022E00000446F736973202B2F2D0043616E63656B
:1022F0006C6C656400446F776E2F416369640044C1
:10230000696D2F6163696465004865727374656CFB
:102310006465004B6F6E74726F6C6C6500436F6E1A
:1023200074726173746500616674656C6C696E6764
:1023300000526573657474696E67002B2F42617378
:10234000697363680055702F416C6B616C6900455F
:10235000617274684C696E6B00322F337074204365
:10236000616C00322F3370742063616C004C6F77A6
:1023700020416C61726D004D6F6E69746F72656E95
:102380000043616E63656C61646F004D6F6E6974CC
:102390006F72656F005296636B6C6963687400427C
:1023A00061636B6C6967687400436F6D707465205E
:1023B000850050756C7361722004004572666F72FF
:1023C000642E20004F666654696D65200052756E5C
:1023D00054696D6520004175737A65697420004900
:1023E0006E6163746976610041616E2D74696A641F
:1023F000005569742D74696A64004C616E6775617B
:10240000676500636F6E74726F6C650031303025E4
:102410002061616E00313030252045696E005470B6
:10242000726F6365736F0044656661756C747300E9
:102430003025206172728874004C6175667A656916
:102440007400436F6E747261737400696E656669BF
:1024500063617A0054206163742E20004F6E5469CA
:102460006D652000446F73696E6720005265717559
:1024700069732000704834283130290036302073C9
:1024800065632E003135207365632E00363020538E
:10249000656B2E0031352053656B2E0053707261D1
:1024A000636865004F666654696D6500436F6E74BE
:1024B000726F6C0031303025204F6E006472816382
:1024C0006B656E00446F736572656E002D2F5361EE
:1024D000756572004D6F6E69746F72004175737A25
:1024E00065697400286E756C6C2900416E6E756CA0
:1024F000820054656D702E2000426F6D6261200075
:10250000506F6D7065200050756D706520004170D2
:10251000726F762E00536574207048004964696FAD
:102520006D6100416C61726D610041637469766137
:10253000004D6172636865004F6E54696D650041BE
:102540006C61726D65004C616E67756500302520A9
:102550004F6666003630207365670031352073653D
:10256000670030252041757300302520756974009F
:102570004D454E5520004461746120004D6F6465E7
:102580002000446F73652000576946692000546538
:102590006D702000506F6D70200050756D702000C0
:1025A00020457272310020457272320020457272ED
:1025B0003300426F6D626100536176656400506F55
:1025C0006D70650050756D70650025332E316600A5
:1025D00025342E31660057692D46690020436F6E01
:1025E0006E00446F736973004D6F647573004172C0
:1025F000728874004E696368740025302E3275004D
:10260000206D5620006D696E2E0044617461004D8E
:102610006F646500446F7365005461616C004D6FB9
:10262000646F00506F6D70004E6965740035302521
:102630000032352500373525002048410020535011
:10264000007370610066726100736563006E6C6494
:1026500000656E670041616E006D696E004E6F6EC1
:102660000048727300556974004E6F74006465759C
:1026700000256C75002D2D004C41004F4B0025644A
:1026800000416E004E6F004F720055720003003A19
:1026900000430046000000019F6B9E690201246B0D
:1026A000040E01015C190CE116510AE1000E52EC16
:1026B00077F0400E0101C96F010E166FE0EF18F0C0
:1026C000280EA25D230EA35902E2E0EF18F0000EDF
:1026D00052EC77F0400E0101C96FA26BA36BE0EFE3
:1026E00018F05DA10ED000019F6B030E9E6F0101DB
:1026F000599DC00EC96FCFEC78F0010E0101186F23
:102700000BD0000EE4EC77F0000906E000019E6BB0
:102710009F6B0101256BC96B0201286B040E296FA9
:102720000101166B77EF19F0D4EC78F001018151BB
:10273000020DE40EF324D96E020EF420DA6EDECF21
:1027400081F0DDCF82F0FFEC64F0020E010120D0B9
:102750005DA504D0010E166F500E1AD0000EE4ECE9
:1027600077F0000902E177EF19F0050E11D0176B31
:1027700059A102D00F8102D001010F915E935E91A9
:102780005E953D6B476B516B87EC6FF0060EDED7A5
:10279000C96F77EF19F05DEC5EF072EC72F0080E25
:1027A000D5D7020E44EC69F0000E6B6F090E6C6F0A
:1027B00001018151020DB90EF324D96E030EF420EC
:1027C000DA6EDECF6DF0DDCF6EF061EC68F0000EFA
:1027D00000016B6F090E6C6FFC0E6D6F1E0E6E6F3D
:1027E0000CEC64F0000E00016B6F090E6C6F0101C0
:1027F0008151020DAF0EF324D96E030EF420DA6E70
:10280000DECF6DF0DDCF6EF00CEC64F0010E020156
:10281000246F52EC77F0090E99D787EC6FF0010E18
:102820000201246F0A0E92D7050EE4EC77F000093E
:10283000F2E0000E52EC77F0700E0101C96F100E3D
:102840003ED1A26BA36BCFEC78F0C00E0101C96F33
:10285000110E43EF18F0760E00016B6F020E6C6FD5
:1028600001018151020DE40EF324D96E020EF42011
:10287000DA6EDECF6DF0DDCF6EF061EC68F0D4EC97
:1028800078F0760E0001816F020E826F82EC68F0A4
:10289000120E5CD7C00EC96F900E186F7CBF08D0A7
:1028A0007C517B1129E1510E795DC30E7A5924E2E6
:1028B0007CAF09D0B00E795D3C0E7A59FF0E7B5982
:1028C000FF0E7C5919E38FEC75F0640E00016B6FFD
:1028D000020E6C6F01018151020DA50EF324D96E19
:1028E000030EF420DA6EDECF6DF0DDCF6EF061EC1A
:1028F00068F0200E010119D00DEC67F0640E6B6FCB
:10290000020E6C6F01018151020D9B0EF324D96EF2
:10291000030EF420DA6EDECF6DF0DDCF6EF061ECE9
:1029200068F0010E0101166F310E1A6F92EC78F00B
:10293000640E0001816F020E826FFFEC64F007EC01
:102940006EF05DEC5EF072EC72F077EF19F0DCEC9B
:1029500077F0C00E0101C96F210E95D3D4EC78F049
:10296000000E00016B6F090E6C6F01018151020DA9
:10297000B90EF324D96E030EF420DA6EDECF6DF0BB
:10298000DDCF6EF061EC68F001015EA11CD0000E9D
:1029900000016B6F090E6C6F170E6D6F1D0E6E6F61
:1029A0000CEC64F001018151020DCD0EF324D96EBF
:1029B000030EF420DA6EDECF81F0DDCF82F0FFEC83
:1029C00064F0020E39D05EA51CD0000E00016B6FC2
:1029D000090E6C6FEF0E6D6F1E0E6E6F0CEC64F0D7
:1029E00001018151020DDA0EF324D96E020EF4209A
:1029F000DA6EDECF81F0DDCF82F0FFEC64F0010E05
:102A00001BD0000E00016B6F090E6C6F740E6D6FA2
:102A1000240E6E6F0CEC64F001018151020DC30EA7
:102A2000F324D96E030EF420DA6EDECF81F0DDCF11
:102A300082F0FFEC64F0030E0101176F220EA8D69E
:102A4000000E00016B6F090E6C6F01018151020DC8
:102A5000AF0EF324D96E030EF420DA6EDECF6DF0E4
:102A6000DDCF6EF00CEC64F092EC78F0230E6ED6B5
:102A700007EC6EF05DEC5EF072EC72F0010E02019C
:102A8000246F52EC77F0A00E0101C96F240EE5D13E
:102A900007EC6EF05DEC5EF0DAEC5CF0010E02012A
:102AA000246F250E53D6050EE4EC77F000090AE0FA
:102AB000000E52EC77F0700E0101C96F270E1B6FEC
:102AC00077EF19F0240E64D6A26BA36B5E970E9974
:102AD0000E9D0E9B0E9FCFEC78F0C00E0101C96FCA
:102AE000280ED1D275C1A4F076C1A5F02A0E1B6FB5
:102AF0006751795D0001A06F010168517A590001A9
:102B0000A16F010169517B590001A26F01016A5156
:102B10007C590001A36FA3BF9BD0A35108E1D00E45
:102B2000A05DFB0EA159010EA25901E291D0A3BFF5
:102B30000AD0A35107E1210EA05D3C0EA159030E5E
:102B4000A259D8B085D0C6EC73F021EE67F0DECF85
:102B50006BF0DDCF6CF00001000E6CBFFF0E6D6FEF
:102B60006E6FE80E6F6F030E706F716B726B08EC17
:102B70004DF06BC0A7F06CC0A8F00101000E5EB371
:102B8000010E00016B6FA7C06CF0A8C06DF0A9C06A
:102B90006EF0A4C06FF0A5C070F0A6C071F0010E79
:102BA000AFEC64F021EE6BF0DECF6BF0DDCF6CF0BC
:102BB0000001000E6CBFFF0E6D6F6E6FE80E6F6F41
:102BC000030E706F716B726B08EC4DF06BC0A7F069
:102BD0006CC0A8F00101000E5EB1010E00016B6F28
:102BE000A7C06CF0A8C06DF0A9C06EF0A4C06FF0D3
:102BF000A5C070F0A6C071F0000EAFEC64F0760EC8
:102C000000016B6F020E6C6F01018151020DDA0E33
:102C1000F324D96E020EF420DA6EDECF6DF0DDCF34
:102C20006EF061EC68F0640E00016B6F020E6C6F69
:102C300001018151020DA50EF324D96E030EF4207B
:102C4000DA6EDECF6DF0DDCF6EF061EC68F0CDD0E6
:102C5000A3AF9CD0310EA05D040EA159FE0EA25967
:102C6000FF0EA35901E392D0A3AF0AD0E00EA05DFE
:102C7000C30EA159FC0EA259FF0EA35901E286D042
:102C8000B6EC70F021EE67F0DECF6BF0DDCF6CF0CC
:102C90000001000E6CBFFF0E6D6F6E6FE80E6F6F60
:102CA000030E706F716B726B08EC4DF06BC0A7F088
:102CB0006CC0A8F00101000E5EB3010E00016B6F45
:102CC000A7C06CF0A8C06DF0A9C06EF0A4C06FF0F2
:102CD000A5C070F0A6C071F0010EAFEC64F021EE5B
:102CE0006FF0DECF6BF0DDCF6CF00001000E6CBF3B
:102CF000FF0E6D6F6E6FE80E6F6F030E706F716B6E
:102D0000726B08EC4DF06BC0A7F06CC0A8F001012D
:102D1000000E5EB5010E00016B6FA7C06CF0A8C07D
:102D20006DF0A9C06EF0A4C06FF0A5C070F0A6C091
:102D300071F0020EAFEC64F0246B760E00016B6F45
:102D4000020E6C6F01018151020DCD0EF324D96E7C
:102D5000030EF420DA6EDECF6DF0DDCF6EF061ECA5
:102D600068F0640E00016B6F020E6C6F01018151FF
:102D7000020DA50EF324D96E030EF420DA6EDECF19
:102D80006DF0DDCF6EF061EC68F02FD0010E010127
:102D9000166F0DEC67F0760E6B6F020E6C6F010113
:102DA0008151020DC30EF324D96E030EF420DA6EA6
:102DB000DECF6DF0DDCF6EF061EC68F0640E0001E7
:102DC0006B6F020E6C6F01018151020D9B0EF3249B
:102DD000D96E030EF420DA6EDECF6DF0DDCF6EF02B
:102DE00061EC68F0310E01011B6FD4EC78F0760EC7
:102DF0000001816F020E826F82EC68F092EC78F035
:102E0000290EA4D4640E0001816F020E826F82EC41
:102E100068F007EC6EF05DEC5EF072EC72F0C00EE4
:102E20000101C96F900E186F1BC11AF160D2A00E7C
:102E3000C96F8A5103E05EB15EA502D0300E0DD09D
:102E4000200E196F6DD4599D5E97F7EC3EF001018D
:102E5000996B010E986F8DD1420E196F48D2030EF7
:102E6000E4EC77F0000901E142D2420E91D4CFECBC
:102E700078F0410E0101186FC00E68D4D4EC78F0E0
:102E800001018151020DD70EF324D96E030EF420F7
:102E9000DA6EDECF81F0DDCF82F0FFEC64F092ECF1
:102EA00078F001018151020DD00EF324D96E020E8B
:102EB000F420DA6EDECF81F0DDCF82F0FFEC64F03B
:102EC0000101B76BB86BA26BA36B900EC96F800E3C
:102ED000D2D043EC78F0C00E0101C96F430ED3D0BD
:102EE00000019E6B9F6B0101256B826B00018A6B59
:102EF000896BB8EC63F00101C96B236B52EC79F07C
:102F0000200ED9EC78F0F3D1B00EC96F510EBBD0C2
:102F1000D4EC78F001018151020DD70EF324D96E63
:102F2000030EF420DA6EDECF81F0DDCF82F0FFEC0D
:102F300064F092EC78F001018151020DAA0EF324A5
:102F4000D96E040EF420DA6EDECF81F0DDCF82F090
:102F5000FFEC64F0A00E0101C96FB00E196F520EA4
:102F600092D0D4EC78F001018151020DBE0EF32411
:102F7000D96E040EF420DA6EDECF81F0DDCF82F060
:102F8000FFEC64F092EC78F001018151020DB40E77
:102F9000F324D96E040EF420DA6EDECF81F0DDCF9B
:102FA00082F0FFEC64F0530EA6EF13F0030E5C19F1
:102FB00004E1B00EC96F540E66D0040E5C1901E036
:102FC00096D1B00EC96F550E5ED0D4EC78F00101E9
:102FD0008151020DC80EF324D96E040EF420DA6E6E
:102FE000DECF81F0DDCF82F0FFEC64F00DEC67F016
:102FF000900E0101C96FA00E1A6F2ED7D4EC78F095
:1030000001018151020DD00EF324D96E020EF4207D
:10301000DA6EDECF81F0DDCF82F0FFEC64F0E8D72E
:10302000A26BA36B43EC78F0610E24D70DEC67F034
:10303000200E816F400E19EC74F001011751BAECAB
:103040005DF0620EA6EF13F092EC78F00101815171
:10305000020DA00EF324D96E040EF420DA6EDECF3A
:1030600081F0DDCF82F0FFEC64F0C00E0101C96F8A
:10307000900E186F310E1A6F3AD1DCEC77F0C00E5B
:103080000101C96F710E186F32D11751BAEC5DF0A2
:10309000720EA6EF13F079C16FF07AC170F07BC1A8
:1030A00071F07CC172F0000E4FEC37F000019D6BA7
:1030B00001011C6B1E6B1D6B02014C6B4D6B92EC86
:1030C00078F001011C5169EC6CF0730EA6EF13F05F
:1030D00087EC6FF002014C4B4D2BAC0E4C5D260E75
:1030E0004D5905E3010E0101166F600EC96F010114
:1030F0001E2B090E1E65FBD01E6B79C16FF07AC1C5
:1031000070F07BC171F07CC172F0010E4FEC37F0B2
:1031100000019D6F01011D2B02014D5104E1320E92
:103120004C5D01E2E4D0010E01011D65E0D01D6B94
:1031300092EC78F000019D5101011C5D05E21C2B11
:103140001C5169EC6CF0D3D0060E1C1901E0CFD0F5
:103150001BC1C9F1CCD030EC31F0F7EC3EF00101ED
:103160005EA307D0D10E985D020E995902E3598DE6
:103170005E87A00EC96F70D6246B910EC8EF13F056
:10318000242B310E2465B3D01AC1C9F1B0D0000E82
:10319000E4EC77F0000901E1AAD019C1C9F1A7D088
:1031A000DCEC77F069D6C1EC71F0000901E19FD049
:1031B000D5EC71F0000901E19AD018C1C9F197D09E
:1031C000C95102E171EF13F0010A02E194EF13F02B
:1031D000030A02E1A8EF13F0070A02E1B7EF13F0C8
:1031E000030A02E1CBEF13F00E0A02E1D1EF13F074
:1031F000010A02E10DEF14F0030A02E114EF14F0EA
:103200001A0A02E121EF14F0010A02E12BEF14F097
:10321000030A02E14AEF14F0320A02E1A7EF14F0C8
:10322000010A02E1AEEF14F0030A01E109D4010A38
:1032300001E11ED4070A01E12BD4010A01E133D4D4
:10324000020A01E141D40F0A01E14CD4010A01E173
:10325000D9D5030A01E1EBD51A0A01E1F4D5010A37
:1032600001E1FDD5710A01E102D6010A01E106D6AC
:10327000030A01E12ED6010A01E132D6130A01E167
:1032800043D6010A01E144D6030A01E16AD6010AE4
:1032900001E18CD6070A01E198D6010A01E1AED618
:1032A000350A01E1BDD6010A01E1C0D6030A01E1F8
:1032B000CBD6120A01E1E1D6010A01E1E6D6030A02
:1032C00001E1E9D6010A01E103D7F30A01E143D79D
:1032D000100A01E151D7010A01E152D7310A01E197
:1032E00056D7100A01E15CD7700A01E15CD79EC095
:1032F0009BF09FC09CF012006BEF1EF0250EDA19B8
:103300001CE083EC1EF011E0B651D96E8BEC1EF080
:1033100002D86BEF1EF00500FA6EBA51FD6EBB517C
:10332000FE6EFF6AFA50DA51120077EC1EF0DAC036
:10333000DFFF9BEC1EF06BEF1EF0D66BD76BD46BF0
:10334000D56B03D0D485B74BB82BCAEC1EF0300A2E
:10335000F9E0CAEC1EF076EC74F01CE3D66BD76B88
:10336000D6C06BF0D7C06CF05DEC1FF098EC72F03B
:103370006BC0D6F06CC0D7F0B7C0F6FF01EC1FF001
:10338000D627BC51D723B74BB82BCAEC1EF076EC2E
:1033900074F0E6E2CAEC1EF02E0A22E1D58DB74B9E
:1033A000B82BD86BD96B15D0D8C06BF0D9C06CF0E6
:1033B0005DEC1FF098EC72F06BC0D8F06CC0D9F0E7
:1033C000B7C0F6FF01EC1FF0D827BC51D923B74B8B
:1033D000B82BCAEC1EF076EC74F001E2B3D0E4D75F
:1033E000D86BD96BD589AED0D489ACD0D585C2D0B5
:1033F000B951D96EDA6A020EDF26DF5CD96EDA6A5D
:10340000DECFC3F0DECFC4F0C351C41104E1E40E3B
:10341000C36F240EC46FC56BC66B03D00001C54BD0
:10342000C62BC551C325BA6FC651C421BB6FBAC0E4
:10343000F6FFBBC0F7FF000EF86E0F0EF76403D067
:103440000800F55003D096EC48F0EF500009E6E193
:103450000001D851D9110BE0C55166EC1FF0C651DF
:10346000800ABA5904E2D8C0C5F0D9C0C6F0D65116
:10347000C55DD751C65905E2C551D65FC651D75B68
:103480001AD0D66BD76B17D083EC1EF00FE0B65175
:10349000D96E8BEC1EF001D80ED00500FA6EBA5131
:1034A000FD6EBB51FE6EFF6AFA50200C77EC1EF0E9
:1034B000200E93EC1EF00001D607D8A0D707D6291E
:1034C000E3E1D72934E0E0D783EC1EF01EE0B651EB
:1034D000D96E8BEC1EF001D814D00500FA6EBA51EB
:1034E000FD6EBB51FE6EFF6AFA5041EC1FF00F0EED
:1034F000F76403D00800F55003D096EC48F0EF5085
:1035000012000001C34BC42B12D041EC1FF0EFDBC3
:103510000F0EF76403D00800F55003D096EC48F086
:10352000EF50DF6E0001C34BC42B9BEC1EF0C507B0
:10353000D8A0C607C529C8E1C62901E1CCD3C4D7A4
:10354000D48D18D0B7C0F6FFB8C0F7FF39EC1FF024
:1035500001E1CAD3640A0EE0020A01E147D70F0A6B
:1035600009E0050A01E140D71F0A01E141D7060A37
:10357000E7E0B1D3070ED51501E181D2D5A903D07B
:10358000D96B060ED86FB951D96EDA6ADFCFBAF0AF
:10359000030EDF26BA51D96EDA6ADECFD1F0DECF64
:1035A000D2F0DDCFD3F0D3AF10D0D1C06BF0D2C00A
:1035B0006CF0D3C06DF011EC76F06BC0D1F06CC044
:1035C000D2F06DC0D3F0030ED413C76BC86BD151CA
:1035D000D211D31169E0820EBA6FBB69D1C0BCF0C1
:1035E000D2C0BDF0D3C0BEF0D4C0BFF0100E05D025
:1035F000D890BF33BE33BD33BC33E82EF9D7BC51AE
:10360000BA25C76F000EBB21C86FC707D8A0C8076F
:10361000C7C06BF0C8C06CF06E6B030E6D6F98EC9A
:1036200072F06BC0C7F06CC0C8F0C7C071F0C8C002
:1036300072F02CEC31F079EC5BF071C0C7F072C025
:10364000C8F0C8AF03D0C707D8A0C807C751000843
:1036500068EC34F048EC1FF0CDC079F0CEC07AF0C1
:10366000CFC07BF04FEC1FF049EC4CF079C0CDF0AF
:103670007AC0CEF07BC0CFF0E3DB6E6B800E6F6F55
:103680003F0E706F39EC63F004E2C707D8A0C8079B
:103690000BD0D6DB6E6B200E6F6F410E706F39EC66
:1036A00063F002E3C74BC82BD9BF05D0D9511AE14B
:1036B0000D0ED85D17E2D1C092F0D2C093F0D3C006
:1036C00094F0D8517BEC41F088C095F089C096F019
:1036D0008AC097F0A1EC3FF092C0D1F093C0D2F035
:1036E00094C0D3F0C8BF05D0C85116E10A0EC75D1B
:1036F00013E2D151D211D3113CE0D8DB7FEC4EF074
:103700008F5190119111921134E1C8BF32D0C8513C
:1037100003E1020EC75D2DE393DB700E6E6F890E21
:103720006F6F400E706F39EC63F0F70ED8B0F80E83
:10373000C727FF0EC823C75168EC34F0A9DBD1C0FE
:103740006BF0D2C06CF0D3C06DF0CDC06EF0CEC0C7
:103750006FF0CFC070F0EFEC49F06BC0C9F06CC0F7
:10376000CAF06DC0CBF06EC0CCF0D16BD26BD36B16
:1037700024D09CDB7FEC4EF06ADBD1C0B0F0D2C02D
:10378000B1F0D3C0B2F0C9C073F0CAC074F0CBC0FE
:1037900075F0CCC076F09CEC65F073C0B3F074C0EB
:1037A000B4F075C0B5F0BAEC6CF0B0C0D1F0B1C0F7
:1037B000D2F0B2C0D3F0C76BC86B010EDA6FC2DAB9
:1037C0002EDB04E3DA2B0A0EDA19F9E1DA51D825F7
:1037D000BA6F000ED921BB6FC751BA27C851BB239E
:1037E000BA51D65FBB51D75BD851D91103E0D60788
:1037F000D8A0D70720DB03E0D607D8A0D707D4A5E9
:103800004CD019DB2BE07FDA0EE0B651D96E83DAAB
:1038100001D824D00500FA6EBA51FD6EBB51FE6E80
:10382000FF6AFA502D0C63DA2D0E7DDA17D06BDAB1
:103830000EE0B651D96E6FDA01D80CD00500FA6EE1
:10384000BA51FD6EBB51FE6EFF6AFA50300C4FDA72
:10385000300E69DA0001D607D8A0D7070001D7BF1C
:103860004ED0D751E4E1D6054AE3E1D74CDA0EE079
:10387000B651D96E50DA01D80CD00500FA6EBA51A3
:10388000FD6EBB51FE6EFF6AFA50200C30DA200E3E
:103890004ADA0001D607D8A0D707D7BF04D0D7513E
:1038A000E5E1D605E3E2C7DA2AE02DDA0EE0B6510B
:1038B000D96E31DA01D823D00500FA6EBA51FD6E07
:1038C000BB51FE6EFF6AFA502D0C11DA2D0E16D088
:1038D0008FDA38DA67DA01EC5BF046DA92EC5FF007
:1038E0007EDA11DA08E0B651D96E15DA01D807D0C0
:1038F0000500FA6E7AD0FBD9CD51300F14DA0001F1
:10390000DA07DA2918E0E4D7FED90EE0B651D96E0D
:1039100002DA01D80CD00500FA6EBA51FD6EBB5127
:10392000FE6EFF6AFA50300CE2D9300EFCD900016D
:10393000C707D8A0C807C8BF04D0C851E5E1C7056C
:10394000E3E2D9BF08D0D95103E1090ED85D03E302
:10395000080EDA6F02D0D8C0DAF0DA51D85F000E64
:10396000D95BDA5113E0CFD90EE0B651D96ED3D975
:1039700001D80CD00500FA6EBA51FD6EBB51FE6E37
:10398000FF6AFA502E0CB3D92E0ECDD90001DA51B0
:1039900068EC34F088C0C0F089C0C1F08AC0C2F0C1
:1039A0007EDAC0C079F0C1C07AF0C2C07BF049ECC9
:1039B0004CF079C08FF07AC090F07BC091F07FEC32
:1039C0004EF045DA3CD014DABDD9ECD901EC5BF00D
:1039D000CBD992EC5FF003DA96D90EE0B651D96EEE
:1039E0009AD901D80DD00500FA6EBA51FD6EBB51BF
:1039F000FE6EFF6AFA506FD27AD9CD51300F93D94B
:103A0000C9C078F0CAC079F0CBC07AF0CCC07BF0E6
:103A1000000198D9F5CF7CF00900F5CF7DF00900C1
:103A2000F5CF7EF00A00F5CF7FF092EC5FF078C022
:103A3000C9F079C0CAF07AC0CBF07BC0CCF0DA070D
:103A4000DA2918E0C0D75FD90EE0B651D96E63D934
:103A500001D80CD00500FA6EBA51FD6EBB51FE6E56
:103A6000FF6AFA50300C43D9300E5DD90001D807F7
:103A7000D8A0D907D851D91101E12DD1E4D7D4BDAF
:103A80001BD0D4A902D09AD90AD0EAD9DECFC9F086
:103A9000DDCFCAF0000ECABFFF0ECB6FCC6FCCAF2C
:103AA0001AD0030ED413CC1FCB1FCA1FC96D000E32
:103AB000CA23CB23CC230FD0D4A902D07FD90BD0DB
:103AC000CFD9DECFBAF0DDCFBBF0BAC0C9F0BBC0F2
:103AD000CAF0CB6BCC6BD851D91107E1C951CA11CF
:103AE000CB11CC1102E1D84BD92B010EDA6F2AD9B8
:103AF00096D904E3DA2B0A0EDA19F9E1DA51BA6F32
:103B0000BB6BD851DED9D951800ABC5903E2D8C069
:103B1000DAF00FD0DA51BA6FBB6BBA51D85DD95118
:103B2000800ABC6FBB51800ABC5903E2DAC0D8F0EE
:103B3000D96BD651D71105E07ED903E0D607D8A0BE
:103B4000D707D5AD0DD0D651C1D9D751800ABA59B2
:103B500005E2D851D65FD951D75B02D0D66BD76B6F
:103B6000DA51BA6FBB6BD651ACD9D751800ABC5968
:103B700005E2DA51D65F000ED75B02D0D66BD76B69
:103B8000D4A532D058D913E0BED80EE0B651D96EC4
:103B9000C2D801D80CD00500FA6EBA51FD6EBB51E7
:103BA000FE6EFF6AFA502D0CA2D82D0EBCD8000173
:103BB000D651D71101E187D0A6D80EE0B651D96E03
:103BC000AAD801D80CD00500FA6EBA51FD6EBB51CF
:103BD000FE6EFF6AFA50300C8AD8300EA4D800016D
:103BE000D607D8A0D707E4D7D651D7111AE08BD87B
:103BF0000EE0B651D96E8FD801D80CD00500FA6E00
:103C0000BA51FD6EBB51FE6EFF6AFA50200C6FD8A0
:103C1000200E89D80001D607D8A0D707D651D711D2
:103C2000E6E109D950E06FD80EE0B651D96E73D8ED
:103C300001D849D00500FA6EBA51FD6EBB51FE6E37
:103C4000FF6AFA502D0C53D82D0EDF6E3BD0D8C032
:103C5000BAF0D9C0BBF0D890BA37BB37D890BA37D2
:103C6000BB37750EBA25F66E110EBB21F76E77D8ED
:103C700099D8BED801EC5BF06BC078F06CC079F0DD
:103C80006DC07AF06EC07BF00A0E7C6F7D6B7E6B30
:103C90007F6B92EC5FF07851300FDA6F34D80FE021
:103CA000B651D96E38D801D80ED00500FA6EBA5187
:103CB000FD6EBB51FE6EFF6AFA50DA51120017D842
:103CC000DAC0DFFF38D80001D807D8A0D907D82933
:103CD000BEE1D929BCE1B7C0F6FFB8C0F7FF0001CB
:103CE000C8D802E07EEF19F0B66BB76B1200B65180
:103CF000D96EDA6ADECFBAF0DDCFBBF0BAC0D9FF39
:103D0000BBC0DAFF1200B651D96EDA6A020ED926AC
:103D1000DE50DE101200DA6A020ED926DECFBAF0CB
:103D2000DDCFBBF0020CDF6EB651D96EDA6ADE2A47
:103D3000000EDD22000CB651D96EDA6ADE2A000EC2
:103D4000DD22000CDA51040D750EF324F66E110E0F
:103D5000F420F76EF86A000EF82209001200F86AE3
:103D6000000EF822090012006BC0CDF06CC0CEF03E
:103D70006DC0CFF06EC0D0F0CDC078F0CEC079F07D
:103D8000CFC07AF0D0C07BF00A0E7C6F7D6B7E6B6B
:103D90007F6B0A0CB7C0F6FFB8C0F7FFF86A0800DF
:103DA000F5501200F5CF6FF00900F5CF70F0090063
:103DB000F5CF71F00A00F5CF72F01200B951D96E4B
:103DC000DA6A040EDF26DF5CD96EDA6ADECFC9F06C
:103DD000DECFCAF0DECFCBF0DECFCCF0120078C061
:103DE000CDF079C0CEF07AC0CFF07BC0D0F0120019
:103DF000C9C06BF0CAC06CF0CBC06DF0CCC06EF027
:103E00001200B8C0F7FFF86A0800F5CFBAF0D00E7C
:103E1000BA25BB6FBC6BFF0EBC23BB511200F55023
:103E2000C95D0900F550CA590900F550CB59090080
:103E3000F550CC591200D4C0BAF0030EBA17030CD7
:103E4000CDC06BF0CEC06CF0CFC06DF012008FC053
:103E5000C9F090C0CAF091C0CBF092C0CCF0120073
:103E6000B951D96EDA6ADF50DF2ADF2AD96EDA6AF1
:103E70001200B74BB82BF86A0800F5CFDAF0DA5128
:103E80001200C3C0F6FFC4C0F7FF000EF86E1200A8
:103E900088C0CDF089C0CEF08AC0CFF01200D1C06A
:103EA0007CF0D2C07DF0D3C07EF01200D1C08FF084
:103EB000D2C090F0D3C091F012006E6B0A0E6D6FFD
:103EC0000A0CBA5DBB51800ABC6F1200D85DD95193
:103ED000800ABA6F1200CD51300F120076C082F006
:103EE00077C083F00BD3840E6D6F6E6BA0DBD5ECC7
:103EF0006DF08451010182190EE0820E00016F6F96
:103F0000010E706F726B716B010E736F24EC6DF0AC
:103F10005BDB9A0E6BD3840E5CDB97DBD5EC6DF02C
:103F200084510101B0190EE0B00E00016F6F010E57
:103F3000706F726B010E716F736F24EC6DF044DB68
:103F4000A10E54D3800E45DB7CDBD5EC6DF08051A7
:103F50000101831905E100018151010184190EE07D
:103F6000830E00016F6F010E706F726B020E716F26
:103F7000736F24EC6DF028DBA80E38D3800E29DB9C
:103F8000040E4DEC32F0D5EC6DF080510101851935
:103F900005E100018151010186190DE0850E000146
:103FA0006F6F010E706F726B040E35DB24EC6DF0D9
:103FB0000BDBAF0E1BD3800E0CDB060E4DEC32F08C
:103FC000D5EC6DF080510101871905E100018151A7
:103FD000010188190DE0870E00016F6F010E706FEF
:103FE000726B060E18DB24EC6DF0EEDAB60EFED224
:103FF000800EEFDA080E4DEC32F0D5EC6DF080510A
:1040000001018C1905E10001815101018D190DE0BB
:104010008C0E00016F6F010E706F726B080EFBDA71
:1040200024EC6DF0D1DABD0EE1D2800ED2DA0A0EA8
:104030004DEC32F0D5EC6DF0805101018E1905E1A7
:104040000001815101018F190DE08E0E00016F6F8B
:10405000010E706F726B0A0EDEDA24EC6DF0B4DACA
:10406000C40EC4D2840EB5DA0C0EBCDAD5EC6DF0F9
:104070008451010190190DE0900E00016F6F010E47
:10408000706F726B0C0EC3DA24EC6DF09DDACB0E00
:10409000ADD2840E9EDA0D0EA5DAD5EC6DF084510A
:1040A000010192190DE0920E00016F6F010E706F09
:1040B000726B0D0EACDA24EC6DF086DAD20E96D26D
:1040C000840E87DA0E0E8EDAD5EC6DF08451010184
:1040D00089190DE0890E00016F6F010E706F726B10
:1040E0000E0E95DA24EC6DF06FDAD90E7FD2840EC5
:1040F00070DA0F0E77DAD5EC6DF084510101811979
:104100000DE0810E00016F6F010E706F726B0F0E6C
:104110007EDA24EC6DF058DAE00E68D2840E59DABB
:10412000100E60DAD5EC6DF0845101015E190DE0DE
:104130005E0E00016F6F010E706F726B100E67DA0A
:1041400024EC6DF041DAE70E51D27C0E42DA110E0A
:1041500066DAD5EC6DF054DA6751000178190FE199
:1041600001016851000179190AE101016951000159
:104170007A1905E101016A5100017B190CE0670E13
:104180006F6F010E706F726B110E4DDA24EC6DF0D3
:104190001BDAEE0E2BD250DA150E41DAD5EC6DF0AB
:1041A0002FDA6B51000178190FE101016C51000108
:1041B00079190AE101016D5100017A1905E1010146
:1041C0006E5100017B190CE06B0E6F6F010E706F6A
:1041D000726B150E28DA24EC6DF0F6D9F50E06D2C6
:1041E0002BDA190E1CDAD5EC6DF00ADA6F510001EA
:1041F00078190FE101017051000179190AE10101FB
:10420000715100017A1905E10101725100017B1918
:104210000CE06F0E6F6F010E706F726B190E03DA88
:1042200024EC6DF0D1D9FC0EE1D1800E6D6F6E6B78
:10423000706B1D0E4DEC32F0D5EC6DF0805101012C
:10424000981905E100018151010199190DE0980EBD
:1042500000016F6F010E706F726B1D0EDCD924ECC4
:104260006DF0B2D9030EBAD17C0EB3D9250ED7D9D1
:10427000D5EC6DF07C5101019E190FE100017D51DB
:1042800001019F190AE100017E510101A01905E118
:1042900000017F510101A1190DE09E0E00016F6F19
:1042A000010E706F726B250EBED924EC6DF08CD9A7
:1042B0000A0E94D1840E8DD9230E94D9D5EC6DF0CD
:1042C000845101018A190DE08A0E00016F6F010E01
:1042D000706F726B230E9BD924EC6DF075D9110EA3
:1042E0007DD1840E76D9240E7DD9D5EC6DF0845124
:1042F00001018B190DE08B0E00016F6F010E706FC5
:10430000726B240E84D924EC6DF05ED9180E66D140
:10431000840E5FD9290E66D9D5EC6DF08451010168
:1043200063190DE0630E00016F6F010E706F726B09
:10433000290E6DD924EC6DF047D91F0E4FD1840E94
:1043400048D92A0E4FD9D5EC6DF0845101015F197F
:104350000DE05F0E00016F6F010E706F726B2A0E21
:1043600056D924EC6DF030D9260E38D1800E31D9D3
:104370002B0E4DEC32F0D5EC6DF0805101013B1964
:1043800005E10001815101013C190AE03B0E0001E9
:104390006F6F010E2ED924EC6DF016D92D0E1ED1A3
:1043A000800E17D92D0E4DEC32F0D5EC6DF080510A
:1043B0000101451905E100018151010146190AE099
:1043C000450E00016F6F010E14D924EC6DF0FCD87E
:1043D000340E04D1800EFDD82F0E4DEC32F0D5EC0A
:1043E0006DF0805101014F1905E10001815101017A
:1043F00050190AE04F0E00016F6F010EFAD824EC3D
:104400006DF0E2D83B0EEAD0800EE3D8310E4DECD1
:1044100032F0D5EC6DF0805101014B1905E100013E
:10442000815101014C190AE04B0E00016F6F010E22
:10443000E0D824EC6DF0C8D8420ED0D0840EC9D894
:104440001F0ED0D8D5EC6DF0845101019A190DE002
:104450009A0E00016F6F010E706F726B1F0ED7D82E
:1044600024EC6DF0B1D8490EB9D0840EB2D8200E2C
:10447000B9D8D5EC6DF0845101019B190DE09B0E6C
:1044800000016F6F010E706F726B200EC0D824ECAC
:104490006DF09AD8500EA2D0840E9BD8210EA2D8CF
:1044A000D5EC6DF0845101019C199D110DE09C0E1D
:1044B00000016F6F010E706F726B210EACD824EC8F
:1044C0006DF082D8570E8AD0840E83D8330E8AD8E6
:1044D000D5EC6DF08451010191190DE0910E0001B0
:1044E0006F6F010E706F726B330E91D824EC6DF00C
:1044F0006BD85E0E73D068D8010E78D065D8DECF49
:1045000078F0DDCF79F0795103E0010A33E0EBD4A4
:104510007851010AD8B412009B0A01E1FCD43B0A8D
:1045200001E110D5090A01E129D5070A01E143D5C6
:10453000190A01E15DD50B0A01E177D5790A01E19C
:1045400091D50F0A01E1A5D5190A01E1B9D50B0AE8
:1045500001E1CDD5390A01E1E1D5070A01E1F5D53F
:10456000090A01E118D61B0A01E13AD6090A01E15C
:104570005CD6B9D47851030A01E176D6090A01E183
:1045800099D61B0A01E1ADD6090A01E1C1D6070A95
:1045900001E1D5D6390A01E1E9D60B0A01E100D7DC
:1045A000190A01E117D70F0A01E12ED7790A01E1B3
:1045B00045D70B0A01E159D7190A01E16DD7070A5E
:1045C00083E0090A98E08FD482C0D9FF83C0DAFF64
:1045D000120000016D6F6E6B706B1200DE6E010ECB
:1045E000DD6E010C6F6F010E716F010CDE6EDD6A06
:1045F000000C706F726B310E716F020E736F020CD4
:1046000084C078F0796B7A6B7B6B01011200716F5B
:10461000010E736F010C716F020E736F020C6F6FDE
:10462000040E716F040C716F040E736F040C706BC9
:104630006F6B010E716F010C7C0E6D6F6E6B706B8A
:104640001200020E6F6F716F020C010E6F6F716FAF
:10465000010C21EEDAF0100EDE6AE806FDE2FCD273
:10466000640E00016B6F020E6C6F01018151020D2F
:10467000820EF324D96E040EF420DA6EDECF6DF0D4
:10468000DDCF6EF061EC68F0640E0001E86F020EA1
:10469000E96F830EEA6F010EEB6F02EC59F0640EC6
:1046A00000016B6F020E6C6F2D0E6D6F1A0E6E6F28
:1046B0000CEC64F0F4D2640E00016B6F020E6C6FB0
:1046C00001018151020D780EF324D96E040EF420FD
:1046D000DA6EDECF6DF0DDCF6EF061EC68F0640E67
:1046E0000001E86F020EE96F730EEA6F010EEB6FC7
:1046F000010EEC6FF0EC53F0640E00016B6F020ED4
:104700006C6F3D0E6D6F1B0E6E6F0CEC64F0640EE3
:104710000001E86F020EE96F770EEA6F010EEB6F92
:10472000010EEC6FB0EC48F0BAD2640E00016B6F72
:10473000020E6C6F01018151020D640EF324D96EDB
:10474000040EF420DA6EDECF6DF0DDCF6EF061EC9A
:1047500068F0640E0001E86F020EE96F870EEA6FE1
:10476000010EEB6F02EC59F0640E00016B6F020E4C
:104770006C6F2D0E6D6F1A0E6E6F0CEC64F08FD295
:10478000640E00016B6F020E6C6F01018151020D0E
:104790006E0EF324D96E040EF420DA6EDECF6DF0C7
:1047A000DDCF6EF061EC68F0640E0001E86F020E80
:1047B000E96F850EEA6F010EEB6F02EC59F0640EA3
:1047C00000016B6F020E6C6F2D0E6D6F1A0E6E6F07
:1047D0000CEC64F064D2640E00016B6F020E6C6F1F
:1047E00001018151020D5A0EF324D96E040EF420FA
:1047F000DA6EDECF6DF0DDCF6EF061EC68F00101B6
:10480000895115E1640E00016B6F020E6C6F01019E
:104810008151020D0A0EF324D96E040EF420DA6ED3
:10482000DECF6DF0DDCF6EF00CEC64F038D2640EAC
:1048300000016B6F020E6C6F01018151020D000EC1
:10484000F324D96E040EF420DA6EDECF6DF0DDCFE6
:104850006EF00CEC64F023D2640E00016B6F020E5C
:104860006C6F01018151020D500EF324D96E040EBC
:10487000F420DA6EDECF6DF0DDCF6EF061EC68F023
:10488000DA0E0001DB6F010EDC6F7E0EDD6F260E8F
:10489000DE6F8CC1DFF08DC1E0F012EC6FF0640EC2
:1048A0006B6F020E6C6FDA0E6D6F010E6E6F0CEC9B
:1048B00064F0640E00016B6F020E6C6F0101815198
:1048C000020DC20EF324D96E050EF420DA6EDECF8F
:1048D0006DF0DDCF6EF00CEC64F0E1D1640E000100
:1048E0006B6F020E6C6F01018151020D460EF324B5
:1048F000D96E040EF420DA6EDECF6DF0DDCF6EF0EF
:1049000061EC68F0DA0E0001DB6F010EDC6F7E0EE9
:10491000DD6F260EDE6F8EC1DFF08FC1E0F012EC8E
:104920006FF0640E6B6F020E6C6FDA0E6D6F010E1E
:104930006E6F0CEC64F0640E00016B6F020E6C6F16
:1049400001018151020DB80EF324D96E050EF42039
:10495000DA6EDECF6DF0DDCF6EF00CEC64F09FD13F
:10496000640E00016B6F020E6C6F01018151020D2C
:104970003C0EF324D96E040EF420DA6EDECF6DF017
:10498000DDCF6EF061EC68F0DA0E0001DB6F010E36
:10499000DC6FFA0EDD6F250EDE6F9CC1DFF09DC16E
:1049A000E0F012EC6FF0640E6B6F020E6C6FDA0EBB
:1049B0006D6F010E6E6F0CEC64F0640E00016B6F96
:1049C000020E6C6F8F0E6D6F260E6E6F0CEC64F026
:1049D000DA0E0001DB6F010EDC6FFA0EDD6F250EC3
:1049E000DE6F9BC1DFF0E06B12EC6FF0640E6B6F5B
:1049F000020E6C6FDA0E6D6F010E6E6F0CEC64F0D0
:104A0000640E00016B6F020E6C6F8F0E6D6F260EC1
:104A10006E6F0CEC64F0DA0E0001DB6F010EDC6FE0
:104A2000FA0EDD6F250EDE6F9AC1DFF0E06B12EC3F
:104A30006FF0640E6B6F020E6C6FDA0E6D6F010E0D
:104A40006E6F0CEC64F02BD1640E00016B6F020EE4
:104A50006C6F01018151020D320EF324D96E040EE8
:104A6000F420DA6EDECF6DF0DDCF6EF061EC68F031
:104A7000DA0E0001DB6F010EDC6F710EDD6F260EAA
:104A8000DE6F9EC1DFF09FC1E0F0A0C1E1F0A1C1E7
:104A9000E2F012EC6FF0640E6B6F020E6C6FDA0EC8
:104AA0006D6F010E6E6F0CEC64F0640E00016B6FA5
:104AB000020E6C6F01018151020DAE0EF324D96E0E
:104AC000050EF420DA6EDECF6DF0DDCF6EF00CEC6B
:104AD00064F0E5D0640E00016B6F020E6C6FF10E96
:104AE0006D6F240E6E6F61EC68F093C19EF094C1FF
:104AF0009FF095C1A0F096C1A1F0F9EC5EF09EC0C8
:104B0000A8F09FC0A9F0A0C0AAF0AB6B7A0EAC6F62
:104B1000440EAD6FEFEC4FF0A8C0D7F1A9C0D8F1AB
:104B2000AAC0D9F1DA0EDB6F010EDC6FCA0EDD6FA1
:104B3000250EDE6FD7C1DFF0D8C1E0F0D9C1E1F0BA
:104B400012EC6FF0640E6B6F020E6C6FDA0E6D6F0D
:104B5000010E6E6F0CEC64F0640E00016B6F020EC0
:104B60006C6F000E6D6F260E6E6F0CEC64F097D0BC
:104B7000640E00016B6F020E6C6F880E6D6F250E58
:104B80006E6F61EC68F00101635115E1640E000184
:104B90006B6F020E6C6F01018151080D420EF32400
:104BA000D96E060EF420DA6EDECF6DF0DDCF6EF03A
:104BB0000CEC64F074D0010ED9EC78F0640E6B6FDD
:104BC000020E6C6F01018151080D400EF324D96E65
:104BD000060EF420DA6EDECF6DF0DDCF6EF00CEC59
:104BE00064F030D0640E00016B6F020E6C6FDC0E4F
:104BF0006D6F250E6E6F0CEC64F051D0640E0001E9
:104C00006B6F020E6C6FA00E6D6F250E6E6F0CEC4D
:104C100064F045D0640E00016B6F020E6C6FA60E3F
:104C20006D6F250E6E6F0CEC64F039D0640E0001D0
:104C30006B6F020E6C6FAC0E6D6F250E6E6F0CEC11
:104C400064F02DD001016051CDE0010AD7E0030AE4
:104C5000E1E0ECD7000023D00101235101E100D5B0
:104C6000010A01E128D5030A01E15FD5010A01E14A
:104C700087D5070A01E1AFD5010A01E1EDD5030AA5
:104C800001E12CD6010A01E16BD60F0A01E1DCD665
:104C9000010A01E11FD7030A01E16AD7DBD792ECD1
:104CA00078F0640E0001816F020E826F82EF68F06F
:104CB000010ED9EC78F0C5D189C0D9FF8AC0DAFFDE
:104CC000DF5001011F6F456A43EC78F00101635129
:104CD00004E11E0E0001F46F1E0C0A0E0001F46FB9
:104CE0000A0C020E44EC69F0760E6B6F020E6C6FCC
:104CF0008BC0D9FF8CC0DAFFDECF6DF0DDCF6EF058
:104D000061EC68F0640E00016B6F020E6C6F20EEB8
:104D100002F08B51D9268C51DA22DECF6DF0DDCF37
:104D20006EF061EC68F0455017E1760E00016B6F94
:104D3000020E6C6F440E6D6F1D0E6E6F0CEC64F006
:104D4000640E00016B6F020E6C6F3D0E6D6F1B0EDB
:104D50006E6F0CEC64F016D0760E00016B6F020ED5
:104D60006C6F3D0E6D6F1B0E6E6F0CEC64F0640E7D
:104D700000016B6F020E6C6F440E6D6F1D0E6E6F37
:104D80000CEC64F0760E00016B6F020E6C6F20EE7F
:104D900004F08B51D9268C51DA22DECF6DF0DDCFB5
:104DA0006EF00CEC64F0640E00016B6F020E6C6F21
:104DB00020EE06F08B51D9268C51DA22DECF6DF031
:104DC000DDCF6EF00CEC64F04EEC79F00001F42BCA
:104DD00012000101635104E1000EF1EC5DF0F6D721
:104DE0006029F1EC5DF0F2D7456A77D7010E456E88
:104DF0000A0E0001F46F0A0C43EC78F0090E010171
:104E0000C96F090C43EC78F00F0E0001F46F0F0C22
:104E100001015C51010AEAE0030AE6E0010AF2E05E
:104E2000070AD8A41200E8D7020E44EC69F04550F6
:104E300001E04FD7010E0101636F100ED9EC78F03D
:104E4000760E6B6F020E6C6F20EE04F08B51D9263C
:104E50008C51DA22DECF6DF0DDCF6EF061EC68F0C0
:104E60004EEC79F0100E0001F46F100C100ED9EC1E
:104E700078F0130EF46F130C0201506B516BF40EAB
:104E8000000136D001016151621103E0D7EC64F0FA
:104E90009DD7C5EC78F072EC72F0010E0101636FE2
:104EA000E1D7040E01015C190AE143EC78F001013D
:104EB0006493040ED9EC78F0090E0101C96F020168
:104EC000504B512BB80E505D0B0E515908E30101A8
:104ED0006493040ED9EC78F0140E0101C96F01013E
:104EE00061516211D8A41200140E0001F46F140C69
:104EF0006B6F6C6B000E1EEF76F0CFEC78F066D720
:104F0000760E6B6F020E6C6F760E6D6F250E6E6FE8
:104F100061EC68F0640E00016B6F020E6C6F390E6D
:104F20006D6F1B0E6E6F61EC68F001011F5117E190
:104F3000760E00016B6F020E6C6F3D0E6D6F1B0ED7
:104F40006E6F0CEC64F0640E00016B6F020E6C6F00
:104F5000440E6D6F1D0E6E6F0CEC64F016D0760E65
:104F600000016B6F020E6C6F440E6D6F1D0E6E6F45
:104F70000CEC64F0640E00016B6F020E6C6F3D0E62
:104F80006D6F1B0E6E6F0CEC64F0760E00016B6F94
:104F9000020E6C6F01018151080D680EF324D96E69
:104FA000060EF420DA6EDECF6DF0DDCF6EF00CEC85
:104FB00064F0640E00016B6F020E6C6F0101815191
:104FC000080D6A0EF324D96E060EF420DA6EDECFD9
:104FD0006DF0DDCF6EF00CEC64F04EEC79F0506BC0
:104FE000516BF4D6F40E84D7010E1F6F1D0E000115
:104FF000F46F1D0C1F6B1D0E0001F46F1D0C3C0E99
:10500000C96F3C0C89C0D9FF8AC0DAFF1FC1DFFF1E
:105010001FB102D0649302D001016483040ED9EC65
:1050200078F0320E0101C96F320C01015C51010AA6
:10503000E1E0030AD9E0010AE5E0070AD8A412007A
:10504000DED7F45101E138D6090ACCE0030A01E1C8
:1050500048D6010A01E1BDD6070AC4E0010A01E110
:10506000D7D6020A01E1E0D61F0A01E1FFD6030A02
:1050700001E102D7070A01E105D7010A01E111D7D1
:10508000080AB0E0030A01E138D7010A01E138D784
:105090003F0AA8E0010AC9E0120025C02DF026C091
:1050A0002EF0BAD189802DC0D9FF2EC0DAFFA20E12
:1050B000DE6EDD6A000C20EE06F02550D926265063
:1050C000DA22C90EDE6EF50EDE6EC90EDE6EF50E4C
:1050D000DD6E6DEC78F02DC0D9FF2EC0DAFFA50E85
:1050E000DE6EDD6A060E2524036E000E2620046E99
:1050F000B40E056E020E066E040E95EC43F0000928
:1051000001E11200899020EE06F02550D9262650A4
:10511000DA2210EE04F02550E1262650E222DECFFE
:10512000E6FFDDCFE5FF20EE04F02550D92626501E
:10513000DA22DECF27F0DDCF28F027C028F0276A5B
:10514000296A28502A6E20EE04F02550D9262650D0
:10515000DA22DECF2BF0DDCF2CF02CC02BF02C6A26
:105160002B50291220EE04F02550D9262650DA22A1
:1051700029C0DEFF2AC0DDFF20EE04F02550D9262D
:105180002650DA22DECF0FF0DDCF10F0B3C111F0E0
:10519000B4C112F0CC0E146E136E0AEC46F00FC0C0
:1051A000B3F110C0B4F120EE04F02550D9262650FA
:1051B000DA22B3C1DEFFB4C1DDFF0AEC71F020EEEC
:1051C0000AF02550D9262650DA2209C0DEFF0AC08F
:1051D000DEFF0BC0DEFF0CC0DEFF20EE0EF0255020
:1051E000D9262650DA22430EDE6E0F0EDD6E20EE3B
:1051F0000EF02550D9262650DA22DECFBAF1DDCFC7
:10520000BBF120EE0AF02550D9262650DA22DECF57
:10521000BCF1DECFBDF1DECFBEF1DECFBFF12DC0E0
:10522000D9FF2EC0DAFFB20EDE6EDD6A20EE0AF084
:105230002550D9262650DA22DECF1FF0DECF20F00F
:10524000DECF21F0DECF22F020EE0EF02550D92661
:105250002650DA22DECF23F0DDCF24F02AEC6FF0E7
:10526000000901E1120089802DC0D9FF2EC0DAFFAC
:10527000B50EDE6EDD6A000C20EE06F02550D92654
:105280002650DA22F90EDE6EF50EDE6EF90EDE6EB7
:10529000F50EDD6E6DEC78F02DC0D9FF2EC0DAFF73
:1052A000B80EDE6EDD6A060E2524036E000E262083
:1052B000046EB40E056E020E066E040E95EC43F0FD
:1052C000000901E11200899020EE06F02550D92650
:1052D0002650DA2210EE02F02550E1262650E22276
:1052E000DECFE6FFDDCFE5FF20EE02F02550D92628
:1052F0002650DA22DECF27F0DDCF28F027C028F0B5
:10530000276A296A28502A6E20EE02F02550D926F5
:105310002650DA22DECF2BF0DDCF2CF02CC02BF084
:105320002C6A2B50291220EE02F02550D926265047
:10533000DA2229C0DEFF2AC0DDFF20EE02F0255070
:10534000D9262650DA22DECF0FF0DDCF10F0B1C122
:1053500011F0B2C112F0260E146E660E136E0AEC36
:1053600046F00FC0B1F110C0B2F120EE02F02550AE
:10537000D9262650DA22B1C1DEFFB2C1DDFF0AEC28
:1053800071F020EE0AF02550D9262650DA2209C005
:10539000DEFF0AC0DEFF0BC0DEFF0CC0DEFF20EE2A
:1053A0000EF02550D9262650DA22430EDE6E0F0E5F
:1053B000DD6E20EE04F02550D9262650DA22010EAB
:1053C000DBAE05D0500EDE5CC90EDE580EE30101E7
:1053D000598134C1D9FF35C1DAFF10EE0DF0DE502E
:1053E000E126DD50E222E7920FD00101599134C14C
:1053F000D9FF35C1DAFF10EE0DF0DE50E126DD50A9
:10540000E222E782599759952DC0D9FF2EC0DAFFC5
:10541000010EDE6EDD6A000C2DC0D9FF2EC0DAFF52
:10542000DECF27F0DDCF28F0285001E03BD6275013
:10543000010AD8B41200A30A01E13DD6070A01E12E
:1054400051D6170A01E1F2D6070A01E115D70D0A74
:1054500001E129D727D60201524B532B280E5219AE
:1054600003E1230E5319D8A44FD1140E0101C96FC3
:105470004BD143EC78F00001F26B0101266B010E79
:10548000C96F010C5A6A5A0E00019B6F64EC35F02B
:10549000060E0101C96F060C5A0E00019B6F64ECE9
:1054A00035F05A50D8A41200070E0101C96F070C3D
:1054B000000EE4EC77F00009D8B41200080EC96FB2
:1054C0000201526B536B12001E0EC96F0001F46B88
:1054D00012000001F25106E0F2070101260502E187
:1054E0000101266B090E0101C96F090C0F0E0001A5
:1054F000F261F8D7F22B01012651F4E1010E01010E
:10550000266FF0D7140EC96F140C5C51010AEEE03F
:10551000030ADFE0010AD8E0070AD8A41200F2D794
:105520005A6A5A0E00019B6F64EC35F00A0E0101B5
:10553000C96F0A0C5A0E00019B6F64EC35F05A508B
:10554000D8A412000B0E0101C96F0B0C000EE4EC85
:1055500077F0000902E00C0EC96F5DA112005C0536
:1055600004E0020E5C19D8A412000C0EC96F0C0CDA
:105570000201526B536B080E0101C96F080C43EC1A
:1055800078F0150E0101C96F150C000EE4EC77F0F0
:105590000009D8B41200160EC96F160C0001F26B88
:1055A00001015999236B040ED9EC78F00101825165
:1055B00003E1256BC96B1200820528E1D4EC78F079
:1055C00001018151040D140EF324D96E050EF4204F
:1055D000DA6EDECF81F0DDCF82F0FFEC64F092EC8A
:1055E00078F001018151040D160EF324D96E050ED9
:1055F000F420DA6EDECF81F0DDCF82F0FFEC64F0D4
:105600009A0E0101206F170EC96F170C00001200CF
:105610000A0E00016F6F010120519FEC6CF0796F51
:105620007A6B7B6B010E7C6F11EC43F00101205112
:1056300002E0200702D0180EC96F07EC6EF0B0B17F
:1056400002D00E9102D001010E8159A102D00F812A
:1056500002D001010F91895104E10E850E930E874E
:1056600003D00E850E830E975DEC5EF072EC72F047
:1056700001015C51D8B41200190EC96F190CECEC81
:1056800077F0256BC96B1200DCEC77F01A0E010184
:10569000C96F1A0C92EC78F001018151020DD00E05
:1056A000F324D96E020EF420DA6EDECF81F0DDCF66
:1056B00082F0FFEC64F01B0E0101C96F000EE4ECF8
:1056C00077F00009D8B41200180EC96F180C0E0E2E
:1056D0000001F21901E112D703D743EC78F0010180
:1056E000C92B1200000E0EEC63F0460E0101C96FCB
:1056F000460C010E0EEC63F0F8D7246BF0D7242B88
:10570000130E2465130CEED60101C95101E1B1D687
:10571000010A01E1B7D6070A01E1BED6010A01E19B
:10572000C7D60F0A01E1F1D6010A01E1F9D6030A51
:1057300001E100D7010A01E109D7070A01E118D701
:10574000180A01E11CD7010A01E11FD7030A01E190
:1057500025D7010A01E15CD70F0A91E0010A94E024
:10576000030A98E0010AAAE0050A02E17CEF2EF0A4
:105770003E0AADE0120AB1E0010AB4E00F0AADE062
:10578000010AB7E07B0AB9E0010AB9E012000001A2
:10579000EE6F7DD183C158F084C159F087C156F0B6
:1057A00088C157F085C154F086C155F0CFEC78F030
:1057B000030E0001F46F030C5DB308D000016C6BA5
:1057C0000A0E6B6FEE518CEC42F007D000016C6B4F
:1057D000320E6B6FEE518CEC42F00001F42B120094
:1057E0005DB308D000016C69F60E6B6FEE518CEC66
:1057F00042F0F3D700016C69CE0E6B6FEE518CEC6A
:1058000042F0EBD73C0EC96F3C0C58C083F159C035
:1058100084F156C087F157C088F154C085F155C056
:1058200086F1320EC96F320C01015C51010AD8E0D9
:10583000030AC2E0010AE9E0070AD8A41200E2D78D
:10584000B0EC76F0020E44EC69F068D0760E6B6F27
:10585000020E6C6F01018151040D7A0EF324D96E92
:10586000050EF420DA6EDECF6DF0DDCF6EF061EC68
:1058700068F058C071F059C072F00001746B0A0EE4
:10588000736F79EC5BF071C0ECF072C0EDF0ECC0BE
:1058900079F0EDC07AF0030E7B6F010E7C6F11EC96
:1058A00043F042D0760E6B6F020E6C6F0101815196
:1058B000040D2A0EF324D96E060EF420DA6EDECF24
:1058C0006DF0DDCF6EF061EC68F054C071F055C042
:1058D00072F00001746B0A0E736F79EC5BF0D3D732
:1058E000760E6B6F020E6C6F01018151040D160E66
:1058F000F324D96E060EF420DA6EDECF6DF0DDCF24
:105900006EF061EC68F056C071F057C072F00001A3
:10591000746B0A0E736F79EC5BF0B5D7EE5196E0BD
:10592000010AC0E0030ADCE072EC72F0D4EC78F01B
:1059300054D7760E816F020E826F82EC68F092EC83
:1059400078F07ED0640E6B6F020E6C6F780E6D6F08
:10595000260E6E6F61EC68F0640E0001E86F020EB7
:10596000E96F540EEA6FEB6B02EC59F0640E000124
:105970006B6F020E6C6F390E6D6F260E6E6F0CEC36
:1059800064F0640E0001E86F020EE96F560EEA6FD4
:10599000EB6B02EC59F021D7640E6B6F020E6C6F4B
:1059A0003E0E6D6F260E6E6F61EC68F0640E0001A6
:1059B000E86F020EE96F580EEA6FEB6B02EC59F0DC
:1059C000640E00016B6F020E6C6F390E6D6F260E48
:1059D0006E6F0CEC64F0640E0001E86F020EE96F6C
:1059E000560EEA6FEB6B02EC59F0F7D6640E6B6F54
:1059F000020E6C6F780E6D6F260E6E6F61EC68F0A4
:105A0000640E0001E86F020EE96F540EEA6FEB6B53
:105A100002EC59F0640E00016B6F020E6C6F3D0ECC
:105A20006D6F260E6E6F0CEC64F0640E0001E86F73
:105A3000020EE96F580EEA6FEB6B02EC59F0CDD60F
:105A40000001EE5101E17ED7010AA6E0030ACEE093
:105A5000C4D6640E816F020E826F82EC68F0BDD6F0
:105A6000F40E6B6F6C6B000E1EEC76F05DA104D033
:105A70005C0502E10001F42B01015DA11200020EA0
:105A80005C1901E1AAD61200020EF46F020C0001AB
:105A9000F45101E17FD6020A01E1C6D6010A01E113
:105AA000CFD6070A01E145D7010AD3E0030AD8E0BF
:105AB000010AEAE0120020D1820E9B6F010E9C6F5A
:105AC00001018151080D780EF32400019D6F070E2E
:105AD000C6D0000EC7EF2BF00101B051010ED8A4C3
:105AE000000EB06FB00E00019B6F010E9C6F0101A4
:105AF0008151080D640EF32400019D6F060EF42001
:105B00009E6FAEEC2EF00101B051010ED8A4000E34
:105B1000B06FB0B102D05F9102D001015F8112007D
:105B2000020EC7EF2BF0010EC7EF2BF001018951D8
:105B3000010ED8A4000E896F890E00019B6F010E23
:105B40009C6F01018151080D500EF32400019D6FDF
:105B5000070EF4209E6FAEEC2EF001018951010E6C
:105B6000D8A4000E896F89B102D0589302D00101E8
:105B70005883090EC919D8A4120020EE02F034513E
:105B8000D9263551DA2210EE0FF0DE50E126DD5035
:105B9000E22289518CEC78F0E76E1200010181510C
:105BA000040DB40EF3240001826F060EF420836FFF
:105BB0008C0E846F010E0DD001018151040DA00ED9
:105BC000F3240001826F060EF420836F8E0E846F23
:105BD000010E856F876B3C0E866F896B010E886F97
:105BE0008B6B8A6F8D6B050E8C6F8E6B010E8F6FBA
:105BF000906F64EF33F091C1CCF20201CD6B0101E3
:105C00008151040D8C0EF3240001826F060EF420E6
:105C1000836FCC0E846F020E856F876B640E866F68
:105C2000896B140E886F8B6B8A6F8D6B8C6F8E6B8C
:105C3000010E8F6F906F64EC33F0CCC291F10101D3
:105C40009151E0EF6BF08A0E9B6F010E9C6F01018A
:105C50008151080D280EF32400019D6F070EF420DA
:105C60009E6FAEEF2EF001018B51010ED8A4000EF5
:105C70008B6F8B0E00019B6F010E9C6F0101815198
:105C8000080D3C0EF32400019D6F060EF4209E6F5C
:105C9000AEEC2EF001018B51010ED8A4000E8B6FDB
:105CA000090EC919D8A412008BB102D08C9601D06C
:105CB0008C861200630E896F010E8A6F010181517B
:105CC000080D000EF32400018B6F070EF4208C6F7B
:105CD00058EF26F0810E716F010E726F0101815134
:105CE0000E0DA00EF3240001736F090EF420746FE3
:105CF000050E756F5EEF36F00001F25101E1DCD662
:105D0000010A01E1E6D6030A01E1E6D6010A01E152
:105D100007D7070A01E107D7010A01E107D7030AFC
:105D200001E13CD7010A01E147D70F0A01E163D73E
:105D3000010A02E183EF4BF0030A02E130EF3CF08D
:105D4000010A02E104EF42F0070A01E17CD7010AEF
:105D50008AE0030AAFE0010ABDE012000201246BF1
:105D600024D19BC0D9FF9CC0DAFFDF50426ECFEC3C
:105D700078F0030E0001F46F030C420401E1426A63
:105D80000001F42B12004250FBE1010E426EF8D7E5
:105D90003C0EC96F3C0C0001F25109E1420407E1DD
:105DA00001015EB304D0140E0001F46F140C9BC00B
:105DB000D9FF9CC0DAFF42C0DFFF320E0101C96F7C
:105DC000320C01015C51010ADEE0030AD6E0010A4F
:105DD000E2E0070AD8A41200DBD7B1EC79F00009A1
:105DE000D8B41200760E6B6F020E6C6F9DC0D9FF97
:105DF0009EC0DAFFDECF6DF0DDCF6EF061EC68F0B3
:105E0000640E00016B6F020E6C6F20EE02F09D516C
:105E1000D9269E51DA22DECF6DF0DDCF6EF061EC37
:105E200068F0425017E1760E00016B6F020E6C6F46
:105E3000440E6D6F1D0E6E6F0CEC64F0640E00016D
:105E40006B6F020E6C6F3D0E6D6F1B0E6E6F0CEC68
:105E500064F016D0760E00016B6F020E6C6F3D0E73
:105E60006D6F1B0E6E6F0CEC64F0640E00016B6FB7
:105E7000020E6C6F440E6D6F1D0E6E6F0CEC64F0B5
:105E8000760E00016B6F020E6C6F20EE04F09D51D8
:105E9000D9269E51DA22DECF6DF0DDCF6EF00CEC0C
:105EA00064F0640E00016B6F020E6C6F20EE06F062
:105EB0009D51D9269E51DA22DECF6DF0DDCF6EF0F6
:105EC0000CEC64F04EEC79F05BD7D5EC71F0000986
:105ED000D8B4120045D0020EF46F020C000E6B6FA6
:105EE000090E6C6F01018151020D280EF324D96E49
:105EF000040EF420DA6EDECF6DF0DDCF6EF061ECD3
:105F000068F0DCEC77F03CD7D4EC78F001018151FB
:105F1000020D140EF324D96E040EF420DA6EDECFD7
:105F200081F0DDCF82F0FFEC64F02AD792EC78F0BC
:105F300001018151020D1E0EF324D96E040EF420CE
:105F4000DA6EDECF81F0DDCF82F0FFEC64F0010E7F
:105F50000201286F080E296F010E52EC77F010D75E
:105F6000F40E6B6F6C6B000E1EEF76F01B0EF46F71
:105F70001B0C000E52EC77F09BC0D9FF9CC0DAFFDF
:105F800042C0DFFF320E04D0000E52EC77F03C0E20
:105F90000101C96F06D001015C51030AEAE0070A5A
:105FA000F3E0180E0001F46F180C0001F45101E148
:105FB000D8D6020A01E105D7010A01E10ED7070A86
:105FC00084E0010A88E0110A89E0010A9DE0030AE1
:105FD000ADE0010AC5E00F0AC9E0010AC7E0020A04
:105FE000DAE01200E8EC78F06BC0C3F16CC0C4F1E9
:105FF000010159A1B4D059955997FDD8D7D8E79642
:10600000FAD8D4D8E794F00E0001C06FE10EC16F4A
:10601000410EC26F07D9D5EC6CF010D9FE0E7C6F23
:10602000E80E7D6F3A0E7E6F49EC4CF0C6D8A1ECBD
:106030003FF00BD9F7D8D5EC6CF000D9F3D8D5ECFC
:106040006CF0F5D849EC4CF079C0BDF0C9D8460EDB
:106050007C6FDE0E7D6FB20E7E6F49EC4CF0ADD8DA
:10606000A1EC3FF0F2D8DED8D5EC6CF0E7D8DAD866
:10607000D5EC6CF0DCD849EC4CF079C0BDF0B0D870
:10608000D1D8D5EC6CF0D3D849EC4CF079C0BDF048
:10609000A7D86D0E7C6FA00E7D6F2B0E7E6F49EC26
:1060A0004CF08BD8A1EC3FF0D0D8C0C079F0C1C083
:1060B0007AF0C2C07BF07C6B200E7D6F410E7E6F4C
:1060C00049EC4CF079C0C0F07AC0C1F07BC0C2F09E
:1060D000C0C0B7F0C1C0B8F0C2C0B9F03DEC5BF0D1
:1060E00094D87FEC4EF08FC075F190C076F183D8D4
:1060F00010EE06F085D875C1E6FF76C1E5FFC0C099
:10610000A8F0C1C0A9F0C2C0AAF0AB6B200EAC6F62
:10611000410EAD6FEFEC4FF0A8C0B7F0A9C0B8F0DA
:10612000AAC0B9F03DEC5BF070D87FEC4EF08FC0A8
:1061300073F190C074F1010174BF0AD0745103E18E
:10614000330E735D05E3598556D830D8E78611D0F4
:1061500074AF0FD059874FD829D8E7840AD0746B11
:10616000140E736F48D810EE06F04AD8C80EE66ECB
:10617000E56AB4EC60F000016E6B120E6D6F98EC86
:1061800072F06BC077F16CC078F177C171F078C1B3
:1061900072F062D879EC5BF071C077F172C078F17F
:1061A000200E01017727000E7823000C10EE0DF071
:1061B000DE50E126DD50E222120079C0BDF07AC047
:1061C000BEF07BC0BFF0C0C092F0C1C093F0C2C0AF
:1061D00094F0BDC095F0BEC096F0BFC097F012001D
:1061E0007AC0BEF07BC0BFF0BDC079F0BEC07AF00F
:1061F000BFC07BF0120034C1D9FF35C1DAFF1200F5
:10620000DE50E126DD50E2221200B7C0C0F0B8C077
:10621000C1F0B9C0C2F0C0C08FF0C1C090F0C2C020
:1062200091F01200C3C173F0C4C174F0120073C0C6
:106230007CF074C07DF075C07EF0120073C079F000
:1062400074C07AF075C07BF0120092C0C0F093C0A9
:10625000C1F094C0C2F01200746B0A0E736F0A0C86
:10626000820E00016D6F010E6E6F17EC23F0D5ECFE
:106270006DF0B00E6D6F010E6E6F706B25EC23F03C
:10628000D5EC6DF0830E6D6F010E6E6F706B21ECAF
:1062900023F0D5EC6DF0850E6D6F010E6E6F706B97
:1062A000040EFBD8D5EC6DF0870E6D6F010E6E6F8E
:1062B000706B060EF2D8D5EC6DF08C0E6D6F010E82
:1062C0006E6F706B080EE9D8D5EC6DF08E0E6D6FA9
:1062D000010E6E6F706B0A0EE0D8D5EC6DF0900E6B
:1062E0006D6F010E6E6F706B0C0EF2EC22F0D5EC40
:1062F0006DF0920E6D6F010E6E6F706B0D0EF2EC05
:1063000022F0D5EC6DF0890E6D6F010E6E6F706B23
:106310000E0EF2EC22F0D5EC6DF0810E6D6F010ED9
:106320006E6F706B0F0EF2EC22F0D5EC6DF05E0E1E
:106330006D6F010E6E6F706B100EF2EC22F0D5ECEB
:106340006DF0670E6D6F010E6E6F706B110E0FECBE
:1063500023F0D5EC6DF06B0E6D6F010E6E6F706BF0
:10636000150E0FEC23F0D5EC6DF06F0E6D6F010E76
:106370006E6F706B190E0FEC23F0D5EC6DF0980E6C
:106380006D6F010E6E6F706B1D0E87D8D5EC6DF0C2
:106390009A0E6D6F010E6E6F706B1F0EF2EC22F095
:1063A000D5EC6DF09B0E6D6F010E6E6F706B200E55
:1063B000F2EC22F0D5EC6DF09C0E6D6F010E6E6F5D
:1063C000706B210E6AD8D5EC6DF08A0E6D6F010EE0
:1063D0006E6F706B230EF2EC22F0D5EC6DF08B0E2D
:1063E0006D6F010E6E6F706B240EF2EC22F0D5EC27
:1063F0006DF09E0E6D6F010E6E6F706B250E0FECC3
:1064000023F0D5EC6DF0630E6D6F010E6E6F706B47
:10641000290EF2EC22F0D5EC6DF05F0E6D6F010EDF
:106420006E6F706B2A0EF2EC22F0D5EC6DF03B0E25
:106430006D6F010E6E6F706B2B0E2FD8D5EC6DF05B
:10644000450E6D6F010E6E6F706B2D0E26D8D5EC5C
:106450006DF04F0E6D6F010E6E6F706B2F0E1DD8AD
:10646000D5EC6DF04B0E6D6F010E6E6F706B310ED3
:1064700014D8D5EC6DF04BC141F14CC142F14BC188
:1064800055F14CC156F1910E6D6F010E6E6F706B30
:10649000330EF2EC22F0D5EF6DF06F6F020E716FDC
:1064A000020C06C1D9FF07C1DAFFDECFEFF3DDCF63
:1064B000F0F301D80AD00500FA6E0301EF51FD6E2A
:1064C000F051FE6EFF6AFA5012006BC0F5F36CC01B
:1064D000F6F30301F551F6113AE0020140510301D0
:1064E000F51935E1020141510301F61930E1000EC1
:1064F00000016D6F0B0E6E6F706B800E6F6F010180
:1065000020EE02F00651D8D801D80AD00500FA6E64
:106510000301EF51FD6EF051FE6EFF6AFA5012005A
:106520006DC0F1F36EC0F2F3000E0101CA6F0B0EE5
:10653000CB6FF1C3CCF1F2C3CDF1000ECE6F0C0ED8
:10654000CF6F010ED16F000ED06F93EC45F0F5C305
:1065500040F2F6C341F22EC281F02FC282F030C267
:1065600083F031C284F002012E2B000E2F23302342
:10657000312381C078F082C079F083C07AF084C082
:106580007BF032C27CF033C27DF034C27EF035C283
:106590007FF092EC5FF0785179117A117B1101E074
:1065A00002D0010E01D0000E00092DE0000E7C6F1C
:1065B0000C0E7D6F010E7F6F7E6B8CEC70F07CC0DB
:1065C000F3F37DC0F4F3000E6C6F0C0E6D6FF3C32C
:1065D0006EF0F4C36FF0010120EE04F006516CD8A8
:1065E00001D80AD00500FA6E0301EF51FD6EF0519B
:1065F000FE6EFF6AFA5012003F5004E001D002D054
:10660000408001D040906B6B3F5008E001D006D035
:1066100040A004D001D002D0010E6B6F6B51000975
:106620004AE001D0010C40307F0BAF6F040EAF6524
:1066300038D001D036D03FA605D001D003D0A7EC8A
:1066400079F03F963FA007D001D005D001016351FA
:10665000A3EC6DF03F903FA205D001D003D020EC19
:1066600078F03F923FA405D001D003D0A5EC79F09B
:106670003F943FA80CD001D00AD0010164B301D0EF
:1066800002D0010E01D0000ED3EC76F03F983FAA65
:1066900005D001D003D0A9EC79F03F9A4090010ECB
:1066A000401640307F0BAF6FAF2BAF374050AF1964
:1066B000010BAF19406E010CD9260751DA22DECF4B
:1066C000EFF3DDCFF0F31200F4D084C0D9FF85C022
:1066D000DAFFDECF0CF1DDCF0DF1CFEC78F0000169
:1066E000F42B1200760E6B6F020E6C6F82C0D9FF16
:1066F00083C0DAFFDECF6DF0DDCF6EF061EC68F0C5
:10670000640E00016B6F020E6C6F20EE02F082517E
:10671000D9268351DA22DECF6DF0DDCF6EF061EC49
:1067200068F04EEC79F0030E0001F46F030C5DB3DA
:106730001FD000018A51865D916F8B518759926FEE
:1067400001010C510001915D9251800A936F01018A
:106750000D51800A0001935906E38A5101010C276B
:1067600000018B511ED086C00CF187C00DF1B7D748
:1067700000018C51865D916F8D518759926F010197
:106780000C510001915D9251800A936F01010D51EE
:10679000800A00019359E7E38C5101010C270001A5
:1067A0008D5101010D239BD75DB31DD000018A518E
:1067B0008825916F8B518921926F915101010C5D58
:1067C0000D51800A0001936F9251800A935906E39C
:1067D0008A5101010C5F00018B511CD088C00CF163
:1067E00089C00DF17CD700018C518825916F8D51A6
:1067F0008921926F915101010C5D0D51800A0001B8
:10680000936F9251800A9359E9E38C5101010C5F17
:1068100000018D5101010D5B62D73C0EC96F3C0C2C
:1068200084C0D9FF85C0DAFF0CC1DEFF0DC1DDFFDA
:10683000320EC96F320C01015C51010AB5E0030A46
:1068400001E175D7010AECE0070AD8A41200E5D7E8
:106850000CC171F00DC172F090C073F0746B79ECE3
:106860005BF071C094F072C095F094C079F095C05F
:106870007AF08EC07BF08FC07CF011EC43F072ECAC
:1068800072F02DD7F40E6B6F6C6B000E1EEC76F071
:106890005DA104D05C0502E10001F42B01015DA1C2
:1068A0001200020E5C1901E11AD71200020EF46FF9
:1068B000020CF45101E109D7010A01E113D7030ADF
:1068C000BAE0010AC5E0070ADDE0010AEFE01200C4
:1068D0008E6F00018EAF4BD08E6D8E51800A120FDD
:1068E00025E3E3D8D0D86BBF6C0791EC5EF0E7D816
:1068F00079EC5BF0D6D881D8746B640EDBD871BFAD
:10690000720779EC5BF07151120F030DD10EDAECC6
:1069100041F049EC4CF096D86BBF6C0791EC5EF0FF
:106920006B51030D6AD849EC4CF09FD08E51800A10
:10693000750F16E3746B0A0EBDD871BF720779EC40
:106940005BF0AFD8D10EDAEC41F096D86BBF6C0794
:1069500091EC5EF06B51030D50D849EC4CF085D0B2
:106960008E51030DD10EF324D96E0A0E91D08E51A3
:10697000800A120F25E399D886D86BBF6C0791EC7B
:106980005EF09DD879EC5BF07151090F55D842D873
:10699000746B640E8FD871BF720779EC5BF0715124
:1069A000120F4AD840D849EC4CF04CD86BBF6C075A
:1069B00091EC5EF06B5140D82DD849EC4CF055D09D
:1069C0008E51800A750F16E3746B0A0E73D871BF6F
:1069D000720779EC5BF07151090F2ED824D84CD88E
:1069E0006BBF6C0791EC5EF06B5126D813D849EC65
:1069F0004CF03BD08E5120D84BD0D10EF324D96E21
:106A00000A0EF420DA6EDECF7CF0DECF7DF0DDCF33
:106A10007EF01200F420DA6EDECF7CF0DECF7DF067
:106A2000DDCF7EF01200F420DA6EDECF79F0DECF1B
:106A30007AF0DDCF7BF01200030DAA0EF324D96E9D
:106A40000A0E120079C08BF07AC08CF07BC08DF0FA
:106A50008BC079F08CC07AF08DC07BF06E6B0A0E23
:106A60006D6F8E516B6F6C6B120079C088F07AC0BD
:106A700089F07BC08AF012006E6B0A0E6D6F8E512A
:106A80006B6F6C6B12006D6F8E516B6F6C6B1200C5
:106A9000F420DA6EDECF88F0DECF89F0DDCF8AF029
:106AA00012007151090F030D1200746B0A0E736FFF
:106AB0006E6B640C736F8E51716F726B12006BC0D2
:106AC00071F06CC072F01200F0D0020E44EC69F06C
:106AD000760E6B6F020E6C6F01018151040D3C0E3E
:106AE000F324D96E050EF420DA6EDECF6DF0DDCF23
:106AF0006EF061EC68F0640E00016B6F020E6C6F5B
:106B000001018151040D3E0EF324D96E050EF420CF
:106B1000DA6EDECF6DF0DDCF6EF061EC68F0010172
:106B2000265159E1760E00016B6F020E6C6F440E18
:106B30006D6F1D0E6E6F0CEC64F0640E00016B6FD8
:106B4000020E6C6F3D0E6D6F1B0E6E6F0CEC64F0E1
:106B5000760E00016B6F020E6C6FF251020DF3CFD7
:106B60009CF0F4CF9DF001018151220D000EF32421
:106B700000019E6F0A0EF4209F6F9C519E25D96ED6
:106B80009D519F21DA6EDECF6DF0DDCF6EF00CEC03
:106B900064F0640E00016B6F020E6C6FF2519C6F1B
:106BA0009D6BD8909C379D3701018151220D020EBB
:106BB000F32400019E6F0A0EF4209F6F9C519E25C6
:106BC000D96E9D519F21DA6EDECF6DF0DDCF6EF074
:106BD0000CEC64F058D0760E00016B6F020E6C6FF7
