:10110000A8EF08F0FFFFFFFF5B82FAEF4CF0FFFF54
:10111000FFFFFFFFFFFFFFFF5B80D8CF66F0E8CF48
:1011200067F0E0CF68F0FACF69F0FBCF6AF0F2BA6F
:10113000F2A402D0CAEC77F06AC0FBFF69C0FAFFE4
:1011400068C0E0FF67C0E8FF66C0D8FF5B90100092
:101150001BEF37F0004CF258EE46EEC4B28CBD8661
:10116000F128CA48F244F240F23CF2F0F1EAF1E42C
:10117000F196F050D6010000000A00000064000063
:1011800000E803000010270000A086010040420F85
:10119000008096980000E1F50500CA9A3B4CED30BE
:1011A000F258F298DC60ED34F25AF2C8DC42EC6698
:1011B000F120F268DC38ED2CF21CF238DC457320AB
:1011C0007775726465206B65696E65206572666F00
:1011D0006C67726569636865204B616C69627269EE
:1011E0006572756E6720766F7267656E6F6D6D657F
:1011F0006E202D206469652070482D576572742D0E
:10120000416E7A6569676520697374206D94676CB7
:1012100069636865727765697365206665686C6582
:101220007268616674202D20776F6C6C656E205338
:101230006965207769726B6C69636820666F727488
:1012400066616872656E3F2E2E2E2E20004E6F2036
:101250007365206861207265616C697A61646F20D2
:10126000756E612063616C696272616369E26E2010
:10127000636F727265637461202D206C6173206CE2
:101280006563747572617320646520704820706FA7
:101290006472E1616E2073657220696D70726563BE
:1012A00069736173202D209F657374E020736567F7
:1012B00075726F2064652071756520646573656162
:1012C00020636F6E74696E7561723F2E2E2E200042
:1012D000417563756E208274616C6F6E6E616765B7
:1012E00020728275737369206E2761208274822058
:1012F0006566666563747582202D206C6573206C4D
:101300006563747572657320646520704820706F22
:101310007572726F6E74208874726520696E65785C
:101320006163746573202D20887465732D766F75E5
:10133000732073967220646520766F756C6F697286
:1013400020636F6E74696E756572203F2E2E2E209D
:10135000004572206973206765656E206765736C50
:101360006161676465206B616C6962726174696553
:10137000207569746765766F657264202D207048EA
:101380002D6D6574696E67656E207A6F7564656E24
:10139000206F6E6E6175776B6575726967206B750E
:1013A0006E6E656E207A696A6E202D2062656E749D
:1013B0002075207A656B65722064617420752077D2
:1013C000696C7420646F6F726761616E3F2E2E2EA0
:1013D00020004E6F207375636365737366756C20B0
:1013E00063616C6962726174696F6E2068617320F9
:1013F0006265656E20706572666F726D6564202D22
:101400002070482072656164696E677320636F7530
:101410006C6420626520696E6163637572617465D6
:10142000202D2061726520796F752073757265209B
:10143000796F752077616E7420746F2070726F639E
:101440006565643F2E2E2E2000207374656C6C65DC
:101450006E2C203C63616C3E20647281636B656E10
:101460002C20756D20666F72747A7566616872657E
:101470006E2E20536965206B946E6E656E206A65D2
:101480006465727A656974203C053E2064728163EC
:101490006B656E2C20756D20646965204B616C69ED
:1014A0006272696572756E672061627A75627265D3
:1014B0006368656E2E2020002C2070756C7361723D
:1014C000203C63616C3E207061726120636F6E74BA
:1014D000696E7561722E2050756C736172203C05C7
:1014E0003E20656E206375616C7175696572206D53
:1014F0006F6D656E746F20706172612063616E63E1
:10150000656C6172206C612063616C6962726163F9
:1015100069E26E2E2020002C207072657373657254
:10152000203C63616C3E20706F757220636F6E7437
:10153000696E7565722E2050726573736572203CFA
:10154000053E208520746F7574206D6F6D656E7417
:1015500020706F757220616E6E756C6572206C27DD
:101560008274616C6F6E6E6167652E2020002C2086
:101570006472756B206F70203C63616C3E206F6DF0
:1015800020646F6F72207465206761616E2E204445
:1015900072756B206F70203C053E206F6D206B6173
:1015A0006C6962726174696520746520616E6E7524
:1015B0006C6572656E2E20002C207072657373202E
:1015C0003C63616C3E20746F20636F6E74696E754E
:1015D000652E205072657373203C053E20616E7944
:1015E00074696D6520746F2063616E63656C206340
:1015F000616C6962726174696F6E2E200052696E4F
:10160000636572206C6120736F6E64652064652071
:1016100070482C206C6120706C616365722064617D
:101620006E73206C6120736F6C7574696F6E20002F
:10163000456E6A7561676172206C6120736F6E64BC
:10164000612064652070482C20636F6C6F63617249
:1016500020656E2000417373657274696F6E206639
:1016600061696C65643A202573206C696E6520257C
:10167000643A20222573220A00636F6E6669672D23
:101680003E7361766553657474696E677320213D9E
:101690002028302900636F6E6669672D3E70726F77
:1016A0007669646553697A6520213D2028302900D8
:1016B00053706F656C2070482D70726F62652C20BE
:1016C000706C6161747320696E2000636F6E66696F
:1016D000672D3E7772697465427974657320213D88
:1016E000202830290052696E73652070482050729E
:1016F0006F62652C20706C61636520696E200063E9
:101700006F6E6669672D3E726561644279746573B8
:1017100020213D2028302900777269746550657258
:10172000696F64203E207461736B506572696F64E9
:101730000070482D536F6E64652061627370816C18
:10174000656E2C20696E20007372632F5461736B79
:10175000732F726164696F5461736B2E63007372CF
:10176000632F526164696F2F726164696F2E630029
:101770005420616374697661646F202873656729FA
:101780000054656D7073206D617263686520287305
:1017900029009074616C6F6E6E6572207048342FF2
:1017A0003130005A65697420616267656C2E2120B2
:1017B0003C063E00546D656F7574207672737472CA
:1017C000203C063E0044826C616920657870697235
:1017D00082213C063E0053696E6420536965207384
:1017E00069636865723F00496E737420766572653F
:1017F000697374652070480045732077757264655D
:10180000206B65696E65204B004E6F2073756363B6
:1018100065737366756C206361004572206973207F
:101820006765656E206765736C61004E6F20736538
:10183000206861207265616C697A61004175637529
:101840006E208274616C6F6E6E61676500704834E3
:101850002F31302043616C6962726174650052827D
:10186000676C657220636F6E747261737465004D8E
:101870006F6E69746F72696E672062657A6967005E
:10188000546572756773746C6C6E2062657A6967F3
:10189000007048342D4B616C696272696572756EB7
:1018A00067007048372D4B616C69627269657275AB
:1018B0006E67007374616E646161726477616172F6
:1018C00064656E005282696E697469616C697361E6
:1018D00074696F6E007048342F3130206B616C6911
:1018E000627265726E0044726B206F702004206F0C
:1018F0006D20746520700064826661757420726565
:1019000073746175728273005282676C65722070A5
:101910004820726571756973005265737420616A3D
:101920007573207072656465740045696E73742EFA
:10193000205281636B6C69636874005265736574CF
:1019400020746F2044656661756C7400416368742F
:1019500072677276726C2062696A737400416A758C
:1019600073746172206C757A20706F7374005465A3
:10197000727567206F702073746E647264770052A2
:101980006573746F72656420466163746F72790069
:101990006F75744361706163697479203E20330010
:1019A00041616E2D74696A6420287365632E290075
:1019B000417566205A656974202853656B2E29008D
:1019C0005569742D74696A6420286D696E2E29002A
:1019D00054707320617272887420286D696E2900BA
:1019E00050756D70652048616E64626574722E007A
:1019F0005374616E642E207A757281636B732E004E
:101A000043616C6962726172207048342F3130001A
:101A1000887465732D766F757320739672203F00FE
:101A20005365742052657175697265642070480051
:101A3000416A75737465732066E062726963610060
:101A4000426F6D62612076656C6F636964616400EA
:101A500050726573736572200420706F6D7065003D
:101A6000416A75737420636F6E747261737465007C
:101A700070482D4B616C696272696572756E6700A2
:101A80005282676C657220728274726F82636C001E
:101A9000506F6D706520656E206D616E75656C00B0
:101AA000446F736572656E206F6D682F6F6D6C008B
:101AB00041636874657267726F6E647665726C00FC
:101AC00070483130206B616C6962726572656E00BE
:101AD000363053656320436F756E74646F776E00A4
:101AE000313553656320436F756E74646F776E0094
:101AF0005072657373200420746F2050756D7000F0
:101B000050726F766973696F6E6E656D656E740085
:101B100045696E73742E204B6F6E7472617374001E
:101B2000436F6E74726173742041646A75737400DC
:101B300020202020202020202020202020200032B3
:101B40002F332070756E742063616C2020009074B8
:101B5000616C20322F3320707473202000322F33B9
:101B600020506F696E742043616C20004175737A58
:101B700065697420284D696E2E29005420646573B0
:101B800061637420286D696E29004F75693C063EBB
:101B90002C4E6F6E3C053E2C00322F332D50756E4F
:101BA0006B742D4B616C2E007048342F31302D4BEF
:101BB000616C6962722E009074616C6F6E6E6572FA
:101BC0002070483130004A613C063E2C204E656949
:101BD0006E3C053E004F75693C063E2C204E6F6EF4
:101BE0003C053E0054696D6564204F757421203CAE
:101BF000063E005420657870697261646F203C066F
:101C00003E00436F6E7369676E652064652070489F
:101C10000043616C696272616369E26E2070480022
:101C2000528274726F82636C616972616765007061
:101C30004831302043616C69627261746500436FA2
:101C40006E74726F6C652062657A696700426572B6
:101C50006569747374656C6C756E670070483420C8
:101C60006B616C6962726572656E00704837206BDB
:101C7000616C6962726572656E0070482043616CC8
:101C80006962726174696F6E003130302520656E53
:101C900063656E6469646F005265737461626C653C
:101CA0006369656E646F0053756269722F416C637E
:101CB000616C696E6F00506172616D8A74726573D8
:101CC000207061720043616C20322F332070756E7A
:101CD000746F7300436F6E74726173742062696A0B
:101CE00073740052657374617572206482666175E5
:101CF00074004F666654696D6520284D696E290031
:101D00005765726B65696E7374656C6C2E00436108
:101D10006C69627261722070483130009074616C3D
:101D20006F6E6E657220704834009074616C6F6ED7
:101D30006E657220704837004A613C063E2C204E8A
:101D400065653C053E004A613C063E2C4E65696E69
:101D50003C053E005965733C063E2C204E6F3C0509
:101D60003E0041726520796F7520737572653F0082
:101D70009F457374E02073656775726F3F0042651D
:101D80006E742075207A656B65723F009074616C8B
:101D90006F6E6E61676520704800416C61726D61A5
:101DA000206DE16E696D6100416C61726D61206D45
:101DB000E078696D610050756D70204F76657272C4
:101DC0006964650070482D6B616C69627261746949
:101DD00065004175676D2F64696D20646F736500E0
:101DE000506F6D7065207669746573736500704817
:101DF000342043616C6962726174650070483720F9
:101E000043616C696272617465004F6D686F6F67E2
:101E10002F616C6B616C69004261636B6C69676810
:101E2000742041646A00506F6D70206F7068656641
:101E300066656E0070482065696E7374656C6C65CC
:101E40006E004B6F6E74726F6C6C696572656E00BC
:101E5000704820436F6E74726F6C6C6572004C75C5
:101E60007A20706F73746572696F72005375622F98
:101E700042616A20646F7369730072657374616292
:101E80006C656369646F730043616C20322F33703B
:101E9000756E746F73005469656D706F206465733F
:101EA000616374007A757281636B67657365747AB8
:101EB00074004D69736C756B74203C063E00005ACB
:101EC000756D2070756D70656E2004004F6E5469DD
:101ED0006D6520285365632900704831302D4B61B2
:101EE0006C6962722E0043616C696272617220706B
:101EF00048340043616C6962726172207048370037
:101F00004A613C063E2C4E65653C053E0053E13C73
:101F1000063E2C204E6F3C053E005965733C063E44
:101F20002C4E6F3C053E00496E7374656C6C656E9B
:101F3000207048005375727665696C6C616E6365DC
:101F40000054656D7073206D617263686500416C4B
:101F500061726D6520626173736500416C61726DC1
:101F60006520686175746500496E656666656374B1
:101F7000696576650050726F766973696F6E696E18
:101F80006700426F6D6261206D616E75616C00501B
:101F90006F6D7065206D616E75656C005A7572812C
:101FA000636B7365747A656E007061726120626F35
:101FB0006D62656172004375656E74612061747253
:101FC000E073007265626F757273203630207300A3
:101FD0007265626F757273203135207300466169D6
:101FE0006C6564203C063E00004665686C657220A6
:101FF0003C063E0000547073206D6172636865207A
:1020000000462F572076302E302E31350053E13CDC
:10201000063E2C4E6F3C053E004765616E6E756C4A
:10202000656572640031303025206D6172636865CA
:1020300000496E656666656374697665004265761B
:102040006F6F726164696E6700436F6E74726F6C5C
:102050006C696E67009A62657277616368756E6716
:10206000004175676D2F616C63616C690041626747
:102070006562726F6368656E00436F6E74726F6C39
:102080006572656E0042616A61722FE06369646F18
:102090000050756D70652054656D706F004F6D6CEC
:1020A0006161672F7A7575720054656D7073206178
:1020B00072728874004765737065696368657274CD
:1020C00000456E726567697374728200906368651B
:1020D00063203C063E00004572726F72203C063E53
:1020E00000004872206D617263686520004561726E
:1020F00074684C696E6B200048696768416C617256
:102100006D20004C616167616C61726D2000486FE9
:102110006F67616C61726D2000416C61726D614D21
:10212000E16E200052657175657269646F2000412F
:102130006C61726D614DE0782000416C61726D2DB3
:102140004D696E2E00416C61726D2D4D61782E00CF
:10215000417369676E617220704800416A757374DB
:1021600061722070480050756D7020537065656411
:102170000050756D70204F7672646500556E7769FA
:10218000726B73616D65004D6F6E69746F72696E0D
:1021900067004D696E2D20416C61726D004D617854
:1021A0002D20416C61726D004869676820416C6147
:1021B000726D004C61616720616C61726D00486FE7
:1021C0006F6720616C61726D00446F73652055709C
:1021D0002F446E004F706765736C6167656E009A7F
:1021E00062657277616368656E00528267756C61C3
:1021F00074696F6E003025206170616761646F00E3
:102200004D656D6F72697A61646F00506F6D7020FB
:1022100074656D706F005469656D706F20616374D3
:102220000073616E73206566666574009074616CFE
:1022300020322F337074005461616C2020202020E4
:10224000004964696F6D61202020004C616E6775E4
:102250006520202000537072616368652020004172
:102260006C61726D6520422000416C61726D652069
:102270004820005265717569726564200041616E85
:102280002D74696A6420005569742D74696A64202C
:10229000005765726B74696A6420004C616E6775E3
:1022A0006167652000566572656973746520004C2E
:1022B0006F77416C61726D200054206465736163B7
:1022C000742000417566205A65697420004C617560
:1022D000667A65697420005470732061727274208C
:1022E00000446F736973202B2F2D0043616E63656B
:1022F0006C6C656400446F776E2F416369640044C1
:10230000696D2F6163696465004865727374656CFB
:102310006465004B6F6E74726F6C6C6500436F6E1A
:1023200074726173746500616674656C6C696E6764
:1023300000526573657474696E67002B2F42617378
:10234000697363680055702F416C6B616C6900455F
:10235000617274684C696E6B00322F337074204365
:10236000616C00322F3370742063616C004C6F77A6
:1023700020416C61726D004D6F6E69746F72656E95
:102380000043616E63656C61646F004D6F6E6974CC
:102390006F72656F005296636B6C6963687400427C
:1023A00061636B6C6967687400436F6D707465205E
:1023B000850050756C7361722004004572666F72FF
:1023C000642E20004F666654696D65200052756E5C
:1023D00054696D6520004175737A65697420004900
:1023E0006E6163746976610041616E2D74696A641F
:1023F000005569742D74696A64004C616E6775617B
:10240000676500636F6E74726F6C650031303025E4
:102410002061616E00313030252045696E005470B6
:10242000726F6365736F0044656661756C747300E9
:102430003025206172728874004C6175667A656916
:102440007400436F6E747261737400696E656669BF
:1024500063617A0054206163742E20004F6E5469CA
:102460006D652000446F73696E6720005265717559
:1024700069732000704834283130290036302073C9
:1024800065632E003135207365632E00363020538E
:10249000656B2E0031352053656B2E0053707261D1
:1024A000636865004F666654696D6500436F6E74BE
:1024B000726F6C0031303025204F6E006472816382
:1024C0006B656E00446F736572656E002D2F5361EE
:1024D000756572004D6F6E69746F72004175737A25
:1024E00065697400286E756C6C2900416E6E756CA0
:1024F000820054656D702E2000426F6D6261200075
:10250000506F6D7065200050756D706520004170D2
:10251000726F762E00536574207048004964696FAD
:102520006D6100416C61726D610041637469766137
:10253000004D6172636865004F6E54696D650041BE
:102540006C61726D65004C616E67756500302520A9
:102550004F6666003630207365670031352073653D
:10256000670030252041757300302520756974009F
:102570004D454E5520004461746120004D6F6465E7
:102580002000446F73652000576946692000546538
:102590006D702000506F6D70200050756D702000C0
:1025A00020457272310020457272320020457272ED
:1025B0003300426F6D626100536176656400506F55
:1025C0006D70650050756D70650025332E316600A5
:1025D00025342E31660057692D46690020436F6E01
:1025E0006E00446F736973004D6F647573004172C0
:1025F000728874004E696368740025302E3275004D
:10260000206D5620006D696E2E0044617461004D8E
:102610006F646500446F7365005461616C004D6FB9
:10262000646F00506F6D70004E6965740035302521
:102630000032352500373525002048410020535011
:10264000007370610066726100736563006E6C6494
:1026500000656E670041616E006D696E004E6F6EC1
:102660000048727300556974004E6F74006465759C
:1026700000256C75002D2D004C41004F4B0025644A
:1026800000416E004E6F004F720055720003003A19
:1026900000430046000000019F6B9E690201246B0D
:1026A000040E01015A190CE116510AE1000EC4ECA6
:1026B00076F0400E0101C76F010E166FDEEF18F0C5
:1026C000280EA05D230EA15902E2DEEF18F0000EE5
:1026D000C4EC76F0400E0101C76FA06BA16BDEEF7A
:1026E00018F05BA10ED000019F6B030E9E6F0101DD
:1026F000579DC00EC76F41EC78F0010E0101186FB5
:102700000BD0000E56EC77F0000906E000019E6B3E
:102710009F6B0101246BC76B0201286B040E296FAC
:102720000101166B75EF19F046EC78F001017F514D
:10273000020DE40EF324D96E020EF420DA6EDECF21
:1027400081F0DDCF82F09DEC64F0020E010120D01B
:102750005BA504D0010E166F500E1AD0000E56EC79
:1027600077F0000902E175EF19F0050E11D0176B33
:1027700057A102D00F8102D001010F915C935C91AF
:102780005C953B6B456B4F6BF1EC6EF0060EDED744
:10279000C76F75EF19F0F6EC5DF0F0EC71F0080E14
:1027A000D5D7020EE2EC68F0000E6B6F090E6C6F6D
:1027B00001017F51020DB90EF324D96E030EF420EE
:1027C000DA6EDECF6DF0DDCF6EF0FFEC67F0000E5D
:1027D00000016B6F090E6C6FFC0E6D6F1E0E6E6F3D
:1027E000AAEC63F0000E00016B6F090E6C6F010123
:1027F0007F51020DAF0EF324D96E030EF420DA6E72
:10280000DECF6DF0DDCF6EF0AAEC63F0010E0201B9
:10281000246FC4EC76F0090E99D7F1EC6EF0010E3E
:102820000201246F0A0E92D7050E56EC77F00009CC
:10283000F2E0000EC4EC76F0700E0101C76F100ECE
:102840003ED1A06BA16B41EC78F0C00E0101C76FC7
:10285000110E43EF18F0760E00016B6F020E6C6FD5
:1028600001017F51020DE40EF324D96E020EF42013
:10287000DA6EDECF6DF0DDCF6EF0FFEC67F046EC88
:1028800078F0760E0001816F020E826F20EC68F006
:10289000120E5CD7C00EC76F900E186F7ABF08D0AB
:1028A0007A51791129E1510E775DC30E785924E2EE
:1028B0007AAF09D0B00E775D3C0E7859FF0E79598A
:1028C000FF0E7A5919E30CEC75F0640E00016B6F82
:1028D000020E6C6F01017F51020DA50EF324D96E1B
:1028E000030EF420DA6EDECF6DF0DDCF6EF0FFEC7C
:1028F00067F0200E010119D0ABEC66F0640E6B6F2F
:10290000020E6C6F01017F51020D9B0EF324D96EF4
:10291000030EF420DA6EDECF6DF0DDCF6EF0FFEC4B
:1029200067F0010E0101166F310E1A6F04EC78F09A
:10293000640E0001816F020E826F9DEC64F071ECF9
:102940006DF0F6EC5DF0F0EC71F075EF19F04EEC17
:1029500077F0C00E0101C76F210E95D346EC78F0D9
:10296000000E00016B6F090E6C6F01017F51020DAB
:10297000B90EF324D96E030EF420DA6EDECF6DF0BB
:10298000DDCF6EF0FFEC67F001015CA11CD0000E02
:1029900000016B6F090E6C6F170E6D6F1D0E6E6F61
:1029A000AAEC63F001017F51020DCD0EF324D96E24
:1029B000030EF420DA6EDECF81F0DDCF82F09DECE5
:1029C00064F0020E39D05CA51CD0000E00016B6FC4
:1029D000090E6C6FEF0E6D6F1E0E6E6FAAEC63F03A
:1029E00001017F51020DDA0EF324D96E020EF4209C
:1029F000DA6EDECF81F0DDCF82F09DEC64F0010E67
:102A00001BD0000E00016B6F090E6C6F740E6D6FA2
:102A1000240E6E6FAAEC63F001017F51020DC30E0C
:102A2000F324D96E030EF420DA6EDECF81F0DDCF11
:102A300082F09DEC64F0030E0101176F220EA8D600
:102A4000000E00016B6F090E6C6F01017F51020DCA
:102A5000AF0EF324D96E030EF420DA6EDECF6DF0E4
:102A6000DDCF6EF0AAEC63F004EC78F0230E6ED6A6
:102A700071EC6DF0F6EC5DF0F0EC71F0010E02011E
:102A8000246FC4EC76F0A00E0101C76F240EE5D1CF
:102A900071EC6DF0F6EC5DF073EC5CF0010E020190
:102AA000246F250E53D6050E56EC77F000090AE088
:102AB000000EC4EC76F0700E0101C76F270E1B6F7D
:102AC00075EF19F0240E64D6A06BA16B5C970E997C
:102AD0000E9D0E9B0E9F41EC78F0C00E0101C76F5A
:102AE000280ED1D273C1A4F074C1A5F02A0E1B6FB9
:102AF0006551775D0001A06F0101665178590001B1
:102B0000A16F0101675179590001A26F010168515C
:102B10007A590001A36FA3BF9BD0A35108E1D00E47
:102B2000A05DFB0EA159010EA25901E291D0A3BFF5
:102B30000AD0A35107E1210EA05D3C0EA159030E5E
:102B4000A259D8B085D043EC73F021EE65F0DECF0A
:102B50006BF0DDCF6CF00001000E6CBFFF0E6D6FEF
:102B60006E6FE80E6F6F030E706F716B726B9CEC83
:102B70004CF06BC0A7F06CC0A8F00101000E5CB374
:102B8000010E00016B6FA7C06CF0A8C06DF0A9C06A
:102B90006EF0A4C06FF0A5C070F0A6C071F0010E79
:102BA0004DEC64F021EE69F0DECF6BF0DDCF6CF020
:102BB0000001000E6CBFFF0E6D6F6E6FE80E6F6F41
:102BC000030E706F716B726B9CEC4CF06BC0A7F0D6
:102BD0006CC0A8F00101000E5CB1010E00016B6F2A
:102BE000A7C06CF0A8C06DF0A9C06EF0A4C06FF0D3
:102BF000A5C070F0A6C071F0000E4DEC64F0760E2A
:102C000000016B6F020E6C6F01017F51020DDA0E35
:102C1000F324D96E020EF420DA6EDECF6DF0DDCF34
:102C20006EF0FFEC67F0640E00016B6F020E6C6FCC
:102C300001017F51020DA50EF324D96E030EF4207D
:102C4000DA6EDECF6DF0DDCF6EF0FFEC67F0CDD049
:102C5000A3AF9CD0310EA05D040EA159FE0EA25967
:102C6000FF0EA35901E392D0A3AF0AD0E00EA05DFE
:102C7000C30EA159FC0EA259FF0EA35901E286D042
:102C800020EC70F021EE65F0DECF6BF0DDCF6CF064
:102C90000001000E6CBFFF0E6D6F6E6FE80E6F6F60
:102CA000030E706F716B726B9CEC4CF06BC0A7F0F5
:102CB0006CC0A8F00101000E5CB3010E00016B6F47
:102CC000A7C06CF0A8C06DF0A9C06EF0A4C06FF0F2
:102CD000A5C070F0A6C071F0010E4DEC64F021EEBD
:102CE0006DF0DECF6BF0DDCF6CF00001000E6CBF3D
:102CF000FF0E6D6F6E6FE80E6F6F030E706F716B6E
:102D0000726B9CEC4CF06BC0A7F06CC0A8F001019A
:102D1000000E5CB5010E00016B6FA7C06CF0A8C07F
:102D20006DF0A9C06EF0A4C06FF0A5C070F0A6C091
:102D300071F0020E4DEC64F0236B760E00016B6FA8
:102D4000020E6C6F01017F51020DCD0EF324D96E7E
:102D5000030EF420DA6EDECF6DF0DDCF6EF0FFEC07
:102D600067F0640E00016B6F020E6C6F01017F5102
:102D7000020DA50EF324D96E030EF420DA6EDECF19
:102D80006DF0DDCF6EF0FFEC67F02FD0010E01018A
:102D9000166FABEC66F0760E6B6F020E6C6F010176
:102DA0007F51020DC30EF324D96E030EF420DA6EA8
:102DB000DECF6DF0DDCF6EF0FFEC67F0640E00014A
:102DC0006B6F020E6C6F01017F51020D9B0EF3249D
:102DD000D96E030EF420DA6EDECF6DF0DDCF6EF02B
:102DE000FFEC67F0310E01011B6F46EC78F0760EB8
:102DF0000001816F020E826F20EC68F004EC78F025
:102E0000290EA4D4640E0001816F020E826F20ECA3
:102E100068F071EC6DF0F6EC5DF0F0EC71F0C00E66
:102E20000101C76F900E186F1BC11AF15ED2A00E80
:102E3000C76F885103E05CB15CA502D0300E0DD0A5
:102E4000200E196F6DD4579D5C9790EC3EF00101F8
:102E5000976B010E966F8BD1420E196F46D2030EFF
:102E600056EC77F0000901E140D2420E91D441ECDA
:102E700078F0410E0101186FC00E68D446EC78F06E
:102E800001017F51020DD70EF324D96E030EF420F9
:102E9000DA6EDECF81F0DDCF82F09DEC64F004ECE1
:102EA00078F001017F51020DD00EF324D96E020E8D
:102EB000F420DA6EDECF81F0DDCF82F09DEC64F09D
:102EC0000101B56BB66BA06BA16B900EC76F800E46
:102ED000D2D0B5EC77F0C00E0101C76F430ED3D04E
:102EE00000019E6B9F6B0101246B806B00018A6B5C
:102EF000896B56EC63F00101C76B226BBFEC78F075
:102F0000200E2FEC79F0F1D1B00EC76F510EBBD06F
:102F100046EC78F001017F51020DD70EF324D96EF3
:102F2000030EF420DA6EDECF81F0DDCF82F09DEC6F
:102F300064F004EC78F001017F51020DB40EF3242B
:102F4000D96E040EF420DA6EDECF81F0DDCF82F090
:102F50009DEC64F0A00E0101C76FB00E196F520E08
:102F600092D046EC78F001017F51020DC80EF32497
:102F7000D96E040EF420DA6EDECF81F0DDCF82F060
:102F80009DEC64F004EC78F001017F51020DBE0E5F
:102F9000F324D96E040EF420DA6EDECF81F0DDCF9B
:102FA00082F09DEC64F0530EA6EF13F0030E5A1955
:102FB00004E1B00EC76F540E66D0040E5A1901E03A
:102FC00094D1B00EC76F550E5ED046EC78F001017B
:102FD0007F51020DD20EF324D96E040EF420DA6E66
:102FE000DECF81F0DDCF82F09DEC64F0ABEC66F0DB
:102FF000900E0101C76FA00E1A6F2ED746EC78F025
:1030000001017F51020DD00EF324D96E020EF4207F
:10301000DA6EDECF81F0DDCF82F09DEC64F0E8D790
:10302000A06BA16BB5EC77F0610E24D7ABEC66F02A
:10303000200E816F400E96EC73F00101175153EC96
:103040005DF0620EA6EF13F004EC78F001017F5101
:10305000020DAA0EF324D96E040EF420DA6EDECF30
:1030600081F0DDCF82F09DEC64F0C00E0101C76FEE
:10307000900E186F310E1A6F38D14EEC77F0C00EEB
:103080000101C76F710E186F30D1175153EC5DF00D
:10309000720EA6EF13F077C16FF078C170F079C1AE
:1030A00071F07AC172F0000E31EC36F000019D6BC8
:1030B0003F6A01011D6B1C6B02014C6B4D6B04ECF4
:1030C00078F03F50ECEC6BF0730EA6EF13F0F1ECE0
:1030D0006EF002014C4B4D2BAC0E4C5D260E4D5943
:1030E00005E3010E0101166F600EC76F01011D2B74
:1030F000090E1D65FAD01D6B77C16FF078C170F0B5
:1031000079C171F07AC172F0010E31EC36F0000134
:103110009D6F01011C2B02014D5104E1320E4C5DEB
:1031200001E2E3D0010E01011C65DFD01C6B04EC51
:1031300078F000019D513F5C05E23F2A3F50ECECE6
:103140006BF0D3D0060E3F1801E0CFD01BC1C7F102
:10315000CCD026EC31F090EC3EF001015CA307D01E
:10316000D10E965D020E975902E3578D5C87A00E33
:10317000C76F72D6236B910EC8EF13F0232B310E5D
:103180002365B3D01AC1C7F1B0D0000E56EC77F06A
:10319000000901E1AAD019C1C7F1A7D04EEC77F020
:1031A0006BD63FEC71F0000901E19FD053EC71F058
:1031B000000901E19AD018C1C7F197D0C75102E1C7
:1031C00071EF13F0010A02E194EF13F0030A02E138
:1031D000A8EF13F0070A02E1B7EF13F0030A02E1C8
:1031E000CBEF13F00E0A02E1D1EF13F0010A02E176
:1031F0000DEF14F0030A02E114EF14F01A0A02E1D1
:1032000021EF14F0010A02E12BEF14F0030A02E1AE
:103210004AEF14F0320A02E1A7EF14F0010A02E1CA
:10322000AEEF14F0030A01E10BD4010A01E120D44E
:10323000070A01E12DD4010A01E135D4020A01E1B6
:1032400043D40F0A01E14ED4010A01E1DBD5030AA0
:1032500001E1EDD51A0A01E1F6D5010A01E1FFD538
:10326000710A01E104D6010A01E108D6030A01E16D
:1032700030D6010A01E134D6130A01E145D6010A2C
:1032800001E146D6030A01E16CD6010A01E18ED6BE
:10329000070A01E19AD6010A01E1B0D6350A01E137
:1032A000BFD6010A01E1C2D6030A01E1CDD6120A56
:1032B00001E1E3D6010A01E1E8D6030A01E1EBD618
:1032C000010A01E104D7F30A01E143D7100A01E141
:1032D00051D7010A01E152D7310A01E156D7100A4C
:1032E00001E15CD7700A01E15CD79EC09BF09FC0F2
:1032F0009CF0120069EF1EF0250EDA191CE089EC33
:103300001EF011E0B651D96E81EC1EF002D869EFC3
:103310001EF00500FA6EBA51FD6EBB51FE6EFF6ADB
:10332000FA50DA51120075EC1EF0DAC0DFFF99ECAA
:103330001EF069EF1EF0D66BD76BD46BD56B03D044
:10334000D485B74BB82BC8EC1EF0300AF9E0C8ECB6
:103350001EF0F3EC73F01CE3D66BD76BD6C06BF0AA
:10336000D7C06CF05BEC1FF016EC72F06BC0D6F0BF
:103370006CC0D7F0B7C0F6FFFFEC1EF0D627BC51EB
:10338000D723B74BB82BC8EC1EF0F3EC73F0E6E292
:10339000C8EC1EF02E0A22E1D58DB74BB82BD86BA6
:1033A000D96B15D0D8C06BF0D9C06CF05BEC1FF0B6
:1033B00016EC72F06BC0D8F06CC0D9F0B7C0F6FF55
:1033C000FFEC1EF0D827BC51D923B74BB82BC8EC63
:1033D0001EF0F3EC73F001E2B3D0E4D7D86BD96BF5
:1033E000D589AED0D489ACD0D585C2D0B951D96EEB
:1033F000DA6A020EDF26DF5CD96EDA6ADECFC3F04E
:10340000DECFC4F0C351C41104E1E40EC36F240E37
:10341000C46FC56BC66B03D00001C54BC62BC5512D
:10342000C325BA6FC651C421BB6FBAC0F6FFBBC07B
:10343000F7FF000EF86E0F0EF76403D00800F5508A
:1034400003D02FEC48F0EF500009E6E10001D8511D
:10345000D9110BE0C55164EC1FF0C651800ABA596E
:1034600004E2D8C0C5F0D9C0C6F0D651C55DD75169
:10347000C65905E2C551D65FC651D75B1AD0D66B87
:10348000D76B17D089EC1EF00FE0B651D96E81ECE6
:103490001EF001D80ED00500FA6EBA51FD6EBB5178
:1034A000FE6EFF6AFA50200C75EC1EF0200E91ECB7
:1034B0001EF00001D607D8A0D707D629E3E1D72907
:1034C00034E0E0D789EC1EF01EE0B651D96E81ECF5
:1034D0001EF001D814D00500FA6EBA51FD6EBB5132
:1034E000FE6EFF6AFA504DEC1FF00F0EF76403D02A
:1034F0000800F55003D02FEC48F0EF501200000107
:10350000C34BC42B12D04DEC1FF0EFDB0F0EF76452
:1035100003D00800F55003D02FEC48F0EF50DF6ED9
:103520000001C34BC42B99EC1EF0C507D8A0C607F9
:10353000C529C8E1C62901E1CCD3C4D7D48D18D0A0
:10354000B7C0F6FFB8C0F7FF37EC1FF001E1CAD3F0
:10355000640A0EE0020A01E147D70F0A09E0050AF2
:1035600001E140D71F0A01E141D7060AE7E0B1D3E4
:10357000070ED51501E181D2D5A903D0D96B060E6E
:10358000D86FB951D96EDA6ADFCFBAF0030EDF26F1
:10359000BA51D96EDA6ADECFD1F0DECFD2F0DDCF0C
:1035A000D3F0D3AF10D0D1C06BF0D2C06CF0D3C089
:1035B0006DF08EEC75F06BC0D1F06CC0D2F06DC0C8
:1035C000D3F0030ED413C76BC86BD151D211D311F2
:1035D00069E0820EBA6FBB69D1C0BCF0D2C0BDF049
:1035E000D3C0BEF0D4C0BFF0100E05D0D890BF330A
:1035F000BE33BD33BC33E82EF9D7BC51BA25C76FF3
:10360000000EBB21C86FC707D8A0C807C7C06BF0A2
:10361000C8C06CF06E6B030E6D6F16EC72F06BC071
:10362000C7F06CC0C8F0C7C071F0C8C072F022EC1F
:1036300031F012EC5BF071C0C7F072C0C8F0C8AFD7
:1036400003D0C707D8A0C807C75100084BEC33F018
:1036500054EC1FF0CDC079F0CEC07AF0CFC07BF033
:103660003FEC1FF0DDEC4BF079C0CDF07AC0CEF02E
:103670007BC0CFF0E3DB6E6B800E6F6F3F0E706F21
:1036800001EC63F004E2C707D8A0C8070BD0D6DB73
:103690006E6B200E6F6F410E706F01EC63F002E3F2
:1036A000C74BC82BD9BF05D0D9511AE10D0ED85D33
:1036B00017E2D1C092F0D2C093F0D3C094F0D851A9
:1036C00014EC41F088C095F089C096F08AC097F05C
:1036D0003AEC3FF092C0D1F093C0D2F094C0D3F056
:1036E000C8BF05D0C85116E10A0EC75D13E2D1511B
:1036F000D211D3113CE0CADB13EC4EF08F51901184
:103700009111921134E1C8BF32D0C85103E1020EC9
:10371000C75D2DE393DB700E6E6F890E6F6F400EE9
:10372000706F01EC63F0F70ED8B0F80EC727FF0EEC
:10373000C823C7514BEC33F0B7DBD1C06BF0D2C01C
:103740006CF0D3C06DF0CDC06EF0CEC06FF0CFC0C6
:1037500070F083EC49F06BC0C9F06CC0CAF06DC06A
:10376000CBF06EC0CCF0D16BD26BD36B24D08EDBA0
:1037700013EC4EF06ADBD1C0B0F0D2C0B1F0D3C0D0
:10378000B2F0C9C073F0CAC074F0CBC075F0CCC041
:1037900076F03AEC65F073C0B3F074C0B4F075C065
:1037A000B5F03DEC6CF0B0C0D1F0B1C0D2F0B2C019
:1037B000D3F0C76BC86B010EDA6FC2DA2EDB04E3FD
:1037C000DA2B0A0EDA19F9E1DA51D825BA6F000EB0
:1037D000D921BB6FC751BA27C851BB23BA51D65F95
:1037E000BB51D75BD851D91103E0D607D8A0D70772
:1037F00020DB03E0D607D8A0D707D4A54CD019DB2F
:103800002BE087DA0EE0B651D96E7BDA01D824D0EE
:103810000500FA6EBA51FD6EBB51FE6EFF6AFA509A
:103820002D0C63DA2D0E7DDA17D073DA0EE0B65167
:10383000D96E67DA01D80CD00500FA6EBA51FD6E68
:10384000BB51FE6EFF6AFA50300C4FDA300E69DA67
:103850000001D607D8A0D7070001D7BF4ED0D75157
:10386000E4E1D6054AE3E1D754DA0EE0B651D96E69
:1038700048DA01D80CD00500FA6EBA51FD6EBB5182
:10388000FE6EFF6AFA50200C30DA200E4ADA000190
:10389000D607D8A0D707D7BF04D0D751E5E1D605C2
:1038A000E3E2C7DA2AE035DA0EE0B651D96E29DA5A
:1038B00001D823D00500FA6EBA51FD6EBB51FE6EE1
:1038C000FF6AFA502D0C11DA2D0E16D08FDA38DA85
:1038D00067DA9AEC5AF046DA2BEC5FF07EDA19DA06
:1038E00008E0B651D96E0DDA01D807D00500FA6E9E
:1038F0007AD0FBD9CD51300F14DA0001DA07DA297A
:1039000018E0E4D706DA0EE0B651D96EFAD901D83C
:103910000CD00500FA6EBA51FD6EBB51FE6EFF6A07
:10392000FA50300CE2D9300EFCD90001C707D8A0FC
:10393000C807C8BF04D0C851E5E1C705E3E2D9BF55
:1039400008D0D95103E1090ED85D03E3080EDA6F00
:1039500002D0D8C0DAF0DA51D85F000ED95BDA5164
:1039600013E0D7D90EE0B651D96ECBD901D80CD01F
:103970000500FA6EBA51FD6EBB51FE6EFF6AFA5039
:103980002E0CB3D92E0ECDD90001DA514BEC33F009
:1039900088C0C0F089C0C1F08AC0C2F070DAC0C06F
:1039A00079F0C1C07AF0C2C07BF0DDEC4BF079C099
:1039B0008FF07AC090F07BC091F013EC4EF045DAB6
:1039C0003CD014DABDD9ECD99AEC5AF0CBD92BEC17
:1039D0005FF003DA9ED90EE0B651D96E92D901D8C4
:1039E0000DD00500FA6EBA51FD6EBB51FE6EFF6A36
:1039F000FA506FD27AD9CD51300F93D9C9C078F02F
:103A0000CAC079F0CBC07AF0CCC07BF0000198D965
:103A1000F5CF7CF00900F5CF7DF00900F5CF7EF001
:103A20000A00F5CF7FF02BEC5FF078C0C9F079C0C9
:103A3000CAF07AC0CBF07BC0CCF0DA07DA2918E004
:103A4000C0D767D90EE0B651D96E5BD901D80CD07A
:103A50000500FA6EBA51FD6EBB51FE6EFF6AFA5058
:103A6000300C43D9300E5DD90001D807D8A0D90752
:103A7000D851D91101E12DD1E4D7D4BD1BD0D4A99F
:103A800002D09AD90AD0EAD9DECFC9F0DDCFCAF088
:103A9000000ECABFFF0ECB6FCC6FCCAF1AD0030E97
:103AA000D413CC1FCB1FCA1FC96D000ECA23CB2352
:103AB000CC230FD0D4A902D07FD90BD0CFD9DECF61
:103AC000BAF0DDCFBBF0BAC0C9F0BBC0CAF0CB6B57
:103AD000CC6BD851D91107E1C951CA11CB11CC1106
:103AE00002E1D84BD92B010EDA6F2AD996D904E31B
:103AF000DA2B0A0EDA19F9E1DA51BA6FBB6BD85139
:103B0000DED9D951800ABC5903E2D8C0DAF00FD00F
:103B1000DA51BA6FBB6BBA51D85DD951800ABC6F0C
:103B2000BB51800ABC5903E2DAC0D8F0D96BD65138
:103B3000D71105E07ED903E0D607D8A0D707D5ADC9
:103B40000DD0D651C1D9D751800ABA5905E2D85102
:103B5000D65FD951D75B02D0D66BD76BDA51BA6F2B
:103B6000BB6BD651ACD9D751800ABC5905E2DA51AA
:103B7000D65F000ED75B02D0D66BD76BD4A532D000
:103B800058D913E0C6D80EE0B651D96EBAD801D8CC
:103B90000CD00500FA6EBA51FD6EBB51FE6EFF6A85
:103BA000FA502D0CA2D82D0EBCD80001D651D71139
:103BB00001E187D0AED80EE0B651D96EA2D801D8B7
:103BC0000CD00500FA6EBA51FD6EBB51FE6EFF6A55
:103BD000FA50300C8AD8300EA4D80001D607D8A0ED
:103BE000D707E4D7D651D7111AE093D80EE0B651D3
:103BF000D96E87D801D80CD00500FA6EBA51FD6E87
:103C0000BB51FE6EFF6AFA50200C6FD8200E89D887
:103C10000001D607D8A0D707D651D711E6E109D9B8
:103C200050E077D80EE0B651D96E6BD801D849D0A4
:103C30000500FA6EBA51FD6EBB51FE6EFF6AFA5076
:103C40002D0C53D82D0EDF6E3BD0D8C0BAF0D9C0A2
:103C5000BBF0D890BA37BB37D890BA37BB37750EA0
:103C6000BA25F66E110EBB21F76E77D899D8BED85B
:103C70009AEC5AF06BC078F06CC079F06DC07AF0B5
:103C80006EC07BF00A0E7C6F7D6B7E6B7F6B2BECC6
:103C90005FF07851300FDA6F3CD80FE0B651D96E33
:103CA00030D801D80ED00500FA6EBA51FD6EBB5166
:103CB000FE6EFF6AFA50DA51120017D8DAC0DFFF41
:103CC00038D80001D807D8A0D907D829BEE1D9290A
:103CD000BCE1B7C0F6FFB8C0F7FF0001C8D802E0EA
:103CE0007CEF19F0B66BB76B1200B651D96EDA6A79
:103CF000DECFBAF0DDCFBBF0BAC0D9FFBBC0DAFF70
:103D00001200DA6A020ED926DECFBAF0DDCFBBF0A0
:103D1000020CB651D96EDA6A020ED926DE50DE10D8
:103D20001200DF6EB651D96EDA6ADE2A000EDD228D
:103D3000000CB651D96EDA6ADE2A000EDD22000CC4
:103D4000DA51040D750EF324F66E110EF420F76EA1
:103D5000F86A000EF82209001200F86A000EF82234
:103D6000090012006BC0CDF06CC0CEF06DC0CFF07A
:103D70006EC0D0F0CDC078F0CEC079F0CFC07AF070
:103D8000D0C07BF00A0E7C6F7D6B7E6B7F6B0A0C64
:103D9000B7C0F6FFB8C0F7FFF86A0800F550120088
:103DA000F5CF6FF00900F5CF70F00900F5CF71F095
:103DB0000A00F5CF72F01200B951D96EDA6A040E1A
:103DC000DF26DF5CD96EDA6ADECFC9F0DECFCAF05B
:103DD000DECFCBF0DECFCCF0120078C0CDF079C0D2
:103DE000CEF07AC0CFF07BC0D0F01200C9C06BF02B
:103DF000CAC06CF0CBC06DF0CCC06EF01200B8C081
:103E0000F7FFF86A0800F5CFBAF0D00EBA25BB6FFD
:103E1000BC6BFF0EBC23BB511200F550C95D0900FD
:103E2000F550CA590900F550CB590900F550CC5945
:103E30001200D4C0BAF0030EBA17030CCDC06BF059
:103E4000CEC06CF0CFC06DF012008FC0C9F090C032
:103E5000CAF091C0CBF092C0CCF01200B951D96E2B
:103E6000DA6ADF50DF2ADF2AD96EDA6A1200B74B2E
:103E7000B82BF86A0800F5CFDAF0DA511200D1C099
:103E80007CF0D2C07DF0D3C07EF01200D1C08FF0A4
:103E9000D2C090F0D3C091F01200C3C0F6FFC4C0EE
:103EA000F7FF000EF86E120088C0CDF089C0CEF08A
:103EB0008AC0CFF012006E6B0A0E6D6F0A0CBA5DED
:103EC000BB51800ABC6F1200D85DD951800ABA6F0D
:103ED0001200CD51300F120076C082F077C083F00F
:103EE0000BD3840E6D6F6E6BA0DB3FEC6DF08451D5
:103EF000010180190EE0800E00016F6F010E706FDE
:103F0000726B716B010E736FA7EC6CF05BDB9A0E3A
:103F10006BD3840E5CDB97DB3FEC6DF084510101C9
:103F2000AE190EE0AE0E00016F6F010E706F726B76
:103F3000010E716F736FA7EC6CF044DBA10E54D3CC
:103F4000800E45DB7CDB3FEC6DF080510101811977
:103F500005E100018151010182190EE0810E00018D
:103F60006F6F010E706F726B020E716F736FA7EC43
:103F70006CF028DBA80E38D3800E29DB040E43EC4E
:103F800032F03FEC6DF080510101831905E1000131
:103F90008151010184190DE0830E00016F6F010E44
:103FA000706F726B040E35DBA7EC6CF00BDBAF0EA1
:103FB0001BD3800E0CDB060E43EC32F03FEC6DF0B1
:103FC00080510101851905E1000181510101861926
:103FD0000DE0850E00016F6F010E706F726B060EA3
:103FE00018DBA7EC6CF0EEDAB60EFED2800EEFDA3C
:103FF000080E43EC32F03FEC6DF0805101018A195C
:1040000005E10001815101018B190DE08A0E0001CB
:104010006F6F010E706F726B080EFBDAA7EC6CF01D
:10402000D1DABD0EE1D2800ED2DA0A0E43EC32F0C4
:104030003FEC6DF0805101018C1905E100018151C7
:1040400001018D190DE08C0E00016F6F010E706F74
:10405000726B0A0EDEDAA7EC6CF0B4DAC40EC4D2CE
:10406000840EB5DA0C0EBCDA3FEC6DF08451010120
:104070008E190DE08E0E00016F6F010E706F726B66
:104080000C0EC3DAA7EC6CF09DDACB0EADD2840E29
:104090009EDA0D0EA5DA3FEC6DF084510101901906
:1040A0000DE0900E00016F6F010E706F726B0D0EC0
:1040B000ACDAA7EC6CF086DAD20E96D2840E87DAF0
:1040C0000E0E8EDA3FEC6DF08451010187190DE080
:1040D000870E00016F6F010E706F726B0E0E95DA16
:1040E000A7EC6CF06FDAD90E7FD2840E70DA0F0E67
:1040F00077DA3FEC6DF0845101017F190DE07F0EFE
:1041000000016F6F010E706F726B0F0E7EDAA7ECFD
:104110006CF058DAE00E68D2840E59DA100E60DACC
:104120003FEC6DF0845101015C190DE05C0E000163
:104130006F6F010E706F726B100E67DAA7EC6CF088
:1041400041DAE70E51D27C0E42DA110E66DA3FEC0C
:104150006DF054DA6551000178190FE101016651E3
:10416000000179190AE10101675100017A1905E19D
:104170000101685100017B190CE0650E6F6F010EA3
:10418000706F726B110E4DDAA7EC6CF01BDAEE0E4D
:104190002BD250DA150E41DA3FEC6DF02FDA69516F
:1041A000000178190FE101016A51000179190AE152
:1041B00001016B5100017A1905E101016C51000107
:1041C0007B190CE0690E6F6F010E706F726B150E2C
:1041D00028DAA7EC6CF0F6D9F50E06D22BDA190E18
:1041E0001CDA3FEC6DF00ADA6D51000178190FE12D
:1041F00001016E51000179190AE101016F510001BD
:104200007A1905E10101705100017B190CE06D0E76
:104210006F6F010E706F726B190E03DAA7EC6CF002
:10422000D1D9FC0EE1D1800E6D6F6E6B706B1D0EDF
:1042300043EC32F03FEC6DF080510101961905E13D
:1042400000018151010197190DE0960E00016F6F79
:10425000010E706F726B1D0EDCD9A7EC6CF0B2D939
:10426000030EBAD17C0EB3D9250ED7D93FEC6DF031
:104270007C5101019C190FE100017D5101019D1943
:104280000AE100017E5101019E1905E100017F5103
:1042900001019F190DE09C0E00016F6F010E706F00
:1042A000726B250EBED9A7EC6CF08CD90A0E94D196
:1042B000840E8DD9230E94D93FEC6DF08451010109
:1042C00088190DE0880E00016F6F010E706F726B20
:1042D000230E9BD9A7EC6CF075D9110E7DD1840EFD
:1042E00076D9240E7DD93FEC6DF0845101018919F6
:1042F0000DE0890E00016F6F010E706F726B240E5E
:1043000084D9A7EC6CF05ED9180E66D1840E5FD903
:10431000290E66D93FEC6DF08451010161190DE061
:10432000610E00016F6F010E706F726B290E6DD9F7
:10433000A7EC6CF047D91F0E4FD1840E48D92A0E36
:104340004FD93FEC6DF0845101015D190DE05D0E18
:1043500000016F6F010E706F726B2A0E56D9A7ECB9
:104360006CF030D9260E38D1800E31D92B0E43ECAB
:1043700032F03FEC6DF080510101391905E1000187
:10438000815101013A190AE0390E00016F6F010EE7
:104390002ED9A7EC6CF016D92D0E1ED1800E17D990
:1043A0002D0E43EC32F03FEC6DF0805101014319CA
:1043B00005E100018151010144190AE0430E0001A9
:1043C0006F6F010E14D9A7EC6CF0FCD8340E04D139
:1043D000800EFDD82F0E43EC32F03FEC6DF0805193
:1043E00001014D1905E10001815101014E190AE059
:1043F0004D0E00016F6F010EFAD8A7EC6CF0E2D8F9
:104400003B0EEAD0800EE3D8310E43EC32F03FECA5
:104410006DF080510101491905E10001815101014F
:104420004A190AE0490E00016F6F010EE0D8A7ECAF
:104430006CF0C8D8420ED0D0840EC9D81F0ED0D888
:104440003FEC6DF08451010198190DE0980E0001C8
:104450006F6F010E706F726B1F0ED7D8A7EC6CF0E8
:10446000B1D8490EB9D0840EB2D8200EB9D83FECDD
:104470006DF08451010199190DE0990E00016F6FE3
:10448000010E706F726B200EC0D8A7EC6CF09AD83A
:10449000500EA2D0840E9BD8210EA2D83FEC6DF016
:1044A000845101019A199B110DE09A0E00016F6F62
:1044B000010E706F726B210EACD8A7EC6CF082D835
:1044C000570E8AD0840E83D8330E8AD83FEC6DF015
:1044D000845101018F190DE08F0E00016F6F010EE5
:1044E000706F726B330E91D8A7EC6CF06BD85E0EC8
:1044F00073D068D8010E78D065D8DECF78F0DDCFE4
:1045000079F0795103E0010A33E0EBD47851010AE4
:10451000D8B412009B0A01E1FCD43B0A01E110D59A
:10452000090A01E129D5070A01E143D5190A01E188
:104530005DD50B0A01E177D5790A01E191D50F0A22
:1045400001E1A5D5190A01E1B9D50B0A01E1CDD5E3
:10455000390A01E1E1D5070A01E1F5D5090A01E1CE
:1045600018D61B0A01E13AD6090A01E15CD6B9D492
:104570007851030A01E176D6090A01E199D61B0AAE
:1045800001E1ADD6090A01E1C1D6070A01E1D5D69C
:10459000390A01E1E9D60B0A01E100D7190A01E164
:1045A00017D70F0A01E12ED7790A01E145D70B0A87
:1045B00001E159D7190A01E16DD7070A83E0090A19
:1045C00098E08FD482C0D9FF83C0DAFF12000001C7
:1045D0006D6F6E6B706B1200DE6E010EDD6E010C86
:1045E0006F6F010E716F010CDE6EDD6A000C706F73
:1045F000726B310E716F020E736F020C84C078F013
:10460000796B7A6B7B6B01011200716F010E736F16
:10461000010C716F020E736F020C6F6F040E716FDD
:10462000040C716F040E736F040C706B6F6B010ED2
:10463000716F010C7C0E6D6F6E6B706B1200020E51
:104640006F6F716F020C010E6F6F716F010C21EEB5
:10465000D8F0100EDE6AE806FDE2FDD2640E00011D
:104660006B6F020E6C6F01017F51020D8C0EF324F3
:10467000D96E040EF420DA6EDECF6DF0DDCF6EF071
:10468000FFEC67F0640E0001E86F020EE96F810E27
:10469000EA6F010EEB6F9BEC58F0640E00016B6F3C
:1046A000020E6C6F2D0E6D6F1A0E6E6FAAEC63F01A
:1046B000F5D2640E00016B6F020E6C6F01017F5129
:1046C000020D820EF324D96E040EF420DA6EDECFD2
:1046D0006DF0DDCF6EF0FFEC67F0640E0001E86F67
:1046E000020EE96F710EEA6F010EEB6F010EEC6FB7
:1046F00089EC53F0640E00016B6F020E6C6F3D0E7F
:104700006D6F1B0E6E6FAAEC63F0640E0001E86F14
:10471000020EE96F750EEA6F010EEB6F010EEC6F82
:1047200049EC48F0BBD2640E00016B6F020E6C6F57
:1047300001017F51020D6E0EF324D96E040EF42098
:10474000DA6EDECF6DF0DDCF6EF0FFEC67F0640E59
:104750000001E86F020EE96F850EEA6F010EEB6F44
:104760009BEC58F0640E00016B6F020E6C6F2D0E07
:104770006D6F1A0E6E6FAAEC63F090D2640E00019A
:104780006B6F020E6C6F01017F51020D780EF324E6
:10479000D96E040EF420DA6EDECF6DF0DDCF6EF050
:1047A000FFEC67F0640E0001E86F020EE96F830E04
:1047B000EA6F010EEB6F9BEC58F0640E00016B6F1B
:1047C000020E6C6F2D0E6D6F1A0E6E6FAAEC63F0F9
:1047D00065D2640E00016B6F020E6C6F01017F5198
:1047E000020D640EF324D96E040EF420DA6EDECFCF
:1047F0006DF0DDCF6EF0FFEC67F00101875115E140
:10480000640E00016B6F020E6C6F01017F51020D8F
:10481000140EF324D96E040EF420DA6EDECF6DF0A0
:10482000DDCF6EF0AAEC63F039D2640E00016B6F3D
:10483000020E6C6F01017F51020D0A0EF324D96E36
:10484000040EF420DA6EDECF6DF0DDCF6EF0AAEC50
:1048500063F024D2640E00016B6F020E6C6F0101D5
:104860007F51020D5A0EF324D96E040EF420DA6E35
:10487000DECF6DF0DDCF6EF0FFEC67F0D80E0001FB
:10488000DB6F010EDC6F7E0EDD6F260EDE6F8AC1E0
:10489000DFF08BC1E0F07CEC6EF0640E6B6F020E0B
:1048A0006C6FD80E6D6F010E6E6FAAEC63F0640E24
:1048B00000016B6F020E6C6F01017F51020D000E43
:1048C000F324D96E040EF420DA6EDECF6DF0DDCF66
:1048D0006EF0AAEC63F0E2D1640E00016B6F020E81
:1048E0006C6F01017F51020D500EF324D96E040E3E
:1048F000F420DA6EDECF6DF0DDCF6EF0FFEC67F006
:10490000D80E0001DB6F010EDC6F7E0EDD6F260E10
:10491000DE6F8CC1DFF08DC1E0F07CEC6EF0640ED8
:104920006B6F020E6C6FD80E6D6F010E6E6FAAEC7E
:1049300063F0640E00016B6F020E6C6F01017F511A
:10494000020DB80EF324D96E050EF420DA6EDECF18
:104950006DF0DDCF6EF0AAEC63F0A0D1640E000123
:104960006B6F020E6C6F01017F51020D460EF32436
:10497000D96E040EF420DA6EDECF6DF0DDCF6EF06E
:10498000FFEC67F0D80E0001DB6F010EDC6FFA0E52
:10499000DD6F250EDE6F9AC1DFF09BC1E0F07CEC8D
:1049A0006EF0640E6B6F020E6C6FD80E6D6F010EA1
:1049B0006E6FAAEC63F0640E00016B6F020E6C6FF9
:1049C0008F0E6D6F260E6E6FAAEC63F0D80E00018D
:1049D000DB6F010EDC6FFA0EDD6F250EDE6F99C105
:1049E000DFF0E06B7CEC6EF0640E6B6F020E6C6FB0
:1049F000D80E6D6F010E6E6FAAEC63F0640E0001AD
:104A00006B6F020E6C6F8F0E6D6F260E6E6FAAECC1
:104A100063F0D80E0001DB6F010EDC6FFA0EDD6F64
:104A2000250EDE6F98C1DFF0E06B7CEC6EF0640E5B
:104A30006B6F020E6C6FD80E6D6F010E6E6FAAEC6D
:104A400063F02CD1640E00016B6F020E6C6F0101DC
:104A50007F51020D3C0EF324D96E040EF420DA6E61
:104A6000DECF6DF0DDCF6EF0FFEC67F0D80E000109
:104A7000DB6F010EDC6F710EDD6F260EDE6F9CC1E9
:104A8000DFF09DC1E0F09EC1E1F09FC1E2F07CEC5F
:104A90006EF0640E6B6F020E6C6FD80E6D6F010EB0
:104AA0006E6FAAEC63F0640E00016B6F020E6C6F08
:104AB00001017F51020DAE0EF324D96E050EF420D4
:104AC000DA6EDECF6DF0DDCF6EF0AAEC63F0E6D0EB
:104AD000640E00016B6F020E6C6FF10E6D6F240E91
:104AE0006E6FFFEC67F091C19EF092C19FF093C191
:104AF000A0F094C1A1F092EC5EF09EC0A8F09FC01F
:104B0000A9F0A0C0AAF0AB6B7A0EAC6F440EAD6FEB
:104B1000DFEC4FF0A8C0D5F1A9C0D6F1AAC0D7F1FB
:104B2000D80EDB6F010EDC6FCA0EDD6F250EDE6F57
:104B3000D5C1DFF0D6C1E0F0D7C1E1F07CEC6EF07A
:104B4000640E6B6F020E6C6FD80E6D6F010E6E6F80
:104B5000AAEC63F0640E00016B6F020E6C6F000E26
:104B60006D6F260E6E6FAAEC63F098D0640E000194
:104B70006B6F020E6C6F880E6D6F250E6E6FFFEC03
:104B800067F00101615115E1640E00016B6F020EC7
:104B90006C6F01017F51080D420EF324D96E060E91
:104BA000F420DA6EDECF6DF0DDCF6EF0AAEC63F0AC
:104BB00075D0010E2FEC79F0640E00016B6F020EC0
:104BC0006C6F01017F51080D400EF324D96E060E63
:104BD000F420DA6EDECF6DF0DDCF6EF0AAEC63F07C
:104BE00030D0640E00016B6F020E6C6FDC0E6D6FC7
:104BF000250E6E6FAAEC63F051D0640E00016B6F4E
:104C0000020E6C6FA00E6D6F250E6E6FAAEC63F036
:104C100045D0640E00016B6F020E6C6FA60E6D6FB7
:104C2000250E6E6FAAEC63F039D0640E00016B6F35
:104C3000020E6C6FAC0E6D6F250E6E6FAAEC63F0FA
:104C40002DD001015E51CDE0010AD7E0030AE1E079
:104C5000ECD7000023D00101225101E1FFD4010A69
:104C600001E127D5030A01E15ED5010A01E186D5FC
:104C7000070A01E1AED5010A01E1ECD5030A01E121
:104C80002BD6010A01E16AD60F0A01E1DBD6010A3F
:104C900001E11ED7030A01E169D7DBD704EC78F004
:104CA000640E0001816F020E826F20EF68F0010E2A
:104CB0002FEC79F0BFD189C0D9FF8AC0DAFFDF506D
:104CC00001011E6F446AB5EC77F00101615104E106
:104CD0001E0E0001F46F1E0C0A0E0001F46F0A0C88
:104CE000020EE2EC68F0760E6B6F020E6C6F8BC0FA
:104CF000D9FF8CC0DAFFDECF6DF0DDCF6EF0FFECB8
:104D000067F0640E00016B6F020E6C6F20EE02F014
:104D10008B51D9268C51DA22DECF6DF0DDCF6EF0CB
:104D2000FFEC67F0445017E1760E00016B6F020E46
:104D30006C6F440E6D6F1D0E6E6FAAEC63F0640E07
:104D400000016B6F020E6C6F3D0E6D6F1B0E6E6F70
:104D5000AAEC63F016D0760E00016B6F020E6C6F3A
:104D60003D0E6D6F1B0E6E6FAAEC63F0640E0001BA
:104D70006B6F020E6C6F440E6D6F1D0E6E6FAAECA2
:104D800063F0760E00016B6F020E6C6F20EE04F084
:104D90008B51D9268C51DA22DECF6DF0DDCF6EF04B
:104DA000AAEC63F0640E00016B6F020E6C6F20EED4
:104DB00006F08B51D9268C51DA22DECF6DF0DDCF93
:104DC0006EF0AAEC63F0BBEC78F00001F42B12005B
:104DD0000101615104E1000E8AEC5DF0F6D75E2915
:104DE0008AEC5DF0F2D7446A77D7010E446E0A0E62
:104DF0000001F46F0A0CB5EC77F0090E0101C76FE2
:104E0000090CB5EC77F00F0E0001F46F0F0C0101E7
:104E10005A51010AEAE0030AE6E0010AF2E0070A51
:104E2000D8A41200E8D7020EE2EC68F0445001E08A
:104E30004FD7010E0101616F100E2FEC79F0760E45
:104E400000016B6F020E6C6F20EE04F08B51D926BF
:104E50008C51DA22DECF6DF0DDCF6EF0FFEC67F023
:104E6000BBEC78F0100E0001F46F100C130EF46F11
:104E7000130C0201506B516BF40E000132D0010192
:104E80005F51601103E075EC64F09FD737EC78F068
:104E9000F0EC71F0010E0101616F100E2FEC79F052
:104EA00094D7040E01015A190AE1B5EC77F001011B
:104EB0006293040E2FEC79F0090E0101C76F020115
:104EC000504B512BB80E505D0B0E5159D8A012000B
:104ED00001016293040E2FEC79F0140E0101C76FEB
:104EE000140C6B6F6C6B000E9BEF75F041EC78F05F
:104EF0006CD7760E6B6F020E6C6F760E6D6F250E93
:104F00006E6FFFEC67F0640E00016B6F020E6C6F4A
:104F1000390E6D6F1B0E6E6FFFEC67F001011E51B5
:104F200017E1760E00016B6F020E6C6F3D0E6D6F18
:104F30001B0E6E6FAAEC63F0640E00016B6F020E25
:104F40006C6F440E6D6F1D0E6E6FAAEC63F016D081
:104F5000760E00016B6F020E6C6F440E6D6F1D0EAE
:104F60006E6FAAEC63F0640E00016B6F020E6C6F43
:104F70003D0E6D6F1B0E6E6FAAEC63F0760E000196
:104F80006B6F020E6C6F01017F51080D680EF324E8
:104F9000D96E060EF420DA6EDECF6DF0DDCF6EF046
:104FA000AAEC63F0640E00016B6F020E6C6F0101DE
:104FB0007F51080D6A0EF324D96E060EF420DA6EC6
:104FC000DECF6DF0DDCF6EF0AAEC63F0BBEC78F0D5
:104FD000506B516BFAD6F40E84D7010E1E6F1D0E66
:104FE0000001F46F1D0C1E6B1D0E0001F46F1D0CF3
:104FF0003C0EC76F3C0C89C0D9FF8AC0DAFF1EC1C6
:10500000DFFF1EB102D0629302D001016283040E61
:105010002FEC79F0320E0101C76F320C01015A51A9
:10502000010AE1E0030AD9E0010AE5E0070AD8A491
:105030001200DED70001F45101E13DD6090ACBE0B0
:10504000030A01E14DD6010A01E1C2D6070AC3E015
:10505000010A01E1DCD6020A01E1E5D61F0A01E1FD
:1050600005D7030A01E105D7070A01E108D7010ABC
:1050700001E117D7080AAFE0030A01E137D7010AB7
:1050800001E137D73F0AA7E0010AC8E0120025C0B6
:105090002DF026C02EF0BAD189802DC0D9FF2EC0A8
:1050A000DAFFA20EDE6EDD6A000C20EE06F025505F
:1050B000D9262650DA22C90EDE6EF50EDE6EC90E36
:1050C000DE6EF50EDD6EDFEC77F02DC0D9FF2EC061
:1050D000DAFFA50EDE6EDD6A060E2524036E000ED5
:1050E0002620046EB40E056E020E066E040E2EEC23
:1050F00043F0000901E11200899020EE06F02550EE
:10510000D9262650DA2210EE04F02550E12626504A
:10511000E222DECFE6FFDDCFE5FF20EE04F02550F2
:10512000D9262650DA22DECF27F0DDCF28F027C09F
:1051300028F0276A296A28502A6E20EE04F02550AC
:10514000D9262650DA22DECF2BF0DDCF2CF02CC072
:105150002BF02C6A2B50291220EE04F02550D92672
:105160002650DA2229C0DEFF2AC0DDFF20EE04F03F
:105170002550D9262650DA22DECF0FF0DDCF10F0F1
:10518000B1C111F0B2C112F0CC0E146E136EA3ECCB
:1051900045F00FC0B1F110C0B2F120EE04F025507F
:1051A000D9262650DA22B1C1DEFFB2C1DDFF74EC90
:1051B00070F020EE0AF02550D9262650DA2209C0D8
:1051C000DEFF0AC0DEFF0BC0DEFF0CC0DEFF20EEFC
:1051D0000EF02550D9262650DA22430EDE6E0F0E31
:1051E000DD6E20EE0EF02550D9262650DA22DECFD5
:1051F000B8F1DDCFB9F120EE0AF02550D9262650BE
:10520000DA22DECFBAF1DECFBBF1DECFBCF1DECFEA
:10521000BDF12DC0D9FF2EC0DAFFB20EDE6EDD6A01
:1052200020EE0AF02550D9262650DA22DECF1FF0D4
:10523000DECF20F0DECF21F0DECF22F020EE0EF028
:105240002550D9262650DA22DECF23F0DDCF24F0F8
:1052500094EC6EF0000901E1120089802DC0D9FFA5
:105260002EC0DAFFB50EDE6EDD6A000C20EE06F011
:105270002550D9262650DA22F90EDE6EF50EDE6EA6
:10528000F90EDE6EF50EDD6EDFEC77F02DC0D9FF86
:105290002EC0DAFFB80EDE6EDD6A060E2524036E20
:1052A000000E2620046EB40E056E020E066E040E6D
:1052B0002EEC43F0000901E11200899020EE06F087
:1052C0002550D9262650DA2210EE02F02550E1268C
:1052D0002650E222DECFE6FFDDCFE5FF20EE02F032
:1052E0002550D9262650DA22DECF27F0DDCF28F050
:1052F00027C028F0276A296A28502A6E20EE02F07B
:105300002550D9262650DA22DECF2BF0DDCF2CF027
:105310002CC02BF02C6A2B50291220EE02F02550C5
:10532000D9262650DA2229C0DEFF2AC0DDFF20EE72
:1053300002F02550D9262650DA22DECF0FF0DDCF3D
:1053400010F0AFC111F0B0C112F0260E146E660E4F
:10535000136EA3EC45F00FC0AFF110C0B0F120EE1A
:1053600002F02550D9262650DA22AFC1DEFFB0C1A7
:10537000DDFF74EC70F020EE0AF02550D92626509F
:10538000DA2209C0DEFF0AC0DEFF0BC0DEFF0CC060
:10539000DEFF20EE0EF02550D9262650DA22430EED
:1053A000DE6E0F0EDD6E20EE04F02550D92626505D
:1053B000DA22010EDBAE05D0500EDE5CC90EDE58DF
:1053C0000EE30101578132C1D9FF33C1DAFF10EE7C
:1053D0000DF0DE50E126DD50E222E7920FD0010110
:1053E000579132C1D9FF33C1DAFF10EE0DF0DE5014
:1053F000E126DD50E222E782579757952DC0D9FF6D
:105400002EC0DAFF010EDE6EDD6A000C2DC0D9FF62
:105410002EC0DAFFDECF27F0DDCF28F0285001E0E4
:105420003BD62750010AD8B41200A30A01E13DD6A9
:10543000070A01E151D6170A01E1F2D6070A01E194
:1054400015D70D0A01E129D727D60201524B532B5C
:10545000280E521903E1230E5319D8A44BD1140E70
:105460000101C76F47D1B5EC77F00001F26B456AD7
:10547000010E0101C76F010C5A6A5A0E00019B6FA1
:1054800047EC34F0060E0101C76F060C5A0E0001FE
:105490009B6F47EC34F05A50D8A41200070E01015C
:1054A000C76F070C000E56EC77F00009D8B4120055
:1054B000080EC76F0201526B536B12001E0EC76FAE
:1054C0000001F46B12000001F25104E0F207450400
:1054D00001E1456A090E0101C76F090C0F0E0001B9
:1054E000F261F8D7F22B4550F5E1010E456EF2D787
:1054F000140EC76F140C5A51010AF0E0030AE3E0DE
:10550000010ADCE0070AD8A41200F2D75A6A5A0E40
:1055100000019B6F47EC34F00A0E0101C76F0A0CC3
:105520005A0E00019B6F47EC34F05A50D8A4120079
:105530000B0E0101C76F0B0C000E56EC77F0000943
:1055400002E00C0EC76F5BA112005A0504E0020EC8
:105550005A19D8A412000C0EC76F0C0C0201526B22
:10556000536B080E0101C76F080CB5EC77F0150EF0
:105570000101C76F150C000E56EC77F00009D8B486
:105580001200160EC76F160C0001F26B010157993D
:10559000226B040E2FEC79F00101805103E1246BA2
:1055A000C76B1200800528E146EC78F001017F51BD
:1055B000040D140EF324D96E050EF420DA6EDECF3E
:1055C00081F0DDCF82F09DEC64F004EC78F0010115
:1055D0007F51040D160EF324D96E050EF420DA6EF9
:1055E000DECF81F0DDCF82F09DEC64F09A0E0101F8
:1055F0001F6F170EC76F170C000012000A0E000174
:105600006F6F01011F5122EC6CF0796F7A6B7B6B2D
:10561000010E7C6FAAEC42F001011F5102E01F074E
:1056200002D0180EC76F71EC6DF0AEB102D00E91C2
:1056300002D001010E8157A102D00F8102D00101D9
:105640000F91875104E10E850E930E8703D00E85CE
:105650000E830E97F6EC5DF0F0EC71F001015A51FB
:10566000D8B41200190EC76F190C5EEC77F0246BDA
:10567000C76B12004EEC77F01A0E0101C76F1A0CBF
:1056800004EC78F001017F51020DD00EF324D96EA5
:10569000020EF420DA6EDECF81F0DDCF82F09DECD9
:1056A00064F01B0E0101C76F000E56EC77F0000985
:1056B000D8B41200180EC76F180C0E0E0001F219A4
:1056C00001E113D706D7B5EC77F00101C72B120023
:1056D000000ED6EC62F0460E0101C76F460C010EBB
:1056E000D6EC62F0F8D7236BF0D7232B130E23658B
:1056F000130CF0D60101C75101E1B5D6010A01E151
:10570000BBD6070A01E1C2D6010A01E1CBD60F0AD6
:1057100001E1F1D6010A01E1F9D6030A01E100D75E
:10572000010A01E109D7070A01E118D7180A01E1C6
:105730001CD7010A01E11FD7030A01E125D7010A9D
:1057400001E15CD70F0A91E0010A94E0030A98E0B6
:10575000010AAAE0050A02E172EF2EF03E0AADE06E
:10576000120AB1E0010AB4E00F0AADE0010AB7E0A5
:105770007B0AB9E0010AB9E012000001EE6F7DD1A9
:1057800081C158F082C159F085C156F086C157F0E9
:1057900083C154F084C155F041EC78F0030E000150
:1057A000F46F030C5BB308D000016C6B0A0E6B6FD7
:1057B000EE5125EC42F007D000016C6B320E6B6F9E
:1057C000EE5125EC42F00001F42B12005BB308D03F
:1057D00000016C69F60E6B6FEE5125EC42F0F3D7C9
:1057E00000016C69CE0E6B6FEE5125EC42F0EBD7E9
:1057F0003C0EC76F3C0C58C081F159C082F156C0B5
:1058000085F157C086F154C083F155C084F1320E42
:10581000C76F320C01015A51010AD8E0030AC2E0F5
:10582000010AE9E0070AD8A41200E2D72DEC76F0CD
:10583000020EE2EC68F068D0760E6B6F020E6C6FB1
:1058400001017F51040D7A0EF324D96E050EF42068
:10585000DA6EDECF6DF0DDCF6EF0FFEC67F058C092
:1058600071F059C072F00001746B0A0E736F12EC84
:105870005BF071C0ECF072C0EDF0ECC079F0EDC0FF
:105880007AF0030E7B6F010E7C6FAAEC42F042D0DF
:10589000760E6B6F020E6C6F01017F51040D2A0EA4
:1058A000F324D96E060EF420DA6EDECF6DF0DDCF74
:1058B0006EF0FFEC67F054C071F055C072F000015B
:1058C000746B0A0E736F12EC5BF0D3D7760E6B6FAE
:1058D000020E6C6F01017F51040D160EF324D96E78
:1058E000060EF420DA6EDECF6DF0DDCF6EF0FFEC49
:1058F00067F056C071F057C072F00001746B0A0E69
:10590000736F12EC5BF0B5D7EE5196E0010AC0E080
:10591000030ADCE0F0EC71F046EC78F054D7760E38
:10592000816F020E826F20EC68F004EC78F07ED07C
:10593000640E6B6F020E6C6F780E6D6F260E6E6FBD
:10594000FFEC67F0640E0001E86F020EE96F540E81
:10595000EA6FEB6B9BEC58F0640E00016B6F020E6C
:105960006C6F390E6D6F260E6E6FAAEC63F0640ECD
:105970000001E86F020EE96F560EEA6FEB6B9BECCD
:1059800058F021D7640E6B6F020E6C6F3E0E6D6F78
:10599000260E6E6FFFEC67F0640E0001E86F020EDA
:1059A000E96F580EEA6FEB6B9BEC58F0640E000148
:1059B0006B6F020E6C6F390E6D6F260E6E6FAAEC58
:1059C00063F0640E0001E86F020EE96F560EEA6F95
:1059D000EB6B9BEC58F0F7D6640E6B6F020E6C6F9E
:1059E000780E6D6F260E6E6FFFEC67F0640E00018F
:1059F000E86F020EE96F540EEA6FEB6B9BEC58F008
:105A0000640E00016B6F020E6C6F3D0E6D6F260E03
:105A10006E6FAAEC63F0640E0001E86F020EE96F8E
:105A2000580EEA6FEB6B9BEC58F0CDD60001EE51AF
:105A300001E17ED7010AA6E0030ACEE0C4D6640ED7
:105A4000816F020E826F20EC68F0BDD6F40E6B6F92
:105A50006C6B000E9BEC75F05BA104D05A0502E163
:105A60000001F42B01015BA11200020E5A1901E1A1
:105A7000AAD61200020EF46F020C0001F45101E1EB
:105A80007FD6020A01E1C6D6010A01E1CFD6070A94
:105A900001E145D7010AD3E0030AD8E0010AEAE0B0
:105AA000120020D1800E9B6F010E9C6F01017F516F
:105AB000080D780EF32400019D6F070EC6D0000E6E
:105AC000BDEF2BF00101AE51010ED8A4000EAE6F58
:105AD000AE0E00019B6F010E9C6F01017F51080DFE
:105AE000640EF32400019D6F060EF4209E6FA4EC5B
:105AF0002EF00101AE51010ED8A4000EAE6FAEB172
:105B000002D05D9102D001015D811200020EBDEF55
:105B10002BF0010EBDEF2BF001018751010ED8A42F
:105B2000000E876F870E00019B6F010E9C6F0101B5
:105B30007F51080D500EF32400019D6F070EF420D5
:105B40009E6FA4EC2EF001018751010ED8A4000E27
:105B5000876F87B102D0569302D001015683090E98
:105B6000C719D8A4120020EE02F03251D9263351C1
:105B7000DA2210EE0FF0DE50E126DD50E2228751EE
:105B8000FEEC77F0E76E120001017F51040DB40EB8
:105B9000F3240001826F060EF420836F8A0E846F57
:105BA000010E0DD001017F51040DA00EF324000160
:105BB000826F060EF420836F8C0E846F010E856F4A
:105BC000876B3C0E866F896B010E886F8B6B8A6FBB
:105BD0008D6B050E8C6F8E6B010E8F6F906F47EF84
:105BE00032F08FC1CCF20201CD6B01017F51040D67
:105BF0008C0EF3240001826F060EF420836FCC0E0E
:105C0000846F020E856F876B640E866F896B140E2E
:105C1000886F8B6B8A6F8D6B8C6F8E6B010E8F6FA5
:105C2000906F47EC32F0CCC28FF101018F517EEFC3
:105C30006BF0880E9B6F010E9C6F01017F51080D68
:105C4000280EF32400019D6F070EF4209E6FA4EF31
:105C50002EF001018951010ED8A4000E896F890E22
:105C600000019B6F010E9C6F01017F51080D3C0EDE
:105C7000F32400019D6F060EF4209E6FA4EC2EF01D
:105C800001018951010ED8A4000E896F090EC719B0
:105C9000D8A4120089B102D08C9601D08C86120053
:105CA000610E896F010E8A6F01017F51080D000E90
:105CB000F32400018B6F070EF4208C6F57EF26F052
:105CC0007F0E716F010E726F01017F510E0DA00EDC
:105CD000F3240001736F090EF420746F050E756FC5
:105CE00040EF35F00001F25101E1DCD6010A01E19B
:105CF000E6D6030A01E1E6D6010A01E107D7070A61
:105D000001E107D7010A01E107D7030A01E13CD706
:105D1000010A01E147D70F0A01E163D7010A02E155
:105D200017EF4BF0030A02E113EF3BF0010A02E127
:105D30009DEF41F0070A01E17CD7010A8AE0030ADE
:105D4000AFE0010ABDE012000201246B24D19BC028
:105D5000D9FF9CC0DAFFDF50416E41EC78F0030EB2
:105D60000001F46F030C410401E1416A0001F42BCE
:105D700012004150FBE1010E416EF8D73C0EC76F97
:105D80003C0C0001F25109E1410407E101015CB35F
:105D900004D0140E0001F46F140C9BC0D9FF9CC0FA
:105DA000DAFF41C0DFFF320E0101C76F320C010183
:105DB0005A51010ADEE0030AD6E0010AE2E0070ACE
:105DC000D8A41200DBD71CEC79F00009D8B412007B
:105DD000760E6B6F020E6C6F9DC0D9FF9EC0DAFF0E
:105DE000DECF6DF0DDCF6EF0FFEC67F0640E0001EA
:105DF0006B6F020E6C6F20EE02F09D51D9269E5102
:105E0000DA22DECF6DF0DDCF6EF0FFEC67F04150AF
:105E100017E1760E00016B6F020E6C6F440E6D6F12
:105E20001D0E6E6FAAEC63F0640E00016B6F020E24
:105E30006C6F3D0E6D6F1B0E6E6FAAEC63F016D08B
:105E4000760E00016B6F020E6C6F3D0E6D6F1B0EB8
:105E50006E6FAAEC63F0640E00016B6F020E6C6F44
:105E6000440E6D6F1D0E6E6FAAEC63F0760E00018E
:105E70006B6F020E6C6F20EE04F09D51D9269E517F
:105E8000DA22DECF6DF0DDCF6EF0AAEC63F0640EA7
:105E900000016B6F020E6C6F20EE06F09D51D9264B
:105EA0009E51DA22DECF6DF0DDCF6EF0AAEC63F00A
:105EB000BBEC78F05BD753EC71F00009D8B412005A
:105EC00045D0020EF46F020C000E6B6F090E6C6F62
:105ED00001017F51020D320EF324D96E040EF4201D
:105EE000DA6EDECF6DF0DDCF6EF0FFEC67F04EECDA
:105EF00077F03CD746EC78F001017F51020D1E0E81
:105F0000F324D96E040EF420DA6EDECF81F0DDCFFB
:105F100082F09DEC64F02AD704EC78F001017F5107
:105F2000020D280EF324D96E040EF420DA6EDECFB3
:105F300081F0DDCF82F09DEC64F0010E0201286F4C
:105F4000080E296F010EC4EC76F010D7F40E6B6FBB
:105F50006C6B000E9BEF75F01B0EF46F1B0C000EAC
:105F6000C4EC76F09BC0D9FF9CC0DAFF41C0DFFFD4
:105F7000320E04D0000EC4EC76F03C0E0101C76F67
:105F800006D001015A51030AEAE0070AF3E0180EAD
:105F90000001F46F180C0001F45101E1D8D6020A97
:105FA00001E105D7010A01E10ED7070A84E0010AE1
:105FB00088E0110A89E0010A9DE0030AADE0010AC8
:105FC000C5E00F0AC9E0010AC7E0020ADAE01200E0
:105FD00055EC78F06BC0C1F16CC0C2F1010157A162
:105FE000B4D057955797FDD8D7D8E796FAD8D4D8D4
:105FF000E794F00E0001C06FE10EC16F410EC26F59
:1060000007D958EC6CF017D9FE0E7C6FE80E7D6F47
:106010003A0E7E6FDDEC4BF0C6D83AEC3FF0FDD87F
:10602000F7D858EC6CF007D9F3D858EC6CF0FCD8E2
:10603000DDEC4BF079C0BDF0C9D8460E7C6FDE0EAA
:106040007D6FB20E7E6FDDEC4BF0ADD83AEC3FF0D9
:10605000E4D8DED858EC6CF0EED8DAD858EC6CF016
:10606000E3D8DDEC4BF079C0BDF0B0D8D1D858EC16
:106070006CF0DAD8DDEC4BF079C0BDF0A7D86D0E2E
:106080007C6FA00E7D6F2B0E7E6FDDEC4BF08BD8FE
:106090003AEC3FF0C2D8C0C079F0C1C07AF0C2C0BB
:1060A0007BF07C6B200E7D6F410E7E6FDDEC4BF044
:1060B00079C0C0F07AC0C1F07BC0C2F0C0C0B7F0F8
:1060C000C1C0B8F0C2C0B9F0D6EC5AF094D813EC05
:1060D0004EF08FC073F190C074F183D810EE06F0CB
:1060E00085D873C1E6FF74C1E5FFC0C0A8F0C1C088
:1060F000A9F0C2C0AAF0AB6B200EAC6F410EAD6F21
:10610000DFEC4FF0A8C0B7F0A9C0B8F0AAC0B9F052
:10611000D6EC5AF070D813EC4EF08FC071F190C0ED
:1061200072F1010172BF0AD0725103E1330E715D49
:1061300005E3578556D830D8E78611D072AF0FD017
:1061400057874FD829D8E7840AD0726B140E716F25
:1061500048D810EE06F04AD8C80EE66EE56A4DEC57
:1061600060F000016E6B120E6D6F16EC72F06BC07A
:1061700075F16CC076F175C171F076C172F062D8BC
:1061800012EC5BF071C075F172C076F1200E010166
:106190007527000E7623000C10EE0DF0DE50E12680
:1061A000DD50E222120079C0BDF07AC0BEF07BC0A3
:1061B000BFF0C0C092F0C1C093F0C2C094F0BDC0A7
:1061C00095F0BEC096F0BFC097F012007AC0BEF046
:1061D0007BC0BFF0BDC079F0BEC07AF0BFC07BF01D
:1061E000120032C1D9FF33C1DAFF1200DE50E126BE
:1061F000DD50E2221200B7C0C0F0B8C0C1F0B9C093
:10620000C2F0C0C08FF0C1C090F0C2C091F01200C7
:10621000C1C173F0C2C174F0120092C0C0F093C04B
:10622000C1F094C0C2F0120073C07CF074C07DF065
:1062300075C07EF0120073C079F074C07AF075C03A
:106240007BF01200746B0A0E736F0A0C800E000153
:106250006D6F010E6E6F15EC23F03FEC6DF0AE0E1E
:106260006D6F010E6E6F706B23EC23F03FEC6DF0E1
:10627000810E6D6F010E6E6F706B1FEC23F03FECA3
:106280006DF0830E6D6F010E6E6F706B040EFBD898
:106290003FEC6DF0850E6D6F010E6E6F706B060E2C
:1062A000F2D83FEC6DF08A0E6D6F010E6E6F706B61
:1062B000080EE9D83FEC6DF08C0E6D6F010E6E6F1D
:1062C000706B0A0EE0D83FEC6DF08E0E6D6F010E14
:1062D0006E6F706B0C0EF0EC22F03FEC6DF0900ED8
:1062E0006D6F010E6E6F706B0D0EF0EC22F03FECD7
:1062F0006DF0870E6D6F010E6E6F706B0E0EF0EC11
:1063000022F03FEC6DF07F0E6D6F010E6E6F706BC3
:106310000F0EF0EC22F03FEC6DF05C0E6D6F010E95
:106320006E6F706B100EF0EC22F03FEC6DF0650EAE
:106330006D6F010E6E6F706B110E0DEC23F03FEC64
:106340006DF0690E6D6F010E6E6F706B150E0DECBA
:1063500023F03FEC6DF06D0E6D6F010E6E6F706B84
:10636000190E0DEC23F03FEC6DF0960E6D6F010EE3
:106370006E6F706B1D0E87D83FEC6DF0980E6D6FD1
:10638000010E6E6F706B1F0EF0EC22F03FEC6DF0A3
:10639000990E6D6F010E6E6F706B200EF0EC22F097
:1063A0003FEC6DF09A0E6D6F010E6E6F706B210EEB
:1063B0006AD83FEC6DF0880E6D6F010E6E6F706BDA
:1063C000230EF0EC22F03FEC6DF0890E6D6F010EA4
:1063D0006E6F706B240EF0EC22F03FEC6DF09C0EB3
:1063E0006D6F010E6E6F706B250E0DEC23F03FECA0
:1063F0006DF0610E6D6F010E6E6F706B290EF0EC1B
:1064000022F03FEC6DF05D0E6D6F010E6E6F706BE4
:106410002A0EF0EC22F03FEC6DF0390E6D6F010E9C
:106420006E6F706B2B0E2FD83FEC6DF0430E6D6FBF
:10643000010E6E6F706B2D0E26D83FEC6DF04D0E79
:106440006D6F010E6E6F706B2F0E1DD83FEC6DF0EF
:10645000490E6D6F010E6E6F706B310E14D83FECEC
:106460006DF049C13FF14AC140F149C153F14AC100
:1064700054F18F0E6D6F010E6E6F706B330EF0EC7A
:1064800022F03FEF6DF06F6F020E716F020CF4D0CF
:1064900084C0D9FF85C0DAFFDECF0CF1DDCF0DF16E
:1064A00041EC78F00001F42B1200760E6B6F020EB7
:1064B0006C6F82C0D9FF83C0DAFFDECF6DF0DDCF15
:1064C0006EF0FFEC67F0640E00016B6F020E6C6FF4
:1064D00020EE02F08251D9268351DA22DECF6DF010
:1064E000DDCF6EF0FFEC67F0BBEC78F0030E00013F
:1064F000F46F030C5BB31FD000018A51865D916F6E
:106500008B518759926F01010C510001915D92519D
:10651000800A936F01010D51800A0001935906E32F
:106520008A5101010C2700018B511ED086C00CF14D
:1065300087C00DF1B7D700018C51865D916F8D51E9
:106540008759926F01010C510001915D9251800AAF
:10655000936F01010D51800A00019359E7E38C51BB
:1065600001010C2700018D5101010D239BD75BB365
:106570001DD000018A518825916F8B518921926F1E
:10658000915101010C5D0D51800A0001936F9251F0
:10659000800A935906E38A5101010C5F00018B5177
:1065A0001CD088C00CF189C00DF17CD700018C5142
:1065B0008825916F8D518921926F915101010C5D58
:1065C0000D51800A0001936F9251800A9359E9E3BB
:1065D0008C5101010C5F00018D5101010D5B62D7EF
:1065E0003C0EC76F3C0C84C0D9FF85C0DAFF0CC1DC
:1065F000DEFF0DC1DDFF320EC76F320C01015A51B3
:10660000010AB5E0030A01E175D7010AECE0070AC7
:10661000D8A41200E5D70CC171F00DC172F090C082
:1066200073F0746B12EC5BF071C094F072C095F073
:1066300094C079F095C07AF08EC07BF08FC07CF06A
:10664000AAEC42F0F0EC71F02DD7F40E6B6F6C6B8E
:10665000000E9BEC75F05BA104D05A0502E100012D
:10666000F42B01015BA11200020E5A1901E11AD7A5
:106670001200020EF46F020CF45101E109D7010A75
:1066800001E113D7030ABAE0010AC5E0070ADDE019
:10669000010AEFE012008E6F00018EAF4BD08E6DBD
:1066A0008E51800A120F25E3E3D8D0D86BBF6C0758
:1066B0002AEC5EF0E7D812EC5BF0D6D881D8746B88
:1066C000640EDBD871BF720712EC5BF07151120FD0
:1066D000030DD10E73EC41F0DDEC4BF096D86BBF9F
:1066E0006C072AEC5EF06B51030D6AD8DDEC4BF0C1
:1066F0009FD08E51800A750F16E3746B0A0EBDD8B9
:1067000071BF720712EC5BF0AFD8D10E73EC41F0A1
:1067100096D86BBF6C072AEC5EF06B51030D50D816
:10672000DDEC4BF085D08E51030DD10EF324D96EE4
:106730000A0E91D08E51800A120F25E399D886D87F
:106740006BBF6C072AEC5EF09DD812EC5BF07151C8
:10675000090F55D842D8746B640E8FD871BF720779
:1067600012EC5BF07151120F4AD840D8DDEC4BF0BF
:106770004CD86BBF6C072AEC5EF06B5140D82DD81B
:10678000DDEC4BF055D08E51800A750F16E3746B1B
:106790000A0E73D871BF720712EC5BF07151090FCA
:1067A0002ED824D84CD86BBF6C072AEC5EF06B5106
:1067B00026D813D8DDEC4BF03BD08E5120D84BD0EF
:1067C000D10EF324D96E0A0EF420DA6EDECF7CF0FF
:1067D000DECF7DF0DDCF7EF01200F420DA6EDECF6A
:1067E0007CF0DECF7DF0DDCF7EF01200F420DA6E9B
:1067F000DECF79F0DECF7AF0DDCF7BF01200030D33
:10680000AA0EF324D96E0A0E120079C08BF07AC05A
:106810008CF07BC08DF08BC079F08CC07AF08DC08D
:106820007BF06E6B0A0E6D6F8E516B6F6C6B12008E
:1068300079C088F07AC089F07BC08AF012006E6B54
:106840000A0E6D6F8E516B6F6C6B12006D6F8E51F7
:106850006B6F6C6B1200F420DA6EDECF88F0DECF47
:1068600089F0DDCF8AF012007151090F030D12007B
:10687000746B0A0E736F6E6B640C736F8E51716F55
:10688000726B12006BC071F06CC072F01200EFD02E
:10689000020EE2EC68F0760E6B6F020E6C6F010177
:1068A0007F51040D3C0EF324D96E050EF420DA6EF0
:1068B000DECF6DF0DDCF6EF0FFEC67F0640E00010F
:1068C0006B6F020E6C6F01017F51040D3E0EF324BD
:1068D000D96E050EF420DA6EDECF6DF0DDCF6EF0EE
:1068E000FFEC67F0455059E1760E00016B6F020E28
:1068F0006C6F440E6D6F1D0E6E6FAAEC63F0640E2C
:1069000000016B6F020E6C6F3D0E6D6F1B0E6E6F94
:10691000AAEC63F0760E00016B6F020E6C6FF25101
:10692000020DF3CF9CF0F4CF9DF001017F51220DB9
:10693000000EF32400019E6F0A0EF4209F6F9C51FD
:106940009E25D96E9D519F21DA6EDECF6DF0DDCF91
:106950006EF0AAEC63F0640E00016B6F020E6C6FB8
:10696000F2519C6F9D6BD8909C379D3701017F51F0
:10697000220D020EF32400019E6F0A0EF4209F6F79
:106980009C519E25D96E9D519F21DA6EDECF6DF010
:10699000DDCF6EF0AAEC63F058D0760E00016B6F7D
:1069A000020E6C6F3D0E6D6F1B0E6E6FAAEC63F0E6
:1069B000640E00016B6F020E6C6F440E6D6F1D0E46
:1069C0006E6FAAEC63F0760E00016B6F020E6C6FB7
:1069D000F2519C6F9D6BD8909C379D3701017F5180
:1069E000220DFE0EF32400019E6F090EF4209F6F0E
:1069F0009C519E25D96E9D519F21DA6EDECF6DF0A0
:106A0000DDCF6EF0AAEC63F0640E00016B6F020E36
:106A10006C6FF251020DF3CF9CF0F4CF9DF00101A9
:106A20007F51220D000EF32400019E6F0A0EF42008
:106A30009F6F9C519E25D96E9D519F21DA6EDECFAE
:106A40006DF0DDCF6EF0AAEC63F0BBEC78F00001E6
:106A50009B51D96EDA6ADF2A120053EC71F00009FB
:106A6000D8B412009B51D96EDA6ADF6A12009B51CA
:106A7000D96EDA6ADF5001E10BD7010AEEE01200AD
:106A8000ACD0EAD8DF50406E4050766F776BFF0E87
:106A90007525786F796BFF0E79237651781906E1A9
:106AA0007751791903E1010E446E01D0446A41EC3B
:106AB00078F0030E0001F46F030C405004E0400630
:106AC000440401E1446A0001F42B1200FF0E0001AE
:106AD0007525766F776BFF0E77234050786F796B53
:106AE0007651785D7951800A7A6F7751800A7A59A8
:106AF000EAE2402A4450E7E1010E446EE4D73C0E3E
:106B0000C76F3C0CA9D840C0DFFF320EC76F320CF4
:106B100001015A51010ADAE0030ACFE0010AF2E06A
:106B2000070AD8A41200EBD7F9EC56F073C0D9FFCE
:106B300074C0DAFF80D8FFEC67F0F3EC56F020EE7B
:106B400002F07351D9267451DA2275D8FFEC67F040
:106B5000445015E166D87AD8AAEC63F067D870D8AB
:106B6000AAEC63F05ED845D8040E51D8AAEC63F0C5
:106B70005DD83FD8060E4BD8AAEC63F014D051D89C
:106B80005FD8AAEC63F052D861D8AAEC63F049D878
:106B900030D8020E3CD8AAEC63F048D82AD8040EAC
:106BA00036D8AAEC63F0BBEC78F08DD7F40E6B6F9F
:106BB0006C6B000E9BEC75F05BA104D05A0502E1F2
:106BC0000001F42B01015BA11200020E5A1901E130
:106BD0007AD71200020EF46F020CF45101E151D782
