:10110000A8EF08F0FFFFFFFF5B826CEF4DF0FFFFE1
:10111000FFFFFFFFFFFFFFFF5B80D8CF66F0E8CF48
:1011200067F0E0CF68F0FACF69F0FBCF6AF0F2BA6F
:10113000F2A402D064EC78F06AC0FBFF69C0FAFF49
:1011400068C0E0FF67C0E8FF66C0D8FF5B90100092
:1011500059EF38F00092F38CEF7AEFA2B36ABEC475
:10116000F2BCCA8EF38AF386F382F32EF328F322BD
:10117000F3D4F12CD7010000000A00000064000045
:1011800000E803000010270000A086010040420F85
:10119000008096980000E1F50500CA9A3B80EE7643
:1011A000F39EF3DCDD94EE7AF3A0F30CDE5CEDA4A9
:1011B000F25EF3ACDD44ED72F35AF37CDD4573204F
:1011C0007775726465206B65696E65206572666F00
:1011D0006C67726569636865204B616C69627269EE
:1011E0006572756E6720766F7267656E6F6D6D657F
:1011F0006E202D206469652070482D576572742D0E
:10120000416E7A6569676520697374206D94676CB7
:1012100069636865727765697365206665686C6582
:101220007268616674202D20776F6C6C656E205338
:101230006965207769726B6C69636820666F727488
:1012400066616872656E3F2E2E2E2E20004E6F2036
:101250007365206861207265616C697A61646F20D2
:10126000756E612063616C696272616369E26E2010
:10127000636F727265637461202D206C6173206CE2
:101280006563747572617320646520704820706FA7
:101290006472E1616E2073657220696D70726563BE
:1012A00069736173202D209F657374E020736567F7
:1012B00075726F2064652071756520646573656162
:1012C00020636F6E74696E7561723F2E2E2E200042
:1012D000417563756E208274616C6F6E6E616765B7
:1012E00020728275737369206E2761208274822058
:1012F0006566666563747582202D206C6573206C4D
:101300006563747572657320646520704820706F22
:101310007572726F6E74208874726520696E65785C
:101320006163746573202D20887465732D766F75E5
:10133000732073967220646520766F756C6F697286
:1013400020636F6E74696E756572203F2E2E2E209D
:10135000004572206973206765656E206765736C50
:101360006161676465206B616C6962726174696553
:10137000207569746765766F657264202D207048EA
:101380002D6D6574696E67656E207A6F7564656E24
:10139000206F6E6E6175776B6575726967206B750E
:1013A0006E6E656E207A696A6E202D2062656E749D
:1013B0002075207A656B65722064617420752077D2
:1013C000696C7420646F6F726761616E3F2E2E2EA0
:1013D00020004E6F207375636365737366756C20B0
:1013E00063616C6962726174696F6E2068617320F9
:1013F0006265656E20706572666F726D6564202D22
:101400002070482072656164696E677320636F7530
:101410006C6420626520696E6163637572617465D6
:10142000202D2061726520796F752073757265209B
:10143000796F752077616E7420746F2070726F639E
:101440006565643F2E2E2E2000207374656C6C65DC
:101450006E2C203C63616C3E20647281636B656E10
:101460002C20756D20666F72747A7566616872657E
:101470006E2E20536965206B946E6E656E206A65D2
:101480006465727A656974203C053E2064728163EC
:101490006B656E2C20756D20646965204B616C69ED
:1014A0006272696572756E672061627A75627265D3
:1014B0006368656E2E2020002C2070756C7361723D
:1014C000203C63616C3E207061726120636F6E74BA
:1014D000696E7561722E2050756C736172203C05C7
:1014E0003E20656E206375616C7175696572206D53
:1014F0006F6D656E746F20706172612063616E63E1
:10150000656C6172206C612063616C6962726163F9
:1015100069E26E2E2020002C207072657373657254
:10152000203C63616C3E20706F757220636F6E7437
:10153000696E7565722E2050726573736572203CFA
:10154000053E208520746F7574206D6F6D656E7417
:1015500020706F757220616E6E756C6572206C27DD
:101560008274616C6F6E6E6167652E2020002C2086
:101570006472756B206F70203C63616C3E206F6DF0
:1015800020646F6F72207465206761616E2E204445
:1015900072756B206F70203C053E206F6D206B6173
:1015A0006C6962726174696520746520616E6E7524
:1015B0006C6572656E2E20002C207072657373202E
:1015C0003C63616C3E20746F20636F6E74696E754E
:1015D000652E205072657373203C053E20616E7944
:1015E00074696D6520746F2063616E63656C206340
:1015F000616C6962726174696F6E2E200052696E4F
:10160000636572206C6120736F6E64652064652071
:1016100070482C206C6120706C616365722064617D
:101620006E73206C6120736F6C7574696F6E20002F
:10163000456E6A7561676172206C6120736F6E64BC
:10164000612064652070482C20636F6C6F63617249
:1016500020656E2000417373657274696F6E206639
:1016600061696C65643A202573206C696E6520257C
:10167000643A20222573220A00636F6E6669672D23
:101680003E7361766553657474696E677320213D9E
:101690002028302900636F6E6669672D3E70726F77
:1016A0007669646553697A6520213D2028302900D8
:1016B00053706F656C2070482D70726F62652C20BE
:1016C000706C6161747320696E2000636F6E66696F
:1016D000672D3E7772697465427974657320213D88
:1016E000202830290052696E73652070482050729E
:1016F0006F62652C20706C61636520696E200063E9
:101700006F6E6669672D3E726561644279746573B8
:1017100020213D2028302900777269746550657258
:10172000696F64203E207461736B506572696F64E9
:101730000070482D536F6E64652061627370816C18
:10174000656E2C20696E20007372632F5461736B79
:10175000732F726164696F5461736B2E63007372CF
:10176000632F526164696F2F726164696F2E630029
:101770005420616374697661646F202873656729FA
:101780000054656D7073206D617263686520287305
:1017900029009074616C6F6E6E6572207048342FF2
:1017A0003130005A65697420616267656C2E2120B2
:1017B0003C063E00546D656F7574207672737472CA
:1017C000203C063E0044826C616920657870697235
:1017D00082213C063E0053696E6420536965207384
:1017E00069636865723F00496E737420766572653F
:1017F000697374652070480045732077757264655D
:10180000206B65696E65204B004E6F2073756363B6
:1018100065737366756C206361004572206973207F
:101820006765656E206765736C61004E6F20736538
:10183000206861207265616C697A61004175637529
:101840006E208274616C6F6E6E61676500704834E3
:101850002F31302043616C6962726174650052827D
:10186000676C657220636F6E747261737465004D8E
:101870006F6E69746F72696E672062657A6967005E
:10188000546572756773746C6C6E2062657A6967F3
:10189000007048342D4B616C696272696572756EB7
:1018A00067007048372D4B616C69627269657275AB
:1018B0006E67007374616E646161726477616172F6
:1018C00064656E005282696E697469616C697361E6
:1018D00074696F6E007048342F3130206B616C6911
:1018E000627265726E0044726B206F702004206F0C
:1018F0006D20746520700064826661757420726565
:1019000073746175728273005282676C65722070A5
:101910004820726571756973005265737420616A3D
:101920007573207072656465740045696E73742EFA
:10193000205281636B6C69636874005265736574CF
:1019400020746F2044656661756C7400416368742F
:1019500072677276726C2062696A737400416A758C
:1019600073746172206C757A20706F7374005465A3
:10197000727567206F702073746E647264770052A2
:101980006573746F72656420466163746F72790069
:101990006F75744361706163697479203E20330010
:1019A00041616E2D74696A6420287365632E290075
:1019B000417566205A656974202853656B2E29008D
:1019C0005569742D74696A6420286D696E2E29002A
:1019D00054707320617272887420286D696E2900BA
:1019E00050756D70652048616E64626574722E007A
:1019F0005374616E642E207A757281636B732E004E
:101A000043616C6962726172207048342F3130001A
:101A1000887465732D766F757320739672203F00FE
:101A20005365742052657175697265642070480051
:101A3000416A75737465732066E062726963610060
:101A4000426F6D62612076656C6F636964616400EA
:101A500050726573736572200420706F6D7065003D
:101A6000416A75737420636F6E747261737465007C
:101A700070482D4B616C696272696572756E6700A2
:101A80005282676C657220728274726F82636C001E
:101A9000506F6D706520656E206D616E75656C00B0
:101AA000446F736572656E206F6D682F6F6D6C008B
:101AB00041636874657267726F6E647665726C00FC
:101AC00070483130206B616C6962726572656E00BE
:101AD000363053656320436F756E74646F776E00A4
:101AE000313553656320436F756E74646F776E0094
:101AF0005072657373200420746F2050756D7000F0
:101B000050726F766973696F6E6E656D656E740085
:101B100045696E73742E204B6F6E7472617374001E
:101B2000436F6E74726173742041646A75737400DC
:101B300020202020202020202020202020200032B3
:101B40002F332070756E742063616C2020009074B8
:101B5000616C20322F3320707473202000322F33B9
:101B600020506F696E742043616C20004175737A58
:101B700065697420284D696E2E29005420646573B0
:101B800061637420286D696E29004F75693C063EBB
:101B90002C4E6F6E3C053E2C00322F332D50756E4F
:101BA0006B742D4B616C2E007048342F31302D4BEF
:101BB000616C6962722E009074616C6F6E6E6572FA
:101BC0002070483130004A613C063E2C204E656949
:101BD0006E3C053E004F75693C063E2C204E6F6EF4
:101BE0003C053E0054696D6564204F757421203CAE
:101BF000063E005420657870697261646F203C066F
:101C00003E00436F6E7369676E652064652070489F
:101C10000043616C696272616369E26E2070480022
:101C2000528274726F82636C616972616765007061
:101C30004831302043616C69627261746500436FA2
:101C40006E74726F6C652062657A696700426572B6
:101C50006569747374656C6C756E670070483420C8
:101C60006B616C6962726572656E00704837206BDB
:101C7000616C6962726572656E0070482043616CC8
:101C80006962726174696F6E003130302520656E53
:101C900063656E6469646F005265737461626C653C
:101CA0006369656E646F0053756269722F416C637E
:101CB000616C696E6F00506172616D8A74726573D8
:101CC000207061720043616C20322F332070756E7A
:101CD000746F7300436F6E74726173742062696A0B
:101CE00073740052657374617572206482666175E5
:101CF00074004F666654696D6520284D696E290031
:101D00005765726B65696E7374656C6C2E00436108
:101D10006C69627261722070483130009074616C3D
:101D20006F6E6E657220704834009074616C6F6ED7
:101D30006E657220704837004A613C063E2C204E8A
:101D400065653C053E004A613C063E2C4E65696E69
:101D50003C053E005965733C063E2C204E6F3C0509
:101D60003E0041726520796F7520737572653F0082
:101D70009F457374E02073656775726F3F0042651D
:101D80006E742075207A656B65723F009074616C8B
:101D90006F6E6E61676520704800416C61726D61A5
:101DA000206DE16E696D6100416C61726D61206D45
:101DB000E078696D610050756D70204F76657272C4
:101DC0006964650070482D6B616C69627261746949
:101DD00065004175676D2F64696D20646F736500E0
:101DE000506F6D7065207669746573736500704817
:101DF000342043616C6962726174650070483720F9
:101E000043616C696272617465004F6D686F6F67E2
:101E10002F616C6B616C69004261636B6C69676810
:101E2000742041646A00506F6D70206F7068656641
:101E300066656E0070482065696E7374656C6C65CC
:101E40006E004B6F6E74726F6C6C696572656E00BC
:101E5000704820436F6E74726F6C6C6572004C75C5
:101E60007A20706F73746572696F72005375622F98
:101E700042616A20646F7369730072657374616292
:101E80006C656369646F730043616C20322F33703B
:101E9000756E746F73005469656D706F206465733F
:101EA000616374007A757281636B67657365747AB8
:101EB00074004D69736C756B74203C063E00005ACB
:101EC000756D2070756D70656E2004004F6E5469DD
:101ED0006D6520285365632900704831302D4B61B2
:101EE0006C6962722E0043616C696272617220706B
:101EF00048340043616C6962726172207048370037
:101F00004A613C063E2C4E65653C053E0053E13C73
:101F1000063E2C204E6F3C053E005965733C063E44
:101F20002C4E6F3C053E00496E7374656C6C656E9B
:101F3000207048005375727665696C6C616E6365DC
:101F40000054656D7073206D617263686500416C4B
:101F500061726D6520626173736500416C61726DC1
:101F60006520686175746500496E656666656374B1
:101F7000696576650050726F766973696F6E696E18
:101F80006700426F6D6261206D616E75616C00501B
:101F90006F6D7065206D616E75656C005A7572812C
:101FA000636B7365747A656E007061726120626F35
:101FB0006D62656172004375656E74612061747253
:101FC000E073007265626F757273203630207300A3
:101FD0007265626F757273203135207300466169D6
:101FE0006C6564203C063E00004665686C657220A6
:101FF0003C063E0000547073206D6172636865207A
:102000000053E13C063E2C4E6F3C053E00476561A7
:102010006E6E756C656572640031303025206D61BF
:102020007263686500496E656666656374697665A6
:10203000004265766F6F726164696E6700436F6E10
:1020400074726F6C6C696E67009A62657277616317
:1020500068756E67004175676D2F616C63616C69AF
:10206000004162676562726F6368656E00436F6E00
:1020700074726F6C6572656E0042616A61722FE006
:102080006369646F0050756D70652054656D706F85
:10209000004F6D6C6161672F7A7575720054656DC4
:1020A000707320617272887400476573706569632C
:1020B0006865727400456E72656769737472820038
:1020C0009063686563203C063E00004572726F7243
:1020D000203C063E00004872206D617263686520F6
:1020E0000045617274684C696E6B200048696768CE
:1020F000416C61726D20004C616167616C61726D51
:102100002000486F6F67616C61726D2000416C61E7
:10211000726D614DE16E2000526571756572696482
:102120006F2000416C61726D614DE0782000416C60
:1021300061726D2D4D696E2E00416C61726D2D4D79
:1021400061782E00462F572076332E302E350041F1
:102150007369676E617220704800416A75737461BB
:10216000722070480050756D702053706565640072
:1021700050756D70204F7672646500556E77697288
:102180006B73616D65004D6F6E69746F72696E6718
:10219000004D696E2D20416C61726D004D61782D8E
:1021A00020416C61726D004869676820416C617202
:1021B0006D004C61616720616C61726D00486F6FEA
:1021C0006720616C61726D00446F73652055702FDC
:1021D000446E004F706765736C6167656E009A624C
:1021E000657277616368656E00528267756C6174B1
:1021F000696F6E003025206170616761646F004D0A
:10220000656D6F72697A61646F00506F6D702074D4
:10221000656D706F005469656D706F206163740047
:1022200073616E73206566666574009074616C20DE
:10223000322F337074005461616C20202020200004
:102240004964696F6D61202020004C616E6775657F
:102250002020200053707261636865202000416C6B
:1022600061726D6520422000416C61726D6520488D
:1022700020005265717569726564200041616E2DA0
:1022800074696A6420005569742D74696A64200059
:102290005765726B74696A6420004C616E67756182
:1022A00067652000566572656973746520004C6F20
:1022B00077416C61726D20005420646573616374B2
:1022C0002000417566205A65697420004C6175666E
:1022D0007A656974200054707320617272742000F2
:1022E000446F736973202B2F2D0043616E63656CFF
:1022F0006C656400446F776E2F41636964004469C4
:102300006D2F6163696465004865727374656C6400
:1023100065004B6F6E74726F6C6C6500436F6E740A
:10232000726173746500616674656C6C696E6700D8
:10233000526573657474696E67002B2F426173690F
:102340007363680055702F416C6B616C6900456167
:102350007274684C696E6B00322F33707420436165
:102360006C00322F3370742063616C004C6F7720E7
:10237000416C61726D004D6F6E69746F72656E00B5
:1023800043616E63656C61646F004D6F6E69746F5D
:1023900072656F005296636B6C696368740042618A
:1023A000636B6C6967687400436F6D70746520853A
:1023B0000050756C7361722004004572666F726420
:1023C0002E20004F666654696D65200052756E546C
:1023D000696D6520004175737A6569742000496EE6
:1023E0006163746976610041616E2D74696A64008D
:1023F0005569742D74696A64004C616E6775616714
:102400006500636F6E74726F6C650031303025202B
:1024100061616E00313030252045696E0054707264
:102420006F6365736F0044656661756C747300302B
:1024300025206172728874004C6175667A656974D2
:1024400000436F6E747261737400696E65666963D0
:10245000617A0054206163742E20004F6E54696DC0
:10246000652000446F73696E67200052657175695D
:1024700073200070483428313029003630207365CD
:10248000632E003135207365632E0036302053658E
:102490006B2E0031352053656B2E005370726163D3
:1024A0006865004F666654696D6500436F6E7472AF
:1024B0006F6C0031303025204F6E00647281636B89
:1024C000656E00446F736572656E002D2F536175E4
:1024D0006572004D6F6E69746F72004175737A6535
:1024E000697400286E756C6C2900416E6E756C8283
:1024F0000054656D702E2000426F6D6261200050A7
:102500006F6D7065200050756D70652000417072B0
:102510006F762E00536574207048004964696F6DB2
:102520006100416C61726D610041637469766100A4
:102530004D6172636865004F6E54696D6500416C52
:1025400061726D65004C616E677565003025204FC6
:102550006666003630207365670031352073656725
:102560000030252041757300302520756974004DB9
:10257000454E5520004461746120004D6F64652014
:1025800000446F7365200057694669200054656DEB
:10259000702000506F6D70200050756D702000200D
:1025A00045727231002045727232002045727233DA
:1025B00000426F6D626100536176656400506F6D1B
:1025C00070650050756D70650025332E31660025ED
:1025D000342E31660057692D46690020436F6E6EB8
:1025E00000446F736973004D6F64757300417272BC
:1025F0008874004E696368740025302E327500209F
:102600006D5620006D696E2E0044617461004D6F3F
:10261000646500446F7365005461616C004D6F64C4
:102620006F00506F6D70004E696574003530250085
:102630003235250037352500204841002053500011
:102640007370610066726100736563006E6C640094
:10265000656E670041616E006D696E004E6F6E00C1
:1026600048727300556974004E6F7400646575009C
:10267000256C75002D2D004C41004F4B002564004A
:10268000416E004E6F004F720055720003003A0019
:102690004300460000FF00019F6B9E690201246B0E
:1026A000040E01015C190CE116510AE1000E5EEC0A
:1026B00077F0400E0101C96F010E166FDAEF18F0C6
:1026C000280EA25D230EA35902E2DAEF18F0000EE5
:1026D0005EEC77F0400E0101C96FA26BA36BDAEFDD
:1026E00018F05DA10ED000019F6B030E9E6F0101DB
:1026F000599DC00EC96FDBEC78F0010E0101186F17
:102700000BD0000EF0EC77F0000906E000019E6BA4
:102710009F6B0101256BC96B0201286B040E296FA9
:102720000101166B71EF19F0E0EC78F001018151B5
:10273000020DE40EF324D96E020EF420DA6EDECF21
:1027400081F0DDCF82F0C0EC64F0020E010120D0F8
:102750005DA504D0010E166F500E1AD0000EF0ECDD
:1027600077F0000902E171EF19F0050E11D0176B37
:1027700059A102D00F8102D001010F915E935E91A9
:102780005E953D6B476B516B93EC6FF0060EDED799
:10279000C96F71EF19F065EC5EF07DEC72F0080E18
:1027A000D5D7020E50EC69F0000E6B6F090E6C6FFE
:1027B00001018151020DB90EF324D96E030EF420EC
:1027C000DA6EDECF6DF0DDCF6EF04DEC68F0000E0E
:1027D00000016B6F090E6C6FFC0E6D6F1E0E6E6F3D
:1027E0001DEC64F0000E00016B6F090E6C6F0101AF
:1027F0008151020DAF0EF324D96E030EF420DA6E70
:10280000DECF6DF0DDCF6EF01DEC64F0010E020145
:10281000246F5EEC77F0090E99D793EC6FF0010E00
:102820000201246F0A0E92D7050EF0EC77F0000932
:10283000F2E0000E5EEC77F0700E0101C96F100E31
:102840003AD1A26BA36BDBEC78F0C00E0101C96F2B
:10285000110E3DEF18F0760E00016B6F020E6C6FDB
:1028600001018151020DE40EF324D96E020EF42011
:10287000DA6EDECF6DF0DDCF6EF04DEC68F0E0EC9F
:1028800078F0760E0001816F020E826F6EEC68F0B8
:10289000120E5CD7C00EC96F900E186F7CBF08D0A7
:1028A0007C517B1129E1510E795DC30E7A5924E2E6
:1028B0007CAF09D0B00E795D3C0E7A59FF0E7B5982
:1028C000FF0E7C5919E399EC75F0640E00016B6FF3
:1028D000020E6C6F01018151020DA50EF324D96E19
:1028E000030EF420DA6EDECF6DF0DDCF6EF04DEC2E
:1028F00068F0200E010119D01AEC67F0640E6B6FBE
:10290000020E6C6F01018151020D9B0EF324D96EF2
:10291000030EF420DA6EDECF6DF0DDCF6EF04DECFD
:1029200068F0010E0101166F310E1A6F9EEC78F0FF
:10293000640E0001816F020E826FC0EC64F0FAEC4D
:102940006DF065EC5EF07DEC72F071EF19F0E8EC83
:1029500077F0C00E0101C96F210E8FD3E0EC78F043
:10296000000E00016B6F090E6C6F01018151020DA9
:10297000B90EF324D96E030EF420DA6EDECF6DF0BB
:10298000DDCF6EF04DEC68F001015EA11CD0000EB1
:1029900000016B6F090E6C6F170E6D6F1D0E6E6F61
:1029A0001DEC64F001018151020DCD0EF324D96EAE
:1029B000030EF420DA6EDECF81F0DDCF82F0C0ECC2
:1029C00064F0020E39D05EA51CD0000E00016B6FC2
:1029D000090E6C6FEF0E6D6F1E0E6E6F1DEC64F0C6
:1029E00001018151020DDA0EF324D96E020EF4209A
:1029F000DA6EDECF81F0DDCF82F0C0EC64F0010E44
:102A00001BD0000E00016B6F090E6C6F730E6D6FA3
:102A1000240E6E6F1DEC64F001018151020DC30E96
:102A2000F324D96E030EF420DA6EDECF81F0DDCF11
:102A300082F0C0EC64F0030E0101176F220EA8D6DD
:102A4000000E00016B6F090E6C6F01018151020DC8
:102A5000AF0EF324D96E030EF420DA6EDECF6DF0E4
:102A6000DDCF6EF01DEC64F09EEC78F0230E6ED698
:102A7000FAEC6DF065EC5EF07DEC72F0010E020197
:102A8000246F5EEC77F0A00E0101C96F240EDFD138
:102A900093EC6FF0010E0201246F250E57D6050E40
:102AA000F0EC77F000090AE0000E5EEC77F0700EB3
:102AB0000101C96F270E1B6F71EF19F0240E68D644
:102AC000A26BA36B5E970E990E9D0E9B0E9FDBEC87
:102AD00078F0C00E0101C96F280ECFD275C1A4F0E5
:102AE00076C1A5F02A0E1B6F6751795D0001A06FBA
:102AF000010168517A590001A16F010169517B59A7
:102B00000001A26F01016A517C590001A36FA3BFAC
:102B100099D0A35108E1D00EA05DFB0EA159010E82
:102B2000A25901E28FD0A3BF0AD0A35107E1210E21
:102B3000A05D3C0EA159030EA259D8B083D0D0ECB1
:102B400073F021EE67F0DECF6BF0DDCF6CF00001AB
:102B5000000E6CBFFF0E6D6F6E6FE80E6F6F030E91
:102B6000706F716B726B0EEC4DF06BC0A7F06CC0A8
:102B7000A8F00101000E5EB3010E00016B6FA7C04B
:102B80006CF0A8C06DF0A9C06EF0A4C06FF0A5C035
:102B900070F0A6C071F0010E37EC65F021EE6BF01D
:102BA000DECF6BF0DDCF6CF0000E6CBFFF0E6D6FF3
:102BB0006E6FE80E6F6F030E706F716B726B0EECC1
:102BC0004DF06BC0A7F06CC0A8F00101000E5EB123
:102BD000010E00016B6FA7C06CF0A8C06DF0A9C01A
:102BE0006EF0A4C06FF0A5C070F0A6C071F0000E2A
:102BF00037EC65F0760E6B6F020E6C6F0101815140
:102C0000020DDA0EF324D96E020EF420DA6EDECF56
:102C10006DF0DDCF6EF04DEC68F0640E00016B6F6F
:102C2000020E6C6F01018151020DA50EF324D96EC5
:102C3000030EF420DA6EDECF6DF0DDCF6EF04DECDA
:102C400068F0CDD0A3AF9CD0310EA05D040EA15989
:102C5000FE0EA259FF0EA35901E392D0A3AF0AD0F2
:102C6000E00EA05DC30EA159FC0EA259FF0EA359A0
:102C700001E286D0ADEC70F021EE67F0DECF6BF0B4
:102C8000DDCF6CF00001000E6CBFFF0E6D6F6E6F3C
:102C9000E80E6F6F030E706F716B726B0EEC4DF080
:102CA0006BC0A7F06CC0A8F00101000E5EB3010E6E
:102CB00000016B6FA7C06CF0A8C06DF0A9C06EF0EA
:102CC000A4C06FF0A5C070F0A6C071F0010E37EC83
:102CD00065F021EE6FF0DECF6BF0DDCF6CF0000E13
:102CE0006CBFFF0E6D6F6E6FE80E6F6F030E706F2F
:102CF000716B726B0EEC4DF06BC0A7F06CC0A8F05E
:102D00000101000E5EB5010E00016B6FA7C06CF0F3
:102D1000A8C06DF0A9C06EF0A4C06FF0A5C070F09F
:102D2000A6C071F0020E37EC65F00101246B760E3F
:102D300000016B6F020E6C6F01018151020DCD0E0F
:102D4000F324D96E030EF420DA6EDECF6DF0DDCF02
:102D50006EF04DEC68F0640E00016B6F020E6C6F4C
:102D600001018151020DA50EF324D96E030EF4204A
:102D7000DA6EDECF6DF0DDCF6EF04DEC68F02FD067
:102D8000010E0101166F1AEC67F0760E6B6F020EE2
:102D90006C6F01018151020DC30EF324D96E030E35
:102DA000F420DA6EDECF6DF0DDCF6EF04DEC68F022
:102DB000640E00016B6F020E6C6F01018151020DF8
:102DC0009B0EF324D96E030EF420DA6EDECF6DF085
:102DD000DDCF6EF04DEC68F0310E01011B6FE0ECC1
:102DE00078F0760E0001816F020E826F6EEC68F053
:102DF0009EEC78F0290EAAD4640E0001816F020EB9
:102E0000826F6EEC68F0FAEC6DF065EC5EF07DECD4
:102E100072F0C00E0101C96F900E186F1BC11AF13C
:102E200060D2A00EC96F8A5103E05EB15EA502D0E8
:102E3000300E0DD0200E196F73D4599D5E9718EC8B
:102E40003FF00101996B010E986F8DD1420E196F01
:102E500048D2030EF0EC77F0000901E142D2420EB5
:102E600097D4DBEC78F0410E0101186FC00E6ED4E0
:102E7000E0EC78F001018151020DD70EF324D96EF8
:102E8000030EF420DA6EDECF81F0DDCF82F0C0ECED
:102E900064F09EEC78F001018151020DD00EF32414
:102EA000D96E020EF420DA6EDECF81F0DDCF82F033
:102EB000C0EC64F00101B76BB86BA26BA36B900E12
:102EC000C96F800ED2D04FEC78F0C00E0101C96FEF
:102ED000430ED3D000019E6B9F6B0101256B826B6B
:102EE00000018A6B896BC9EC63F00101C96B236B2C
:102EF0005EEC79F0200EE5EC78F0F3D1B00EC96FFE
:102F0000510EBBD0E0EC78F001018151020DD70EDB
:102F1000F324D96E030EF420DA6EDECF81F0DDCF1C
:102F200082F0C0EC64F09EEC78F001018151020D5A
:102F3000B40EF324D96E040EF420DA6EDECF81F0E5
:102F4000DDCF82F0C0EC64F0A00E0101C96FB00EBD
:102F5000196F520E92D0E0EC78F001018151020D10
:102F6000C80EF324D96E040EF420DA6EDECF81F0A1
:102F7000DDCF82F0C0EC64F09EEC78F0010181516D
:102F8000020DBE0EF324D96E040EF420DA6EDECFED
:102F900081F0DDCF82F0C0EC64F0530EA6EF13F0A9
:102FA000030E5C1904E1B00EC96F540E66D0040E16
:102FB0005C1901E096D1B00EC96F550E5ED0E0EC01
:102FC00078F001018151020DD20EF324D96E040E66
:102FD000F420DA6EDECF81F0DDCF82F0C0EC64F059
:102FE0001AEC67F0900E0101C96FA00E1A6F2ED770
:102FF000E0EC78F001018151020DD00EF324D96E7E
:10300000020EF420DA6EDECF81F0DDCF82F0C0EC6C
:1030100064F0E8D7A26BA36B4FEC78F0610E24D775
:103020001AEC67F0200E816F400E23EC74F0010162
:103030001751C2EC5DF0620EA6EF13F09EEC78F033
:1030400001018151020DAA0EF324D96E040EF42061
:10305000DA6EDECF81F0DDCF82F0C0EC64F0C00E1E
:103060000101C96F900E186F310E1A6F3AD1E8EC5A
:1030700077F0C00E0101C96F710E186F32D1175170
:10308000C2EC5DF0720EA6EF13F079C16FF07AC159
:1030900070F07BC171F07CC172F0000E6FEC37F004
:1030A00000019D6B01011C6B1E6B1D6B02014C6BC3
:1030B0004D6B9EEC78F001011C5175EC6CF0730EB9
:1030C000A6EF13F093EC6FF002014C4B4D2BAC0EBE
:1030D0004C5D260E4D5905E3010E0101166F600E81
:1030E000C96F01011E2B090E1E65FBD01E6B79C135
:1030F0006FF07AC170F07BC171F07CC172F0010E8B
:103100006FEC37F000019D6F01011D2B02014D5145
:1031100004E1320E4C5D01E2E4D0010E01011D65B7
:10312000E0D01D6B9EEC78F000019D5101011C5D0B
:1031300005E21C2B1C5175EC6CF0D3D0060E1C194B
:1031400001E0CFD01BC1C9F1CCD04AEC31F018EC72
:103150003FF001015EA307D0D10E985D020E995990
:1031600002E3598D5E87A00EC96F70D6246B910E55
:10317000C8EF13F0242B310E2465B3D01AC1C9F166
:10318000B0D0000EF0EC77F0000901E1AAD019C12F
:10319000C9F1A7D0E8EC77F069D6CCEC71F0000962
:1031A00001E19FD0E0EC71F0000901E19AD018C173
:1031B000C9F197D0C95102E171EF13F0010A02E1A0
:1031C00094EF13F0030A02E1A8EF13F0070A02E1FB
:1031D000B7EF13F0030A02E1CBEF13F00E0A02E19E
:1031E000D1EF13F0010A02E10DEF14F0030A02E13E
:1031F00014EF14F01A0A02E121EF14F0010A02E1BF
:103200002BEF14F0030A02E14AEF14F0320A02E154
:10321000A7EF14F0010A02E1AEEF14F0030A01E196
:103220000FD4010A01E124D4070A01E131D4010AD3
:1032300001E135D4020A01E143D40F0A01E14ED481
:10324000010A01E1D9D5030A01E1EBD51A0A01E12E
:10325000F4D5010A01E1FDD5710A01E102D6010AA6
:1032600001E106D6030A01E12ED6010A01E132D6B8
:10327000130A01E143D6010A01E144D6030A01E140
:103280006AD6010A01E18CD6070A01E198D6010A43
:1032900001E1AED6350A01E1BDD6010A01E1C0D691
:1032A000030A01E1CBD6120A01E1E1D6010A01E1EC
:1032B000E6D6030A01E1E9D6010A01E103D7F30AE0
:1032C00001E143D7100A01E151D7010A01E152D7C8
:1032D000310A01E156D7100A01E15CD7700A01E119
:1032E0005CD79EC09BF09FC09CF0120065EF1EF063
:1032F000250EDA191CE07DEC1EF011E0B651D96EF6
:1033000085EC1EF002D865EF1EF00500FA6EBA518A
:10331000FD6EBB51FE6EFF6AFA50DA51120071EC7D
:103320001EF0DAC0DFFF95EC1EF065EF1EF0D66BE5
:10333000D76BD46BD56B03D0D485B74BB82BC4EC0B
:103340001EF0300AF9E0C4EC1EF080EC74F01CE3CF
:10335000D66BD76BD6C06BF0D7C06CF057EC1FF0B4
:10336000A3EC72F06BC0D6F06CC0D7F0B7C0F6FF1C
:10337000FBEC1EF0D627BC51D723B74BB82BC4ECBF
:103380001EF080EC74F0E6E2C4EC1EF02E0A22E19E
:10339000D58DB74BB82BD86BD96B15D0D8C06BF087
:1033A000D9C06CF057EC1FF0A3EC72F06BC0D8F0F2
:1033B0006CC0D9F0B7C0F6FFFBEC1EF0D827BC51AB
:1033C000D923B74BB82BC4EC1EF080EC74F001E2AB
:1033D000B3D0E4D7D86BD96BD589AED0D489ACD073
:1033E000D585C2D0B951D96EDA6A020EDF26DF5C0C
:1033F000D96EDA6ADECFC3F0DECFC4F0C351C41198
:1034000004E1E30EC36F240EC46FC56BC66B03D01B
:103410000001C54BC62BC551C325BA6FC651C42187
:10342000BB6FBAC0F6FFBBC0F7FF000EF86E0F0E01
:10343000F76403D00800F55003D036EC48F0EF50A5
:103440000009E6E10001D851D9110BE0C55160EC4B
:103450001FF0C651800ABA5904E2D8C0C5F0D9C0DD
:10346000C6F0D651C55DD751C65905E2C551D65FE4
:10347000C651D75B1AD0D66BD76B17D07DEC1EF038
:103480000FE0B651D96E85EC1EF001D80ED00500C4
:10349000FA6EBA51FD6EBB51FE6EFF6AFA50200CF7
:1034A00071EC1EF0200E8DEC1EF00001D607D8A0A6
:1034B000D707D629E3E1D72934E0E0D77DEC1EF029
:1034C0001EE0B651D96E85EC1EF001D814D005006F
:1034D000FA6EBA51FD6EBB51FE6EFF6AFA503BECBC
:1034E0001FF00F0EF76403D00800F55003D036EC40
:1034F00048F0EF5012000001C34BC42B12D03BEC3C
:103500001FF0EFDB0F0EF76403D00800F55003D077
:1035100036EC48F0EF50DF6E0001C34BC42B95EC46
:103520001EF0C507D8A0C607C529C8E1C62901E114
:10353000CCD3C4D7D48D18D0B7C0F6FFB8C0F7FF2E
:1035400033EC1FF001E1CAD3640A0EE0020A01E184
:1035500047D70F0A09E0050A01E140D71F0A01E138
:1035600041D7060AE7E0B1D3070ED51501E181D2B4
:10357000D5A903D0D96B060ED86FB951D96EDA6AC6
:10358000DFCFBAF0030EDF26BA51D96EDA6ADECF8A
:10359000D1F0DECFD2F0DDCFD3F0D3AF10D0D1C099
:1035A0006BF0D2C06CF0D3C06DF01BEC76F06BC04A
:1035B000D1F06CC0D2F06DC0D3F0030ED413C76B42
:1035C000C86BD151D211D31169E0820EBA6FBB69B9
:1035D000D1C0BCF0D2C0BDF0D3C0BEF0D4C0BFF0EB
:1035E000100E05D0D890BF33BE33BD33BC33E82EA8
:1035F000F9D7BC51BA25C76F000EBB21C86FC707EA
:10360000D8A0C807C7C06BF0C8C06CF06E6B030EC3
:103610006D6FA3EC72F06BC0C7F06CC0C8F0C7C090
:1036200071F0C8C072F046EC31F081EC5BF071C013
:10363000C7F072C0C8F0C8AF03D0C707D8A0C8078A
:10364000C751000888EC34F042EC1FF0CDC079F08F
:10365000CEC07AF0CFC07BF049EC1FF04FEC4CF0BD
:1036600079C0CDF07AC0CEF07BC0CFF0E3DB6E6BDB
:10367000800E6F6F3F0E706F74EC63F004E2C7074B
:10368000D8A0C8070BD0D6DB6E6B200E6F6F410E33
:10369000706F74EC63F002E3C74BC82BD9BF05D041
:1036A000D9511AE10D0ED85D17E2D1C092F0D2C007
:1036B00093F0D3C094F0D8519CEC41F088C095F0C1
:1036C00089C096F08AC097F0C2EC3FF092C0D1F06A
:1036D00093C0D2F094C0D3F0C8BF05D0C85116E152
:1036E0000A0EC75D13E2D151D211D3113CE0D8DBF1
:1036F00085EC4EF08F5190119111921134E1C8BFB9
:1037000032D0C85103E1020EC75D2DE393DB700E8A
:103710006E6F890E6F6F400E706F74EC63F0F70E72
:10372000D8B0F80EC727FF0EC823C75188EC34F075
:10373000A9DBD1C06BF0D2C06CF0D3C06DF0CDC0AE
:103740006EF0CEC06FF0CFC070F0F5EC49F06BC0FA
:10375000C9F06CC0CAF06DC0CBF06EC0CCF0D16BBC
:10376000D26BD36B24D09CDB85EC4EF06ADBD1C0EE
:10377000B0F0D2C0B1F0D3C0B2F0C9C073F0CAC0CB
:1037800074F0CBC075F0CCC076F084EC65F073C0FB
:10379000B3F074C0B4F075C0B5F0C6EC6CF0B0C056
:1037A000D1F0B1C0D2F0B2C0D3F0C76BC86B010E7C
:1037B000DA6FC2DA2EDB04E3DA2B0A0EDA19F9E14A
:1037C000DA51D825BA6F000ED921BB6FC751BA277D
:1037D000C851BB23BA51D65FBB51D75BD851D91161
:1037E00003E0D607D8A0D70720DB03E0D607D8A090
:1037F000D707D4A54CD019DB2BE07FDA0EE0B65109
:10380000D96E83DA01D824D00500FA6EBA51FD6E64
:10381000BB51FE6EFF6AFA502D0C63DA2D0E7DDA75
:1038200017D06BDA0EE0B651D96E6FDA01D80CD032
:103830000500FA6EBA51FD6EBB51FE6EFF6AFA507A
:10384000300C4FDA300E69DA0001D607D8A0D7075E
:103850000001D7BF4ED0D751E4E1D6054AE3E1D706
:103860004CDA0EE0B651D96E50DA01D80CD0050012
:10387000FA6EBA51FD6EBB51FE6EFF6AFA50200C13
:1038800030DA200E4ADA0001D607D8A0D707D7BF12
:1038900004D0D751E5E1D605E3E2C7DA2AE02DDA14
:1038A0000EE0B651D96E31DA01D823D00500FA6E98
:1038B000BA51FD6EBB51FE6EFF6AFA502D0C11DA43
:1038C0002D0E16D08FDA38DA67DA09EC5BF046DABB
:1038D0009AEC5FF07EDA11DA08E0B651D96E15DAAB
:1038E00001D807D00500FA6E7AD0FBD9CD51300F40
:1038F00014DA0001DA07DA2918E0E4D7FED90EE07D
:10390000B651D96E02DA01D80CD00500FA6EBA5160
:10391000FD6EBB51FE6EFF6AFA50300CE2D9300EDC
:10392000FCD90001C707D8A0C807C8BF04D0C85138
:10393000E5E1C705E3E2D9BF08D0D95103E1090E9B
:10394000D85D03E3080EDA6F02D0D8C0DAF0DA519E
:10395000D85F000ED95BDA5113E0CFD90EE0B65133
:10396000D96ED3D901D80CD00500FA6EBA51FD6ECC
:10397000BB51FE6EFF6AFA502E0CB3D92E0ECDD974
:103980000001DA5188EC34F088C0C0F089C0C1F081
:103990008AC0C2F07EDAC0C079F0C1C07AF0C2C07D
:1039A0007BF04FEC4CF079C08FF07AC090F07BC088
:1039B00091F085EC4EF045DA3CD014DABDD9ECD963
:1039C00009EC5BF0CBD99AEC5FF003DA96D90EE004
:1039D000B651D96E9AD901D80DD00500FA6EBA51F8
:1039E000FD6EBB51FE6EFF6AFA506FD27AD9CD518F
:1039F000300F93D9C9C078F0CAC079F0CBC07AF043
:103A0000CCC07BF0000198D9F5CF7CF00900F5CF50
:103A10007DF00900F5CF7EF00A00F5CF7FF09AEC3B
:103A20005FF078C0C9F079C0CAF07AC0CBF07BC033
:103A3000CCF0DA07DA2918E0C0D75FD90EE0B6512A
:103A4000D96E63D901D80CD00500FA6EBA51FD6E5B
:103A5000BB51FE6EFF6AFA50300C43D9300E5DD96F
:103A60000001D807D8A0D907D851D91101E12DD12B
:103A7000E4D7D4BD1BD0D4A902D09AD90AD0EAD9B0
:103A8000DECFC9F0DDCFCAF0000ECABFFF0ECB6F8C
:103A9000CC6FCCAF1AD0030ED413CC1FCB1FCA1FD0
:103AA000C96D000ECA23CB23CC230FD0D4A902D0DA
:103AB0007FD90BD0CFD9DECFBAF0DDCFBBF0BAC003
:103AC000C9F0BBC0CAF0CB6BCC6BD851D91107E1A0
:103AD000C951CA11CB11CC1102E1D84BD92B010E1F
:103AE000DA6F2AD996D904E3DA2B0A0EDA19F9E14A
:103AF000DA51BA6FBB6BD851DED9D951800ABC59A3
:103B000003E2D8C0DAF00FD0DA51BA6FBB6BBA510A
:103B1000D85DD951800ABC6FBB51800ABC5903E201
:103B2000DAC0D8F0D96BD651D71105E07ED903E0C1
:103B3000D607D8A0D707D5AD0DD0D651C1D9D7510A
:103B4000800ABA5905E2D851D65FD951D75B02D065
:103B5000D66BD76BDA51BA6FBB6BD651ACD9D75194
:103B6000800ABC5905E2DA51D65F000ED75B02D05D
:103B7000D66BD76BD4A532D058D913E0BED80EE09F
:103B8000B651D96EC2D801D80CD00500FA6EBA5120
:103B9000FD6EBB51FE6EFF6AFA502D0CA2D82D0EA1
:103BA000BCD80001D651D71101E187D0A6D80EE0CC
:103BB000B651D96EAAD801D80CD00500FA6EBA5108
:103BC000FD6EBB51FE6EFF6AFA50300C8AD8300E83
:103BD000A4D80001D607D8A0D707E4D7D651D7116B
:103BE0001AE08BD80EE0B651D96E8FD801D80CD020
:103BF0000500FA6EBA51FD6EBB51FE6EFF6AFA50B7
:103C0000200C6FD8200E89D80001D607D8A0D7077E
:103C1000D651D711E6E109D950E06FD80EE0B65180
:103C2000D96E73D801D849D00500FA6EBA51FD6E2D
:103C3000BB51FE6EFF6AFA502D0C53D82D0EDF6E6D
:103C40003BD0D8C0BAF0D9C0BBF0D890BA37BB3798
:103C5000D890BA37BB37750EBA25F66E110EBB2158
:103C6000F76E77D899D8BED809EC5BF06BC078F0C6
:103C70006CC079F06DC07AF06EC07BF00A0E7C6F7C
:103C80007D6B7E6B7F6B9AEC5FF07851300FDA6F53
:103C900034D80FE0B651D96E38D801D80ED005000F
:103CA000FA6EBA51FD6EBB51FE6EFF6AFA50DA51E0
:103CB000120017D8DAC0DFFF38D80001D807D8A023
:103CC000D907D829BEE1D929BCE1B7C0F6FFB8C0F1
:103CD000F7FF0001C8D802E078EF19F0B66BB76BB8
:103CE0001200B651D96EDA6ADECFBAF0DDCFBBF082
:103CF000BAC0D9FFBBC0DAFF1200B651D96EDA6A7A
:103D0000020ED926DE50DE101200DA6A020ED92623
:103D1000DECFBAF0DDCFBBF0020CDF6EB651D96E4C
:103D2000DA6ADE2A000EDD22000CB651D96EDA6A9C
:103D3000DE2A000EDD22000CDA51040D750EF3248C
:103D4000F66E110EF420F76EF86A000EF8220900E4
:103D50001200F86A000EF822090012006BC0CDF0C4
:103D60006CC0CEF06DC0CFF06EC0D0F0CDC078F09A
:103D7000CEC079F0CFC07AF0D0C07BF00A0E7C6F55
:103D80007D6B7E6B7F6B0A0CB7C0F6FFB8C0F7FF88
:103D9000F86A0800F5501200F5CF6FF00900F5CF72
:103DA00070F00900F5CF71F00A00F5CF72F0120043
:103DB000B951D96EDA6A040EDF26DF5CD96EDA6A91
:103DC000DECFC9F0DECFCAF0DECFCBF0DECFCCF055
:103DD000120078C0CDF079C0CEF07AC0CFF07BC0B1
:103DE000D0F01200C9C06BF0CAC06CF0CBC06DF04F
:103DF000CCC06EF01200B8C0F7FFF86A0800F5CF2B
:103E0000BAF0D00EBA25BB6FBC6BFF0EBC23BB5102
:103E10001200F550C95D0900F550CA590900F55066
:103E2000CB590900F550CC591200D4C0BAF0030E9A
:103E3000BA17030CCDC06BF0CEC06CF0CFC06DF0E4
:103E400012008FC0C9F090C0CAF091C0CBF092C0F0
:103E5000CCF01200B951D96EDA6ADF50DF2ADF2ABE
:103E6000D96EDA6A1200B74BB82BF86A0800F5CFA2
:103E7000DAF0DA511200C3C0F6FFC4C0F7FF000E3B
:103E8000F86E120088C0CDF089C0CEF08AC0CFF0A5
:103E90001200D1C07CF0D2C07DF0D3C07EF0120001
:103EA000D1C08FF0D2C090F0D3C091F012006E6BF1
:103EB0000A0E6D6F0A0CBA5DBB51800ABC6F12000E
:103EC000D85DD951800ABA6F1200CD51300F12005F
:103ED00076C082F077C083F025D3840E6D6F6E6B51
:103EE000BEDB13EC6EF08451010182190EE0820EEC
:103EF00000016F6F010E706F726B716B010E736F4B
:103F000030EC6DF079DB9C0E90D3840E7ADBB5DB60
:103F100013EC6EF084510101B0190EE0B00E0001F7
:103F20006F6F010E706F726B010E716F736F30ECFB
:103F30006DF062DBA30E79D3800E63DB9ADB13ECAA
:103F40006EF080510101831905E1000181510101E9
:103F500084190EE0830E00016F6F010E706F726B9B
:103F6000020E716F736F30EC6DF046DBAA0E5DD3FD
:103F7000800E47DB040E6CEC32F013EC6EF08051D7
:103F80000101851905E100018151010186190DE04A
:103F9000850E00016F6F010E706F726B040E53DBA4
:103FA00030EC6DF029DBB10E40D3800E2ADB060E1B
:103FB0006CEC32F013EC6EF080510101871905E1D1
:103FC00000018151010188190DE0870E00016F6F1A
:103FD000010E706F726B060E36DB30EC6DF00CDB91
:103FE000B80E23D3800E0DDB080E6CEC32F013EC10
:103FF0006EF0805101018C1905E100018151010130
:104000008D190DE08C0E00016F6F010E706F726BD9
:10401000080E19DB30EC6DF0EFDABF0E06D3800E20
:10402000F0DA0A0E6CEC32F013EC6EF08051010104
:104030008E1905E10001815101018F190DE08E0EED
:1040400000016F6F010E706F726B0A0EFCDA30ECBC
:104050006DF0D2DAC60EE9D2840ED3DA0C0EE1DAB4
:1040600013EC6EF08451010190190DE0900E0001E7
:104070006F6F010E706F726B0C0EE1DA30EC6DF049
:10408000BBDACD0ED2D2840EBCDA0D0ECADA13EC36
:104090006EF08451010192190DE0920E00016F6FD4
:1040A000010E706F726B0D0ECADA30EC6DF0A4DA8F
:1040B000D40EBBD2840EA5DA0E0EB3DA13EC6EF07A
:1040C0008451010189190DE0890E00016F6F010E05
:1040D000706F726B0E0EB3DA30EC6DF08DDADB0EB2
:1040E000A4D2840E8EDA0F0E9CDA13EC6EF084519B
:1040F000010181190DE0810E00016F6F010E706FDB
:10410000726B0F0E9CDA30EC6DF076DAE20E8DD227
:10411000840E77DA100E85DA13EC6EF0845101010B
:104120005E190DE05E0E00016F6F010E706F726B15
:10413000100E85DA30EC6DF05FDAE90E76D27C0E87
:1041400060DA110E84DA13EC6EF072DA6751000156
:1041500078190FE101016851000179190AE10101A3
:10416000695100017A1905E101016A5100017B19C9
:104170000CE0670E6F6F010E706F726B110E6BDAD1
:1041800030EC6DF039DAF00E50D26EDA150E5FDADF
:1041900013EC6EF04DDA6B51000178190FE101015B
:1041A0006C51000179190AE101016D5100017A1980
:1041B00005E101016E5100017B190CE06B0E6F6F80
:1041C000010E706F726B150E46DA30EC6DF014DA7A
:1041D000F70E2BD249DA190E3ADA13EC6EF028DA20
:1041E0006F51000178190FE1010170510001791937
:1041F0000AE10101715100017A1905E101017251D1
:1042000000017B190CE06F0E6F6F010E706F726B07
:10421000190E21DA30EC6DF0EFD9FE0E06D2800EC9
:104220006D6F6E6B706B1D0E6CEC32F013EC6EF0FC
:1042300080510101981905E100018151010199198D
:104240000DE0980E00016F6F010E706F726B1D0E06
:10425000FAD930EC6DF0D0D9050ED8D17C0ED1D979
:10426000250EF5D913EC6EF07C5101019E190FE17A
:1042700000017D5101019F190AE100017E510101F8
:10428000A01905E100017F510101A1190DE09E0E69
:1042900000016F6F010E706F726B250EDCD930EC70
:1042A0006DF0AAD90C0EB2D1840EABD9230EB9D9B8
:1042B00013EC6EF0845101018A190DE08A0E0001A1
:1042C0006F6F010E706F726B230EB9D930EC6DF009
:1042D00093D9130E9BD1840E94D9240EA2D913EC3A
:1042E0006EF0845101018B190DE08B0E00016F6F90
:1042F000010E706F726B240EA2D930EC6DF07CD978
:104300001A0E84D1840E7DD9290E8BD913EC6EF050
:104310008451010163190DE0630E00016F6F010EFE
:10432000706F726B290E8BD930EC6DF065D9210E50
:104330006DD1840E66D92A0E74D913EC6EF08451B7
:1043400001015F190DE05F0E00016F6F010E706FCC
:10435000726B2A0E74D930EC6DF04ED9280E56D1FE
:10436000800E4FD92B0E6CEC32F013EC6EF08051B6
:1043700001013B1905E10001815101013C190AE0ED
:104380003B0E00016F6F010E45D930EC6DF034D952
:104390002F0E3CD1800E35D92D0E6CEC32F013EC83
:1043A0006EF080510101451905E1000181510101C3
:1043B00046190AE0450E00016F6F010E2BD930EC53
:1043C0006DF01AD9360E22D1800E1BD92F0E6CEC4F
:1043D00032F013EC6EF0805101014F1905E100013C
:1043E0008151010150190AE04F0E00016F6F010E5B
:1043F00011D930EC6DF000D93D0E08D1800E01D9F5
:10440000310E6CEC32F013EC6EF0805101014B195F
:1044100005E10001815101014C190AE04B0E000138
:104420006F6F010EF7D830EC6DF0E6D8440EEED089
:10443000840EE7D81F0EF5D813EC6EF084510101FD
:104440009A190DE09A0E00016F6F010E706F726B7A
:104450001F0EF5D830EC6DF0CFD84B0ED7D0840EB0
:10446000D0D8200EDED813EC6EF0845101019B19D8
:104470000DE09B0E00016F6F010E706F726B200ECE
:10448000DED830EC6DF0B8D8520EC0D0840EB9D85A
:10449000210EC7D813EC6EF0845101019C199D11B7
:1044A0000DE09C0E00016F6F010E706F726B210E9C
:1044B000CAD830EC6DF0A0D8590EA8D0840EA1D87F
:1044C000330EAFD813EC6EF08451010191190DE059
:1044D000910E00016F6F010E706F726B330EAFD8CB
:1044E00030EC6DF089D8600E91D0800E8AD8310EF4
:1044F0006CEC32F013EC6EF0805101017D1905E196
:104500000001815101017E190AE07D0E00016F6FEB
:10451000010E80D830EC6DF06FD8670E77D06CD874
:10452000010E83D069D8DECF78F0DDCF79F07951F4
:1045300003E0010A33E0D1D47851010AD8B4120063
:104540009D0A01E1E2D43F0A01E1F6D4090A01E142
:104550000FD51B0A01E129D5090A01E143D5070A54
:1045600001E15DD5790A01E177D50B0A01E18BD52F
:10457000190A01E19FD50F0A01E1B3D5390A01E11A
:10458000C7D50B0A01E1DBD5190A01E1FED5070AFF
:1045900001E120D6090A01E142D69FD47851050AEB
:1045A00001E15CD6090A01E17FD61F0A01E193D639
:1045B000090A01E1A7D63B0A01E1BBD6090A01E1DC
:1045C000CFD6070A01E1E6D6190A01E1FDD60B0AAA
:1045D00001E114D7790A01E12BD70F0A01E13FD796
:1045E000190A01E153D70B0A01E168D7390A01E141
:1045F0007CD7070A94E071D482C0D9FF83C0DAFF68
:10460000120000016D6F6E6B706B1200DE6E010E9A
:10461000DD6E010C706F726B310E716F020E736F75
:10462000020C6F6F010E716F010CDE6EDD6A000C03
:1046300084C078F0796B7A6B7B6B01011200716F2B
:10464000010E736F010C716F020E736F020C6F6FAE
:10465000040E716F040C716F040E736F040C706B99
:104660006F6B010E716F010C7C0E6D6F6E6B706B5A
:104670001200020E6F6F716F020C010E6F6F716F7F
:10468000010C21EEDAF0100EDE6AE806FDE2FCD243
:10469000640E00016B6F020E6C6F01018151020DFF
:1046A0008C0EF324D96E040EF420DA6EDECF6DF09A
:1046B000DDCF6EF04DEC68F0640E0001E86F020E85
:1046C000E96F830EEA6F010EEB6F0AEC59F0640E8E
:1046D00000016B6F020E6C6F2D0E6D6F1A0E6E6FF8
:1046E0001DEC64F0F4D2640E00016B6F020E6C6F6F
:1046F00001018151020D820EF324D96E040EF420C3
:10470000DA6EDECF6DF0DDCF6EF04DEC68F0640E4A
:104710000001E86F020EE96F730EEA6F010EEB6F96
:10472000010EEC6FFBEC53F0640E00016B6F020E98
:104730006C6F3D0E6D6F1B0E6E6F1DEC64F0640EA2
:104740000001E86F020EE96F770EEA6F010EEB6F62
:10475000010EEC6F50EC48F0BAD2640E00016B6FA2
:10476000020E6C6F01018151020D6E0EF324D96EA1
:10477000040EF420DA6EDECF6DF0DDCF6EF04DEC7E
:1047800068F0640E0001E86F020EE96F870EEA6FB1
:10479000010EEB6F0AEC59F0640E00016B6F020E14
:1047A0006C6F2D0E6D6F1A0E6E6F1DEC64F08FD254
:1047B000640E00016B6F020E6C6F01018151020DDE
:1047C000780EF324D96E040EF420DA6EDECF6DF08D
:1047D000DDCF6EF04DEC68F0640E0001E86F020E64
:1047E000E96F850EEA6F010EEB6F0AEC59F0640E6B
:1047F00000016B6F020E6C6F2D0E6D6F1A0E6E6FD7
:104800001DEC64F064D2640E00016B6F020E6C6FDD
:1048100001018151020D640EF324D96E040EF420BF
:10482000DA6EDECF6DF0DDCF6EF04DEC68F0010199
:10483000895115E1640E00016B6F020E6C6F01016E
:104840008151020D140EF324D96E040EF420DA6E99
:10485000DECF6DF0DDCF6EF01DEC64F038D2640E6B
:1048600000016B6F020E6C6F01018151020D0A0E87
:10487000F324D96E040EF420DA6EDECF6DF0DDCFB6
:104880006EF01DEC64F023D2640E00016B6F020E1B
:104890006C6F01018151020D5A0EF324D96E040E82
:1048A000F420DA6EDECF6DF0DDCF6EF04DEC68F007
:1048B000DA0E0001DB6F010EDC6F7D0EDD6F260E60
:1048C000DE6F8CC1DFF08DC1E0F01EEC6FF0640E86
:1048D0006B6F020E6C6FDA0E6D6F010E6E6F1DEC5A
:1048E00064F0640E00016B6F020E6C6F0101815168
:1048F000020D000EF324D96E040EF420DA6EDECF22
:104900006DF0DDCF6EF01DEC64F0E1D1640E0001BE
:104910006B6F020E6C6F01018151020D500EF3247A
:10492000D96E040EF420DA6EDECF6DF0DDCF6EF0BE
:104930004DEC68F0DA0E0001DB6F010EDC6F7D0ECE
:10494000DD6F260EDE6F8EC1DFF08FC1E0F01EEC52
:104950006FF0640E6B6F020E6C6FDA0E6D6F010EEE
:104960006E6F1DEC64F0640E00016B6F020E6C6FD5
:1049700001018151020DB80EF324D96E050EF42009
:10498000DA6EDECF6DF0DDCF6EF01DEC64F09FD1FE
:10499000640E00016B6F020E6C6F01018151020DFC
:1049A000460EF324D96E040EF420DA6EDECF6DF0DD
:1049B000DDCF6EF04DEC68F0DA0E0001DB6F010E1A
:1049C000DC6FF90EDD6F250EDE6F9CC1DFF09DC13F
:1049D000E0F01EEC6FF0640E6B6F020E6C6FDA0E7F
:1049E0006D6F010E6E6F1DEC64F0640E00016B6F55
:1049F000020E6C6F8E0E6D6F260E6E6F1DEC64F0E6
:104A0000DA0E0001DB6F010EDC6FF90EDD6F250E93
:104A1000DE6F9BC1DFF0E06B1EEC6FF0640E6B6F1E
:104A2000020E6C6FDA0E6D6F010E6E6F1DEC64F08E
:104A3000640E00016B6F020E6C6F8E0E6D6F260E92
:104A40006E6F1DEC64F0DA0E0001DB6F010EDC6F9F
:104A5000F90EDD6F250EDE6F9AC1DFF0E06B1EEC04
:104A60006FF0640E6B6F020E6C6FDA0E6D6F010EDD
:104A70006E6F1DEC64F02BD1640E00016B6F020EA3
:104A80006C6F01018151020D3C0EF324D96E040EAE
:104A9000F420DA6EDECF6DF0DDCF6EF04DEC68F015
:104AA000DA0E0001DB6F010EDC6F700EDD6F260E7B
:104AB000DE6F9EC1DFF09FC1E0F0A0C1E1F0A1C1B7
:104AC000E2F01EEC6FF0640E6B6F020E6C6FDA0E8C
:104AD0006D6F010E6E6F1DEC64F0640E00016B6F64
:104AE000020E6C6F01018151020DAE0EF324D96EDE
:104AF000050EF420DA6EDECF6DF0DDCF6EF01DEC2A
:104B000064F0E5D0640E00016B6F020E6C6FF00E66
:104B10006D6F240E6E6F4DEC68F093C19EF094C1E2
:104B20009FF095C1A0F096C1A1F001EC5FF09EC08E
:104B3000A8F09FC0A9F0A0C0AAF0AB6B7A0EAC6F32
:104B4000440EAD6F51EC50F0A8C0D7F1A9C0D8F118
:104B5000AAC0D9F1DA0EDB6F010EDC6FC90EDD6F72
:104B6000250EDE6FD7C1DFF0D8C1E0F0D9C1E1F08A
:104B70001EEC6FF0640E6B6F020E6C6FDA0E6D6FD1
:104B8000010E6E6F1DEC64F0640E00016B6F020E7F
:104B90006C6FFF0E6D6F250E6E6F1DEC64F097D07D
:104BA000640E00016B6F020E6C6F870E6D6F250E29
:104BB0006E6F4DEC68F00101635115E1640E000168
:104BC0006B6F020E6C6F01018151080D420EF324D0
:104BD000D96E060EF420DA6EDECF6DF0DDCF6EF00A
:104BE0001DEC64F074D0010EE5EC78F0640E6B6F90
:104BF000020E6C6F01018151080D400EF324D96E35
:104C0000060EF420DA6EDECF6DF0DDCF6EF01DEC17
:104C100064F030D0640E00016B6F020E6C6FDB0E1F
:104C20006D6F250E6E6F1DEC64F051D0640E0001A7
:104C30006B6F020E6C6F9F0E6D6F250E6E6F1DEC0D
:104C400064F045D0640E00016B6F020E6C6FA50E10
:104C50006D6F250E6E6F1DEC64F039D0640E00018F
:104C60006B6F020E6C6FAB0E6D6F250E6E6F1DECD1
:104C700064F02DD001016051CDE0010AD7E0030AB4
:104C8000E1E0ECD7000023D00101235101E100D580
:104C9000010A01E128D5030A01E15FD5010A01E11A
:104CA00087D5070A01E1AFD5010A01E1EDD5030A75
:104CB00001E12CD6010A01E16BD60F0A01E1DCD635
:104CC000010A01E11FD7030A01E16AD7DBD79EEC95
:104CD00078F0640E0001816F020E826F6EEF68F053
:104CE000C0D189C0D9FF8AC0DAFFDF5001011F6F30
:104CF000456A4FEC78F00101635104E11E0E00019A
:104D0000F46F1E0C0A0E0001F46F0A0C020E50EC38
:104D100069F0760E6B6F020E6C6F8BC0D9FF8CC082
:104D2000DAFFDECF6DF0DDCF6EF04DEC68F0640E93
:104D300000016B6F020E6C6F20EE02F08B51D926D2
:104D40008C51DA22DECF6DF0DDCF6EF04DEC68F0E5
:104D5000455017E1760E00016B6F020E6C6F440E2A
:104D60006D6F1D0E6E6F1DEC64F0640E00016B6FB5
:104D7000020E6C6F3D0E6D6F1B0E6E6F1DEC64F0BE
:104D800016D0760E00016B6F020E6C6F3D0E6D6FCC
:104D90001B0E6E6F1DEC64F0640E00016B6F020E53
:104DA0006C6F440E6D6F1D0E6E6F1DEC64F0760E11
:104DB00000016B6F020E6C6F20EE04F08B51D92650
:104DC0008C51DA22DECF6DF0DDCF6EF01DEC64F099
:104DD000640E00016B6F020E6C6F20EE06F08B51BB
:104DE000D9268C51DA22DECF6DF0DDCF6EF01DECCE
:104DF00064F05AEC79F00001F42B120001016351C8
:104E000004E1000EF9EC5DF0F6D76029F9EC5DF0F5
:104E1000F2D7456A77D7010E456E0A0E0001F46F8E
:104E20000A0C4FEC78F0090E0101C96F090C010E54
:104E3000636F6483E5EC78F0100EE5EC78F04FECEE
:104E400078F00F0E0001F46F0F0C01015C51010AA4
:104E5000E2E0030ADEE0010AEAE0070AD8A4120051
:104E6000E0D7020E50EC69F0455001E047D7760ECE
:104E70006B6F020E6C6F20EE04F08B51D9268C51B3
:104E8000DA22DECF6DF0DDCF6EF04DEC68F05AEC3B
:104E900079F0100E0001F46F100C130EF46F130C68
:104EA0000201506B516BF40E000136D001016151CB
:104EB000621103E098EC64F09ED7D1EC78F07DECC1
:104EC00072F0E7D7040E01015C190AE14FEC78F0AB
:104ED00001016493100EE5EC78F0090E0101C96F31
:104EE0000201504B512BB00E505D040E51590BE393
:104EF00001016493100EE5EC78F0040EE5EC78F017
:104F0000140E0101C96F010161516211D8A4120090
:104F1000140E0001F46F140C6B6F6C6B000E28EF15
:104F200076F0DBEC78F067D7760E6B6F020E6C6F65
:104F3000750E6D6F250E6E6F4DEC68F0640E0001FE
:104F40006B6F020E6C6F390E6D6F1B0E6E6F4DEC3A
:104F500068F001011F5117E1760E00016B6F020E20
:104F60006C6F3D0E6D6F1B0E6E6F1DEC64F0640E6A
:104F700000016B6F020E6C6F440E6D6F1D0E6E6F35
:104F80001DEC64F016D0760E00016B6F020E6C6F94
:104F9000440E6D6F1D0E6E6F1DEC64F0640E00010B
:104FA0006B6F020E6C6F3D0E6D6F1B0E6E6F1DEC06
:104FB00064F0760E00016B6F020E6C6F010181517F
:104FC000080D680EF324D96E060EF420DA6EDECFDB
:104FD0006DF0DDCF6EF01DEC64F0640E00016B6FC0
:104FE000020E6C6F01018151080D6A0EF324D96E17
:104FF000060EF420DA6EDECF6DF0DDCF6EF01DEC24
:1050000064F05AEC79F0506B516BF5D6F40E84D7FE
:10501000010E1F6F1D0E0001F46F1D0C1F6B1D0E86
:105020000001F46F1D0C3C0EC96F3C0C89C0D9FF08
:105030008AC0DAFF1FC1DFFF1FC163F1010EE5EC7B
:1050400078F0320E0101C96F320C01015C51010A86
:10505000E5E0030ADDE0010AE9E0070AD8A412004E
:10506000E2D7F45101E13DD6090AD0E0030A01E19B
:105070004DD6010A01E1C2D6070AC8E0010A01E1E2
:10508000E4D6020A01E1EDD61F0A01E106D7030AC0
:1050900001E106D7070A01E109D7010A01E112D7A8
:1050A000080AB4E0030A01E13CD7010A01E13CD758
:1050B0003F0AACE0010AC9E0120025C02DF026C06D
:1050C0002EF0BAD189802DC0D9FF2EC0DAFFA20EF2
:1050D000DE6EDD6A000C20EE06F02550D926265043
:1050E000DA22C90EDE6EF50EDE6EC90EDE6EF50E2C
:1050F000DD6E79EC78F02DC0D9FF2EC0DAFFA50E59
:10510000DE6EDD6A060E2524036E000E2620046E78
:10511000B40E056E020E066E040EB6EC43F00009E6
:1051200001E11200899020EE06F02550D926265084
:10513000DA2210EE04F02550E1262650E222DECFDE
:10514000E6FFDDCFE5FF20EE04F02550D9262650FE
:10515000DA22DECF27F0DDCF28F027C028F0276A3B
:10516000296A28502A6E20EE04F02550D9262650B0
:10517000DA22DECF2BF0DDCF2CF02CC02BF02C6A06
:105180002B50291220EE04F02550D9262650DA2281
:1051900029C0DEFF2AC0DDFF20EE04F02550D9260D
:1051A0002650DA22DECF0FF0DDCF10F0B3C111F0C0
:1051B000B4C112F0CC0E146E136EAAEC45F00FC001
:1051C000B3F110C0B4F120EE04F02550D9262650DA
:1051D000DA22B3C1DEFFB4C1DDFF01EC71F020EED5
:1051E0000AF02550D9262650DA2209C0DEFF0AC06F
:1051F000DEFF0BC0DEFF0CC0DEFF20EE0EF0255000
:10520000D9262650DA22430EDE6E0F0EDD6E20EE1A
:105210000EF02550D9262650DA22DECFBAF1DDCFA6
:10522000BBF120EE0AF02550D9262650DA22DECF37
:10523000BCF1DECFBDF1DECFBEF1DECFBFF12DC0C0
:10524000D9FF2EC0DAFFB20EDE6EDD6A20EE0AF064
:105250002550D9262650DA22DECF1FF0DECF20F0EF
:10526000DECF21F0DECF22F020EE0EF02550D92641
:105270002650DA22DECF23F0DDCF24F036EC6FF0BB
:10528000000901E1120089802DC0D9FF2EC0DAFF8C
:10529000B50EDE6EDD6A000C20EE06F02550D92634
:1052A0002650DA22F90EDE6EF50EDE6EF90EDE6E97
:1052B000F50EDD6E79EC78F02DC0D9FF2EC0DAFF47
:1052C000B80EDE6EDD6A060E2524036E000E262063
:1052D000046EB40E056E020E066E040EB6EC43F0BC
:1052E000000901E11200899020EE06F02550D92630
:1052F0002650DA2210EE02F02550E1262650E22256
:10530000DECFE6FFDDCFE5FF20EE02F02550D92607
:105310002650DA22DECF27F0DDCF28F027C028F094
:10532000276A296A28502A6E20EE02F02550D926D5
:105330002650DA22DECF2BF0DDCF2CF02CC02BF064
:105340002C6A2B50291220EE02F02550D926265027
:10535000DA2229C0DEFF2AC0DDFF20EE02F0255050
:10536000D9262650DA22DECF0FF0DDCF10F0B1C102
:1053700011F0B2C112F0260E146E660E136EAAEC76
:1053800045F00FC0B1F110C0B2F120EE02F025508F
:10539000D9262650DA22B1C1DEFFB2C1DDFF01EC11
:1053A00071F020EE0AF02550D9262650DA2209C0E5
:1053B000DEFF0AC0DEFF0BC0DEFF0CC0DEFF20EE0A
:1053C0000EF02550D9262650DA22430EDE6E0F0E3F
:1053D000DD6E20EE04F02550D9262650DA22010E8B
:1053E000DBAE05D0500EDE5CC90EDE580EE30101C7
:1053F000598134C1D9FF35C1DAFF10EE0DF0DE500E
:10540000E126DD50E222E7920FD00101599134C12B
:10541000D9FF35C1DAFF10EE0DF0DE50E126DD5088
:10542000E222E782599759952DC0D9FF2EC0DAFFA5
:10543000010EDE6EDD6A000C2DC0D9FF2EC0DAFF32
:10544000DECF27F0DDCF28F0285001E03BD62750F3
:10545000010AD8B41200A30A01E13DD6070A01E10E
:1054600051D6170A01E1F2D6070A01E115D70D0A54
:1054700001E129D727D60201524B532B280E52198E
:1054800003E1230E5319D8A459D1140E0101C96F99
:105490004AEC31F00101925190EC6CF00101905115
:1054A00079EC6BF04BD14FEC78F00001F26B01011D
:1054B000266B010EC96F010C5A6A5A0E00019B6FD0
:1054C00084EC35F0060E0101C96F060C5A0E00017E
:1054D0009B6F84EC35F05A50D8A41200070E0101DE
:1054E000C96F070C000EF0EC77F00009D8B4120079
:1054F000080EC96F0201526B536B12001E0EC96F6A
:105500000001F46B12000001F25106E0F207010104
:10551000260502E10101266B090E0101C96F090C84
:105520000F0E0001F261F8D7F22B01012651F4E1D0
:10553000010E0101266FF0D7140EC96F140C5C51D7
:10554000010AEEE0030ADFE0010AD8E0070AD8A466
:105550001200F2D75A6A5A0E00019B6F84EC35F0A4
:105560000A0E0101C96F0A0C5A0E00019B6F84ECF0
:1055700035F05A50D8A412000B0E0101C96F0B0C64
:10558000000EF0EC77F0000902E00C0EC96F5DA18F
:1055900012005C0504E0020E5C19D8A412000C0E87
:1055A000C96F0C0C0201526B536B080E0101C96FDD
:1055B000080C4FEC78F0150E0101C96F150C000EA8
:1055C000F0EC77F00009D8B41200160EC96F160C73
:1055D0000001F26B01015999236B040EE5EC78F0A0
:1055E0000101825103E1256BC96B1200820528E19C
:1055F000E0EC78F001018151040D140EF324D96E12
:10560000050EF420DA6EDECF81F0DDCF82F0C0EC43
:1056100064F09EEC78F001018151040D160EF32424
:10562000D96E050EF420DA6EDECF81F0DDCF82F088
:10563000C0EC64F09A0E0101206F170EC96F170CB1
:10564000000012000A0E00016F6F01012051ABEC47
:105650006CF0796F7A6B7B6B010E7C6F32EC43F0F0
:105660000101205102E0200702D0180EC96FFAECA8
:105670006DF0B0B102D00E9102D001010E8159A19E
:1056800002D00F8102D001010F91895104E10E85F2
:105690000E930E8703D00E850E830E9765EC5EF099
:1056A0007DEC72F001015C51D8B41200190EC96F83
:1056B000190CF8EC77F0256BC96B1200E8EC77F069
:1056C0001A0E0101C96F1A0C9EEC78F0010181518C
:1056D000020DD00EF324D96E020EF420DA6EDECF66
:1056E00081F0DDCF82F0C0EC64F01B0E0101C96FC8
:1056F000000EF0EC77F00009D8B41200180EC96F54
:10570000180C0E0E0001F21901E112D703D74FEC6D
:1057100078F00101C92B1200000E49EC63F0460E2F
:105720000101C96F460C010E49EC63F0F8D7246BF8
:10573000F0D7242B130E2465130CEED60101C951AA
:1057400001E1B1D6010A01E1B7D6070A01E1BED6EF
:10575000010A01E1C7D60F0A01E1F1D6010A01E110
:10576000F9D6030A01E100D7010A01E109D7070AC6
:1057700001E118D7180A01E11CD7010A01E11FD77E
:10578000030A01E125D7010A01E15CD70F0A91E084
:10579000010A94E0030A98E0010AAAE0050A02E17E
:1057A00096EF2EF03E0AADE0120AB1E0010AB4E035
:1057B0000F0AADE0010AB7E07B0AB9E0010AB9E0DF
:1057C00012000001EE6F7DD183C158F084C159F001
:1057D00087C156F088C157F085C154F086C155F095
:1057E000DBEC78F0030E0001F46F030C5DB308D01E
:1057F00000016C6B0A0E6B6FEE51ADEC42F007D0FE
:1058000000016C6B320E6B6FEE51ADEC42F000019B
:10581000F42B12005DB308D000016C69F60E6B6FBB
:10582000EE51ADEC42F0F3D700016C69CE0E6B6F18
:10583000EE51ADEC42F0EBD73C0EC96F3C0C58C0BA
:1058400083F159C084F156C087F157C088F154C024
:1058500085F155C086F1320EC96F320C01015C51E1
:10586000010AD8E0030AC2E0010AE9E0070AD8A465
:105870001200E2D7BAEC76F0020E50EC69F068D074
:10588000760E6B6F020E6C6F01018151040D7A0E62
:10589000F324D96E050EF420DA6EDECF6DF0DDCF85
:1058A0006EF04DEC68F058C071F059C072F0000114
:1058B000746B0A0E736F81EC5BF071C0ECF072C018
:1058C000EDF0ECC079F0EDC07AF0030E7B6F010EC5
:1058D0007C6F32EC43F042D0760E6B6F020E6C6F31
:1058E00001018151040D2A0EF324D96E060EF42015
:1058F000DA6EDECF6DF0DDCF6EF04DEC68F054C0A7
:1059000071F055C072F00001746B0A0E736F81EC78
:105910005BF0D3D7760E6B6F020E6C6F0101815175
:10592000040D160EF324D96E060EF420DA6EDECFC7
:105930006DF0DDCF6EF04DEC68F056C071F057C0E1
:1059400072F00001746B0A0E736F81EC5BF0B5D7D7
:10595000EE5196E0010AC0E0030ADCE07DEC72F053
:10596000E0EC78F054D7760E816F020E826F6EEC09
:1059700068F09EEC78F07ED0640E6B6F020E6C6F58
:10598000770E6D6F260E6E6F4DEC68F0640E0001A1
:10599000E86F020EE96F540EEA6FEB6B0AEC59F0F8
:1059A000640E00016B6F020E6C6F380E6D6F260E69
:1059B0006E6F1DEC64F0640E0001E86F020EE96F7B
:1059C000560EEA6FEB6B0AEC59F021D7640E6B6F41
:1059D000020E6C6F3D0E6D6F260E6E6F4DEC68F013
:1059E000640E0001E86F020EE96F580EEA6FEB6B70
:1059F0000AEC59F0640E00016B6F020E6C6F380EEA
:105A00006D6F260E6E6F1DEC64F0640E0001E86F82
:105A1000020EE96F560EEA6FEB6B0AEC59F0F7D6FF
:105A2000640E6B6F020E6C6F770E6D6F260E6E6FCD
:105A30004DEC68F0640E0001E86F020EE96F540E41
:105A4000EA6FEB6B0AEC59F0640E00016B6F020E0B
:105A50006C6F3C0E6D6F260E6E6F1DEC64F0640E65
:105A60000001E86F020EE96F580EEA6FEB6B0AEC6B
:105A700059F0CDD60001EE5101E17ED7010AA6E032
:105A8000030ACEE0C4D6640E816F020E826F6EEC04
:105A900068F0BDD6F40E6B6F6C6B000E28EC76F0E0
:105AA0005DA104D05C0502E10001F42B01015DA1C0
:105AB0001200020E5C1901E1AAD61200020EF46F68
:105AC000020C0001F45101E17FD6020A01E1C6D6C1
:105AD000010A01E1CFD6070A01E145D7010AD3E067
:105AE000030AD8E0010AEAE0120020D1820E9B6F7F
:105AF000010E9C6F01018151080D780EF324000105
:105B00009D6F070EC6D0000EE1EF2BF00101B051E2
:105B1000010ED8A4000EB06FB00E00019B6F010EF5
:105B20009C6F01018151080D640EF32400019D6FEB
:105B3000060EF4209E6FC8EC2EF00101B051010E4C
:105B4000D8A4000EB06FB0B102D05F9102D00101B5
:105B50005F811200020EE1EF2BF0010EE1EF2BF05E
:105B600001018951010ED8A4000E896F890E000130
:105B70009B6F010E9C6F01018151080D500EF324A3
:105B800000019D6F070EF4209E6FC8EC2EF00101FE
:105B90008951010ED8A4000E896F89B102D05893A3
:105BA00002D001015883090EC919D8A4120020EEB1
:105BB00002F03451D9263551DA2210EE0FF0DE50C2
:105BC000E126DD50E222895198EC78F0E76E120070
:105BD00001018151040DB40EF3240001826F060E01
:105BE000F420836F8C0E846F010E0DD00101815162
:105BF000040DA00EF3240001826F060EF420836FC3
:105C00008E0E846F010E856F876B3C0E866F896BDD
:105C1000010E886F8B6B8A6F8D6B050E8C6F8E6B90
:105C2000010E8F6F906F84EF33F091C1CCF20201BF
:105C3000CD6B01018151040D8C0EF3240001826FA4
:105C4000060EF420836FCC0E846F020E856F876B77
:105C5000640E866F896B140E886F8B6B8A6F8D6BE9
:105C60008C6F8E6B010E8F6F906F84EC33F0CCC213
:105C700091F101019151ECEF6BF08A0E9B6F010ED7
:105C80009C6F01018151080D280EF32400019D6FC6
:105C9000070EF4209E6FC8EF2EF001018B51010E0C
:105CA000D8A4000E8B6F8B0E00019B6F010E9C6FB2
:105CB00001018151080D3C0EF32400019D6F060E79
:105CC000F4209E6FC8EC2EF001018B51010ED8A478
:105CD000000E8B6F090EC919D8A412008BB102D027
:105CE0008C9601D08C861200630E896F010E8A6F2C
:105CF00001018151080D000EF32400018B6F070E86
:105D0000F4208C6F70EF26F0810E716F010E726FB0
:105D1000010181510E0DA00EF3240001736F090ED5
:105D2000F420746F050E756F7EEF36F00001F251AE
:105D300001E1DCD6010A01E1E6D6030A01E1E6D67B
:105D4000010A01E107D7070A01E107D7010A01E1CA
:105D500007D7030A01E13CD7010A01E147D70F0A3F
:105D600001E163D7010A02E189EF4BF0030A02E186
:105D700051EF3CF0010A02E125EF42F0070A01E190
:105D80007CD7010A8AE0030AAFE0010ABDE01200F5
:105D90000201246B24D19BC0D9FF9CC0DAFFDF50E5
:105DA000426EDBEC78F0030E0001F46F030C42044A
:105DB00001E1426A0001F42B12004250FBE1010EA6
:105DC000426EF8D73C0EC96F3C0C0001F25109E15C
:105DD000420407E101015EB304D0140E0001F46F28
:105DE000140C9BC0D9FF9CC0DAFF42C0DFFF320E0B
:105DF0000101C96F320C01015C51010ADEE0030AA6
:105E0000D6E0010AE2E0070AD8A41200DBD7BFEC13
:105E100079F00009D8B41200760E6B6F020E6C6F29
:105E20009DC0D9FF9EC0DAFFDECF6DF0DDCF6EF0F2
:105E30004DEC68F0640E00016B6F020E6C6F20EE8B
:105E400002F09D51D9269E51DA22DECF6DF0DDCFD2
:105E50006EF04DEC68F0425017E1760E00016B6F6A
:105E6000020E6C6F440E6D6F1D0E6E6F1DEC64F0B4
:105E7000640E00016B6F020E6C6F3D0E6D6F1B0E9A
:105E80006E6F1DEC64F016D0760E00016B6F020E83
:105E90006C6F3D0E6D6F1B0E6E6F1DEC64F0640E2B
:105EA00000016B6F020E6C6F440E6D6F1D0E6E6FF6
:105EB0001DEC64F0760E00016B6F020E6C6F20EE2D
:105EC00004F09D51D9269E51DA22DECF6DF0DDCF50
:105ED0006EF01DEC64F0640E00016B6F020E6C6FCF
:105EE00020EE06F09D51D9269E51DA22DECF6DF0CC
:105EF000DDCF6EF01DEC64F05AEC79F05BD7E0EC8E
:105F000071F00009D8B4120045D0020EF46F020CF3
:105F1000000E6B6F090E6C6F01018151020D320E84
:105F2000F324D96E040EF420DA6EDECF6DF0DDCFEF
:105F30006EF04DEC68F0E8EC77F03CD7E0EC78F0F0
:105F400001018151020D1E0EF324D96E040EF420BE
:105F5000DA6EDECF81F0DDCF82F0C0EC64F02AD7BC
:105F60009EEC78F001018151020D280EF324D96EC8
:105F7000040EF420DA6EDECF81F0DDCF82F0C0ECCB
:105F800064F0010E0201286F080E296F010E5EEC0D
:105F900077F010D7F40E6B6F6C6B000E28EF76F075
:105FA0001B0EF46F1B0C000E5EEC77F09BC0D9FF4C
:105FB0009CC0DAFF42C0DFFF320E04D0000E5EEC60
:105FC00077F03C0E0101C96F06D001015C51030A54
:105FD000EAE0070AF3E0180E0001F46F180C000164
:105FE000F45101E1D8D6020A01E105D7010A01E125
:105FF0000ED7070A84E0010A88E0110A89E0010A45
:106000009DE0030AADE0010AC5E00F0AC9E0010AFC
:10601000C7E0020ADAE01200F4EC78F06BC0C3F1DA
:106020006CC0C4F1010159A1B4D059955997FDD85C
:10603000D7D8E796FAD8D4D8E794F00E0001C06F0D
:10604000E10EC16F410EC26F07D9E1EC6CF010D9BF
:10605000FE0E7C6FE80E7D6F3A0E7E6F4FEC4CF0BB
:10606000C6D8C2EC3FF00BD9F7D8E1EC6CF000D900
:10607000F3D8E1EC6CF0F5D84FEC4CF079C0BDF002
:10608000C9D8460E7C6FDE0E7D6FB20E7E6F4FEC70
:106090004CF0ADD8C2EC3FF0F2D8DED8E1EC6CF0B9
:1060A000E7D8DAD8E1EC6CF0DCD84FEC4CF079C0F2
:1060B000BDF0B0D8D1D8E1EC6CF0D3D84FEC4CF0B7
:1060C00079C0BDF0A7D86D0E7C6FA00E7D6F2B0E32
:1060D0007E6F4FEC4CF08BD8C2EC3FF0D0D8C0C0F4
:1060E00079F0C1C07AF0C2C07BF07C6B200E7D6F6E
:1060F000410E7E6F4FEC4CF079C0C0F07AC0C1F019
:106100007BC0C2F0C0C0B7F0C1C0B8F0C2C0B9F027
:1061100045EC5BF094D885EC4EF08FC075F190C0E3
:1061200076F183D810EE06F085D875C1E6FF76C10A
:10613000E5FFC0C0A8F0C1C0A9F0C2C0AAF0AB6B17
:10614000200EAC6F410EAD6F51EC50F0A8C0B7F00F
:10615000A9C0B8F0AAC0B9F045EC5BF070D885ECE6
:106160004EF08FC073F190C074F1010174BF0AD07A
:10617000745103E1330E735D05E3598556D830D869
:10618000E78611D074AF0FD059874FD829D8E7844C
:106190000AD0746B140E736F48D810EE06F04AD80C
:1061A000C80EE66EE56ABCEC60F000016E6B120E84
:1061B0006D6FA3EC72F06BC077F16CC078F177C1B2
:1061C00071F078C172F062D881EC5BF071C077F148
:1061D00072C078F1200E01017727000E7823000CA1
:1061E00010EE0DF0DE50E126DD50E222120079C003
:1061F000BDF07AC0BEF07BC0BFF0C0C092F0C1C09D
:1062000093F0C2C094F0BDC095F0BEC096F0BFC080
:1062100097F012007AC0BEF07BC0BFF0BDC079F02D
:10622000BEC07AF0BFC07BF0120034C1D9FF35C1C7
:10623000DAFF1200DE50E126DD50E2221200B7C084
:10624000C0F0B8C0C1F0B9C0C2F0C0C08FF0C1C0CA
:1062500090F0C2C091F01200C3C173F0C4C174F0D9
:10626000120073C07CF074C07DF075C07EF0120027
:1062700073C079F074C07AF075C07BF0120092C0E0
:10628000C0F093C0C1F094C0C2F01200746B0A0E4B
:10629000736F0A0C820E00016D6F010E6E6F2FEC92
:1062A00023F013EC6EF0B00E6D6F010E6E6F706B1D
:1062B0003DEC23F013EC6EF0830E6D6F010E6E6FEC
:1062C000706B39EC23F013EC6EF0850E6D6F010EE0
:1062D0006E6F706B040E00D913EC6EF0870E6D6F4D
:1062E000010E6E6F706B060EF7D813EC6EF08C0E0D
:1062F0006D6F010E6E6F706B080EEED813EC6EF0C2
:106300008E0E6D6F010E6E6F706B0A0EE5D813EC7A
:106310006EF0900E6D6F010E6E6F706B0C0E11ECC7
:1063200023F013EC6EF0920E6D6F010E6E6F706BBA
:106330000D0E11EC23F013EC6EF0890E6D6F010E53
:106340006E6F706B0E0E11EC23F013EC6EF0810E7D
:106350006D6F010E6E6F706B0F0E11EC23F013EC6E
:106360006EF05E0E6D6F010E6E6F706B100E11ECA5
:1063700023F013EC6EF0670E6D6F010E6E6F706B95
:10638000110E27EC23F013EC6EF06B0E6D6F010E07
:106390006E6F706B150E27EC23F013EC6EF06F0E22
:1063A0006D6F010E6E6F706B190E27EC23F013ECFE
:1063B0006EF0980E6D6F010E6E6F706B1D0E8CD8A7
:1063C00013EC6EF09A0E6D6F010E6E6F706B1F0EF8
:1063D00011EC23F013EC6EF09B0E6D6F010E6E6FDF
:1063E000706B200E11EC23F013EC6EF09C0E6D6FB1
:1063F000010E6E6F706B210E6FD813EC6EF08A0E6B
:106400006D6F010E6E6F706B230E11EC23F013ECA9
:106410006EF08B0E6D6F010E6E6F706B240E11ECB3
:1064200023F013EC6EF09E0E6D6F010E6E6F706BAD
:10643000250E27EC23F013EC6EF0630E6D6F010E4A
:106440006E6F706B290E11EC23F013EC6EF05F0E83
:106450006D6F010E6E6F706B2A0E11EC23F013EC52
:106460006EF03B0E6D6F010E6E6F706B2B0E34D89D
:1064700013EC6EF0450E6D6F010E6E6F706B2D0E8E
:106480002BD813EC6EF04F0E6D6F010E6E6F706BAC
:106490002F0E22D813EC6EF04B0E6D6F010E20D82C
:1064A0001BD813EC6EF04BC141F14CC142F14BC112
:1064B00055F14CC156F1910E6D6F010E6E6F706B00
:1064C000330E11EC23F013EC6EF07D0E6D6F010EA8
:1064D00007D802D813EF6EF06F6F020E716F020CC7
:1064E0006E6F706B310C06C1D9FF07C1DAFFDECFCA
:1064F000F7F1DDCFF8F101D80AD00500FA6E0101FD
:10650000F751FD6EF851FE6EFF6AFA5012006BC033
:10651000F1F56CC0F2F50501F151F21139E002011B
:1065200040510501F11934E1020141510501F2190F
:106530002FE1000E00016D6F0B0E6E6F706B800E01
:106540006F6F010120EE02F00651D6D801D809D0B4
:106550000500FA6EF751FD6EF851FE6EFF6AFA50B3
:1065600012006DC0EDF56EC0EEF5000E0101CA6FB0
:106570000B0ECB6FEDC5CCF1EEC5CDF1000ECE6F9D
:106580000C0ECF6F010ED16F000ED06F33EC45F0C3
:10659000F1C540F2F2C541F22EC281F02FC282F065
:1065A00030C283F031C284F002012E2B000E2F2363
:1065B0003023312381C078F082C079F083C07AF033
:1065C00084C07BF032C27CF033C27DF034C27EF0F6
:1065D00035C27FF09AEC5FF0785179117A117B1116
:1065E00001E002D0010E01D0000E00092CE0000EE7
:1065F0007C6F0C0E7D6F010E7F6F7E6B83EC70F0F5
:106600007CC0EFF57DC0F0F5000E6C6F0C0E6D6F69
:10661000EFC56EF0F0C56FF0010120EE04F00651F9
:106620006BD801D809D00500FA6EF751FD6EF8510C
:10663000FE6EFF6AFA5012003F5004E001D002D013
:10664000408001D040906B6B3F5008E001D006D0F5
:1066500040A004D001D002D0010E6B6F6B51000935
:106660004AE001D0010C40307F0BAF6F040EAF65E4
:1066700038D001D036D03FA605D001D003D0B5EC3C
:1066800079F03F963FA007D001D005D001016351BA
:10669000AFEC6DF03F903FA205D001D003D02CECC1
:1066A00078F03F923FA405D001D003D0B3EC79F04D
:1066B0003F943FA80CD001D00AD0010164B301D0AF
:1066C00002D0010E01D0000EE9EC76F03F983FAA0F
:1066D00005D001D003D0B7EC79F03F9A4090010E7D
:1066E000401640307F0BAF6FAF2BAF374050AF1924
:1066F000010BAF19406E010CD9260751DA22DECF0B
:10670000F7F1DDCFF8F11200F4D084C0D9FF85C0D5
:10671000DAFFDECF0CF1DDCF0DF1DBEC78F000011C
:10672000F42B1200760E6B6F020E6C6F82C0D9FFD5
:1067300083C0DAFFDECF6DF0DDCF6EF04DEC68F098
:10674000640E00016B6F020E6C6F20EE02F082513E
:10675000D9268351DA22DECF6DF0DDCF6EF04DEC1D
:1067600068F05AEC79F0030E0001F46F030C5DB38E
:106770001FD000018A51865D916F8B518759926FAE
:1067800001010C510001915D9251800A936F01014A
:106790000D51800A0001935906E38A5101010C272B
:1067A00000018B511ED086C00CF187C00DF1B7D708
:1067B00000018C51865D916F8D518759926F010157
:1067C0000C510001915D9251800A936F01010D51AE
:1067D000800A00019359E7E38C5101010C27000165
:1067E0008D5101010D239BD75DB31DD000018A514E
:1067F0008825916F8B518921926F915101010C5D18
:106800000D51800A0001936F9251800A935906E35B
:106810008A5101010C5F00018B511CD088C00CF122
:1068200089C00DF17CD700018C518825916F8D5165
:106830008921926F915101010C5D0D51800A000177
:10684000936F9251800A9359E9E38C5101010C5FD7
:1068500000018D5101010D5B62D73C0EC96F3C0CEC
:1068600084C0D9FF85C0DAFF0CC1DEFF0DC1DDFF9A
:10687000320EC96F320C01015C51010AB5E0030A06
:1068800001E175D7010AECE0070AD8A41200E5D7A8
:106890000CC171F00DC172F090C073F0746B81EC9B
:1068A0005BF071C094F072C095F094C079F095C01F
:1068B0007AF08EC07BF08FC07CF032EC43F07DEC40
:1068C00072F02DD7F40E6B6F6C6B000E28EC76F027
:1068D0005DA104D05C0502E10001F42B01015DA182
:1068E0001200020E5C1901E11AD71200020EF46FB9
:1068F000020CF45101E109D7010A01E113D7030A9F
:10690000BAE0010AC5E0070ADDE0010AEFE0120083
:106910008E6F00018EAF4BD08E6D8E51800A120F9C
:1069200025E3E3D8D0D86BBF6C0799EC5EF0E7D8CD
:1069300081EC5BF0D6D881D8746B640EDBD871BF64
:10694000720781EC5BF07151120F030DD10EFBEC5D
:1069500041F04FEC4CF096D86BBF6C0799EC5EF0B1
:106960006B51030D6AD84FEC4CF09FD08E51800ACA
:10697000750F16E3746B0A0EBDD871BF720781ECF8
:106980005BF0AFD8D10EFBEC41F096D86BBF6C0733
:1069900099EC5EF06B51030D50D84FEC4CF085D064
:1069A0008E51030DD10EF324D96E0A0E91D08E5163
:1069B000800A120F25E399D886D86BBF6C0799EC33
:1069C0005EF09DD881EC5BF07151090F55D842D82B
:1069D000746B640E8FD871BF720781EC5BF07151DC
:1069E000120F4AD840D84FEC4CF04CD86BBF6C0714
:1069F00099EC5EF06B5140D82DD84FEC4CF055D04F
:106A00008E51800A750F16E3746B0A0E73D871BF2E
:106A1000720781EC5BF07151090F2ED824D84CD845
:106A20006BBF6C0799EC5EF06B5126D813D84FEC16
:106A30004CF03BD08E5120D84BD0D10EF324D96EE0
:106A40000A0EF420DA6EDECF7CF0DECF7DF0DDCFF3
:106A50007EF01200F420DA6EDECF7CF0DECF7DF027
:106A6000DDCF7EF01200F420DA6EDECF79F0DECFDB
:106A70007AF0DDCF7BF01200030DAA0EF324D96E5D
:106A80000A0E120079C08BF07AC08CF07BC08DF0BA
:106A90008BC079F08CC07AF08DC07BF06E6B0A0EE3
:106AA0006D6F8E516B6F6C6B120079C088F07AC07D
:106AB00089F07BC08AF012006E6B0A0E6D6F8E51EA
:106AC0006B6F6C6B12006D6F8E516B6F6C6B120085
:106AD000F420DA6EDECF88F0DECF89F0DDCF8AF0E9
:106AE00012007151090F030D1200746B0A0E736FBF
:106AF0006E6B640C736F8E51716F726B12006BC092
:106B000071F06CC072F01200F0D0020E50EC69F01F
:106B1000760E6B6F020E6C6F01018151040D3C0EFD
:106B2000F324D96E050EF420DA6EDECF6DF0DDCFE2
:106B30006EF04DEC68F0640E00016B6F020E6C6F2E
:106B400001018151040D3E0EF324D96E050EF4208F
:106B5000DA6EDECF6DF0DDCF6EF04DEC68F0010146
:106B6000265159E1760E00016B6F020E6C6F440ED8
:106B70006D6F1D0E6E6F1DEC64F0640E00016B6F87
:106B8000020E6C6F3D0E6D6F1B0E6E6F1DEC64F090
:106B9000760E00016B6F020E6C6FF251020DF3CF97
:106BA0009CF0F4CF9DF001018151220D000EF324E1
:106BB00000019E6F0A0EF4209F6F9C519E25D96E96
:106BC0009D519F21DA6EDECF6DF0DDCF6EF01DECB2
:106BD00064F0640E00016B6F020E6C6FF2519C6FDB
